:100000000C9434000C943E000C943E000C943E0082
:100010000C943E000C943E000C943E000C943E0068
:100020000C943E000C943E000C943E000C943E0058
:100030000C943E000C943E000C943E000C943E0048
:100040000C943E000C943E000C943E000C943E0038
:100050000C943E000C943E000C943E000C943E0028
:100060000C943E000C943E0011241FBECFEFD8E04C
:10007000DEBFCDBF0E942A010C9472010C940000D7
:10008000782F84E48093BC008091BC0087FFFCCF74
:100090008091BB007093BB0084EC8093BC00809186
:1000A000BC0087FFFCCF6093BB0084EC8093BC0056
:1000B0008091BC0087FFFCCFFA0120E030E0472FA1
:1000C00050E0BA0161507040A4EC94E818C08081FF
:1000D0002617370749F48093BB009093BC008091AA
:1000E000BC0087FFFCCF08C08093BB00A093BC007E
:1000F0008091BC0087FFFCCF2F5F3F4F31962417C4
:1001000035072CF380E88093BC000895DF93CF93EC
:1001100000D000D0CDB7DEB74C81FB815A81E98198
:1001200020E030E02130310581F02230310524F427
:100130002115310541F00EC02230310541F0233048
:10014000310541F406C0E82F05C0592F03C0F62F32
:1001500001C0472F2F5F3F4F2430310519F74C83E3
:10016000FB835A83E98384E064E0AE014F5F5F4F15
:100170000E9440000F900F900F900F90CF91DF9151
:1001800008958093BB0084EC8093BC008091BC00F8
:1001900087FFFCCF08958093BB0084E88093BC0068
:1001A0008091BC0087FFFCCF089570938500609319
:1001B000840080938100B09BFECFB09A10928100A2
:1001C0000895EF92FF921F93CF93DF937C010097E6
:1001D00011F09C010DC08FEE93E00E945C01182F7E
:1001E0008EEE93E00E945C01312F20E0280F311D3C
:1001F000E901D695C795D695C795C90153E096955F
:1002000087955A95E1F7C827D927C227D327C9016F
:1002100045E0969587954A95E1F7C827D927DD27C8
:10022000C695D795CC2736952795C22BD32BEF288B
:1002300051F48FEE93E06D2F0E9464018EEE93E0F7
:100240006C2F0E946401CE01DF91CF911F91FF902E
:10025000EF90089580E88093610081E080936100D1
:10026000A89584B7877F84BF809160008861809360
:1002700060001092600085B78F7E85BF14B817B8F4
:100280001AB88FEF85B988B98BB982E08093BA002C
:1002900080917C00806480937C0080E090E00E94EC
:1002A000E100BC01660F771F0E94860085E062EFC7
:1002B0007CEF0E94D500F1CFF999FECF92BD81BDB0
:1002C000F89A992780B50895262FF999FECF1FBA7D
:1002D00092BD81BD20BD0FB6F894FA9AF99A0FBE6F
:0802E00001960895F894FFCF88
:00000001FF
