:100000000C9434000C9451000C9451000C94510049
:100010000C9451000C9451000C9451000C9451001C
:100020000C9451000C9451000C9451000C9451000C
:100030000C9451000C9451000C9451000C945100FC
:100040000C9451000C9451000C9451000C945100EC
:100050000C9451000C9451000C9451000C945100DC
:100060000C9451000C94510011241FBECFEFD4E02A
:10007000DEBFCDBF13E0A0E0B1E0E8E8FBE102C0E5
:1000800005900D92A23BB107D9F713E0A2EBB3E0C4
:1000900001C01D92A73BB107E1F70E944B0B0C94E6
:1000A000C20D0C940000E1ECF0E010828093C500DA
:1000B0006093C40082E08093C00088E1808386E082
:1000C0008093C200089520E030E003C000002F5F5D
:1000D0003F4F82179307D4F7089566BD85BDA89B4F
:1000E000FECFA89A15BC08950F931F93CF93DF936B
:1000F0008C01C0E0D0E005C085E062EB0E946D009D
:100100002196C017D107C4F3DF91CF911F910F91B2
:100110000895EEE6F0E090819160908366BD85BD24
:100120000895EFE6F0E080818160808382E0809333
:100130008100089570938500609384009FEF96BBC3
:1001400080938100B09BFECFB09A109281000895F9
:10015000EFE6F0E09081916090837093850060936A
:1001600084008093810008956093B2008093B10071
:10017000B89BFECFB89A1092B100089584E48093A2
:10018000BC008091BC0087FFFCCF8091BB00109227
:10019000BB0084EC8093BC008091BC0087FFFCCF47
:1001A00086E48093BB0084E88093BC008091BC000F
:1001B00087FFFCCF84E88093BC008091BC00816401
:1001C0008093BC0008958091C00087FFFCCF089504
:1001D0008091C00087FFFCCF8091C6000895809178
:1001E000C6000895982F20E030E00EC02F5F3F4FEB
:1001F0008FE12134380724F09150A89520E030E0B9
:10020000992311F480E008958091C00087FFEECF1C
:1002100081E008958091C00087FFFCCF8091C600E7
:100220008D3011F08A3051F481E00E94F200882371
:1002300011F48DE008958091C6008DE0089585E069
:100240000E94F200813019F48091C600F8CF089521
:10025000982F8091C00085FFFCCF9093C600089531
:10026000AC0120E030E0FA01E20FF31FE081EE2361
:1002700059F02F5F3F4F8091C00085FFFCCFE09386
:10028000C600283C310579F7089580E091E00E948E
:10029000300108951F931EE285E00E94F200813034
:1002A00049F48091C6008091C00085FFFCCF109377
:1002B000C600F2CF0E9445011F9108952F923F92F0
:1002C0004F925F926F927F928F929F92AF92BF9266
:1002D000CF92DF92EF92FF920F931F93CF93DF9312
:1002E000EC015A016B01403080E0580780E068075C
:1002F00080E8780751F52A3021F0203109F06CC0F0
:1003000014C028E3288394E3998386E38A8383E3F4
:100310008B832C839D8387E38E839F8381E38887F0
:1003200082E389878DE28A870EC080E38883898390
:100330008A838B838C838D838E8388E38F838DE286
:10034000888719861A861B8647C080E090E0FE01E8
:10035000E80FF91F108201968C309105C1F78601D4
:100360007501D7FE07C0EE24FF248701EA18FB08B9
:100370000C091D094E0166247724222E33244424BF
:100380005524C801B701A20191010E947D0DF4011D
:1003900060836A3010F4605D02C0695CF4016083C0
:1003A0000894611C711CC801B701A20191010E944F
:1003B0007D0DC901DA017C018D010894811C911C1D
:1003C0001E141F0410061106E4F2D7FE05C06C0EC1
:1003D0007D1E8DE2F3018083DF91CF911F910F91FC
:1003E000FF90EF90DF90CF90BF90AF909F908F9055
:1003F0007F906F905F904F903F902F900895AC0149
:1004000020E030E002C02F5F3F4FFA01E20FF31F00
:1004100080818823C1F721503040FA01E20FF31F99
:100420002F5F3F4F0AC090818091C00085FFFCCFB5
:100430009093C6002150304031972115310599F72E
:1004400008950F931F93DF93CF93CDB7DEB72C970B
:100450000FB6F894DEBF0FBECDBF282F8E010F5F01
:100460001F4FC8010E945E01C8010E94FF012C9627
:100470000FB6F894DEBF0FBECDBFCF91DF911F91B5
:100480000F91089590E080538A3008F491E0892F0D
:100490000895803328F08A3328F08154863010F094
:1004A00080E0089581E008951F93182F87FF10C002
:1004B00083E091E00E943001412F552747FD509580
:1004C000509541955F4F662757FD6095762F0AC07E
:1004D00087E091E00E943001412F552747FD50955C
:1004E000652F752F8AE00E9421021F910895AF9217
:1004F000BF92CF92DF92EF92FF920F931F93CF9311
:10050000DF937A018B0160E070E0FC01E60FF71FDA
:1005100010826F5F7F4F6C307105B9F7EC01A22E2E
:10052000BB24CC24DD24C801B701A60195010E949B
:100530005B0D68836A3010F4605D01C0695C68839C
:10054000C801B701A60195010E945B0DC901DA013E
:100550007C018D012196E114F1040105110519F7C3
:10056000DF91CF911F910F91FF90EF90DF90CF908F
:10057000BF90AF9008950F931F93DF93CF93CDB7A4
:10058000DEB72C970FB6F894DEBF0FBECDBF282F75
:100590008E010F5F1F4FC8010E947702C8010E94A1
:1005A000FF012C960FB6F894DEBF0FBECDBFCF91E2
:1005B000DF911F910F910895AF92BF92CF92DF927A
:1005C000EF92FF920F931F93CF93DF935A010196FF
:1005D000689F7001699FF00C789FF00C11240197BF
:1005E000689F8001699F100D789F100D112462E0B3
:1005F00070E04CEF5FEF6801C094D09431C02F5F82
:100600003F4FE60FF71FCF01861B970B08171907FF
:10061000B4F7260F371F269FD001279FB00D369FB6
:10062000B00D1124EB01CC0FDD1F9D012C0D3D1DE4
:10063000220F331F2A0D3B1D05C0F901E40FF51FE2
:1006400011821082A60FB71F2C0F3D1FCD01861BF4
:10065000970BE816F9068CF76F5F7F4F42505040BA
:10066000669FC001679F900D769F900D11248E1597
:100670009F0524F4FC0120E030E0C3CFDF91CF914F
:100680001F910F91FF90EF90DF90CF90BF90AF90B0
:100690000895AF92BF92CF92DF92EF92FF920F93A5
:1006A0001F93CF93DF936A010196689F7001699F42
:1006B000F00C789FF00C11240197689F8001699FCE
:1006C000100D789F100D112462E070E0CCEFDFEF89
:1006D0005801A094B0943CC04F5F5F4FF901260FC2
:1006E000371FC901861B970B08171907ACF73197FD
:1006F000E01BF10BEE0FFF1FEC0DFD1D80819181C2
:10070000892B19F1460F571F469FD001479FB00D07
:10071000569FB00D1124AB01440F551F9D012A0DAA
:100720003B1D220F331F2C0D3D1D05C0F901EC0FA1
:10073000FD1F11821082A60FB71F240F351FCD0198
:10074000861B970BE816F9068CF76F5F7F4F229791
:10075000669FC001679F900D769F900D11248E15A6
:100760009F0524F49C0140E050E0B8CFDF91CF9189
:100770001F910F91FF90EF90DF90CF90BF90AF90BF
:1007800008954F925F926F927F928F929F92AF9255
:10079000BF92CF92DF92EF92FF920F931F93DF935E
:1007A000CF93CDB7DEB764970FB6F894DEBF0FBE18
:1007B000CDBF3C01CC24DD24EE24FF244E0108945F
:1007C000811C911C15E1412E512C4C0E5D1E5401D3
:1007D000C7010196F401819391930196E415F50503
:1007E000D1F7C6016AE070E0A4010E94DC0200E0DB
:1007F00010E002C00F5F1F4FF501819191915F01E1
:10080000892BC1F3F801EE0FFF1FE80DF91D0EC093
:10081000208131812230310534F0C301B9010E94B9
:10082000480D892B99F00F5F1F4F32960B30110541
:100830007CF36E147F0444F00894C11CD11C8AE040
:1008400090E0E80EF91EC3CF20E030E0C9016496C5
:100850000FB6F894DEBF0FBECDBFCF91DF911F91D1
:100860000F91FF90EF90DF90CF90BF90AF909F904F
:100870008F907F906F905F904F9008951F9384E4C6
:100880008093BC008091BC0087FFFCCF8091BB00AF
:100890001092BB0084EC8093BC008091BC0087FF69
:1008A000FCCF89E48093BB0084E88093BC008091F6
:1008B000BC0087FFFCCF84E88093BC0084E4809375
:1008C000BC008091BC0087FFFCCF8091BB00E0E0C2
:1008D000F0E020E030E040E050E014EC74E8E33079
:1008E000F10549F47093BC008091BC0087FFFCCFF8
:1008F0006091BB001CC01093BC008091BC0087FFBE
:10090000FCCF6091BB00F7FD16C0E330F10524F089
:10091000E330F10581F40BC0DA01C901860F911DA6
:10092000A11DB11D2227382F492F5A2F04C0260F91
:10093000311D411D511D3196E430F10581F680E8ED
:100940008093BC00B901CA011F910895EF92FF92F4
:100950000F931F93DF93CF930F92CDB7DEB78091A4
:10096000C00087FFFCCF1091C600103308F45AC0B6
:100970001A3328F0812F8154863008F053C00E942A
:1009800045018091C00085FFFCCF1093C6001D3249
:1009900031F48DE28983EE24FF2487010BC0612F9F
:1009A00060536A3008F06750E62EFF2400E010E044
:1009B000EBE2E9830E940A01982F8D30F1F0803339
:1009C000C8F38A3318F081548630A0F78091C000B4
:1009D00085FFFCCF9093C600892F80538A3008F0A2
:1009E000875034E0EE0CFF1C001F111F3A95D1F721
:1009F000E80EF11C011D111DDDCFF981FD3241F41E
:100A000010950095F094E094E11CF11C011D111D5E
:100A1000B701C8010F90CF91DF911F910F91FF9007
:100A2000EF9008951D3209F09ACFA9CFDF92EF928F
:100A3000FF920F931F93DF93CF930F92CDB7DEB743
:100A400020E030E0FC01E20FF31F10822F5F3F4FE8
:100A500028303105B9F78091C00087FFFCCF109195
:100A6000C600012F00530A3010F01D32A1F70E947A
:100A700045018091C00085FFFCCF1093C6001D3258
:100A800031F48DE28983EE24FF24870106C0E02E35
:100A9000FF2400E010E0EBE2E9830E940A01982FB6
:100AA0008D30D9F040EDD42ED80EF9E0FD15A8F325
:100AB0008091C00085FFFCCF9093C600C801B701AC
:100AC0002AE030E040E050E00E94290D7B018C01DB
:100AD000ED0CF11C011D111DE0CF89818D3241F417
:100AE00010950095F094E094E11CF11C011D111D7E
:100AF000B701C8010F90CF91DF911F910F91FF9027
:100B0000EF90DF900895BF92CF92DF92EF92FF9225
:100B10000F931F93CF93DF93AB01BC017B01112790
:100B2000F7FC1095012F20E130E0C1E0D0E0E0E3D8
:100B3000BE2E71E3C72EE0E1F0E060E2D62E215038
:100B40003040CE01022E02C0880F991F0A94E2F7AE
:100B5000AA2797FDA095BA2F8E219F21A023B1230C
:100B60000097A105B10539F08091C00085FFFCCF49
:100B7000C092C60006C08091C00085FFFCCFB09235
:100B8000C600CF01821B930B83709070892B31F4C8
:100B90008091C00085FFFCCFD092C60021153105A1
:100BA00071F6BA0120E130E0E1E0F0E010E3B1E3FA
:100BB00040E250E0A0E221503040CF01022E02C0BE
:100BC000880F991F0A94E2F786239723892B39F01F
:100BD0008091C00085FFFCCFB093C60006C0809115
:100BE000C00085FFFCCF1093C600CA01821B930B87
:100BF00083709070892B31F48091C00085FFFCCF09
:100C0000A093C60021153105B1F6DF91CF911F9158
:100C10000F91FF90EF90DF90CF90BF900895982FA5
:100C200084E48093BC008091BC0087FFFCCF80915E
:100C3000BB001092BB0084EC8093BC008091BC0090
:100C400087FFFCCF9093BB0084E88093BC00809129
:100C5000BC0087FFFCCF80E88093BC000895FF9222
:100C60000F931F938BE091E00E9430018AEF0E9466
:100C7000F2008823B9F38091C6008093B3038235D4
:100C800011F0823779F780E091E00E94300182E52F
:100C90000E940F0682E191E00E94300184E480937B
:100CA000BC008091BC0087FFFCCF8091BB0084EC2E
:100CB0008093BC008091BC0087FFFCCFF090BB000C
:100CC00084EC8093BC008091BC0087FFFCCF9091A6
:100CD000BB0084E88093BC008091BC0087FFFCCF00
:100CE0008091BB00192F00E0080F111D80E8809350
:100CF000BC0087E391E00E9430014F2D50E060E09E
:100D000070E08AE00E9421028EE491E00E943001AE
:100D1000A801662757FD6095762F8AE00E94210280
:100D20000E5E124024F484E691E00E9430011F918F
:100D30000F91FF900895782F84E48093BC008091F8
:100D4000BC0087FFFCCF8091BB007093BB0084EC9C
:100D50008093BC008091BC0087FFFCCF6093BB00F8
:100D600084EC8093BC008091BC0087FFFCCFFA012B
:100D700020E030E0472F50E0BA0161507040A4EC11
:100D800094E818C080812617370749F48093BB0088
:100D90009093BC008091BC0087FFFCCF08C080937B
:100DA000BB00A093BC008091BC0087FFFCCF2F5FED
:100DB0003F4F3196241735072CF380E88093BC0011
:100DC0000895DC01693429F06E3491F06434F9F44B
:100DD0001BC080E090E0FD01E80FF91F1082019632
:100DE00088309105C1F780E38C9388E064E014C0FB
:100DF00080E090E0FD01E80FF91F10820196883035
:100E00009105C1F780E38C9388E062E405C01896F1
:100E10006C93189789E061E4AD010E949B060895E8
:100E2000AC0188E068E00E949B060895FC0182E323
:100E3000878388E067E0AF010E949B060895FC016C
:100E400081E3878388E067E0AF010E949B060895F5
:100E5000AC0188E067E00E949B060895EF92FF9244
:100E60000F931F93DF93CF9300D000D00F92CDB795
:100E7000DEB77B018C01FE01319628E130E0D8011C
:100E8000C701022E04C0B595A795979587950A943A
:100E9000D2F78193285030408FEF283F380779F7F9
:100EA0004D8385E06BE4AE014F5F5F4F0E949B0670
:100EB0000F900F900F900F900F90CF91DF911F9197
:100EC0000F91FF90EF900895DF93CF9300D000D063
:100ED000CDB7DEB7AB01BC01FE01319628E130E0B1
:100EE000DB01CA01022E04C0B595A7959795879599
:100EF0000A94D2F78193285030408FEF283F38076B
:100F000079F784E06AE4AE014F5F5F4F0E949B0671
:100F10000F900F900F900F90CF91DF910895DF9376
:100F2000CF9300D000D0CDB7DEB7AB01BC01FE013E
:100F3000319628E130E0DB01CA01022E04C0B595EC
:100F4000A795979587950A94D2F7819328503040BA
:100F50008FEF283F380779F784E066E0AE014F5FF6
:100F60005F4F0E949B060F900F900F900F90CF91B4
:100F7000DF910895DF93CF930F92CDB7DEB71E991F
:100F800003C081E0898301C0198281E061E5AE017F
:100F90004F5F5F4F0E949B060F90CF91DF910895A6
:100FA000DF93CF9300D0CDB7DEB7982F4A83698304
:100FB00082E0692FAE014F5F5F4F0E949B060F904A
:100FC0000F90CF91DF910895DF93CF9300D0CDB7ED
:100FD000DEB789836A8382E065E0AE014F5F5F4FD1
:100FE0000E949B060F900F90CF91DF910895DF93A1
:100FF000CF9300D0CDB7DEB7982F698381E0692FFA
:10100000AE014F5F5F4F0E949B060F900F90CF91F4
:10101000DF910895982FAB0188E0692F0E949B060D
:101020000895AC0188E067E40E949B060895EF9262
:10103000FF921F93DF93CF93CDB7DEB728970FB6FC
:10104000F894DEBF0FBECDBFFE013196CE010996EA
:101050001192E817F907E1F710E07E010894E11C0E
:10106000F11C0E940A01982F8D3059F08053823074
:10107000C0F7110F1053190F1983C7010E941108EF
:10108000F0CF812F28960FB6F894DEBF0FBECDBFEC
:10109000CF91DF911F91FF90EF900895982FAB01B2
:1010A00088E0692F0E949B060895AC0188E064E007
:1010B0000E949B060895CF93DF93EC0180E090E0BF
:1010C000FE01E80FF91F1082019688309105C1F7E3
:1010D0008091C00087FFFCCF9091C600892F80537C
:1010E0008A3010F09D32A1F79883CE010E945508F6
:1010F0000E940A01982F8D3079F080538A30C0F712
:10110000FE0127E030E0868187832150304031970F
:1011100021153105C1F7E8CF0E943E04DF91CF9140
:101120000895DF93CF9300D0CDB7DEB781E68983F2
:101130001A8282E062E0AE014F5F5F4F0E949B0621
:101140000F900F90CF91DF910895DF93CF9300D050
:10115000CDB7DEB789836A8382E063E0AE014F5F7B
:101160005F4F0E949B060F900F90CF91DF910895E3
:10117000DF93CF9300D000D0CDB7DEB74C81FB8199
:101180005A81E98120E030E02130310581F02230C0
:10119000310524F42115310541F00EC0223031050E
:1011A00041F02330310541F406C0E82F05C0592F26
:1011B00003C0F62F01C0472F2F5F3F4F243031056A
:1011C00019F74C83FB835A83E98384E061E0AE0125
:1011D0004F5F5F4F0E949B060F900F900F900F90F4
:1011E000CF91DF9108950F931F93DF93CF930F92C9
:1011F000CDB7DEB7198280E090E005C001962AEEF7
:1012000080369207E1F01A9BF9CF19C0822F90E047
:10121000019683709070282F8823A9F0898381E03C
:1012200061E5A8010E949B068CEC9CEC63E373E3F0
:101230000E94B80882E390E00E94740003C08E010F
:101240000F5F1F4F29811A9BE1CF0F90CF91DF9144
:101250001F910F9108958093BB0084EC8093BC0094
:101260008091BC0087FFFCCF08958093BB0084E889
:101270008093BC008091BC0087FFFCCF089584EC74
:101280008093BC008091BC0087FFFCCF8091BB00A5
:10129000089584E88093BC008091BC0087FFFCCF58
:1012A0008091BB000895CF93DF93FC01EB0184E4B0
:1012B0008093BC008091BC0087FFFCCF8091BB0075
:1012C00020E030E054EC5093BC008091BC0087FFDC
:1012D000FCCF4091BB0037FD20C02330310524F006
:1012E00023303105D1F40DC080819181A281B38179
:1012F000840F911DA11DB11DBA2FA92F982F8827EA
:1013000008C080819181A281B381840F911DA11DAC
:10131000B11D80839183A283B3832F5F3F4F24301D
:10132000310589F684E88093BC008091BC0087FF7A
:10133000FCCF8091BB00888380E88093BC00DF9164
:10134000CF910895DF93CF93CDB7DEB727970FB630
:10135000F894DEBF0FBECDBF1C821D821E821F828D
:1013600019828A8381E069E0AE014E5F5F4F0E947F
:101370009B068A818134A9F0CE010496BE016F5F7D
:101380007F4F0E9453098BE691E00E9430014C810F
:101390005D816E817F818AE00E94210289810E94A5
:1013A000540227960FB6F894DEBF0FBECDBFCF9183
:1013B000DF910895382F4333D9F1443328F4413372
:1013C00059F0423339F41EC04533C1F1453398F129
:1013D0004633B9F180E00895223761F490E007C008
:1013E000862F880F661F6627661F682B9F5F9317DF
:1013F000B8F32AC0862F90E002C0880F991F3A9553
:10140000E2F70895223761F490E007C0862F8695B1
:10141000679566276795682B9F5F9317B8F314C08D
:10142000862F90E002C0959587953A95E2F708954A
:10143000862F832B0895809586230895862F8327F2
:101440000895862F83230895862F0895EF92FF92A3
:101450001F93DF93CF93CDB7DEB728970FB6F894DD
:10146000DEBF0FBECDBFFE013196CE0109961192AF
:10147000E817F907E1F710E07E010894E11CF11C80
:101480000E940A01982F8D3059F080538230C0F7A6
:10149000110F1053190F1983C7010E941108F0CFC3
:1014A000812F28960FB6F894DEBF0FBECDBFCF9127
:1014B000DF911F91FF90EF900895EF92FF921F939D
:1014C000CF93DF937C01009711F09C010DC083EF57
:1014D00093E00E94AC0D182F82EF93E00E94AC0DB8
:1014E000312F20E0280F311DE901D695C795D695FB
:1014F000C795C901E3E096958795EA95E1F7C82776
:10150000D927C227D327C90175E0969587957A9583
:10151000E1F7C827D927DD27C695D795CC2736957B
:101520002795C22BD32BEF2851F483EF93E06D2F37
:101530000E94B40D82EF93E06C2F0E94B40DCE0197
:10154000DF91CF911F91FF90EF90089580E090E0A0
:101550000E945D0ABC01660F771F0E94B80883E0F5
:1015600062E67EE90E949A00F1CF1F9383EF93E039
:101570000E94AC0D182F16951695982F9695969556
:10158000969519271827982F92959F7019271795C8
:10159000112717958695182B83EF93E0612F0E94F2
:1015A000B40D812F1F910895EF92FF921F93CF9357
:1015B000DF937C01009711F09C010DC08BEF91E04F
:1015C0000E94AC0D182F8AEF91E00E94AC0D312FD4
:1015D00020E0280F311DE901D695C795D695C7950E
:1015E000C90153E0969587955A95E1F7C827D92701
:1015F000C227D327C90145E0969587954A95E1F71B
:10160000C827D927DD27C695D795CC2736952795A6
:10161000C22BD32BEF2851F48BEF91E06D2F0E945A
:10162000B40D8AEF91E06C2F0E94B40DCE01DF91D2
:10163000CF911F91FF90EF90089580E090E00E947D
:10164000D40ABC01660F771F0E94B80883E062E6E7
:101650007EE90E949A00F1CF1F938BEF91E00E94E8
:10166000AC0D182F16951695982F969596959695DC
:1016700019271827982F92959F70192717951127CA
:1016800017958695182B8BEF91E0612F0E94B40D72
:10169000812F1F910895CF92DF92EF92FF920F93C7
:1016A0001F93DF93CF93CDB7DEB729970FB6F8948A
:1016B000DEBF0FBECDBF80E88093610011E01093C4
:1016C00061008CEF93E00E94AC0D8093B40380FF27
:1016D00007C01093B40384EF93E060E00E94B40D60
:1016E0008091B40383FF03C081E08093B203A89587
:1016F000809160008861809360001092600012E029
:101700001093BA0080917C00806480937C0085B740
:101710008F7E85BF8AB18B778AB98BB184688BB98C
:1017200026982E9A85B78F7E85BF84B18B7784B932
:1017300087B1887F87B98AB187788AB985B184688B
:1017400085B988B1876088B98BB188678BB985E026
:1017500090E00E9474001092C1001092C50080E1D8
:101760008093C4001093C00088E18093C10086E09C
:101770008093C20084EF93E00E94AC0D8F3F29F468
:1017800084EF93E060E00E94B40D84EF93E00E9448
:10179000AC0D8034A1F400E010E080E091E00E9404
:1017A00030010F5F1F4F0A301105B9F780E791E054
:1017B0000E94300184EF93E061E40E94B40D84EF55
:1017C00093E00E94AC0D682F86FF12C0606884EF22
:1017D00093E00E94B40D00E010E080E091E00E94F0
:1017E00030010F5F1F4F04301105B9F70C9400361C
:1017F0001A9904C04A9902C00E94F3084A9904C089
:101800004F9902C00E942F0681EA91E00E943001A8
:101810008BE091E00E9430018AEF0E94F200882361
:10182000B9F3E090C60082E5E81619F082E7E81601
:1018300079F780E091E00E9430018DE092E00E9413
:1018400030018FE692E00E94300187EE92E00E9424
:1018500030018091C00087FFFCCF6E010894C11C4D
:10186000D11C0091C600013388F0033318F0073310
:1018700068F418C085E493E00E9430018091C000B4
:1018800087FFFCCF1091C60010530DC029E088E1FE
:1018900090E00FB6F894A895809360000FBE209357
:1018A0006000FFCF11E082E5E81621F082E7E8163C
:1018B00079F407C08DE493E00E9430010E94260A6B
:1018C00006C08CE893E00E9430010E942C0B8983B3
:1018D0001A831B82802F81538987C6010E941108B9
:1018E0008091C00087FFFCCFF090C600812F6981F6
:1018F000402F2E2D0E94DA098B838985823018F4BF
:101900008A81180F0AC01A83812F90E0880F991FCF
:101910006FEF70E00E94480D182F88E7F81679F0F5
:1019200088E5F816D1F629E088E190E00FB6F89442
:10193000A895809360000FBE20936000FFCF86EAD9
:1019400093E00E9430018091C00087FFFCCF89CFD7
:101950004F925F926F927F928F929F92AF92BF92BF
:10196000CF92DF92EF92FF920F931F93DF93CF936B
:10197000CDB7DEB74C017B014DB65EB6CB01880F0B
:10198000991F2DB73EB7281B390B0FB6F8943EBFF1
:101990000FBE2DBF8DB79EB701963C01AA24BB2474
:1019A000CC24DD248301F30120E030E007C02F5F69
:1019B0003F4FC9018C0D9D1D819391932E153F05BD
:1019C000B4F3C501B701A3010E94DC0220E030E0BE
:1019D00018C0D801ED91FC91E230F10574F0C4011A
:1019E000BF010E94480D892B41F420E030E0E8154A
:1019F000F905C1F421E030E015C02F5F3F4F0E5FC5
:101A00001F4F2E153F052CF3CE0CDF1CC6018E197F
:101A10009F098816990624F00894A11CB11CC2CF16
:101A200020E030E0C9010FB6F8945EBE0FBE4DBE97
:101A3000CF91DF911F910F91FF90EF90DF90CF90AA
:101A4000BF90AF909F908F907F906F905F904F90DE
:101A50000895629FD001739FF001829FE00DF11DF8
:101A6000649FE00DF11D929FF00D839FF00D749F18
:101A7000F00D659FF00D9927729FB00DE11DF91FC4
:101A8000639FB00DE11DF91FBD01CF011124089521
:101A900097FB092E07260AD077FD04D049D006D03F
:101AA00000201AF4709561957F4F0895F6F7909590
:101AB00081959F4F0895A1E21A2EAA1BBB1BFD0121
:101AC0000DC0AA1FBB1FEE1FFF1FA217B307E4071D
:101AD000F50720F0A21BB30BE40BF50B661F771F75
:101AE000881F991F1A9469F7609570958095909555
:101AF0009B01AC01BD01CF01089597FB092E05267E
:101B00000ED057FD04D0D7DF0AD0001C38F4509512
:101B10004095309521953F4F4F4F5F4F0895F6F711
:101B200090958095709561957F4F8F4F9F4F089549
:101B3000AA1BBB1B51E107C0AA1FBB1FA617B707F3
:101B400010F0A61BB70B881F991F5A95A9F780950F
:101B50009095BC01CD010895F999FECF92BD81BD4C
:101B6000F89A992780B50895262FF999FECF1FBAC4
:101B700092BD81BD20BD0FB6F894FA9AF99A0FBEB6
:081B800001960895F894FFCFCF
:101B88000D0A0020452D0020452B00523F20202023
:101B980020000D0A5043425F4120286D696E695F3D
:101BA8004F5329206465766963652063616C6962B7
:101BB800726174696E67000D0A4F534343414C20AC
:101BC800757365722076616C7565202020000D0A9A
:101BD80063616C6962726174696F6E206572726F9D
:101BE8007220200020204F4B0D0A000D0A302E00D5
:101BF80050726F6A65637420636F6D6D656E746192
:101C080072793A2050726573732027582720746FB1
:101C180020657363617065206F7220414F4B0D0A18
:101C2800000D0A4D6F7265206F6E206269747769C6
:101C38007365206F70730D0A50726573732072207C
:101C48006F72205220617420746865207573657204
:101C58002070726F6D70740D0A616E642078206F49
:101C680072205820746F206573636170650D0A6770
:101C78006976696E672034206D6F646573206F66BE
:101C8800206F7065726174696F6E0D0A000D0A53DA
:101C9800656C656374206C6F676963616C206F7035
:101CA80065726174696F6E200D0A3120666F72204B
:101CB8003C3C2058095368696674732061206E752E
:101CC8006D626572206C6566740D0A3220666F72EB
:101CD800203E3E2058095368696674732061206E5F
:101CE800756D626572207269676874200D0A003329
:101CF80020666F72207C202831203C3C205829091E
:101D08004368616E676573206A757374206F6E65CA
:101D1800206269742062792073657474696E672023
:101D2800697420746F20312E0D0A3420666F72207A
:101D380026287E2831203C3C205829094368616EBA
:101D4800676573206A757374206F6E6520626974A5
:101D58002062792073657474696E672069742074D1
:101D68006F20302E0D0A003520666F7220584F52B2
:101D78002831203C3C205829094368616E67657307
:101D8800206A757374206F6E6520626974206279A9
:101D980020726576657273696E672069742E0D0A04
:101DA8003620666F7220262831203C3C20582909AD
:101DB800546573747320612073696E676C65206263
:101DC80069740D0A00583F20312D370900456E749B
:101DD80065722062696E617279206E756D626572D6
:101DE8003A203120746F2030623131313131313154
:101DF80031207465726D696E61746520696E206347
:101E080072207468656E20414B20200052616E6418
:101E18006F6D206E756D62657220757365643A200A
:101E2800414B202020004E6577206D6F64653F0D83
:021E38000A009E
:00000001FF
