:100000000C9434000C9451000C9451000C94510049
:100010000C9451000C9451000C9451000C9451001C
:100020000C9451000C94BF020C9451000C9451009C
:100030000C9451000C9442030C9451000C94510008
:100040000C9451000C9451000C9451000C945100EC
:100050000C9451000C9451000C9451000C945100DC
:100060000C9451000C94510011241FBECFEFD8E026
:10007000DEBFCDBF11E0A0E0B1E0E6E9F8E002C0EC
:1000800005900D92A037B107D9F722E0A0E7B1E0C3
:1000900001C01D92A533B207E1F70E9482030C94C0
:1000A00049040C940000992344F020E030E0000063
:1000B0002F5F3F4F82179307D4F7089566BD85BD24
:1000C000A89BFECFA89A15BC08950F931F93CF93BA
:1000D000DF93181619065CF48C01C0E0D0E062EBE7
:1000E00085E00E945E0021960C171D07C1F7DF9185
:1000F000CF911F910F9108957093850060938400B4
:100100009FEF96BB80938100B09BFECFB09A109278
:1001100081000895CF93DF93D82FC62F62EF7CEF35
:1001200085E00E947C00E1ECF0E01082D093C500F5
:10013000C093C40082E08093C00088E1808386E0A1
:100140008093C200DF91CF91089520E030E0E0EC91
:10015000F0E00BC02F5F3F4F21349FE139071CF0C7
:10016000815020E030E0882329F09081992394F792
:1001700081E0089580E00895E0ECF0E0908195FF43
:10018000FDCF8093C60008950F931F93CF93DF9305
:10019000FC01808181110AC011C08991882371F00E
:1001A0000E94BC000C171D07C1F708C08F010E94F8
:1001B000BC00E801219608531F4FEFCFDF91CF918C
:1001C0001F910F9108958DE391E00E94C40008955E
:1001D0002F923F924F925F926F927F928F929F9257
:1001E000AF92BF92CF92DF92EF92FF920F931F9345
:1001F000CF93DF931C012A013B0141155105610595
:10020000704861F52A3019F02031B9F065C098E3E3
:10021000F101908384E3818326E3228323E3238314
:100220009483858397E39683878381E3808782E342
:1002300081878DE2828713864FC080E3F10180833E
:1002400081838283838384838583868388E3878312
:100250008DE280871186128613863EC0E101C101BE
:100260000C96F1011192E817F907E1F773016201A9
:1002700077203CF4CC24DD247601C418D508E608A8
:10028000F70800E010E0822E912CA12CB12CC701C0
:10029000B601A50194010E94F20368836A3018F444
:1002A000605D688302C0695C68830F5F1F4FC70190
:1002B000B601A50194010E94F20369017A01219619
:1002C000121613061406150614F377202CF4F10108
:1002D000E00FF11F8DE28083DF91CF911F910F918D
:1002E000FF90EF90DF90CF90BF90AF909F908F9056
:1002F0007F906F905F904F903F902F9008950F9355
:100300001F93CF93DF93FC012081222399F0319634
:10031000C0E0D0E0219621912111FCCF209751F02F
:100320008C010C0F1D1FF80182918F010E94BC00EF
:100330002197C9F7DF91CF911F910F910895CF9326
:10034000DF93CDB7DEB72C970FB6F894DEBF0FBEA4
:10035000CDBF282FCE0101960E94E800CE01019664
:100360000E947F012C960FB6F894DEBF0FBECDBF62
:10037000DF91CF9108951092850010928400109221
:1003800081001092B100E6EBF0E0808180FDFDCFAE
:100390001092B000E6EBF0E0808181FDFDCF10927D
:1003A000B200E6EBF0E0808184FDFDCF089581E0AE
:1003B0008093B100E6EBF0E0808180FDFDCF81E02D
:1003C0008093810008958F929F92AF92BF92CF92B7
:1003D000DF92EF92FF920F931F93CF93623029F039
:1003E000653031F4CAE0EFE005C0C4E0E6E002C0E9
:1003F000C1E0E2E010927701109276011092310292
:10040000109232021092330210923402F0E06091A6
:100410007601709177016E177F07CCF31092770108
:1004200010927601C0903102D0903202E0903302F7
:10043000F090340241110AC0FF2044F4F094E0949B
:10044000D094C094C11CD11CE11CF11C882311F173
:1004500000912E0210912F02000F111F000F111F8B
:1004600006581E4F8C2E912CA12CB12CC701B60121
:10047000A50194010E94F203F80120833183428395
:10048000538380912E0290912F02019690932F0218
:1004900080932E022C2F30E040E050E0C701B601DF
:1004A0000E94F203CA01B901CF911F910F91FF90F1
:1004B000EF90DF90CF90BF90AF909F908F90089576
:1004C0008F929F92AF92BF92CF92DF92EF92FF9264
:1004D000CF93DF936DE771EE85E00E947C00789406
:1004E00085E080937201E0E7F0E0808181608083A5
:1004F000EFE6F0E08081816080830E94BB010E9472
:10050000D7010F2EFFE0CF2ED12CE12CF12CF02DB6
:10051000C6E6D0E0C8826091720141E080E00E94AE
:10052000E3014B015C01809175018883B701A6014D
:100530008AE00E949F0189E00E94BC00B501A401ED
:100540008AE00E949F010E94E30063EC84E00E9425
:100550005E008FEFC81AD80AE80AF80A81EFC816B9
:10056000D104E104F104B1F6DF91CF91FF90EF9057
:10057000DF90CF90BF90AF909F908F9008951F9283
:100580000F920FB60F921124CF92DF92EF92FF924B
:100590002F933F934F935F936F937F938F939F938B
:1005A000AF93BF93EF93FF93E1E8F0E01082A4E8EC
:1005B000B0E02D913C91119711961C921E9281E012
:1005C000808380917201409176015091770190E093
:1005D000481759071CF41092730136C080917301BB
:1005E000813019F0823031F00BC0C12CD12C760152
:1005F000E39409C0C12CD12C76016894E1F803C0C2
:10060000C12CD12C7601409131025091320260917F
:10061000330270913402C901A0E0B0E08452944FDB
:10062000A109B1098C0D9D1DAE1DBF1D840F951F25
:10063000A61FB71F8093310290933202A09333021A
:10064000B0933402109273018091760190917701FA
:1006500001969093770180937601FF91EF91BF917E
:10066000AF919F918F917F916F915F914F913F914A
:100670002F91FF90EF90DF90CF900F900FBE0F90D3
:100680001F9018951F920F920FB60F9211248F93FF
:10069000809173018F5F809373018F910F900FBED4
:1006A0000F901F901895E0910001F0910101808159
:1006B000833391F48181823321F58281883309F576
:1006C00080E090E4909379018093780180E094E059
:1006D00090937101809370018081813391F48181C5
:1006E000863379F48281883361F480E090E29093DC
:1006F00079018093780180E092E09093710180937A
:1007000070010895A89584B7877F84BFE0E6F0E084
:10071000808188618083108269E180E00E948A0084
:100720008AE090E00E945300ECE7F0E08081806472
:10073000808381E090E00E94650085B78F7E85BF51
:1007400014B817B81AB88FEF85B988B98BB90E9459
:10075000530360916600809170019091710103973D
:100760000E943B040091700110917101C801029731
:100770000E943304C82F80EF8C0F803E40F4C801E4
:1007800001970E943304C81302C0C0936600809191
:10079000660080937501C6ECD0E080E491E00E9491
:1007A000C4008AEF0E94A5008823B9F388818F7D59
:1007B000823599F78DE391E00E94C40080E2809336
:1007C000B60087E491E00E94C4000E94600299E0B4
:1007D00088E10FB6F894A895809360000FBE9093BF
:1007E0006000FFCF052E97FB1EF400940E940904C1
:1007F00057FD07D00E94110407FC03D04EF40C945F
:10080000090450954095309521953F4F4F4F5F4FCC
:10081000089590958095709561957F4F8F4F9F4F6C
:100820000895A1E21A2EAA1BBB1BFD010DC0AA1F31
:10083000BB1FEE1FFF1FA217B307E407F50720F049
:10084000A21BB30BE40BF50B661F771F881F991FC4
:100850001A9469F760957095809590959B01AC010D
:10086000BD01CF010895F999FECF92BD81BDF89ADF
:10087000992780B50895262FF999FECF1FBA92BD0A
:1008800081BD20BD0FB6F894FA9AF99A0FBE019671
:060890000895F894FFCF6B
:100896006C010D0A56616C7565732073617665642B
:1008A60020746F20454550524F4D20200009557346
:1008B60065722076616C75650D0A090909000909DA
:1008C60044656661756C742076616C75650D0A0009
:1008D600523F2020202000506C6F74206F66204FFE
:1008E600534343414C20762063616C6962726174A4
:1008F600696F6E206572726F720D0A0031363800AC
:00000001FF
