:100000000C9434000C9451000C9451000C94510049
:100010000C9451000C9451000C9451000C94151840
:100020000C9451000C9434170C9451000C94510012
:100030000C9451000C94C0160C9451000C94510077
:100040000C94C2220C9451000C9451000C94510059
:100050000C9451000C9451000C9451000C945100DC
:100060000C9438180C94510011241FBECFEFD8E027
:10007000DEBFCDBF11E0A0E0B1E0E6EBF9E502C0E4
:1000800005900D92A63CB107D9F712E0A6ECB1E0BD
:1000900001C01D92A63BB107E1F70E942F270C94E7
:1000A000D92C0C940000CF93DF93EC011092130233
:1000B000109214021092150210921602109217025A
:1000C0001092180280E8C030D80799F488E3809332
:1000D000130286E38093140287E38093150282E380
:1000E0008093160283E3809317028DE280931802B7
:1000F00025C09E01D7FF04C0222733272C1B3D0BB0
:1001000040E0E42FF0E0C9016AE070E00E945F2C5B
:10011000805DED5EFD4F80834F5FC9016AE070E056
:100120000E945F2C9B016115710559F7D7FF06C02E
:10013000E42FF0E0ED5EFD4F8DE28083DF91CF9103
:100140000895482F10921302109214021092150273
:1001500010921602803869F488E38093130282E3D8
:100160008093140281E3809315028DE2809316023E
:100170000895282F27FD219530E0E32FF0E0822F0E
:100180006AE00E94522C905DED5EFD4F90833F5FD0
:10019000822F6AE00E94522C282F882371F747FF94
:1001A00006C0E32FF0E0ED5EFD4F8DE28083089501
:1001B000282F10921302109214021092150210921E
:1001C000160230E0E32FF0E0822F6AE00E94462C16
:1001D000905DED5EFD4F90833F5F822F0E94462C25
:1001E000282F882379F708956F927F928F929F929C
:1001F000AF92BF92CF92DF92EF92FF920F93DF9375
:10020000CF93CDB7DEB760970FB6F894DEBF0FBEC1
:10021000CDBF6B017C01A42E80E090E0FC01ED5E7F
:10022000FD4F1082019688309105C1F74E01089468
:10023000811C911CF401CE010B961192E817F9076D
:10024000E1F787E08A150CF4BFC000E03E01089496
:10025000611C711CF301E00FF11DFE87ED87C701E2
:10026000B6012AE030E040E050E00E94722C605D70
:10027000ED85FE8560830F5FC701B6012AE030E09F
:1002800040E050E00E94722CC901DA016C017D014E
:10029000C114D104E104F104E9F6093078F0E02F4B
:1002A000F0E03897E60DF71DD4019E01275F3F4F20
:1002B00081918D93A217B307D9F703C0083009F0D5
:1002C000A394F4019E2F981981918033D9F3A7FE4E
:1002D00002C0A194F1C0AA2009F4EEC0CBC08D9158
:1002E000F901ED5EFD4F80832F5F3F4FC901860FFF
:1002F000971F0897A4F31092750260E070E09701D1
:10030000241B350B08C080917502880F8F5F809386
:1003100075026F5F7F4F26173707ACF78091750224
:1003200086959BC08D91F901ED5EFD4F80832F5F17
:100330003F4F24173507B4F392C0F901E40FF51FBE
:100340008D9180834F5F5F4FCA018E0D9F1D08976F
:10035000A4F3872F992787FD9095D901A80FB91F7E
:1003600020E030E0E62EFF24E7FCF094E81AF90ADA
:1003700007C08D91F901ED5EFD4F80832F5F3F4FE8
:100380002E153F05B4F3B70120E030E04A2D552784
:1003900047FD509580E308C0FB01ED5EFD4F808373
:1003A0002F5F3F4F6F5F7F4F24173507ACF3FA0184
:1003B000EE0DFF1DDF01AD5EBD4F8FE58C93EC5E52
:1003C000FD4F80E380834BC0BB244E010894811C09
:1003D000911CC4018B0D911D988B8F87C701B601AD
:1003E0002AE030E040E050E00E94722C605DEF8532
:1003F000F8896083B394C701B6012AE030E040E099
:1004000050E00E94722CC901DA016C017D01C11417
:10041000D104E104F104E9F6DE01199627E030E0A9
:100420008C91F901ED5EFD4F808311972150304092
:1004300022303105A9F788E5809315028A2D6AE0FC
:100440000E94522C805D809314028A2D6AE00E94E3
:10045000522C905D9093130288EF8093750280E098
:1004600090E0FC01EF56FD4F108201968830910517
:10047000C1F738C04A2D552747FD5095892F992738
:1004800087FD909528E030E07901E81AF90ABE016D
:100490006F5F7F4FE416F50644F4D901A41BB50B3A
:1004A000A60FB71F20E030E03DCFDB01A80FB91F3A
:1004B00020E030E0BC011ACF68E0691B6650762F5F
:1004C0007A0D6A5F77FD70E0892F992787FD9095F7
:1004D0009E012F5F3F4FD901A80FB91F40E050E0A8
:1004E0007C0132CF60960FB6F894DEBF0FBECDBF51
:1004F000CF91DF910F91FF90EF90DF90CF90BF9061
:10050000AF909F908F907F906F9008957F928F9281
:100510009F92AF92BF92CF92DF92EF92FF920F9392
:100520001F934B015C0180E090E0FC01ED5EFD4F0C
:100530001082019688309105C1F7D501C401815818
:100540009946A746BF4F8F579747AE48B640B0F57C
:1005500075016401B7FE07C0CC24DD247601C818FC
:10056000D908EA08FB087724072D10E0C701B60177
:100570002AE030E040E050E00E94942C605D0D5E87
:100580001D4FF80160837394C701B6012AE030E083
:1005900040E050E00E94942CC901DA016C017D0119
:1005A0001C141D041E041F04FCF2B7FE12C0E72D2C
:1005B000F0E0ED5EFD4F8DE280830BC080E090E0C7
:1005C0002FE5FC01ED5EFD4F2083019688309105FB
:1005D000C1F71F910F91FF90EF90DF90CF90BF90E8
:1005E000AF909F908F907F9008952F923F924F925F
:1005F0005F926F927F928F929F92AF92BF92CF92B3
:10060000DF92EF92FF920F931F93CF93DF93EC0152
:100610005A016B01403080E0580780E0680780E8AD
:10062000780749F52A3021F0203109F06BC014C059
:1006300028E3288394E3998386E38A8383E38B8387
:100640002C839D8387E38E839F8381E3888782E366
:1006500089878DE28A870DC080E3888389838A83B6
:100660008B838C838D838E8388E38F831886198692
:100670001A861B8647C080E090E0FE01E80FF91F54
:10068000108201968C309105C1F786017501D7FE65
:1006900007C0EE24FF248701EA18FB080C091D0996
:1006A0004E0166247724222E332444245524C80185
:1006B000B701A20191010E94942CF40160836A3079
:1006C00010F4605D02C0695CF40160830894611CF1
:1006D000711CC801B701A20191010E94942CC901AB
:1006E000DA017C018D010894811C911C1E141F04E9
:1006F00010061106E4F2D7FE05C06C0E7D1E8DE2D9
:10070000F3018083DF91CF911F910F91FF90EF90C4
:10071000DF90CF90BF90AF909F908F907F906F9021
:100720005F904F903F902F900895AC0120E030E013
:1007300002C02F5F3F4FFA01E20FF31F8081882331
:10074000C1F7DF0127E030E04150504007C08C91F5
:10075000F901ED5EFD4F8083215030401197A417C1
:10076000B507A9F708950F931F93DF93CF93CDB7E4
:10077000DEB72C970FB6F894DEBF0FBECDBF282F83
:100780008E010F5F1F4FC8010E94F502C8010E9431
:1007900095032C960FB6F894DEBF0FBECDBFCF9158
:1007A000DF911F910F9108959F92AF92BF92CF92C8
:1007B000DF92EF92FF920F931F93DF93CF93CDB70A
:1007C000DEB72C970FB6F894DEBF0FBECDBF982EC4
:1007D0007A018B0181E090E0A0E0B0E0CC24DD2440
:1007E00048E0A42EB12CA21AB30A0DC0BC01CD0161
:1007F0002AE030E040E050E00E94272CDC01CB01F1
:100800000894C11CD11CCA14DB0484F320E03AEC28
:100810004AE95BE3E20EF31E041F151FAC01BD01A4
:1008200022E0440F551F661F771F2A95D1F7480F06
:10083000591F6A1F7B1F4E0D5F1D601F711F8E01A8
:100840000F5F1F4FC801292D0E94F50280E090E044
:1008500020E205C0F801E80FF91F20830196A816D1
:10086000B906C4F78EE28A8748E050E0CA010197D2
:10087000FC01ED5EFD4F2081342F652FAC0122235A
:10088000A9F7832F962F9C01A901DE011A9608C0B3
:10089000415050408C91FA01ED5EFD4F80831197DD
:1008A00041155105A9F72C960FB6F894DEBF0FBE7F
:1008B000CDBFCF91DF911F910F91FF90EF90DF900F
:1008C000CF90BF90AF909F900895CF92DF92EF921C
:1008D000FF920F931F93CF93DF937A018B0141E037
:1008E00050E060E070E0CC24DD24C8E0D0E0C21B22
:1008F000D30B0DC0CB01BA012AE030E040E050E05C
:100900000E94272CAB01BC010894C11CD11CCC1641
:10091000DD0684F380E09AECAAE9BBE3E80EF91E59
:100920000A1F1B1F20E0DB01CA01E2E0880F991FAC
:10093000AA1FBB1FEA95D1F7840F951FA61FB71FEB
:100940008E0D9F1DA01FB11F80509449A543B7472E
:1009500008F421E0822FDF91CF911F910F91FF903A
:10096000EF90DF90CF900895CF93DF93EC0134EABE
:1009700023E094E83093BC008091BC0087FFFCCF5B
:100980002093BB009093BC008091BC0087FFFCCFFC
:100990008091B900803471F784E88093BC00809125
:1009A000BC0087FFFCCF9091BB0084E88093BC0023
:1009B000903321F0923309F053C045C0A8E0B0E075
:1009C0009D0121503040F901ED5EFD4F8081AD5E0B
:1009D000BD4F8C932115310511F0D901F1CF8091D4
:1009E000D2019091D3012091A1023091A2028217ED
:1009F000930779F0821B930BC80FD91F2197888129
:100A0000809313022F5F3F4F3093A2022093A102E5
:100A100027C02091890230918A022330310554F495
:100A200081E6809313022F5F3F4F30938A02209319
:100A3000890216C010928A02109289021092A202B4
:100A40001092A1020DC01092C2011092C801109222
:100A5000B2001092B100809170008E7F8093700080
:100A6000DF91CF9108950F931F93CF93DF938C0164
:100A7000C0E0D0E001C02196F801EC0FFD1F80819D
:100A80008823C9F734EA22E094E83093BC008091CF
:100A9000BC0087FFFCCF2093BB009093BC008091EB
:100AA000BC0087FFFCCF8091B900883171F7CE017F
:100AB0006AE070E00E945F2C605D6093BB0084E898
:100AC0008093BC008091BC0087FFFCCFCE016AE020
:100AD00070E00E945F2C805D8093BB0084E880936F
:100AE000BC008091BC0087FFFCCF20E030E094E8A0
:100AF0000EC0F801E20FF31F80818093BB0090933A
:100B0000BC008091BC0087FFFCCF2F5F3F4F2C17AC
:100B10003D077CF384E98093BC00DF91CF911F9166
:100B20000F91089566BD85BD08957093850060930B
:100B30008400809381000895709385006093840001
:100B40009FEF96BB80938100B09BFECFB09A10922E
:100B50008100089581E48093B00285EA8093BC000F
:100B6000109279021092780210929F020895E091FB
:100B70007302F0917402ED5EFD4FE081E633E9F11E
:100B8000E733A0F4E23369F1E33358F4E03329F1B9
:100B9000E133B8F5ED3209F446C0EE3209F049C050
:100BA00040C0E433B1F1E53320F51FC0E534E9F18D
:100BB000E63438F4E83341F1E83310F1E933C9F5AC
:100BC00027C0E83591F1E93518F4E03591F524C0F6
:100BD000EF3539F1E53669F528C0299A8BB18C6774
:100BE0001EC0299A8BB1846B1AC0299A8BB18C696B
:100BF00016C0299A8BB1886D12C08BB1886F0FC057
:100C0000299A8BB18C600BC0299A8BB18C6F07C06D
:100C1000299A8BB18C6C03C0299A8BB1846E8BB9E5
:100C200008955C9A08955F9A0895299A8BB1806F10
:100C30008BB908958091730290917402833091056D
:100C400001F1843091054CF481309105B1F082308E
:100C50009105ACF4892B69F00EC085309105A9F09F
:100C60008530910584F08630910589F0079719F455
:100C700010C091E00FC090E00DC092E00BC094E076
:100C800009C098E007C090E105C090E203C090E47D
:100C900001C090E880911302892309F0299A80917C
:100CA0001402892309F05F9A80911502892309F0C3
:100CB0005C9A80911602892309F05A9A8091170252
:100CC000892309F05B9A80911802892309F05D9AC3
:100CD00080911902982309F05E9A08958091730219
:100CE00090917402019690937402809373028091A4
:100CF00073029091740268E070E00E945F2C909300
:100D000074028093730285B18D6385B988B1876061
:100D100088B929988BB183708BB9809173029091B7
:100D200074028330910509F452C0843091054CF46B
:100D30008130910541F182309105BCF5892B89F014
:100D40009BC08530910509F465C0853091050CF490
:100D500050C08630910509F46EC0079709F08CC029
:100D60007BC08091750280FF0CC0809191028F5FE3
:100D700080939102815062E10E94462C9D3008F0E0
:100D80007BC02C9879C08091750281FF0CC0809146
:100D900092028F5F80939202815062E10E94462C02
:100DA0009D3008F069C02B9867C08091750282FF62
:100DB0000CC0809193028F5F80939302815062E117
:100DC0000E94462C9D3008F057C02A9855C080914B
:100DD000750283FF0CC0809194028F5F8093940210
:100DE000815062E10E94462C9D3008F045C0289851
:100DF00043C08091750284FF0BC0809195028F5F84
:100E000080939502815062E10E94462C9D30A0F5AE
:100E1000429832C08091750285FF0BC08091960286
:100E20008F5F80939602815062E10E94462C9D3034
:100E300018F5419821C08091750286FF0BC0809102
:100E400097028F5F80939702815062E10E94462C47
:100E50009D3090F4409810C08091750287FF0BC0C0
:100E6000809198028F5F80939802815062E10E9486
:100E7000462C9D3008F42D988091C2018A3080F470
:100E80008630F0F4843030F48230E8F4813009F0B8
:100E90000CC11CC08430A1F0853009F006C1BBC074
:100EA000873489F0883420F4813408F4FEC008C007
:100EB000893408F4FAC08D3418F0803509F0F5C093
:100EC0000E94B70508950E941A0608958091730242
:100ED000909174028330910509F449C084309105E2
:100EE0004CF48130910529F1823091058CF5892BE4
:100EF00089F008958530910509F459C08530910530
:100F00000CF444C08630910509F462C0079709F0DB
:100F1000CCC06FC08091130280FD5A9A8091130259
:100F200081FD5E9A8091150280FD5B9A8091150289
:100F30003BC08091130282FD5A9A8091130283FD77
:100F40005E9A8091150282FD5B9A809115023DC0E8
:100F50008091130284FD5A9A8091130285FD5E9A56
:100F60008091150284FD5B9A809115023FC08091AB
:100F7000130286FD5A9A8091130287FD5E9A809132
:100F8000150286FD5B9A8091150241C08091140282
:100F900080FD5A9A8091140281FD5E9A809116021A
:100FA00080FD5B9A8091160281FF7FC032C08091E4
:100FB000140282FD5A9A8091140283FD5E9A8091F8
:100FC000160282FD5B9A8091160283FF6EC021C0DB
:100FD0008091140284FD5A9A8091140285FD5E9AD4
:100FE0008091160284FD5B9A8091160285FF5DC098
:100FF00010C08091140286FD5A9A8091140287FDD8
:101000005E9A8091160286FD5B9A8091160287FF98
:101010004CC05D9A08950E94B7058091730290912B
:10102000740285309105C1F0863091051CF4049757
:10103000E1F506C086309105D9F00797B1F527C0D4
:1010400080918B0280FF03C08BB18C608BB9809143
:101050008B0281FF2AC017C080918B0282FF03C0E0
:101060008BB18C608BB980918B0283FF1EC00BC04B
:1010700080918B0284FF03C08BB18C608BB980910F
:101080008B0285FF12C08BB180668BB90895809169
:101090008B0286FF03C08BB18C608BB980918B0271
:1010A00087FF03C08BB180668BB908958091990248
:1010B000813009F054C08091C901893330F48091A6
:1010C000C9018F5F8093C9014AC090E39093C90121
:1010D0008091CA01853330F48091CA018F5F80937B
:1010E000CA013DC09093CA018091CC01893330F48C
:1010F0008091CC018F5F8093CC0131C09093CC0163
:101100008091CD01853330F48091CD018F5F809344
:10111000CD0125C09093CD018091D0018033F8F0AE
:10112000823318F08233D9F40CC08091CF01893317
:1011300060F09093CF018091D0018F5F8093D001B8
:101140000EC08091CF01833330F48091CF018F5F47
:101150008093CF0104C09093CF019093D0018091F0
:101160009902823089F58091A802893330F4809108
:10117000A8028F5F8093A80227C090E39093A802F3
:101180008091A902853330F48091A9028F5F80930A
:10119000A9021AC09093A9028091AB02893330F45E
:1011A0008091AB028F5F8093AB020EC09093AB0235
:1011B0008091AC02853330F48091AC028F5F8093D4
:1011C000AC0202C09093AC02809199028330E9F5A1
:1011D0008091A702893330F48091A7028F5F8093BA
:1011E000A702089590E39093A7028091A802853307
:1011F00030F48091A8028F5F8093A80208959093A5
:10120000A8028091AA02893330F48091AA028F5FEC
:101210008093AA0208959093AA028091AB0285332D
:1012200030F48091AB028F5F8093AB02089590936E
:10123000AB028091AC02893330F48091AC028F5FB5
:101240008093AC0208959093AC0208958091990226
:10125000823041F08330F9F48091A502893330F077
:1012600080E307C08091A502893330F48091A50204
:101270008F5F8093A502089590E39093A5028091DB
:10128000A602893330F48091A6028F5F8093A60274
:1012900008959093A60208954F925F926F927F9265
:1012A0008F929F92AF92BF92CF92DF92EF92FF9276
:1012B0000F931F93CF93DF9359016A0138014701C0
:1012C000F80111821082F70111821082CFE0D0E084
:1012D00011E0412E512C7B018C01EE0CFF1C001FF4
:1012E000111FC801B701A60195010E94722C21159A
:1012F00031054105510571F092010C2E02C0220FFB
:10130000331F0A94E2F7F40180819181822B932BA1
:1013100091838083C801B701A60195010E94722CB8
:10132000AC01CB01DA01BC01CD012197FFEFCF3F2A
:10133000DF0789F6CFE0D0E0A1E08A2E912C7B0177
:101340008C01EE0CFF1C001F111FC801B701A60184
:1013500095010E94722C211531054105510571F04E
:1013600094010C2E02C0220F331F0A94E2F7F301FE
:1013700080819181822B932B918380832197FFEF32
:10138000CF3FDF0761F0C801B701A60195010E94B8
:10139000722CAC01CB01DA01BC01CD01D0CFDF91C1
:1013A000CF911F910F91FF90EF90DF90CF90BF9062
:1013B000AF909F908F907F906F905F904F90089527
:1013C0002F923F924F925F926F927F928F929F9255
:1013D000AF92BF92CF92DF92EF92FF920F931F9343
:1013E000DF93CF93CDB7DEB762970FB6F894DEBF29
:1013F0000FBECDBF20E030E040E050E0E0E0F0E0A4
:101400008B01007011701D830C83DB01A071B07023
:10141000BF83AE838B010470107019870887DB01CE
:10142000A870B070BB87AA8712E0212E312C26222B
:101430003722B1E04B2E512C46225722A0E46A2ECF
:10144000712C6622772200E2802E912C8622972230
:10145000B62FB078BC87A12C10E1B12EA622B722FE
:10146000C12CB4E0DB2EC622D722E12CA2E0FA2E5A
:10147000E622F7228B0100701870DB01A070B074B7
:10148000BE87AD87DB01A070B072BA8BA98B60708C
:101490007078E730F10509F47FC0E830F105D4F445
:1014A000E330F10509F454C0E430F10554F4E130BF
:1014B000F105D1F1E230F1050CF040C0309759F15F
:1014C000B8C0E530F10509F455C0E630F1050CF07F
:1014D0005AC047C0EB30F10509F481C0EC30F1058A
:1014E0004CF4E930F10509F46AC0EA30F1050CF07A
:1014F0006EC05CC0ED30F10509F483C0ED30F1053C
:101500000CF476C0EE30F10509F484C0EF30F1053B
:1015100009F08FC087C06115710509F48AC0205099
:101520003B494243524E85C0AD85BE85AB2B09F485
:1015300080C020583D444941514F7BC0A989BA8998
:10154000AB2B09F476C0205C364A4C48584F71C02A
:10155000A114B10409F46DC02056334546445C4FD4
:1015600068C00115110509F464C0205B394243428B
:101570005E4F5FC0C114D10409F45BC0285D3449DB
:1015800041415F4F56C0E114F10409F452C02C569A
:101590003A4C48485F4F4DC0AC81BD81AB2B09F43C
:1015A00048C026533546444C5F4F43C0BC85BB23DF
:1015B00009F43FC02B593243424E5F4F3AC0611489
:1015C0007104B9F12D543941414F5F4F32C081143C
:1015D000910479F1275A3C48484F5F4F2AC0AE81A9
:1015E000BF81AB2B31F1235536444C4F5F4F21C0A7
:1015F000AA85BB85AB2BE9F02A5233424E4F5F4F91
:1016000018C0A885B985AB2BA1F0255931414F4FA2
:101610005F4F0FC02114310461F02A5C38484F4FEE
:101620005F4F07C04114510421F02556344C4F4FF1
:101630005F4F3196E031F10509F02BCF60E070E0AB
:10164000FC01E070F270FA83E98300E2202E312C75
:101650002822392218E0412E512C48225922B0E18B
:101660006B2E712C68227922A4E08A2E912C88227C
:101670009922F82FF078FB83F0E4AF2EB12CA8224A
:10168000B922C12CE1E0DE2EC822D922E12C00E2F1
:10169000F02EE822F9228C0100701870DC01A07095
:1016A000B470BE87AD87DC01A070B071FC01E07042
:1016B000F078F88BEF87807090746630710509F4CC
:1016C0006EC067307105C4F46230710509F443C01F
:1016D0006330710544F46115710559F1613071058C
:1016E00009F09DC030C06430710509F445C0653013
:1016F00071050CF04AC038C06A30710509F470C039
:101700006B3071054CF46830710509F459C06930CB
:1017100071050CF05DC04CC06C30710509F470C0EF
:101720006C3071050CF464C06D30710509F077C040
:101730006FC0EF85F889EF2B09F471C02353324E47
:101740004F4F5F4F6CC0009709F469C02951314F6A
:101750004F4F5F4F64C0E114F10409F460C02D588D
:10176000384F4F4F5F4F5BC0109709F458C0265455
:101770003C4F4F4F5F4F53C00115110509F44FC047
:1017800023523E4F4F4F5F4F4AC0ED85FE85EF2BF2
:1017900009F445C022513F4F4F4F5F4F40C0E98190
:1017A000FA81EF2BE1F129583F4F4F4F5F4F37C080
:1017B000C114D104A1F1245C3F4F4F4F5F4F2FC0A4
:1017C000FB81FF2361F1225E3F4F4F4F5F4F27C0E8
:1017D000A114B10421F1215F3F4F4F4F5F4F1FC054
:1017E00021143104E1F0295F3F4F4F4F5F4F17C085
:1017F00061147104A1F02C5F3F4F4F4F5F4F0FC03A
:101800004114510461F02E5F3F4F4F4F5F4F07C0AF
:101810008114910421F02F5F3F4F4F4F5F4F6F5F57
:101820007F4F6031710509F048CF285F3F4F4F4F20
:101830005F4F207FB901CA0162960FB6F894DEBFF0
:101840000FBECDBFCF91DF911F910F91FF90EF9011
:10185000DF90CF90BF90AF909F908F907F906F90D0
:101860005F904F903F902F900895AF92BF92CF928C
:10187000DF92EF92FF920F931F937B018C0197FFF2
:1018800002C06095709580E090E00E94E0095B01E5
:101890006C01A801772757FD7095672F17FF13C0BC
:1018A0004F3F8FEF58078FEF68078FEF780739F4B6
:1018B0008DE280931A0280E38093190207C04F5F84
:1018C0005F4F6F4F7F4F8AE00E94B3038AE0B601FB
:1018D000A50125E030E00E94D4031F910F91FF90F5
:1018E000EF90DF90CF90BF90AF9008952F923F92EE
:1018F0004F925F926F927F928F929F92AF92BF9220
:10190000CF92DF92EF92FF920F931F93DF93CF93CB
:1019100000D000D000D0CDB7DEB79A8389837C8316
:101920006B835E834D83FA0180819181A0E0B0E0FA
:101930002C0133242224FB0180819181A0E0B0E0BE
:10194000280E391E4A1E5B1EFA0122813381C9010D
:10195000A0E0B0E04C0177246624FB0182819381F2
:10196000A0E0B0E0680E791E8A1E9B1E37FF08C0FB
:1019700056944794379427949694879477946794D1
:10198000C201B101A40193010E94722C59016A01A4
:1019900069010B811C810C5F1F4FED80FE8084E08C
:1019A00090E0E80EF91EC201B101A40193010E946A
:1019B000722CA40193010E944C09ED81FE81648187
:1019C0007581EB81FC81848195810E94E0099B01F6
:1019D000AC01AB2809F46CC02AE030E040E050E0F4
:1019E0000E94722CC901DA019C01AD01F5E0CF160D
:1019F000D10409F440C086E0C816D104B8F492E0DE
:101A0000C916D10449F1E3E0CE16D10430F4F1E077
:101A1000CF16D10409F047C01AC083E0C816D1041C
:101A200001F194E0C916D104F1F520C0E7E0CE162B
:101A3000D10459F1F7E0CF16D10410F188E0C816AF
:101A4000D10441F199E0C916D10469F528C02050AC
:101A50003F414A405A4F27C020503E434441544FD3
:101A600022C020503D454E415E4E1DC020503C4797
:101A70004842584E18C020503B494243524E13C072
:101A800020503A4B4C435C4D0EC02050394D4644DB
:101A9000564D09C02050384F4045504D04C020508D
:101AA00037414B455A4CE981FA8182818F5F8283AD
:101AB000B901CA0126960FB6F894DEBF0FBECDBF9E
:101AC000CF91DF911F910F91FF90EF90DF90CF901A
:101AD000BF90AF909F908F907F906F905F904F904E
:101AE0003F902F900895AF92BF92CF92DF92EF92E6
:101AF000FF920F931F93DF93CF93CDB7DEB72C9751
:101B00000FB6F894DEBF0FBECDBF5C016B018C0138
:101B1000085F1F4F81E090E0A0E0B0E0F501808712
:101B20009187A287B38711C0CA01B9012AE030E0CA
:101B300040E050E00E94272CF8016083718382838B
:101B40009383F60180818F5F8083F50160817181CD
:101B500082819381F8012081318142815381621712
:101B600073078407950700F78E010F5F1F4FB7E0DB
:101B7000EB2EF12CEC0EFD1E0E944C09ACE0EA2E7F
:101B8000F12CEA0CFB1C81E090E0A0E0B0E0F50154
:101B900084879587A687B78786010F5F1F4F11C07F
:101BA000CA01B9012AE030E040E050E00E94272C51
:101BB000F7016083718382839383F80180818F5F53
:101BC0008083F5016481758186819781F701208189
:101BD000318142815381621773078407950700F7AB
:101BE0008E010D5F1F4FF9E0EF2EF12CEC0EFD1E64
:101BF0000E944C09F60180819181891B8283C60174
:101C0000BE016F5F7F4FAE01495F5F4F0E94760C50
:101C10002C960FB6F894DEBF0FBECDBFCF91DF91EB
:101C20001F910F91FF90EF90DF90CF90BF90AF90FA
:101C30000895AF92BF92CF92DF92EF92FF920F93EF
:101C40001F93DF93CF93CDB7DEB72C970FB6F894E1
:101C5000DEBF0FBECDBF6C015B01A8E0EA2EF12C08
:101C6000E80EF91E81E090E0A0E0B0E0F601808788
:101C70009187A287B3878B010F5F1F4F11C0CA01E5
:101C8000B9012AE030E040E050E00E94272CF70143
:101C90006083718382839383F80180818F5F808367
:101CA000F6016481758186819781F70120813181F8
:101CB00042815381621773078407950700F78E01ED
:101CC0000F5F1F4FF7E0EF2EF12CEC0EFD1E0E9470
:101CD0004C098601045F1F4F81E090E0A0E0B0E076
:101CE000F60184879587A687B78711C0CA01B90115
:101CF0002AE030E040E050E00E94272CF8016083A9
:101D0000718382839383F50180818F5F8083F801E3
:101D10002081318142815381F60180819181A281AC
:101D2000B38182179307A407B50700F7CA01B90169
:101D30002AE030E040E050E00E94722CF601248757
:101D4000358746875787F501808181508083F6016A
:101D5000208131814281538184859585A685B7850F
:101D6000281739074A075B0789F4CA01B9012AE035
:101D700030E040E050E00E94272CF6016083718340
:101D800082839383F501808181508083F60164858D
:101D900075858685978520813181428153818E01A9
:101DA0000D5F1F4FE9E0EE2EF12CEC0EFD1E0E94A0
:101DB0004C09F50181819081890F8283C501BE01A3
:101DC0006F5F7F4FAE01495F5F4F0E94760C2C968C
:101DD0000FB6F894DEBF0FBECDBFCF91DF911F913C
:101DE0000F91FF90EF90DF90CF90BF90AF9008954C
:101DF0002F923F924F925F926F927F928F929F921B
:101E0000AF92BF92CF92DF92EF92FF920F931F9308
:101E1000DF93CF93CDB7DEB767970FB6F894DEBFE9
:101E20000FBECDBF6C01798B688BA42EA8E0EA2E83
:101E3000F12CE80EF91E81E090E0A0E0B0E0F601A0
:101E400080879187A287B3878B010F5F1F4F12C0D6
:101E5000CA01B9012AE030E040E050E00E94272C9E
:101E6000D7016D937D938D939C931397F801808197
:101E70008F5F8083D60114966D917D918D919C9199
:101E80001797F701208131814281538162177307CF
:101E900084079507E8F68E010D5F1F4FF9E0EF2EDE
:101EA000F12CEC0EFD1E0E944C09D6016D907D9028
:101EB0008D909C908601045F1F4F81E090E0A0E030
:101EC000B0E0F60184879587A687B78713C0CA015B
:101ED000B9012AE030E040E050E00E94272CD80110
:101EE0006D937D938D939C931397E889F9898081F5
:101EF0008F5F8083D8012D913D914D915C91F601CA
:101F000080819181A281B38182179307A407B507CD
:101F1000F0F6CA01B9012AE030E040E050E00E944A
:101F2000722CD6011C962D933D934D935C931F9775
:101F3000E889F9898081815080832D913D914D916F
:101F40005C9113971C968D919D910D90BC91A02D45
:101F5000281739074A075B0799F4CA01B9012AE033
:101F600030E040E050E00E94272CD6016D937D9335
:101F70008D939C931397E889F989808181508083A0
:101F8000D6011C966D917D918D919C911F972D91FD
:101F90003D914D915C918E010F5F1F4FE7E0EE2E5A
:101FA000F12CEC0EFD1E0E944C09F601608271823C
:101FB000828293822F813885C901A0E0B0E02C0194
:101FC0003324222489819A81A0E0B0E0280E391EB2
:101FD0004A1E5B1E37FD02C01F8606C056944794FA
:101FE00037942794F1E0FF876624772443011E8607
:101FF0001D862A2D30E0215030403B8B2A8B88896A
:10200000998902969D8B8C8BA889B9891196BF8B73
:10201000AE8BE2C089859A85A0E0B0E08C01FF24F8
:10202000EE248B819C81A0E0B0E0E80EF91E0A1F2F
:102030001B1FBF85B13021F416950795F794E794DF
:10204000EE89FF898081A889B9899C91890FEC89E3
:10205000FD898083C801B701A20191010E94722C01
:1020600059016A016901C801B701A20191010E94E9
:10207000722CA20191018E010B5F1F4FEBE0EE2E3F
:10208000F12CEC0EFD1E0E944C096B857C858D8128
:102090009E810E94E0093B014C01AB2809F471C00C
:1020A0002AE030E040E050E00E94722CC901DA01E1
:1020B0003C014D01F5E0CF16D10409F441C026E002
:1020C000C216D104C0F432E0C316D10451F183E04A
:1020D000C816D10430F491E0C916D10409F04CC0FF
:1020E0001BC0A3E0CA16D10409F1B4E0CB16D10499
:1020F00009F042C020C0E7E0CE16D10459F1F7E064
:10210000CF16D10410F128E0C216D10441F139E014
:10211000C316D10489F528C080E091EEA5EFB5E0A3
:1021200027C080E092ECABEEBBE022C080E093EAF7
:10213000A1EEB1E11DC080E094E8A7EDB7E118C0C1
:1021400080E095E6ADECBDE113C080E096E4A3EC41
:10215000B3E20EC080E097E2A9EBB9E209C080E0EB
:1021600098E0AFEABFE204C080E099EEA4EAB5E3EC
:10217000680E791E8A1E9B1EAC89BD898C918F5F6B
:102180008C9321E030E040E050E00AC0CA01B90180
:102190002AE030E040E050E00E94272C9B01AC0197
:1021A000621673068406950688F7C401B3018E0192
:1021B0000D5F1F4FB9E0EB2EF12CEC0EFD1E0E94BF
:1021C0004C09EC89FD898081AE89BF898C93ED85AE
:1021D000FE853196FE87ED872A893B898D859E8510
:1021E000821793070CF416CFB301C40167960FB69C
:1021F000F894DEBF0FBECDBFCF91DF911F910F913D
:10220000FF90EF90DF90CF90BF90AF909F908F9016
:102210007F906F905F904F903F902F9008952F92F6
:102220003F924F925F926F927F928F929F92AF9266
:10223000BF92CF92DF92EF92FF920F931F93DF93A3
:10224000CF93CDB7DEB729970FB6F894DEBF0FBE98
:10225000CDBF6C015B01FB0121912F012D83FB019F
:1022600021808C01045F1F4F81E090E0A0E0B0E08E
:10227000F60184879587A687B787322E0EC0CA01DC
:10228000B9012AE030E040E050E00E94272CF8013C
:1022900060837183828393833394F60160817181BB
:1022A00082819381F80120813181428153816217BB
:1022B00073078407950718F78E010F5F1F4FA3E080
:1022C000EA2EF12CEC0EFD1E0E944C096B817C81E4
:1022D00089819A810E94E0096E837F83888799872C
:1022E00081E090E0A0E0B0E0F60181939193A193AA
:1022F000B1938F01F60184839583A683B783F2E0BF
:102300006F2E712C6A0C7B1CF5011282F501108274
:10231000F2011082C601B501422D0E94F80E2E81F5
:102320003F8148855985261737074807590720F404
:10233000F30180818315E9F0F30180813816CCF038
:10234000F60180819181A281B3810196A11DB11D09
:1023500080839183A283B383F80180819181A281DC
:10236000B3810196A11DB11D80839183A283B383A4
:10237000CDCFF60180819181A281B3810197A1091E
:10238000B10980839183A283B38384819581A681DF
:10239000B7810197A109B10984839583A683B78387
:1023A000F50110821182C601B501422D0E94F80E7E
:1023B000F50110821182F6014081518162817381A1
:1023C00021E030E088240BC0C901880F991FB3E0D9
:1023D000220F331FBA95E1F7280F391F8394C901E3
:1023E000A0E0B0E0481759076A077B0768F799240F
:1023F0009A94F60160817181828193812AE030E0B4
:1024000040E050E00E94272CF601608371838283B4
:102410009383F80160817181828193810E94272CCE
:10242000F8016083718382839383EE24FF24F50196
:102430009082F2019082C601B501422D0E94F80EF1
:102440002E813F8148855985261737074807590748
:1024500020F4F3018081831519F1F301808138168E
:10246000FCF0F60180819181A281B3810196A11DCA
:10247000B11D80839183A283B383F8018081918110
:10248000A281B3810196A11DB11D80839183A28396
:10249000B3830894E11CF11CFAE0EF16F10439F65D
:1024A000F60180819181A281B3810197A109B109CF
:1024B00080839183A283B383F80180819181A2817B
:1024C000B3810197A109B10980839183A283B3836A
:1024D000F5019082F20190829A94F9EF9F1609F02B
:1024E00088CFF50182822D8120832182F6016081CF
:1024F00071818281938129960FB6F894DEBF0FBE59
:10250000CDBFCF91DF911F910F91FF90EF90DF90A2
:10251000CF90BF90AF909F908F907F906F905F9083
:102520004F903F902F9008959F92AF92BF92CF927D
:10253000DF92EF92FF920F931F937C018B01FB01BF
:102540009180FC01A480B580C680D7808081918174
:10255000A281B38184839583A683B783FB018081A5
:102560008183C701492D0E94F80EF8019182F7017D
:10257000A482B582C682D7821F910F91FF90EF90FF
:10258000DF90CF90BF90AF909F9008952F923F9291
:102590004F925F926F927F928F929F92AF92BF9273
:1025A000CF92DF92EF92FF920F931F93DF93CF931F
:1025B000CDB7DEB7EB970FB6F894DEBF0FBECDBF39
:1025C00079AF68AFBC01992777FD9095892F9B0162
:1025D000AC012070307829A73AA74BA75CA79B01D4
:1025E000AC0120703074407050702DA33EA34FA3F7
:1025F00058A79B01AC01207030724070507029A325
:102600003AA34BA35CA39B01AC01207030714070D6
:1026100050702D8F3E8F4F8F58A39B01AC012070BF
:10262000387040705070298F3A8F4B8F5C8F9B01B0
:10263000AC0120703470407050702D8B3E8B4F8BEE
:10264000588F9B01AC012070327040705070298B04
:102650003A8B4B8B5C8B9B01AC01207031704070CE
:1026600050702D873E874F87588B9B01AC01207897
:1026700030704070507029873A874B875C879B0188
:10268000AC0120743070407050702D833E834F83B6
:1026900058879B01AC0120723070407050702983C4
:1026A0003A834B835C8350E1252E312C412C512CF5
:1026B000262237224822592248E0642E712C812C90
:1026C000912C662277228822992234E0A32EB12C05
:1026D000C12CD12CA622B722C822D92222E0E22E78
:1026E000F12C012D112DE622F722082319239B013D
:1026F000AC0121703070407050702CAB3DAB4EABD4
:102700005FAB20E030E040E050E0E0E0F0E0E730B8
:10271000F10509F4A5C0E830F105DCF4E330F1057A
:1027200009F464C0E430F1055CF4E130F10509F42A
:1027300040C0E230F1050CF04AC0309759F1FDC0BD
:10274000E530F10509F46FC0E630F1050CF079C011
:102750005BC0EB30F10509F4BCC0EC30F1054CF482
:10276000E930F10509F499C0EA30F1050CF0A3C095
:1027700085C0ED30F10509F4C0C0ED30F1050CF471
:10278000B2C0EE30F10509F4C2C0EF30F10509F036
:10279000D4C0C7C069A57AA58BA59CA56115710594
:1027A0008105910509F4C9C020503A4C4A495B4360
:1027B000C4C08DA19EA1AFA1B8A50097A105B10588
:1027C00009F4BBC020503B494243524EB6C069A1F8
:1027D0007AA18BA19CA1611571058105910509F470
:1027E000ACC020583D444941514FA7C08D8D9E8DAE
:1027F000AF8DB8A10097A105B10509F49EC0205C7A
:10280000364A4C48584F99C0698D7A8D8B8D9C8D76
:10281000611571058105910509F48FC02056334576
:1028200046445C4F8AC08D899E89AF89B88D0097D8
:10283000A105B10509F481C0205B394243425E4FD6
:102840007CC069897A898B899C89611571058105AC
:10285000910509F472C0285D344941415F4F6DC054
:102860008D859E85AF85B8890097A105B10509F4CE
:1028700064C02C563A4C48485F4F5FC069857A85E2
:102880008B859C85611571058105910509F455C0FD
:1028900026533546444C5F4F50C08D819E81AF8199
:1028A000B8850097A105B10509F447C02B593243FB
:1028B000424E5F4F42C069817A818B819C81611554
:1028C000710581059105C9F12D543941414F5F4F83
:1028D00034C0211431044104510479F1275A3C4891
:1028E000484F5F4F2AC0611471048104910429F19B
:1028F000235536444C4F5F4F20C0A114B104C1048E
:10290000D104D9F02A5233424E4F5F4F16C0E11422
:10291000F1040105110589F0255931414F4F5F4FF1
:102920000CC08CA99DA9AEA9BFA90097A105B105AE
:1029300021F02A5C38484F4F5F4F3196E031F10566
:1029400009F0E5CEE0E0F0E0A8ADB9ADA070B1705F
:10295000BEA7ADA768AD79AD6071707078AB6FA799
:1029600088AD99AD847090709AAB89AB28AC39ACC6
:1029700098E02922332448AC59ACA2E04A225524DD
:1029800068AC79ACB0E46B22772488AC99AC60E297
:102990008622992478AD70787BABA12C00E1B02E13
:1029A00088AD99ADA822B922C12C14E0D12EC8223D
:1029B000D922E12CB2E0FB2EE822F9228070987037
:1029C0009BAF8AAF08AD19AD0070107488AD99AD9A
:1029D0008070907268AD79AD60707078E730F10505
:1029E00009F478C0E830F105CCF4E330F10509F4DE
:1029F0004CC0E430F1054CF4E130F105A9F1E230CE
:102A0000F105DCF5309739F1A7C0E530F10509F49F
:102A10004FC0E630F1050CF054C040C0EB30F1057A
:102A200009F479C0EC30F1054CF4E930F10509F412
:102A300062C0EA30F1050CF066C055C0ED30F1051A
:102A400009F47AC0ED30F1050CF46EC0EE30F105FA
:102A500009F082C07AC06115710509F47DC0255660
:102A6000344C4F4F5F4F78C00115110509F474C005
:102A70002353324E4F4F5F4F6FC0009709F46CC025
:102A80002951314F4F4F5F4F67C0A114B10409F472
:102A900063C02D58384F4F4F5F4F5EC0AAADBBADDE
:102AA000AB2B09F459C026543C4F4F4F5F4F54C0D5
:102AB000C114D10409F450C023523E4F4F4F5F4F11
:102AC0004BC0E114F10409F447C022513F4F4F4F6E
:102AD0005F4F42C0ADA5BEA5AB2BF1F129583F4FCA
:102AE0004F4F5F4F39C0BBA9BB23B1F1245C3F4FAF
:102AF0004F4F5F4F31C06114710471F1225E3F4F3F
:102B00004F4F5F4F29C08114910431F1215F3F4F36
:102B10004F4F5F4F21C0AFA5B8A9AB2BE9F0295F9C
:102B20003F4F4F4F5F4F18C021143104A9F02C5F65
:102B30003F4F4F4F5F4F10C0A9A9BAA9AB2B61F00F
:102B40002E5F3F4F4F4F5F4F07C04114510421F09C
:102B50002F5F3F4F4F4F5F4F3196E031F10509F046
:102B60003DCFB901CA01EB960FB6F894DEBF0FBE98
:102B7000CDBFCF91DF911F910F91FF90EF90DF902C
:102B8000CF90BF90AF909F908F907F906F905F900D
:102B90004F903F902F9008957F928F929F92AF9287
:102BA000BF92CF92DF92EF92FF920F931F93DF932A
:102BB000CF93CDB7DEB72C970FB6F894DEBF0FBE1C
:102BC000CDBF4B015C01742E690180E090E0F601FD
:102BD000E80FF91F1082019680319105C1F7C501F8
:102BE000B4010E94C6127B018C01B7FE04C0E094C0
:102BF000F094009510958AE0B801A70127E030E035
:102C00000E9465048823A1F082E39AECAAE9BBE361
:102C1000E80EF91E0A1F1B1FC601B801A7012AE012
:102C20000E94F502D6011C9211961C9290E004C0FD
:102C300080E3F601808791E08EE2D60119968C93AD
:102C4000199780E31A968C931A97B7FE03C08DE20A
:102C50001B968C93913019F481E3F601828780E012
:102C600090E001C00196F601E80FF91F20812223B0
:102C7000C9F32033B9F3DF0120E030E04FE050E04A
:102C8000481B590BF601E20FF31F8D9180832F5FD4
:102C90003F4F42175307B4F7772009F446C0472D3A
:102CA000552747FD5095652F752F8E010F5F1F4FDC
:102CB000C8012AE00E94F50260E070E002C06F5F88
:102CC0007F4FF801E60FF71F80818823C1F7F601D7
:102CD000E61BF70B3D96D60140E050E02DE030E0DA
:102CE000261B370B80811F968C931F974F5F5F4F7A
:102CF0003197119724173507ACF720E030E0AE018B
:102D00004F5F5F4F07C0FA01E20FF31F80818C9382
:102D10002F5F3F4FD601A20FB31F261737079CF333
:102D200088E58C9380E211968C93E2E0F2E020E05B
:102D300030E0922F432F81912F5F3F4F8823C9F7B7
:102D40009093D2014093D3011092A2021092A1025B
:102D500010928A02109289022C960FB6F894DEBF68
:102D60000FBECDBFCF91DF911F910F91FF90EF90DC
:102D7000DF90CF90BF90AF909F908F907F900895FD
:102D80001F920F920FB60F9211242F933F935F93D0
:102D90006F937F938F939F93AF93BF93EF93FF9323
:102DA0008091C2018F3438F48D3408F042C08930EC
:102DB00009F045C005C08255833008F040C039C0D5
:102DC00080916F0290917002892B51F480E090E025
:102DD000FC01ED5EFD4F1082019688309105C1F730
:102DE00080916F0290917002EAE1F2E0E81BF90B2A
:102DF0008FE5808380916F0290917002019690938D
:102E0000700280936F0280916F029091700268E06F
:102E100070E00E945F2C9093700280936F0280EFAD
:102E20008093850083EC8093840085E0809381000B
:102E30000BC08091D5018F5F8093D50105C081E0E3
:102E40008093C70110928100FF91EF91BF91AF91E4
:102E50009F918F917F916F915F913F912F910F90F3
:102E60000FBE0F901F9018951F920F920FB60F92E2
:102E700011242F933F934F935F936F937F938F937F
:102E80009F93AF93BF93EF93FF938091C2018F34D1
:102E900030F48D34F0F48B3409F08CC009C08235E5
:102EA00008F488C08435A8F0843509F083C025C0B3
:102EB0008091C8018F5F8093C8018091C8018330E1
:102EC00009F0A2C01092C80182E092E00E94B4040E
:102ED0009BC0109281002091840030918500109257
:102EE00085001092840081E08093810080911B0214
:102EF00090911C020597ACF451C010928100209172
:102F0000840030918500109285001092840081E049
:102F10008093810080911B0290911C021816190663
:102F2000ECF540E050E08091D501813091F08130A6
:102F300018F0823099F51AC08091B1029091B202D6
:102F4000A091B302B091B4028452944FA040B0401B
:102F500019C08091B1029091B202A091B302B091D8
:102F6000B4028452944FAF4FBF4F0CC08091B10256
:102F70009091B202A091B302B091B4028452944FE6
:102F8000AE4FBF4F820F931FA41FB51F8093B10296
:102F90009093B202A093B302B093B4021092D50101
:102FA00080911B0290911C02019690931C028093C9
:102FB0001B022AC08091C8018F5F8093C801809155
:102FC000C801803109F51092C8018091C201863490
:102FD00041F00E94560889E290E09093C4018093EA
:102FE000C3018091C201863479F489E28093B300F1
:102FF00081E48093B00285EA8093BC00109279024C
:103000001092780210929F02FF91EF91BF91AF91C1
:103010009F918F917F916F915F914F913F912F91F0
:103020000F900FBE0F901F9018951F920F920FB622
:103030000F9211248F93EF93FF93E3EBF0E08081E5
:10304000875D80838081808381E48093B00285EAFC
:103050008093BC00109279021092780210929F0225
:10306000FF91EF918F910F900FBE0F901F901895C9
:103070001F920F920FB60F9211242F933F934F93ED
:103080008F939F93EF93FF934091B002453489F162
:10309000463440F44234B1F0433411F1413409F084
:1030A00072C008C04734D9F1473458F1483409F0A8
:1030B0006AC05DC083E08093BB0085E88093BC005C
:1030C00082E45FC08091B900803429F485E8809360
:1030D000BC0083E456C085EA8093BC0081E451C003
:1030E0008091BB0080939F0280919F02882369F4A6
:1030F00047C083E08093BB0085E88093BC0086E4F2
:1031000040C08091B900803429F085EA8093BC00EA
:1031100085E437C085EC8093BC0087E432C0E09141
:103120007802F09179028091BB00ED5EFD4F8083C3
:103130008091780290917902019690937902809320
:103140007802209178023091790280919F0290E07C
:1031500001972817390734F485EC8093BC0040931D
:10316000B00211C085E88093BC0088E40AC0E091F9
:103170007802F09179028091BB00ED5EFD4F808373
:103180008AE58093B0028091B0028A3521F484E907
:103190008093BC00A895FF91EF919F918F914F91E3
:1031A0003F912F910F900FBE0F901F901895109286
:1031B000850010928400109281001092B1008091DD
:1031C000B60080FDFCCF1092B0008091B60081FD6A
:1031D000FCCF1092B2008091B60084FDFCCF089520
:1031E00081E08093B1008091B60080FDFCCF81E04A
:1031F000809381000895CF92DF92EF92FF920F9318
:103200001F93282F10921C0210921B021092B102E1
:103210001092B2021092B3021092B40280911B027B
:1032200090911C020F97D4F310921C0210921B0273
:10323000C090B102D090B202E090B302F090B4021C
:10324000F7FE08C0F094E094D094C094C11CD11C47
:10325000E11CF11C2223E1F0009171021091720235
:10326000000F111F035E1D4FC701B6012AE030E0B9
:1032700040E050E00E94942CF8013183208380913B
:103280007102909172020196909372028093710282
:10329000C701B6012AE030E040E050E00E94942CE3
:1032A000CA01B9011F910F91FF90EF90DF90CF906D
:1032B000089510921C0210921B021092B1021092FB
:1032C000B2021092B3021092B40280911B0290914C
:1032D0001C020F97D4F310921C0210921B026091F3
:1032E000B1027091B2028091B3029091B4022AE0CF
:1032F00030E040E050E00E94942CCA01B9010895EA
:10330000982F1092B1008091B60080FDFCCF1092F2
:10331000B0008091B60081FDFCCF1092B200809188
:10332000B60084FDFCCF992369F080917000816024
:103330008093700081E08093B1008091B60080FDA1
:10334000FCCF0895809170008E7F80937000109262
:10335000C201089510921C0210921B021092B10239
:103360001092B2021092B3021092B40280911B022A
:1033700090911C020297D4F310921C0210921B022F
:103380002091B1023091B2024091B3025091B40247
:10339000B901CA010895DF92EF92FF920F931F9334
:1033A000D82E1092D5018093660080E00E94FB1811
:1033B000209166002F5F20936600AC01CB01DA01FB
:1033C0007C018D0180E00E94FB189B01AC01E61698
:1033D000F7060807190754F480916600815080931E
:1033E0006600809166008D1531F508C080916600F9
:1033F0008F5F8093660079018A01E4CF8091660037
:1034000081508093660080E00E94FB189B01AC0114
:10341000E616F7060807190734F4809166008F5FF7
:103420008093660008C0809166008150809366009A
:1034300079018A01E8CFB701C8011F910F91FF9070
:10344000EF90DF900895EF92FF921F93CF93DF9359
:103450008091D901882379F58091DA01882359F583
:103460008091DB01882339F58091DC01882319F5EF
:103470008091DD018823F9F48091DE018823D9F45D
:103480008091DF018823B9F48091D801813499F4C7
:103490001092AD021092AE02109275021092770255
:1034A000109276021092D101109287021092880237
:1034B0001092E80115C250E08091D801803509F4DE
:1034C00051E06091760270917702552331F0FB0153
:1034D000E355FD4F8081882329F0EFEDF1E020E0F6
:1034E00030E014C08FEF808320E030E0F901E85233
:1034F000FE4F8081F901ED5EFD4F80832F5F3F4FCE
:103500002830310599F7ECC12F5F3F4F808131970B
:103510008823D1F3A8E0A21B8091D101A81711F054
:10352000B1E001C0B52FA093D10140E020E030E030
:10353000F901ED5EFD4F9081F901E852FE4F808167
:10354000981709F44F5F2F5F3F4F2830310581F7FF
:10355000483011F020E002C021E0252780911A02B6
:10356000882349F190911A028091DF018917F1F4C3
:10357000909119028091DE018917C1F4909118028F
:103580008091DD01891791F4909117028091DC01FF
:10359000891761F4909116028091DB01891731F44B
:1035A000909115028091DA01891729F08091E80144
:1035B0008F5F8093E8019091E801992309F071C031
:1035C000222309F06EC020E030E0F901E852FE4FFE
:1035D0008081F901ED5EFD4F80832F5F3F4F2830E2
:1035E000310599F7BB2309F47BC1672BC9F490918E
:1035F000AD02992309F474C180917502880F8F5F21
:103600008093750291509093AD0280E090E0FC01B0
:10361000EF56FD4F1082019688309105C1F760C1C9
:103620009091AE02992381F480917502880F809366
:10363000750280E090E0FC01EF56FD4F108201968C
:1036400088309105C1F715C09F3F9CF480917502A9
:10365000880F8F5F8093750291509093AE0280E047
:1036600090E0FC01EF56FD4F1082019688309105E5
:10367000C1F78091AE028F3F09F032C1809175028F
:103680008F5F8093750280E090E0FC01EF56FD4F64
:103690001082019688309105C1F78EEF8093AE02BB
:1036A0001FC1672B09F4DDC020E030E0F901ED5EB9
:1036B000FD4F8081D901A852BE4F8C9310822F5F9D
:1036C0003F4F2830310591F780916F0081608093E2
:1036D0006F0080EF8093850083EC8093840085E009
:1036E000809381008091C7018823E1F31092C70184
:1036F00080916F008E7F80936F0020E030E0F901B1
:10370000E852FE4F8081F901ED5EFD4F80832F5F0F
:103710003F4F2830310599F7923070F48091AD0217
:10372000882319F08F5F8093AD028091AE028823C9
:1037300019F08F5F8093AE02C0E0D0E001C0219607
:10374000FE01ED5EFD4F80818823C9F77E0160E0B8
:1037500070E080E090E013C02197FE01ED5EFD4F28
:1037600010812AE030E040E050E00E94272C6053B6
:10377000704080409040610F711D811D911D209708
:1037800059F76093EE017093EF018093F0019093ED
:10379000F10197012F5F3F4FF901ED5EFD4F8081F1
:1037A000882319F028303105ACF3E90120E030E03E
:1037B00040E050E016C0FE01ED5EFD4F1081CA01F1
:1037C000B9012AE030E040E050E00E94272C9B0144
:1037D000AC012053304040405040210F311D411D6D
:1037E000511D2197CE15DF0531F72093EA01309363
:1037F000EB014093EC015093ED0160E070E0FB01C0
:10380000ED5EFD4F8081FB01E658FD4F80836F5FC9
:103810007F4F6830710599F780917502809382021D
:103820008091AD02809387028091AE0280938802DE
:103830002093FA013093FB014093FC015093FD016A
:103840008091EE019091EF01A091F001B091F10112
:103850008093FE019093FF01A0930002B0930102B8
:103860003FC080917502880F880F8093750280E0B9
:1038700090E0FC01EF56FD4F1082019688309105D3
:10388000C1F726E030E0F901ED5EFD4F8081F901DE
:10389000EC5EFD4F8083215030408FEF2F3F380783
:1038A00091F71092130226E030E0F901ED5EFD4F32
:1038B0008081F901EC5EFD4F8083215030408FEF15
:1038C0002F3F380791F780E3809313028A2F8E5F92
:1038D0008093D10181E090E090937702809376020B
:1038E000DF91CF911F91FF90EF9008953091D80113
:1038F0003093A002809187028093AD02809188026C
:103900008093AE028091FA019091FB01A091FC019D
:10391000B091FD018093EA019093EB01A093EC013B
:10392000B093ED016091FE018091FF019091000242
:10393000209101024EEE51E06093EE018093EF0181
:103940009093F0012093F1013D3481F03E3438F43E
:10395000313409F45EC0343409F078C00EC030351B
:1039600009F44EC0323509F071C016C0CA0104977F
:103970006DEA72E00E94190E06C0CA0104976DEA52
:1039800072E00E94730D60939B0270939C0280937F
:103990009D0290939E025AC01092700210926F0284
:1039A00080916F00816080936F0080EF809385002D
:1039B00083EC8093840085E0809381006093AE0265
:1039C000CA0104976DEA72E00E940F1160939B0296
:1039D00070939C0280939D0290939E0280916F0051
:1039E0008E7F80936F001092810080E090E0FC0158
:1039F000ED5EFD4F1082019688309105C1F726C01B
:103A00006093AE02CA0104976DEA72E00E949412BC
:103A1000BACF20E030E0F901E658FD4F8081F9018E
:103A2000ED5EFD4F80832F5F3F4F2830310599F7C2
:103A3000809182028093750280E090E0FC01EF5655
:103A4000FD4F1082019688309105C1F78091A00248
:103A5000813409F465C060919B0270919C02809151
:103A60009D0290919E024091AF020E94F4006091ED
:103A7000AF0260939A0280919B0290919C02A09168
:103A80009D02B0919E0280938F02292F3A2F4B2FD7
:103A9000552720938E029D014427552720938D02A0
:103AA0008B2F9927AA27BB2780938C0210929B0209
:103AB00010929C0210929D0210929E0234EA22E023
:103AC00094E83093BC008091BC0087FFFCCF20932A
:103AD000BB009093BC008091BC0087FFFCCF80911D
:103AE000B900883171F7ECE8F2E094E880818093C6
:103AF000BB009093BC008091BC0087FFFCCF319647
:103B000082E0E039F80791F76093BB0084E8809386
:103B1000BC008091BC0087FFFCCF84E98093BC008F
:103B200008950F931F93CF93DF938091DF01882334
:103B300009F057C020E030E0F901E852FE4F8081E3
:103B4000F901ED5EFD4F80832F5F3F4F2830310537
:103B500099F726E030E0F901ED5EFD4F8081F90133
:103B6000EC5EFD4F8083215030408FEF2F3F3807B0
:103B700091F71092130226E030E0F901ED5EFD4F5F
:103B80008081F901EC5EFD4F8083215030408FEF42
:103B90002F3F380791F790E39093130281E38093CE
:103BA00013029093140223E030E0F901ED5EFD4F23
:103BB0008081D901A95EBD4F8C9310822150304085
:103BC0008FEF2F3F380789F780911A02882319F465
:103BD00080E380931A02809118028823E9F580E33C
:103BE0001CC0813319F08233B9F51EC080911702D1
:103BF000893349F480911802893329F480E3809352
:103C000017028093180280911702893349F480E3E8
:103C100080931702809118028F5F809318021CC056
:103C2000809117028F5F16C080911702813321F4B3
:103C300080911802803381F080911702803339F42B
:103C40008091180281508093180289E303C080910B
:103C5000170281508093170260911A022091190275
:103C600040911802809117021092130210921402D0
:103C7000109215021092160290E080519240EAE0F4
:103C80004E9FA0011124840F951F30E02051324037
:103C90006E9FB0011124260F371F829FE001839F82
:103CA000D00D929FD00D112400E010E0CE016AE00B
:103CB00070E00E945F2C805DF801ED5EFD4F808317
:103CC0000F5F1F4FCE016AE070E00E945F2CEB0196
:103CD000161617065CF380E38093750280E090E08F
:103CE000FC01EF56FD4F1082019688309105C1F717
:103CF000DF91CF911F910F9108950F931F93CF9351
:103D0000DF939091E0016091A00220E030E0283044
:103D1000310511F4692F08C0F901E852FE4F808186
:103D2000F901ED5EFD4F80832F5F3F4F2930310554
:103D300071F76093A002C0E0D0E001C02196FE01BF
:103D4000ED5EFD4F8081882319F440E050E017C0FC
:103D5000C330D10599F7F9CF2197FE01ED5EFD4FF4
:103D60002081CA01E3E0880F991FEA95E1F7440F2B
:103D7000551F480F591F40535040420F511D209767
:103D800059F7613439F48091850290918602840F4D
:103D9000951F08C0633559F4809185029091860281
:103DA000841B950B909386028093850206C0633432
:103DB00021F41092860210928502009185021091E2
:103DC00086021093A4020093A30217FF08C088275D
:103DD0009927801B910B90938602809385022091F6
:103DE000850230918602C9016AE070E00E945F2C72
:103DF000805DFE01EA5EFD4F80832196C9016AE085
:103E000070E00E945F2C9B011616170664F317FFE3
:103E100004C0CA5EDD4F8DE2888387E0809375021F
:103E200080E090E0FC01EF56FD4F10820196883053
:103E30009105C1F71093860200938502DF91CF911F
:103E40001F910F9108950F931F93CF93DF9380914C
:103E5000D801809313028091D9018093140280913C
:103E6000DA01809315020091850210918602109369
:103E7000A4020093A30217FF08C088279927801B7C
:103E8000910B909386028093850220918502309158
:103E90008602C0E0D0E0C9016AE070E00E945F2CB9
:103EA000805DFE01EA5EFD4F80832196C9016AE0D4
:103EB00070E00E945F2C9B011616170664F317FF33
:103EC00004C0CA5EDD4F8DE2888387E0809375026F
:103ED00080E090E0FC01EF56FD4F108201968830A3
:103EE0009105C1F71093860200938502DF91CF916F
:103EF0001F910F91089520E030E047E050E0FA0173
:103F0000E21BF30BD901A852BE4F8C91E753FE4F31
:103F100080832F5F3F4F2830310589F720E030E064
:103F2000F901E753FE4F8081F901ED5EFD4F80837B
:103F30002F5F3F4F2830310599F782E08093B10021
:103F40008091700081608093700081E08093D40143
:103F50008093990208958091D8018093E60185337A
:103F600041F1863340F4823379F0833381F0813339
:103F700009F0E1C0DDC0873309F46FC08733D8F1A1
:103F8000883309F0D8C098C01092D401D4C01092E0
:103F9000D40120E030E0F901E753FE4F8081F901C0
:103FA000ED5EFD4F80832F5F3F4F2830310599F73D
:103FB000C2C08091C901893320F48091C9018F5F0B
:103FC00053C090E39093C9018091CA01853320F4D6
:103FD0008091CA018F5F55C09093CA018091CC0136
:103FE000893308F46DC09093CC018091CD01853365
:103FF00008F05FC072C08091CC01813308F04BC0E3
:1040000089E38093CC018091CD01813308F04DC0CC
:1040100085E38093CD018091D001803389F0803396
:1040200008F486C0833308F083C08091CF018133C8
:1040300058F489E38093CF018091D001815076C0FC
:104040008091CF01813320F08091CF01815068C0F1
:1040500083E38093CF0182E369C08091C9018133FA
:1040600030F08091C90181508093C90161C029E37A
:104070002093C9018091CA01813330F08091CA0137
:1040800081508093CA0154C095E39093CA018091F6
:10409000CC01813320F08091CC01815014C0209359
:1040A000CC018091CD01813320F08091CD018150F0
:1040B00017C09093CD013CC08091CC01893330F47E
:1040C0008091CC018F5F8093CC0132C090E39093BC
:1040D000CC018091CD01853330F48091CD018F5F8B
:1040E0008093CD0125C09093CD018091D001803384
:1040F000F8F0823318F08233D9F40BC08091CF01ED
:10410000893358F080E38093CF018091D0018F5F95
:104110000DC08091CF01833330F48091CF018F5F48
:104120008093CF0105C080E38093CF018093D001BD
:1041300081E08093D40181E08093990208953F92B9
:104140004F925F926F927F928F929F92AF92BF92A7
:10415000CF92DF92EF92FF920F931F93DF93CF9353
:10416000CDB7DEB7CF55D0400FB6F894DEBF0FBE47
:10417000CDBF2091D80180E090E030E3FC01EB5509
:10418000FD4F3083019688309105C1F7223341F409
:1041900082E0809399021092A7021092AA0207C0AF
:1041A00083E0809399021092A6021092A9021092C5
:1041B000B20082E08093B1008091700081608093B2
:1041C000700011E0CC24DD24EE24FF24AA24BB24BB
:1041D00084EA482E03E0302EB4E87B2E04ECA4E9F8
:1041E0005A2E4E010894811C911CF0E36F2E01C0E1
:1041F00011E04092BC008091BC0087FFFCCF309260
:10420000BB007092BC008091BC0087FFFCCF809106
:10421000B9008034E9F18091B2002091C30130915E
:10422000C40190E08217930721F78091C301909118
:10423000C401899660E071E00E945F2C9093C401F4
:104240008093C30180919902823071F0833071F4C0
:104250008091B5028F5F8093B5028A3039F40E9455
:1042600026091092B50202C00E942609113009F6F3
:1042700020E030E0F901EB55FD4F8081F901ED5E62
:10428000FD4F80832F5F3F4F2830310599F7B1CF25
:104290000093BC008091BC0087FFFCCF8091BB00E5
:1042A00080939F020093BC008091BC0087FFFCCFED
:1042B0008091BB008093C2017092BC008091BC00D1
:1042C00087FFFCCF9091BB009093E6015092BC0019
:1042D0008091C2018A3089F41092B10080917000FF
:1042E0001092700080E090E0FC01ED5EFD4F1082C6
:1042F000019688309105C1F776C0923361F093330F
:1043000020F4913309F075CF73CF933369F194336F
:1043100009F06FCF46C020E030E0F901EB55FD4FCA
:104320008081F901ED5EFD4F80832F5F3F4F283084
:10433000310599F7D401AC0DBD1D20E030E0F90145
:10434000ED5EFD4F80818D932F5F3F4F283031050B
:10435000B1F7C601089660E570E00E945F2C6C0121
:104360000894A11CB11C3DC080E090E0FC01EB551D
:10437000FD4F6082019688309105C1F780919902C6
:10438000823021F41092A7021092AA028091990221
:10439000833021F41092A6021092A9021092B2006A
:1043A00027CFA114B10409F424CFD401AE0DBF1D51
:1043B00020E030E08D91F901ED5EFD4F80832F5FAD
:1043C0003F4F28303105B1F7C70108962AE0A21601
:1043D000B10414F4B60102C060E570E00E945F2CE5
:1043E0007C0110E006CFC15ADF4F0FB6F894DEBF54
:1043F0000FBECDBFCF91DF911F910F91FF90EF9036
:10440000DF90CF90BF90AF909F908F907F906F90F4
:104410005F904F903F9008958093BB0084E8809315
:10442000BC008091BC0087FFFCCF0895882311F465
:1044300084E801C084EC8093BC008091BC0087FFBD
:10444000FCCF8091BB000895CF92DF92EF92FF9254
:104450000F931F938DEF93E00E94C32C8093D6019E
:1044600010E1FF24F394A4EACA2EF2E0DF2E04E860
:10447000E4E9EE2E8091700081608093700080915D
:104480006F00816080936F000E94D718F092B10096
:104490008091B60080FDFCCFF09281001093660001
:1044A0000E9459196093E2017093E3018093E40143
:1044B0009093E5018091D601809366000E94D71801
:1044C000809170008E7F8093700080916F008E7F4E
:1044D00080936F00C092BC008091BC0087FFFCCF2E
:1044E000D092BB000093BC008091BC0087FFFCCF42
:1044F0008091B900883171F72091E2013091E30198
:104500004091E4015091E501852FBB2787FDB095CF
:104510009B2FAB2F8093BB000093BC008091BC000D
:1045200087FFFCCFCA01BB2797FDB095AB2F8093C7
:10453000BB000093BC008091BC0087FFFCCFBB2771
:1045400057FDBA95A52F942F832F8093BB0000931E
:10455000BC008091BC0087FFFCCF2093BB00009380
:10456000BC008091BC0087FFFCCFE092BC001F5FC5
:10457000113F09F07FCF1F910F91FF90EF90DF90D7
:10458000CF9008951F920F920FB60F9211242F9380
:104590003F934F935F936F937F938F939F93AF93CB
:1045A000BF93EF93FF938BEF93E00E94C32C8F3F59
:1045B000A1F416BC8091C201863469F48091700028
:1045C0001092700078940E946E0680917000836053
:1045D0008093700002C00E946E068BEF93E00E94F1
:1045E000C32C8E3F09F050C080918402882399F437
:1045F0008091C201863469F480917000109270003D
:1046000078940E946E0680917000836080937000A1
:1046100002C00E946E0680918302833091F0843044
:1046200028F4813051F0823050F413C0853069F0A5
:10463000853048F0863069F40AC080E80BC085E414
:1046400009C016BC08C082EB05C082EA03C084E63C
:1046500001C082EC86BD80918402813049F08130B6
:1046600028F0823069F0833079F40CC081E005C015
:1046700029988BB183708BB982E08093840204C047
:1046800083E0FBCF109284028BEF93E00E94C32C57
:104690008D3FD9F580918402882399F48091C201DD
:1046A000863469F4809170001092700078940E94B2
:1046B0006E068091700083608093700002C00E943B
:1046C0006E0680EF86BD809184028230A1F0833037
:1046D00028F4882341F08130C1F407C08F3068F09E
:1046E0008F3099F410C081E00BC029988BB1837092
:1046F0008BB982E005C083E003C0809184028F5FA4
:104700008093840202C010928402FF91EF91BF91C6
:10471000AF919F918F917F916F915F914F913F9159
:104720002F910F900FBE0F901F9018951F9383EF3E
:1047300093E00E94C32C182F16951695982F9695E6
:104740009695969519271827982F92959F70192757
:104750001795112717958695182B83EF93E0612FF6
:104760000E94CB2C812F1F910895EF92FF920F93FF
:104770001F93CF93DF9380E090E00E94C32C182F0B
:1047800081E090E00E94C32C312F20E07901E80EF7
:10479000F11CC5E0D0E010E007C0CE010E94C32CA0
:1047A000882309F41F5F2196EC16FD06B4F70E94DA
:1047B00096231150612F0E94462C092F0F5F09F498
:1047C00001E0C5E0D0E011E0101741F0CE010E94F9
:1047D000C32C882309F41F5F2196F6CF34EA22E028
:1047E00094E83093BC008091BC0087FFFCCF2093FD
:1047F000BB009093BC008091BC0087FFFCCF8091F0
:10480000B900883171F714E8CE010E94C32C80935F
:10481000BB001093BC008091BC0087FFFCCF2196A9
:10482000CE010E94C32C882379F71092BB0084E844
:104830008093BC008091BC0087FFFCCF1092BB002E
:1048400084E88093BC008091BC0087FFFCCF84E9A2
:104850008093BC00DF91CF911F910F91FF90EF905B
:1048600008951F93CF93DF931091D801113009F071
:10487000A4C1109272021092710280917000816046
:104880008093700080916F00816080936F000E9420
:10489000D7181093B1008091B60080FDFCCF81E065
:1048A0008093810080916600845180936600C0E00F
:1048B000D0E081E00E94FB186093E2017093E30175
:1048C0008093E4019093E501809166008F5F80936F
:1048D00066002196C932D10561F78091120280935A
:1048E00066000E94D718809170008E7F80937000C0
:1048F00080916F008E7F80936F0034EA22E094E80D
:104900003093BC008091BC0087FFFCCF2093BB009C
:104910009093BC008091BC0087FFFCCF8091B900D0
:10492000883171F78091D6018093BB0084E8809331
:10493000BC008091BC0087FFFCCF40911202445123
:104940004093BB004C5E84E88093BC008091BC0027
:1049500087FFFCCFEDE1F2E054E820813181832F25
:10496000992787FD9A958093BB005093BC00809156
:10497000BC0087FFFCCF2093BB005093BC0080910C
:10498000BC0087FFFCCF329682E0EF36F80729F7AC
:104990004093BB0084E88093BC008091BC0087FFFB
:1049A000FCCF84E98093BC0034EA23E094E83093A0
:1049B000BC008091BC0087FFFCCF2093BB0090938C
:1049C000BC008091BC0087FFFCCF8091B90080348F
:1049D00071F784E88093BC008091BC0087FFFCCF16
:1049E0008091BB008093900284E98093BC00809109
:1049F000700081608093700080916F00816080936F
:104A00006F000E94D71881E08093B1008091B600BA
:104A100080FDFCCF81E080938100809190028F3FE8
:104A200011F48091D6018093660080E00E94FB180B
:104A30006093E2017093E3018093E4019093E501B8
:104A400080E00E94FB186093E2017093E301809381
:104A5000E4019093E50180E00E94FB186093E2017D
:104A60007093E3018093E4019093E5010E94D718CD
:104A7000809170008E7F8093700080916F008E7F98
:104A800080936F0034EA22E094E83093BC00809178
:104A9000BC0087FFFCCF2093BB009093BC008091AB
:104AA000BC0087FFFCCF8091B900883171F720915D
:104AB000E2013091E3014091E4015091E501273D8D
:104AC00086E0380780E0480780E05807B4F188E5C1
:104AD0008093BB0084E88093BC008091BC0087FF7A
:104AE000FCCFBB2757FDBA95A52F942F832F80931A
:104AF000BB0084E88093BC008091BC0087FFFCCFA2
:104B00002093BB0084E88093BC008091BC0087FFA9
:104B1000FCCF84E98093BC008EEF93E06FEF0E949E
:104B2000CB2C8FEF93E06FEF0E94CB2C8091D601BE
:104B30008093660080931202CBC089E58093BB000E
:104B400084E88093BC008091BC0087FFFCCF8EEF8F
:104B500093E0609190020E94CB2C8FEF93E06091E4
:104B600090020E94CB2C809190028F3F19F480918B
:104B7000D60104C080936600809166008093120283
:104B80008EEF93E00E94C32C8093BB0084E8809357
:104B9000BC008091BC0087FFFCCF8FEF93E00E94A8
:104BA000C32C8093BB0084E88093BC008091BC0040
:104BB00087FFFCCF84E98093BC008091D8018823D3
:104BC00009F086C0809170008160809370008091B0
:104BD0006F00816080936F000E94D71881E08093FE
:104BE000B1008091B60080FDFCCF81E08093810010
:104BF00080E00E94FB186093E2017093E3018093D0
:104C0000E4019093E50180E00E94FB186093E201CB
:104C10007093E3018093E4019093E50180E00E94AA
:104C2000FB186093E2017093E3018093E401909399
:104C3000E5010E94D718809170008E7F80937000EC
:104C400080916F008E7F80936F0034EA22E094E8B9
:104C50003093BC008091BC0087FFFCCF2093BB0049
:104C60009093BC008091BC0087FFFCCF8091B9007D
:104C7000883171F7809166008093BB0084E880934F
:104C8000BC008091BC0087FFFCCF2091E2013091F5
:104C9000E3014091E4015091E501BB2757FDBA952E
:104CA000A52F942F832F8093BB0084E88093BC00B2
:104CB0008091BC0087FFFCCF2093BB0084E88093E9
:104CC000BC008091BC0087FFFCCF84E98093BC00CE
:104CD000DF91CF911F9108951F93789485E063EC45
:104CE00070EF0E949C0584B78E7F84BF83E580931C
:104CF000C2018091700081608093700080916F008C
:104D0000816080936F000E94D71881E08093B1008A
:104D10008091B60080FDFCCF11E01093810080E00F
:104D20000E94FB1880E00E94FB1880E00E94FB18A4
:104D3000635E7440804090400CF446C084E58093EC
:104D4000C2010E94D7181093B1008091B60080FD77
:104D5000FCCF81E08093810020E130E02093660069
:104D600010921C0210921B021092B1021092B20219
:104D70001092B3021092B40280911B0290911C0217
:104D80000297D4F310921C0210921B028091B10280
:104D90009091B202A091B302B091B402B7FF07C0E4
:104DA000B095A095909581959F4FAF4FBF4F885E6E
:104DB0009340A040B0401CF4253131052CF42F5F06
:104DC0003F4F213F310551F682E58093C20110919A
:104DD00066000E94D71881E08093B1008091B600F0
:104DE00080FDFCCF81E080938100809166000E946D
:104DF000CB19655F714080409040B4F080916600AF
:104E00008C5F0E94CB19655F71408040904064F0D8
:104E10008091660082500E94CB19655F714080408E
:104E2000904014F010936600609166008EEF93E05E
:104E30000E94CB2C609166008FEF93E00E94CB2CF8
:104E40000E94D718809170008E7F809370008091AF
:104E50006F008E7F80936F00F8941F9108956F927A
:104E60007F928F929F92AF92BF92CF92DF92EF92FA
:104E7000FF920F931F93CF93DF9304B602FE03C0FC
:104E800084B78B7F84BF80917C00806480937C009A
:104E9000A89584B7877F84BF8091600088618093E4
:104EA00060001092600085B78F7E85BF14B817B878
:104EB0001AB88FEF85B988B98BB9439884EF93E01E
:104EC0000E94C32C882399F484EF93E06FEF0E9433
:104ED000CB2C43983B9A83E06CE376EF0E949C05D1
:104EE000439A3B9885E061E37CEF0E949C0580E259
:104EF0008093B8008093B6001092C801809166003C
:104F00008093D601609166008DEF93E00E94CB2CD8
:104F10008EEF93E00E94C32C182F803150F0803F19
:104F200040F48FEF93E00E94C32C181711F41093F4
:104F3000660004B600FE02C00E946C2680916600E6
:104F4000809312028BEF93E00E94C32C8F3F49F0B5
:104F50008E3F39F08D3F29F08BEF93E06DEF0E948B
:104F6000CB2C1092840284B18F6384B987B187609F
:104F700087B98AB18C6F8AB985B18D6385B988B1DB
:104F8000876088B929988BB183708BB9109287029A
:104F9000109288021092A00210928602109285024E
:104FA00010927702109276021092D1011092E801CD
:104FB00010929B0210929C0210929D0210929E02EF
:104FC00010929A021092D4011092B5027894109225
:104FD000840280916E00816080936E008BEF93E07D
:104FE0000E94C32C8E3F29F08F3F68F48D3F31F42F
:104FF00002C080EC01C080EF86BD06C08BEF93E05D
:105000006EEF0E94CB2C16BC83E085BDE4EA9E2E99
:1050100073E0E72E64E8F62E54EA852E44ECD42E95
:1050200034E9C32E22E0B22E92EA792E84E0A82E33
:1050300002EB602E9091D4018091C2018634E1F39D
:105040008091C2018B34C1F38092BC008091BC007E
:1050500087FFFCCFE092BB00F092BC008091BC00C7
:1050600087FFFCCF8091B900803491F0913061F7D7
:1050700020E030E0F901E753FE4F8081F901ED5E59
:10508000FD4F80832F5F3F4F2830310599F7DCCFEC
:10509000D092BC008091BC0087FFFCCF9091BB00F8
:1050A000992339F0D092BC008091BC0087FFFCCFDF
:1050B00006C0F092BC008091BC0087FFFCCF8091BD
:1050C000BB008093C2018091C201883011F0109220
:1050D0007502992329F1E8EDF1E020E030E0492F55
:1050E00050E0BA016150704016C02617370739F4F6
:1050F000F092BC008091BC0087FFFCCF06C0D0922C
:10510000BC008091BC0087FFFCCF8091BB008083F6
:105110002F5F3F4F3196241735073CF3C092BC00F8
:105120008091C201893028F4873098F4833039F4B3
:1051300010C0893471F0813561F0863451F080E01F
:1051400090E0FC01ED5EFD4F1082019688309105E4
:10515000C1F78091C20190E0843409F473C18534B1
:1051600058F5863009F42FC1873080F4843038F444
:10517000823008F06EC0813009F05ECF4FC08430BD
:1051800009F4EEC0853009F057CFFCC0893009F42E
:1051900045C18A3038F4873009F436C1883009F0C7
:1051A0004BCF37C1823409F443C1833408F045C181
:1051B000813409F041CF37C18B3409F40BC28C34F0
:1051C00090F4873409F45DC1883438F4853409F4E7
:1051D0003EC1863409F030CF3FC18934D1F08A34E2
:1051E00008F0D7C160C18E3409F46AC28F3438F434
:1051F0008C3409F41BC28D3409F01ECF5CC280359B
:1052000009F4F9C2803508F460C2813509F014CF81
:1052100004C31092D401C7E0D0E04BC11092D40176
:105220008091D801809313028091D9018093140258
:105230008091DA01809315028091DB018093160240
:1052400010921702109218021092190210921A026C
:10525000F1CE1092D4014091D9018091D8018734C8
:10526000B9F1883478F4833439F1843430F48134FA
:1052700001F1823409F0DECE19C0853419F186348B
:1052800020F51DC08436D9F0853640F4823671F0A1
:10529000833690F4813609F0CDCE0BC08636A9F066
:1052A000863680F0873609F0C5CE12C023E030E0A4
:1052B00011C020E030E00EC024E030E00BC022E05E
:1052C00030E008C025E030E005C026E030E002C054
:1052D00021E030E0483008F0ADCE8091C20182304C
:1052E000A1F485B18D6385B988B1876088B92998A3
:1052F0008BB183708BB980E090E0FC01ED5EFD4FD7
:105300001082019688309105C1F78091C2018330E7
:1053100009F090CEF901ED5EFD4F8081552747FDE4
:10532000509590E0042E02C0959587950A94E2F777
:1053300080FF0BC0208181E090E002C0880F991FA0
:105340004A95E2F78095282309C0208181E090E00A
:1053500002C0880F991F4A95E2F7282B20836ACE56
:105360001092D40120E030E0F901E852FE4F808134
:10537000F901ED5EFD4F80832F5F3F4F28303105EF
:1053800099F758CE1092D4018091D80180938B0266
:105390002091D90180E090E0FC01ED5EFD4F10828C
:1053A000019688309105C1F7233729F480918B024B
:1053B0000E94A1003FCE253709F03CCE80918B02A0
:1053C0000E94D80037CE1092D40120E030E040E0B7
:1053D00050E060E070E0FB01E852FE4F8081280F52
:1053E000311D411D511D6330710521F0542F432F94
:1053F000322F22276F5F7F4F6430710561F7CA013A
:10540000B9010E94860216CE1092D4010E94911D0D
:1054100011CE1092D4010E94231A0CCE1092D40106
:105420000E94761C07CE1092D4010E947D1E02CEEF
:105430001092D4010E94231FFDCD1092D4010E942E
:105440007B1FF8CD1092D4010E94AB1FF3CD1092B8
:10545000D4010E949F20EECD1092D401B092B100F1
:10546000809170008360809370002BE088E190E071
:105470000FB6F894A895809360000FBE209360004B
:10548000D9CD1092D40120E030E0F901E852FE4F6E
:105490008081F901ED5EFD4F80832F5F3F4F283003
:1054A000310599F7C7CD1092D4010E94B523C2CD22
:1054B0002197FE01ED5EFD4F80818823C9F3808135
:1054C0008D3211F00BE202C021970DE220E030E0B6
:1054D00040E050E017C0FE01ED5EFD4F1081CA01B3
:1054E000B9012AE030E040E050E00E94272C9B0107
:1054F000AC012053304040405040210F311D411D30
:10550000511D2197D7FFE7CF0D3239F450954095C3
:10551000309521953F4F4F4F5F4F20938F02BB2710
:1055200057FDBA95A52F942F832F80938E02CA0121
:10553000BB2797FDB095AB2F80938D02852FBB279E
:1055400087FDB0959B2FAB2F80938C029092BC006F
:105550008091BC0087FFFCCFB092BB00F092BC00F2
:105560008091BC0087FFFCCF8091B900883171F732
:10557000ECE8F2E080818093BB00F092BC00809167
:10558000BC0087FFFCCF319682E0E039F80791F745
:105590002FC11092D40120E030E040E050E060E004
:1055A00070E0FB01E852FE4F8081280F311D411D44
:1055B000511D6330710521F0542F432F322F2227C4
:1055C0006F5F7F4F6430710561F7CA01B9010E94B6
:1055D000350C30CD1092D40120E030E040E050E0B6
:1055E00060E070E0FB01E852FE4F8081280F311D22
:1055F000411D511D6330710521F0542F432F322F6F
:1056000022276F5F7F4F6430710561F7CA01B901CE
:105610004091DC0122E032E00E94CC15B092B10052
:105620008091700081608093700004CD1092D4014D
:105630008BEF93E06EEF0E94CB2C8091D80180938A
:10564000830210928402809183028330A1F084301F
:1056500028F4813061F0823060F41CC0853079F02C
:10566000853058F0863069F08730A1F40EC080E8AC
:1056700012C085E410C016BC0BC066BC04C076BC6A
:1056800002C084E686BDA5BC08C082EC86BD85E06C
:1056900085BD03C080EC86BDE5BC20E030E0822FF4
:1056A000805DF901ED5EFD4F80832F5F3F4F283015
:1056B0003105A9F7BFCC1092D4010E942422BACCA4
:1056C0001092D4010E943124B5CC1092D401809163
:1056D0006E008E7F80936E0085B18D6385B988B131
:1056E000876088B929988BB183708BB99092BC0080
:1056F0008091BC0087FFFCCFE092BB00F092BC0021
:105700008091BC0087FFFCCF8091B900803471F795
:10571000D092BC008091BC0087FFFCCF8091BB0081
:105720008433C1F1853360F4813361F1823318F43D
:10573000803399F513C08233A9F0833371F516C015
:105740008733F9F0883328F48533A1F0863329F5BF
:1057500015C08833D1F0893301F51BC0299A8BB16C
:105760008C671AC0299A8BB1846B16C0299A8BB1A9
:105770008C6912C0299A8BB1886D0EC08BB1886F6D
:105780000BC0299A8BB18C6007C0299A8BB18C6FA2
:1057900003C0299A8BB18C6C8BB9F092BC008091BC
:1057A000BC0087FFFCCF8091BB008333C1F0843302
:1057B00038F4813381F0823380F48033C9F409C036
:1057C000853389F0853368F0863379F0873381F447
:1057D0000EC02C980DC02B980BC02A9809C0289891
:1057E00007C0429805C0419803C0409801C02D9859
:1057F000C092BC001FCC1092D4018091D80180339C
:1058000021F0813309F016CC03C080E091E002C0A2
:1058100080E291E00E9433050DCC1092D4018BEF11
:1058200093E00E94C32C682F6F5F8BEF93E00E9480
:10583000CB2C8BEF93E00E94C32C882329F48BEFB1
:1058400093E06DEF0E94CB2C10928402F3CB629F09
:10585000D001739FF001829FE00DF11D649FE00D68
:10586000F11D929FF00D839FF00D749FF00D659FC9
:10587000F00D9927729FB00DE11DF91F639FB00DC8
:10588000E11DF91FBD01CF0111240895991B79E095
:1058900004C0991F961708F0961B881F7A95C9F7C0
:1058A0008095089587FB082E062687FD819567FD64
:1058B0006195ECDF0EF4919507FC8195089597FBB7
:1058C000092E07260AD077FD04D049D006D0002043
:1058D0001AF4709561957F4F0895F6F7909581952C
:1058E0009F4F0895A1E21A2EAA1BBB1BFD010DC0FC
:1058F000AA1FBB1FEE1FFF1FA217B307E407F50780
:1059000020F0A21BB30BE40BF50B661F771F881F5B
:10591000991F1A9469F760957095809590959B01F1
:10592000AC01BD01CF01089597FB092E05260ED0CD
:1059300057FD04D0D7DF0AD0001C38F450954095AD
:10594000309521953F4F4F4F5F4F0895F6F7909553
:105950008095709561957F4F8F4F9F4F0895AA1B3B
:10596000BB1B51E107C0AA1FBB1FA617B70710F04A
:10597000A61BB70B881F991F5A95A9F7809590957C
:10598000BC01CD010895F999FECF92BD81BDF89A71
:10599000992780B50895262FF999FECF1FBA92BD99
:1059A00081BD20BD0FB6F894FA9AF99A0FBE019600
:0659B0000895F894FFCFFA
:1059B6000D0A5043425F41204D696E692D4F533A9F
:1059C600204932435F5631365F315F43430D0A004B
:1059D600535720696E666F726D6174696F6E3A20F7
:1059E60020436F6D70617469626C652077697468B5
:1059F60020557365722050726F6A65637473205602
:105A0600315F372C205043425F415F426F6F746CA9
:105A16006F616465722056355F43432E0D0A202060
:105A2600616E20554E4F5F626F6F746C6F61646577
:105A3600725F666F725F68657826746578745F5604
:105A46003520200D0A50726F6772616D6D65642096
:105A56007573696E672050726F6A6563745F7072E2
:105A66006F6772616D6D65725F4156525F56310D9B
:065A76000A0001290000F6
:00000001FF
