:100000000C9434000C9451000C9451000C94510049
:100010000C9451000C9451000C9451000C9451001C
:100020000C9451000C948C030C9451000C945100CE
:100030000C9451000C9405040C9451000C94510044
:100040000C9451000C9451000C9451000C945100EC
:100050000C9451000C9451000C9451000C945100DC
:100060000C9451000C94510011241FBECFEFD4E02A
:10007000DEBFCDBF11E0A0E0B1E0E8E1FBE002C0EF
:1000800005900D92A437B107D9F712E0A4E7B1E0CB
:1000900001C01D92A933B107E1F70E9462040C94DC
:1000A0008A050C94000020E030E003C000002F5FC0
:1000B0003F4F82179307D4F7089566BD85BDA89B6F
:1000C000FECFA89A15BC08950F931F93CF93DF938B
:1000D0008C01C0E0D0E005C085E062EB0E945D00CD
:1000E0002196C017D107C4F3DF91CF911F910F91D3
:1000F000089570938500609384009FEF96BB809372
:100100008100B09BFECFB09A1092810008950F93AA
:100110001F93182F062F85E062EF7CEF0E94790075
:10012000E1ECF0E010821093C5000093C40082E07F
:100130008093C00088E1808386E08093C2001F9195
:100140000F9108958091C00087FFFCCF8091C60079
:1001500008958091C6000895982F20E030E00DC0EA
:100160002F5F3F4F8FE1213438071CF0915020E082
:1001700030E0992311F480E008958091C00087FF5A
:10018000EFCF81E008958091C00087FFFCCF809180
:10019000C6008D3011F08A3051F481E00E94AC002D
:1001A000882311F48DE008958091C6008DE00895B4
:1001B000982F8091C00085FFFCCF9093C6000895D2
:1001C000AC0120E030E0FA01E20FF31FE081EE2302
:1001D00059F02F5F3F4F8091C00085FFFCCFE09327
:1001E000C600283C310579F7089580E091E00E942F
:1001F000E00008952F923F924F925F926F927F920C
:100200008F929F92AF92BF92CF92DF92EF92FF9226
:100210000F931F93CF93DF93EC015A016B01403092
:1002200080E0580780E0680780E8780751F52A30B9
:1002300021F0203109F06CC014C028E3288394E336
:10024000998386E38A8383E38B832C839D8387E36F
:100250008E839F8381E3888782E389878DE28A8703
:100260000EC080E3888389838A838B838C838D830C
:100270008E8388E38F838DE2888719861A861B8692
:1002800047C080E090E0FE01E80FF91F1082019660
:100290008C309105C1F786017501D7FE07C0EE24A9
:1002A000FF248701EA18FB080C091D094E0166248A
:1002B0007724222E332444245524C801B701A201F7
:1002C00091010E943705F40160836A3010F4605D8B
:1002D00002C0695CF40160830894611C711CC80150
:1002E000B701A20191010E943705C901DA017C0121
:1002F0008D010894811C911C1E141F041006110608
:10030000E4F2D7FE05C06C0E7D1E8DE2F301808302
:10031000DF91CF911F910F91FF90EF90DF90CF90E1
:10032000BF90AF909F908F907F906F905F904F9015
:100330003F902F900895AC0120E030E002C02F5F85
:100340003F4FFA01E20FF31F80818823C1F721504C
:100350003040FA01E20FF31F2F5F3F4F0AC0908138
:100360008091C00085FFFCCF9093C60021503040A3
:1003700031972115310599F708950F931F93DF9356
:10038000CF93CDB7DEB72C970FB6F894DEBF0FBE74
:10039000CDBF282F8E010F5F1F4FC8010E94FA00AA
:1003A000C8010E949B012C960FB6F894DEBF0FBEC9
:1003B000CDBFCF91DF911F910F91089590E08053B1
:1003C0008A3008F491E0892F0895982F80538A305D
:1003D00010F481E0089580E0983709F481E00895F1
:1003E000DF92EF92FF920F931F938091C00087FFDF
:1003F000FCCF1091C600012F00530A3018F01837B7
:10040000A1F730C0183771F10E94F5008091C0004B
:1004100085FFFCCF1093C600E02EFF2400E010E023
:100420000E94C300982F8D30D9F080EDD82ED90EC0
:1004300089E08D15A8F38091C00085FFFCCF9093D3
:10044000C600C801B7012AE030E040E050E00E9459
:1004500018057B018C01ED0CF11C011D111DE0CF75
:100460008E2D01C088E71F910F91FF90EF90DF90D4
:1004700008951092850010928400109281001092CD
:10048000B1008091B60080FDFCCF1092B000809149
:10049000B60081FDFCCF1092B2008091B60084FDC1
:1004A000FCCF089581E08093B1008091B60080FD7B
:1004B000FCCF81E0809381000895BF92CF92DF92BC
:1004C000EF92FF920F931F93582F623021F434E084
:1004D000B32E86E009C0653021F42AE0B22E8FE009
:1004E00003C0BB24B39482E010927B0110927A0186
:1004F0001092350210923602109237021092380292
:10050000282F30E080917A0190917B018217930728
:10051000CCF310927B0110927A01C0903502D090FA
:100520003602E0903702F0903802442351F4F7FE8F
:1005300008C0F094E094D094C094C11CD11CE11C7C
:10054000F11C552301F10091320210913302000F8A
:10055000111F000F111F02581E4F2B2D30E040E0DD
:1005600050E0C701B6010E943705F80120833183AE
:10057000428353838091320290913302019690938B
:100580003302809332022B2D30E040E050E0C7016F
:10059000B6010E943705CA01B9011F910F91FF9062
:1005A000EF90DF90CF90BF9008957F928F929F92AF
:1005B000AF92BF92CF92DF92EF92FF920F931F9371
:1005C000CF93DF936B01EA01490158017E2C7C0136
:1005D0000027F7FC0095102F1AC0F6018081809348
:1005E000660080E0672D40E00E945D02F4016083B8
:1005F0007183828393836E157F058007910754F082
:10060000F60180818150808388818F5F8883888113
:10061000843118F38881843128F480916600F501D3
:10062000808304C0F501808180936600DF91CF91C3
:100630001F910F91FF90EF90DF90CF90BF90AF9000
:100640009F908F907F9008959F92AF92BF92CF928C
:10065000DF92EF92FF920F931F9385E06DE771EEAB
:100660000E947900789485E08093760180917000F3
:1006700081608093700080916F00816080936F0033
:100680000E94390281E08093B1008091B60080FD24
:10069000FCCF81E0809381005FE0E52EF12C012DFD
:1006A000112D49E0942EE09266006091760180E081
:1006B00041E00E945D025B016C01809179018093B1
:1006C00066008AE0B801A7010E94BD018091C000C8
:1006D00085FFFCCF9092C6008AE0B601A5010E947A
:1006E000BD010E94F50084E063EC0E945D00089467
:1006F000E11CF11C011D111D81EFE816F10401053B
:10070000110589F61F910F91FF90EF90DF90CF9028
:10071000BF90AF909F9008951F920F920FB60F92C7
:100720001124EF92FF920F931F932F933F934F93B8
:100730005F938F939F93AF93BF93109281004091EB
:10074000840050918500109285001092840081E011
:100750008093810020917A0130917B018091760114
:1007600090E028173907ACF180917701813019F0BA
:10077000823039F40AC0E12CF12CB1E00B2F112D9D
:1007800009C0EE24FF24870105C0E12CF12CA2E072
:100790000A2F112D8091350290913602A0913702D7
:1007A000B09138028452944FA040B0409A0140E08A
:1007B00050E0820F931FA41FB51F8E0D9F1DA01F19
:1007C000B11F8093350290933602A0933702B09305
:1007D00038021092770180917A0190917B01019605
:1007E00090937B0180937A01BF91AF919F918F91FC
:1007F0005F914F913F912F911F910F91FF90EF903B
:100800000F900FBE0F901F9018951F920F920FB66A
:100810000F9211248F93809177018F5F80937701DE
:100820008F910F900FBE0F901F901895E09171015E
:10083000F09172018081833391F48181823379F464
:100840008281883361F480E090E490937D0180930D
:100850007C0180E094E09093750180937401808125
:10086000813391F48181863379F48281883361F414
:1008700080E090E290937D0180937C0180E092E0A3
:10088000909375018093740108951F93182F8091A0
:100890007401909175010197612F0E947C058091F0
:1008A0007401909175010297612F0E947C058091DF
:1008B0007401909175010397609178010E947C0505
:1008C0001F9108951F93CF93DF93A89584B7877FD7
:1008D00084BF809160008861809360001092600006
:1008E00080E069E10E94870080E090E000000196CE
:1008F0008B309105D9F780917C00806480937C00D7
:1009000081E090E00E94640085B78F7E85BF14B8B7
:1009100017B81AB88FEF85B988B98BB90E94160439
:1009200060916600809174019091750103970E9417
:100930007C05C0917401D0917501CE0102970E948F
:100940007405182F803150F0803F40F4CE0101979C
:100950000E947405181711F41093660080916600C8
:100960008093790183E091E00E94E0008AEF0E9489
:10097000AC008823B9F38091C600823511F082372C
:1009800089F780E091E00E94E00080E28093B60069
:100990008AE091E00E94E0000E94240329E088E1BF
:1009A00090E00FB6F894A895809360000FBE209356
:1009B0006000FFCF8FE291E00E94E000809174011F
:1009C0009091750101970E947405482F50E060E0F6
:1009D00070E08AE00E94BD018091C00085FFFCCFDD
:1009E00089E08093C600809174019091750102970F
:1009F0000E947405482F50E060E070E08AE00E9499
:100A0000BD018AE491E00E94E00080917401909120
:100A1000750103970E947405482F50E060E070E074
:100A20008AE00E94BD018BE591E00E94E0000895FC
:100A3000629FD001739FF001829FE00DF11D649FC2
:100A4000E00DF11D929FF00D839FF00D749FF00D4E
:100A5000659FF00D9927729FB00DE11DF91F639FEF
:100A6000B00DE11DF91FBD01CF011124089597FBC1
:100A7000092E05260ED057FD04D014D00AD0001C34
:100A800038F450954095309521953F4F4F4F5F4F2B
:100A90000895F6F790958095709561957F4F8F4FEB
:100AA0009F4F0895A1E21A2EAA1BBB1BFD010DC08A
:100AB000AA1FBB1FEE1FFF1FA217B307E407F5070E
:100AC00020F0A21BB30BE40BF50B661F771F881FEA
:100AD000991F1A9469F760957095809590959B0180
:100AE000AC01BD01CF010895F999FECF92BD81BD42
:100AF000F89A992780B50895262FF999FECF1FBA45
:100B000092BD81BD20BD0FB6F894FA9AF99A0FBE36
:080B100001960895F894FFCF4F
:100B18000D0A00523F2020202000506C6F74206F77
:100B280066204F534343414C20762063616C6962D1
:100B3800726174696F6E206572726F720D0A000DB2
:100B48000A56616C75657320736176656420746FED
:100B580020454550524F4D2020000955736572209D
:100B680076616C75650D0A0909090009094465660D
:100B780061756C742076616C75650D0A00333238C6
:040B8800006D0100FB
:00000001FF
