:100000000C9434000C9451000C9451000C94510049
:100010000C9451000C9451000C9451000C9451001C
:100020000C9451000C9451000C9451000C9451000C
:100030000C9451000C9451000C9451000C945100FC
:100040000C9451000C9451000C9451000C945100EC
:100050000C9451000C9451000C9451000C945100DC
:100060000C9451000C94510011241FBECFEFD8E026
:10007000DEBFCDBF11E0A0E0B1E0ECEAFAE002C0E3
:1000800005900D92AE3AB107D9F711E0AEEAB1E0B2
:1000900001C01D92A53BB107E1F70E94E7030C9454
:1000A00054050C9400007093850060938400809345
:1000B0008100B09BFECFB09A109281000895782FF6
:1000C00084E48093BC008091BC0087FFFCCF8091CA
:1000D000BB007093BB0084EC8093BC008091BC009B
:1000E00087FFFCCF6093BB0084EC8093BC008091C1
:1000F000BC0087FFFCCFFA0120E030E0472F50E042
:10010000BA0161507040A4EC94E818C080812617B1
:10011000370749F48093BB009093BC008091BC00EA
:1001200087FFFCCF08C08093BB00A093BC008091E8
:10013000BC0087FFFCCF2F5F3F4F31962417350758
:100140002CF380E88093BC000895DF93CF9300D018
:1001500000D0CDB7DEB74C81FB815A81E98120E028
:1001600030E02130310581F02230310524F42115B1
:10017000310541F00EC02230310541F02330310508
:1001800041F406C0E82F05C0592F03C0F62F01C067
:10019000472F2F5F3F4F2430310519F74C83FB83E6
:1001A0005A83E98384E061E0AE014F5F5F4F0E94B4
:1001B0005F000F900F900F900F90CF91DF910895F7
:1001C0008093BB0084EC8093BC008091BC0087FFCF
:1001D000FCCF08958093BB0084E88093BC0080919D
:1001E000BC0087FFFCCF0895982F8091C00085FF49
:1001F000FCCF9093C6000895AC0120E030E0FA01F6
:10020000E20FF31FE081EE2359F02F5F3F4F809103
:10021000C00085FFFCCFE093C600283C310579F78C
:1002200008958091C00087FFFCCF8091C60008959B
:100230008091C6000895982F20E030E00DC02F5F18
:100240003F4F8FE1213438071CF0915020E030E01F
:10025000992311F480E008958091C00087FFEFCFCB
:1002600081E008952F923F924F925F926F927F921A
:100270008F929F92AF92BF92CF92DF92EF92FF92B6
:100280000F931F93CF93DF93EC015A016B01403022
:1002900080E0580780E0680780E8780751F52A3049
:1002A00021F0203109F06CC014C028E3288394E3C6
:1002B000998386E38A8383E38B832C839D8387E3FF
:1002C0008E839F8381E3888782E389878DE28A8793
:1002D0000EC080E3888389838A838B838C838D839C
:1002E0008E8388E38F838DE2888719861A861B8622
:1002F00047C080E090E0FE01E80FF91F10820196F0
:100300008C309105C1F786017501D7FE07C0EE2438
:10031000FF248701EA18FB080C091D094E01662419
:100320007724222E332444245524C801B701A20186
:1003300091010E940105F40160836A3010F4605D50
:1003400002C0695CF40160830894611C711CC801DF
:10035000B701A20191010E940105C901DA017C01E6
:100360008D010894811C911C1E141F041006110697
:10037000E4F2D7FE05C06C0E7D1E8DE2F301808392
:10038000DF91CF911F910F91FF90EF90DF90CF9071
:10039000BF90AF909F908F907F906F905F904F90A5
:1003A0003F902F900895AC0120E030E002C02F5F15
:1003B0003F4FFA01E20FF31F80818823C1F72150DC
:1003C0003040FA01E20FF31F2F5F3F4F0AC09081C8
:1003D0008091C00085FFFCCF9093C6002150304033
:1003E00031972115310599F708950F931F93DF93E6
:1003F000CF93CDB7DEB72C970FB6F894DEBF0FBE04
:10040000CDBF282F8E010F5F1F4FC8010E94320100
:10041000C8010E94D3012C960FB6F894DEBF0FBE20
:10042000CDBFCF91DF911F910F91089590E0805340
:100430008A3008F491E0892F08958091C00087FFE9
:10044000FCCF8091C6008D3011F08A3051F481E0EC
:100450000E941B01882311F48DE008958091C6004D
:100460008DE00895CF93DF938091C00087FFFCCF8C
:100470008091C60080538A30B8F7C82FD0E00E9420
:100480001D028D3089F0282F20532A30C0F7CE016D
:1004900043E0880F991F4A95E1F7CC0FDD1FC80F85
:1004A000D91FC20FD11DEBCFCE01DF91CF9108959F
:1004B000AC0188E061E00E945F0008951F9384E42E
:1004C0008093BC008091BC0087FFFCCF8091BB0073
:1004D0001092BB0084EC8093BC008091BC0087FF2D
:1004E000FCCF89E48093BB0084E88093BC008091BA
:1004F000BC0087FFFCCF84E88093BC0084E4809339
:10050000BC008091BC0087FFFCCF8091BB00E0E085
:10051000F0E020E030E040E050E014EC74E8E3303C
:10052000F10549F47093BC008091BC0087FFFCCFBB
:100530006091BB001CC01093BC008091BC0087FF81
:10054000FCCF6091BB00F7FD16C0E330F10524F04D
:10055000E330F10581F40BC0DA01C901860F911D6A
:10056000A11DB11D2227382F492F5A2F04C0260F55
:10057000311D411D511D3196E430F10581F680E8B1
:100580008093BC00B901CA011F91089584EC809347
:10059000BC008091BC0087FFFCCF8091BB00089518
:1005A00084E88093BC008091BC0087FFFCCF8091E1
:1005B000BB000895E1ECF0E010828093C5006093E9
:1005C000C40082E08093C00088E1808386E080934D
:1005D000C200089566BD85BDA89BFECFA89A15BC34
:1005E00008950F931F93CF93DF938C01C0E0D0E069
:1005F00005C085E062EB0E94EA022196C017D10790
:10060000C4F3DF91CF911F910F910895DF93CF93A2
:100610000F92CDB7DEB720E030E007C0019644E08E
:10062000813B940721F42F5F3F4F80E090E01A9BBD
:10063000F5CF2233310544F081E0898361E5AE01D5
:100640004F5F5F4F0E945F000F90CF91DF91089541
:10065000EF92FF921F93CF93DF937C01009711F0ED
:100660009C010DC08FEE93E00E943E05182F8EEE88
:1006700093E00E943E05312F20E0280F311DE90153
:10068000D695C795D695C795C901F3E096958795F8
:10069000FA95E1F7C827D927C227D327C901E5E092
:1006A00096958795EA95E1F7C827D927DD27C6955E
:1006B000D795CC2736952795C22BD32BEF2851F40D
:1006C0008FEE93E06D2F0E9446058EEE93E06C2F27
:1006D0000E944605CE01DF91CF911F91FF90EF90D0
:1006E0000895EF92FF920F931F93CF93DF937C01B6
:1006F000EB0101E010E00E151F0591F08D2F9927F9
:1007000087FD9A958093AE01C093B3010E94E704E0
:100710008091B401882311F40F5F1F4F2197EBCF15
:1007200010E08D2F992787FD9A958093AE01C09395
:10073000B3010E94E7048091B4018823B1F0909145
:10074000B4018091C00085FFFCCF9093C6001F5F6D
:100750008091B401803239F41B3528F080E091E0BB
:100760000E94FC0010E02197DCCFDF91CF911F9118
:100770000F91FF90EF9008950F931F93CF93DF9306
:10078000EC0110E000E08D2F992787FD9A9580936A
:10079000AE01C093B3010E94E7042091B40122236B
:1007A00051F4002311F01F5F0FC0812FDF91CF9113
:1007B0001F910F9108958091B1019091B20101961E
:1007C0009093B2018093B1012197022FDCCF0F9358
:1007D0001F93CF93DF9384B7A89584B7877F84BF97
:1007E000809160008861809360001092600012E048
:1007F0001093BA0080917C00806480937C0085B760
:100800008F7E85BF8AB18B778AB98BB184688BB9AB
:1008100022982A9A85B78F7E85BF14B817B81AB860
:100820008FEF85B988B98BB985E090E00E94F1021D
:100830001092C1001092C50080E18093C400109313
:10084000C00088E18093C10086E08093C2008CEFF5
:1008500093E00E943E0580FF05C084EF93E060E0D6
:100860000E94460584EF93E00E943E05803499F48F
:10087000C0E0D0E080E091E00E94FC002196C4300E
:10088000D105C1F783E091E00E94FC0084EF93E082
:1008900061E40E94460584EF93E00E943E05682FC4
:1008A00086FF07C0606884EF93E00E9446050C94C1
:1008B00030360E94060314BE1092B2011092B101AC
:1008C00084E391E00E94FC008FEF0E941B018823CB
:1008D000B9F38091C600873771F0833789F72AE032
:1008E00088E190E00FB6F894A895809360000FBE61
:1008F00020936000FFCF8CE58093AE018FE780935B
:10090000B3010E94E7048091B4018F3F29F48AE388
:1009100091E00E94FC00FFCF80E091E00E94FC008B
:100920008FE79CE50E94BC03182F8FE491E00E94A2
:10093000FC00412F50E060E070E08AE00E94F50189
:100940008091C00085FFFCCF89E08093C600409174
:10095000B1015091B201662757FD6095762F8AE06C
:100960000E94F5018BE791E00E94FC00012F10E04E
:100970000E943202EC010097F1F0081719072CF4DD
:1009800081EA91E00E94FC00F3CF80E091E00E94B8
:10099000FC00AE01662757FD6095762F8AE00E9425
:1009A000F50180E091E00E94FC00CE016FE77CE55C
:1009B0000E947103DDCF2AE088E190E00FB6F89441
:1009C000A895809360000FBE20936000FFCF0F9228
:1009D000FF93EF93F091AE01E091B3010490009288
:1009E000B401EF91FF910F9008950F93009157007C
:1009F00000FDFCCFF89440935700E89578940F9150
:100A0000089597FB092E05260ED057FD04D014D06B
:100A10000AD0001C38F450954095309521953F4FF1
:100A20004F4F5F4F0895F6F79095809570956195BB
:100A30007F4F8F4F9F4F0895A1E21A2EAA1BBB1B19
:100A4000FD010DC0AA1FBB1FEE1FFF1FA217B3079A
:100A5000E407F50720F0A21BB30BE40BF50B661FB0
:100A6000771F881F991F1A9469F760957095809574
:100A700090959B01AC01BD01CF010895F999FECF7E
:100A800092BD81BDF89A992780B50895262FF999CE
:100A9000FECF1FBA92BD81BD20BD0FB6F894FA9A61
:0C0AA000F99A0FBE01960895F894FFCF5C
:100AAC000D0A0050726F6A65637420636F6D6D651B
:100ABC006E746172793A20507265737320275827CF
:100ACC0020746F20657363617065206F7220414FD5
:100ADC004B0D0A00772F732020004E6F2074657821
:100AEC00742E20526573657420554E4F0D0A0054B8
:100AFC006F74616C206E756D62657273206F662009
:100B0C00737472696E677320262063686172616307
:100B1C0074657273206172652020000D0A456E7435
:100B2C00657220737472696E67206E756D62657282
:100B3C00206F72207A65726F20746F2065786974EB
:0E0B4C00000D0A4E6F20737472696E672100EF
:00000001FF
