:100000000C9434000C9451000C9451000C94510049
:100010000C9451000C9451000C9451000C9451001C
:100020000C9451000C9451000C9451000C9451000C
:100030000C9451000C9451000C9451000C945100FC
:100040000C9451000C9451000C9451000C945100EC
:100050000C9451000C9451000C9451000C945100DC
:100060000C9451000C94510011241FBECFEFD8E026
:10007000DEBFCDBF12E0A0E0B1E0EEEDF9E002C0DE
:1000800005900D92AA37B107D9F722E0AAE7B2E0AE
:1000900001C01D92A23AB207E1F70E943C020C9403
:1000A000ED040C940000E1ECF0E010828093C500B8
:1000B0006093C40082E08093C00088E1808386E082
:1000C0008093C2000895E0ECF0E080818823ECF793
:1000D0008091C6000895AC0120E030E0E0ECF0E053
:1000E0000DC02F5F3F4F213A8FE0380724F0415079
:1000F000510920E030E04115510529F09081992304
:1001000084F781E0089580E008950E9463008D30B7
:1001100011F08A3059F481E090E00E946B0088234E
:1001200021F08091C6008DE008958DE00895E0EC07
:10013000F0E0908195FFFDCF8093C60008950F9366
:100140001F93CF93DF93FC01808181110AC011C0FE
:100150008991882371F00E9497000C171D07C1F741
:1001600008C08F010E949700E801219608531F4F95
:10017000EFCFDF91CF911F910F91089580E192E031
:100180000E949F0008952F923F924F925F926F922C
:100190007F928F929F92AF92BF92CF92DF92EF9217
:1001A000FF920F931F93CF93DF931C012A013B0112
:1001B000411551056105704861F52A3019F020316B
:1001C000B9F065C098E3F101908384E3818326E36D
:1001D000228323E323839483858397E39683878312
:1001E00081E3808782E381878DE2828713864FC017
:1001F00080E3F10180838183828383838483858389
:10020000868388E387838DE2808711861286138632
:100210003EC0E101C1010C96F1011192E817F90706
:10022000E1F77301620177203CF4CC24DD247601F0
:10023000C418D508E608F70800E010E0822E912CDB
:10024000A12CB12CC701B601A50194010E9496040E
:1002500068836A3018F4605D688302C0695C6883F3
:100260000F5F1F4FC701B601A50194010E949604BC
:1002700069017A012196121613061406150614F365
:1002800077202CF4F101E00FF11F8DE28083DF91E4
:10029000CF911F910F91FF90EF90DF90CF90BF9083
:1002A000AF909F908F907F906F905F904F903F9016
:1002B0002F9008950F931F93CF93DF93FC0120811C
:1002C000222399F03196C0E0D0E0219621912111AE
:1002D000FCCF209751F08C010C0F1D1FF80182916B
:1002E0008F010E9497002197C9F7DF91CF911F914D
:1002F0000F910895CF93DF93CDB7DEB72C970FB64C
:10030000F894DEBF0FBECDBF282FCE0101960E940C
:10031000C300CE0101960E945A012C960FB6F894A4
:10032000DEBF0FBECDBFDF91CF910895CF93DF9396
:100330000E94630080538A30D8F7C82FD0E00E9413
:1003400085008D3089F080538A30C8F79E01220FD6
:10035000331FCC0FDD1FCC0FDD1FCC0FDD1FC20FF5
:10036000D31FC80FD11DEBCFCE01DF91CF910895E0
:1003700090937D0280939A020F92FF93EF93F091F6
:100380007D02E0919A02049000929F02EF91FF910A
:100390000F9080919F0208950F931F93CF93DF9347
:1003A000EC0100E010E0CE010E94B80181110FC005
:1003B00091E0900F20919802309199022F5F3F4F6A
:1003C000309399022093980211110CC00FC0209114
:1003D0009802309199022F5F3F4F309399022093FA
:1003E000980201C0092F2197182FDDCF802FDF91B0
:1003F000CF911F910F910895EF92FF920F931F934A
:10040000CF93DF937C01EB0110927A0281E0E81632
:10041000F10479F001E010E0CE010E94B801809370
:100420009202811102C00F5F1F4F21970E151F0509
:1004300099F7CE010E94B801809392028823A9F017
:100440000E94970080917A028F5F80937A02909148
:100450009202903241F48B3530F080E192E00E94BC
:100460009F0010927A022197E4CFDF91CF911F91E4
:100470000F91FF90EF900895A89584B7877F84BF70
:10048000E0E6F0E08081886180831082ECE7F0E0B4
:1004900080818064808369E180E00E94530085B799
:1004A0008F7E85BF14B817B81AB88FEF85B988B991
:1004B0008BB9E0E8F2E082E091E09183808387E00D
:1004C00091E0938382838CE091E09583848382E141
:1004D00091E09783868388E191E0918780878CE122
:1004E00091E09387828780E291E095878487EBE9AA
:1004F000F2E084E291E0918380838CE291E0938347
:1005000082830091000110910101C80104970E94AB
:10051000D704C82F90E09093A1028093A002C80155
:1005200005970E94D704282F30E03093960220933D
:100530009502C43909F452C028F4C23951F0C339C4
:1005400089F1A9C0C53909F465C0C63909F48BC061
:10055000A2C020E038E0309394022093930220E080
:1005600031E030937C0220937B02873071F08A3037
:1005700019F0853009F08FC010929102109290020C
:1005800010927F0210927E0286C085E090E09093E8
:1005900091028093900281E090E090937F0280939B
:1005A0007E0279C020E030E13093940220939302E0
:1005B00020E032E030937C0220937B028A3019F0F5
:1005C0008F3009F068C081E090E0909391028093B1
:1005D000900210927F0210927E025DC020E030E215
:1005E000309394022093930220E032E030937C0217
:1005F00020937B02863019F08B3009F04CC082E0EA
:1006000090E0909391028093900210927F0210925A
:100610007E0241C020E030E43093940220939302A4
:1006200020E034E030937C0220937B028F3029F06D
:10063000843119F0823079F50BC083E090E090931B
:1006400091028093900210927F0210927E0223C04A
:1006500086E090E0909391028093900210927F0246
:1006600010927E0218C020E030E83093940220936C
:10067000930220E038E030937C0220937B028930A3
:1006800051F484E090E09093910280939002109254
:100690007F0210927E026091660080917B029091B1
:1006A0007C0203970E94DF0400917B0210917C0280
:1006B000C80102970E94D704C82F80EF8C0F803E9C
:1006C00040F4C80101970E94D704C81302C0C09328
:1006D0006600C6ECD0E084E391E00E949F008AEFC0
:1006E00090E00E946B008823B1F388818093970289
:1006F0008F7D823581F780E192E00E949F008BE33D
:1007000091E00E949F00E0917E02F0917F02EE0F47
:10071000FF1FE556FD4F808191810E949F00E0916F
:100720009002F0919102EE0FFF1FE058FD4F808183
:1007300091810E949F0080919702823709F067C0E3
:100740001092990210929802C0919302D091940253
:10075000CC0FDD1F2197CE010E94B8018F3F79F4A5
:1007600081E591E00E949F009AE088E10FB6F8943D
:10077000A895809360000FBE90936000FFCF81E743
:1007800091E00E949F00CE010E94CC01082F8FE8CB
:1007900091E00E949F00402F50E060E070E08AE00E
:1007A0000E947A0189E00E9497004091980250913E
:1007B0009902052E000C660B770B8AE00E947A01E5
:1007C0008DEB91E00E949F0010E00E9496017C0159
:1007D0000097E9F0081719072CF483EE91E00E94C6
:1007E0009F00F3CF80E192E00E949F00A7010F2CB1
:1007F000000C660B770B8AE00E947A0180E192E0A0
:100800000E949F00BE01C7010E94FC01DECF8091C3
:100810009702823509F07FC080E090E00E94D70403
:10082000082F81E090E00E94D70410E0102F0027ED
:10083000080F111D85E090E00E94D704C82F8F3F5C
:1008400079F482EF91E00E949F009AE088E10FB670
:10085000F894A895809360000FBE90936000FFCF3E
:1008600083E192E00E949F0082E392E00E949F0059
:100870004C2F50E060E070E08AE00E947A0182E54F
:1008800092E00E949F00EC2EF12C40C0E816F90681
:100890002CF483EE91E00E949F0038C06C0121E0AF
:1008A000C21AD108CC0CDD1CC00ED11EC6010E949C
:1008B000D704C82FC60101960E94D704D0E0DC2FD0
:1008C000CC27C80FD11D0E94BE0010927A0201C031
:1008D0002196CE010E94D704809392028823A1F032
:1008E0000E94970080917A028F5F80937A029091A4
:1008F0009202903269F78B3558F380E192E00E94C2
:100900009F0010927A02E4CF0E94BE000E949601DE
:10091000009709F0BBCF9AE088E10FB6F894A8954C
:10092000809360000FBE90936000FFCF052E97FB71
:100930001EF400940E94AD0457FD07D00E94B50438
:1009400007FC03D04EF40C94AD04509540953095BF
:1009500021953F4F4F4F5F4F08959095809570952B
:1009600061957F4F8F4F9F4F0895A1E21A2EAA1BCA
:10097000BB1BFD010DC0AA1FBB1FEE1FFF1FA2174F
:10098000B307E407F50720F0A21BB30BE40BF50B4C
:10099000661F771F881F991F1A9469F760957095D5
:1009A000809590959B01AC01BD01CF010895F99907
:1009B000FECF92BD81BDF89A992780B50895262F64
:1009C000F999FECF1FBA92BD81BD20BD0FB6F89434
:0E09D000FA9AF99A0FBE01960895F894FFCF97
:1009DE00002034382F500038382F50003136382F41
:1009EE0050003332382F5000363434003332410049
:1009FE003434410041746D6567612000415474695F
:100A0E006E792000523F20202020000D0A50726F78
:100A1E006772616D2072756E6E696E67206F6E20E3
:100A2E00000D0A4E6F207465787420617661696CD2
:100A3E0061626C6520696E20666C617368210D0AB7
:100A4E00000D0A52656164696E6720737472696E77
:100A5E0067732066726F6D20666C6173682E000D71
:100A6E000A546F74616C206E756D62657273206FBF
:100A7E006620737472696E677320262063686172D4
:100A8E00616374657273206172652020000D0A45E2
:100A9E006E74657220737472696E67206E756D6206
:100AAE006572206F72207A65726F20746F20657880
:100ABE006974000D0A4E6F20737472696E67210D92
:100ACE000A000D0A4E6F2074657874206176616994
:100ADE006C61626C6520696E20454550524F4D2108
:100AEE000D0A000D0A52656164696E672073747297
:100AFE00696E67732066726F6D20454550524F4D7B
:100B0E002E000D0A546F74616C206E756D626572E5
:100B1E0073206F6620737472696E67732069732019
:100B2E0020000D0A456E74657220737472696E67CB
:100B3E00206E756D626572206F72207A65726F20FD
:0A0B4E00746F20657869740D0A00C9
:00000001FF
