:100000000C9434000C9451000C9451000C94510049
:100010000C9451000C9451000C9451000C9451001C
:100020000C9451000C9451000C9451000C9451000C
:100030000C9451000C9451000C9451000C945100FC
:100040000C9451000C9451000C94650E0C945100CA
:100050000C9451000C9451000C9451000C945100DC
:100060000C9451000C94510011241FBECFEFD8E026
:10007000DEBFCDBF13E0A0E0B1E0ECE9FBE202C0DF
:1000800005900D92A43DB107D9F714E0A4EDB3E0BB
:1000900001C01D92A235B107E1F70E949F120C9496
:1000A000CC150C9400000000000000000000089532
:1000B0001F93142F883419F08C3421F406C0E0E02B
:1000C000F8E405C0E0E0F0E002C0E0E0F0E4B09168
:1000D00046045B2F5095A09132044A2F409520E0B2
:1000E00030E085B1852385B9CF01022E02C0880F8B
:1000F000991F0A94E2F797FF03C085B18A2B02C0CB
:1001000085B1842385B985B18B2B85B900000000AA
:10011000000000002F5F3F4F2031310511F720E034
:1001200030E085B1852385B9CB01022E02C0880F4E
:10013000991F0A94E2F787FF03C085B18A2B02C09A
:1001400085B1842385B985B18B2B85B9000000006A
:10015000000000002F5F3F4F2830310511F720E0ED
:1001600030E0612F70E085B1852385B9CB01022E87
:1001700002C0880F991F0A94E2F787FF03C085B178
:100180008A2B02C085B1842385B985B18B2B85B9B3
:1001900000000000000000002F5F3F4F28303105B5
:1001A00011F785B1582355B91F91089566BD85BDD6
:1001B000A89BFECFA89A15BC08950F931F93182FE4
:1001C000062F85E06CED0E94D600E1ECF0E0108295
:1001D0001093C5000093C40082E08093C00088E1C2
:1001E000808386E08093C2001F910F910895CF9283
:1001F000DF92EF92FF920F931F93CF93DF93582FCD
:10020000E42E8C3479F08D3428F4883449F0893424
:1002100029F40CC08F3461F0873531F080E009C0DB
:1002200088E207C080E205C08CE403C080EC01C016
:1002300080EA40914604A42FA095B09132040B2F80
:10024000009520E030E0E82FF0E085B18A2385B901
:10025000CF01022E02C0880F991F0A94E2F787FF90
:1002600003C085B18B2B02C085B1802385B985B1D0
:10027000842B85B900000000000000002F5F3F4F75
:100280002830310511F720E030E085B18A2385B9A7
:10029000CB01022E02C0880F991F0A94E2F797FF44
:1002A00003C085B18B2B02C085B1802385B985B190
:1002B000842B85B900000000000000002F5F3F4F35
:1002C0002031310511F7F090300410E027E030E0E4
:1002D0006E2D70E0C7E0D0E0E1E0F0E085B18A2368
:1002E00085B9593471F4CE01821B930B6B0102C0A6
:1002F000CC0CDD1C8A95E2F7C7FE03C085B18B2BC1
:1003000002C085B1802385B985B1842B85B90000F1
:1003100000000000000083B18F2141F0CF01022EC8
:1003200002C0880F991F0A94E2F7182B2150304021
:100330008FEF2F3F380791F685B1A823A5B9573520
:1003400011F0593421F485E06CED0E94D600812F24
:10035000DF91CF911F910F91FF90EF90DF90CF90A1
:1003600008958F929F92AF92BF92CF92DF92EF92B9
:10037000FF920F931F93CF93DF93EC016B01A0E0EB
:10038000B0E0DC01992788279B0140E050E0280F6E
:10039000391F4A1F5B1FF09046047F2D7095009116
:1003A0003204E02EE094E0E0F0E085B1872385B9E7
:1003B000CE010E2E02C0880F991F0A94E2F797FF14
:1003C00003C085B1802B02C085B18E2185B985B16E
:1003D0008F2985B900000000000000003196E0314F
:1003E000F10519F76091300410E0E0E0F0E0AFE0D3
:1003F000B0E0C1E0D0E087E0A82EB12C85B1872322
:1004000085B9C6010E2E02C0880F991F0A94E2F723
:1004100097FF03C085B1802B02C085B18E2185B9BD
:1004200085B18F2985B90000000000000000203050
:1004300080E0380780E0480780E5580709F45EC08F
:10044000213080E0380780E0480780E55807E0F475
:10045000203081E0380780E0480780E3580709F43E
:100460004DC0203082E0380780E0480780E358071D
:1004700009F444C0203080E0380780E0480780E37A
:10048000580709F04DC03AC0203080E0380780E0BE
:10049000480788E55807B1F1213080E0380780E04F
:1004A000480788E5580748F4203080E0380788E09E
:1004B000480780E55807A1F521C0203080E03807C3
:1004C00088E0480788E55807C9F0203080E0380701
:1004D00083E548078CEA580719F5E830F10504F57B
:1004E00083B18623E9F0C5018E1B9F0B4E0102C02C
:1004F000880C991C8A95E2F7C40111C0E830F10517
:100500007CF003C0EA30F1055CF083B1862341F052
:10051000CE010A2E02C0880F991F0A94E2F7182B09
:1005200031961197E031F10509F068CF85B1782354
:1005300075B985E067EB0E94D600812FDF91CF91DE
:100540001F910F91FF90EF90DF90CF90BF90AF90F1
:100550009F908F90089570938500609384009FEF23
:1005600096BB80938100B09BFECFB09A1092810021
:1005700008958091C00087FFFCCF8091C600089548
:100580008091C6000895AC0120E030E00FC02F5FDD
:100590003F4F8FE0213A380724F04150504020E08F
:1005A00030E04115510511F480E008958091C000BC
:1005B00087FFEDCF81E0089585E090E00E94C302BF
:1005C000813019F48091C600F7CF0895982F80915B
:1005D000C00085FFFCCF9093C60008950F931F9332
:1005E000CF93DF938C01C0E0D0E0F801EC0FFD1F4A
:1005F000E081EE2371F021968091C00085FFFCCF51
:10060000E093C60084E063EC0E94D600C83CD105AC
:1006100061F7DF91CF911F910F910895AC0120E018
:1006200030E0FA01E20FF31FE081EE2359F02F5F73
:100630003F4F8091C00085FFFCCFE093C600283C6F
:10064000310579F7089580E091E00E940E03089546
:10065000EF92FF920F931F93CF93DF93F82EEB014E
:100660008A01E22E80E0482F4F5FF801E80FF11D6C
:10067000CE016F2D70E00E949D1580838A3010F4AA
:10068000805D01C0895C8083CE016F2D70E00E9487
:100690009D15EB016115710511F0842FE4CF4430F5
:1006A00078F48AE5E81661F4842F90E306C0F80137
:1006B000E80FF11D90838F5F4F5F8430C0F301C05E
:1006C000842FF801E80FF11D1082342F315020E003
:1006D0000CC0D801A20FB11D9C91F801E30FF11DD0
:1006E00080818C9390832F5F3150231790F3DF919B
:1006F000CF911F910F91FF90EF9008951F93DF937B
:10070000CF9300D000D000D0CDB7DEB7BC0197FDAD
:1007100002C01BE204C0709561957F4F1DE28AE024
:10072000AE014F5F5F4F2EE40E9428031D3231F46B
:100730008091C00085FFFCCF8DE205C08091C00094
:1007400085FFFCCF80E28093C600CE0101960E9417
:10075000EE0283E091E00E940E0326960FB6F89415
:10076000DEBF0FBECDBFCF91DF911F9108950F93D4
:100770001F93DF93CF9300D000D000D0CDB7DEB76A
:100780008E010F5F1F4FA8012AE50E942803C801B0
:100790000E94EE0286E091E00E940E0326960FB6BC
:1007A000F894DEBF0FBECDBFCF91DF911F910F91A7
:1007B00008951F93A82F262F10E0FA01E10FF11DD5
:1007C000822F6A2F0E94911590839A3010F4905DC9
:1007D00001C0995C9083312F3F5F822F6A2F0E9466
:1007E0009115282F882311F0132FE7CFFA01E30F7B
:1007F000F11D108220E00BC0DA01A20FB11D9C9107
:10080000FA01E80FF11D80818C9390832F5F812F77
:10081000821B281788F31F9108950F931F93DF936E
:10082000CF9300D000D0CDB7DEB78E010F5F1F4F42
:10083000A8010E94D903C8010E94EE0286E091E05F
:100840000E940E030F900F900F900F90CF91DF91A9
:100850001F910F910895FC0120E030E010C0C90104
:1008600063E0880F991F6A95E1F7220F331F820F0B
:10087000931F242F30E020533040280F391F41911F
:10088000842F80538A3058F3C9010895FC01808178
:100890008B3241F08D3219F020E030E048C040E06A
:1008A00050E013C020E030E02BC0CA0173E0880F95
:1008B000991F7A95E1F7440F551F840F951F422F1A
:1008C00050E040535040480F591F21813196822FEC
:1008D00080538A3050F322273327241B350B2CC03A
:1008E000C90153E0880F991F5A95E1F7220F331F72
:1008F000820F931F242F30E020533040280F391FE0
:1009000041813196842F80538A3050F315C0C9013C
:10091000A3E0880F991FAA95E1F7220F331F820FDA
:10092000931F242F30E020533040280F391F41916E
:10093000842F80538A3058F3C9010895982F8A5321
:10094000873038F0903328F080E0973418F081E059
:10095000089581E008951F93CF93DF93EC011881F0
:10096000812F0E949E04882301F589810E949E04A4
:100970008823D9F4812F80538883813110F0175355
:10098000188398812981822F80538983813110F0C7
:10099000275329838981292F30E0E4E0220F331F78
:1009A000EA95E1F7280F311D02C020E030E0C901CF
:1009B000DF91CF911F910895AF92BF92CF92DF92B6
:1009C000EF92FF921F93CF93DF937C01C3E0D0E0BF
:1009D000CC24DD24ACE0AA2EB12CF7011081112328
:1009E00061F42196CC0FDD1FCC0FDD1F960102C0F4
:1009F00036952795CA95E2F725C0812F0E949E045F
:100A0000882319F020E030E01DC0812F8053F701CA
:100A10008083813110F017531083F70181917F019A
:100A200090E00A2C02C0880F991F0A94E2F7C80EC2
:100A3000D91E8CEF9FEFA80EB91E209711F02197B9
:100A4000CCCF9601C901DF91CF911F91FF90EF901C
:100A5000DF90CF90BF90AF9008959091390480912E
:100A6000DD039817D1F3E0913904F0E0EE0FFF1F9A
:100A7000E052FC4FE081E0933B04809139048F5FAA
:100A800080933904809139048F71809339048E2FBB
:100A9000E7FD8F5F85958093D70380914704803170
:100AA0001CF481E080934804E0934704909139045A
:100AB0008091DD039817D1F3E0913904F0E0EE0F57
:100AC000FF1FE052FC4F80819181209139042F5FFC
:100AD00020933904209139042F712093390462E066
:100AE00070E00E94B1159B0170932F0460932E0457
:100AF00060913304709134046F5F7F4F70933404BE
:100B0000609333048091DA039091DB03281739074F
:100B100051F12115310549F14091DE035091DF0378
:100B200042235323E0914A04F0914B0420914C045A
:100B300030914D042E0F3F1F241735072CF481E010
:100B400080932604109240044217530729F4109210
:100B5000260481E0809340044E175F0731F4109221
:100B600026041092400410923A0463FF03C085B13A
:100B7000836002C085B18C7F85B9089520912E04D1
:100B800030912F043093DB032093DA038091DE034E
:100B90009091DF038223932390934B0480934A0424
:100BA000A901481B590B50934404409343044091BE
:100BB0004304509144044093310427702093270448
:100BC00080914C04841B8093DC0308959091390438
:100BD0008091DD039817D1F3E0913904F0E0EE0F36
:100BE000FF1FE052FC4F80819181909329048093F4
:100BF0002804809139048F5F8093390480913904EF
:100C00008F718093390408950E94E6056091430432
:100C1000709144048CE4409128040E945800609133
:100C20004304709144044091290488E40E945800D0
:100C300008951F9311E050C08091D7038150809395
:100C4000D703109349040E940406809143049091B5
:100C50004404019690934404809343048091DA0302
:100C60009091DB0301969093DB038093DA038091EC
:100C7000DC0381508093DC038091D8039091D903E9
:100C800001969093D9038093D80320914304309127
:100C9000440480914C0490914D0428173907E1F4E5
:100CA00060914A0470914B0487E540E00E94F70090
:100CB00010924904109244041092430480914C0411
:100CC0008093DC0380912704809331048091270472
:100CD000882311F010933A048091D703882309F0F8
:100CE000ABCF1F910895BC0187E540E00E94F7005B
:100CF0001092490408958F929F92AF92BF92CF9223
:100D0000DF92EF92FF920F931F93CF93DF936C01CB
:100D10005B014A0179018091C00087FFFCCF80917F
:100D2000C600C1E0D0E020E030E008C02F5F3F4FB8
:100D30008AE32939380711F480E006C08091C000A9
:100D400087FFF4CF8091C6002196823261F745C0BB
:100D50002F5F3F4FEAE329393E0711F440E006C018
:100D60008091C00087FFF4CF4091C60021964232A7
:100D700009F491C0F501808191818C179D0774F56C
:100D80004A3011F04D3081F4F70120813181F801B2
:100D9000E20FF31F31978081882329F421503040DE
:100DA000F7013183208340E0F70120813181F80190
:100DB000E20FF31F40832F5F3F4FF7013183208302
:100DC0008091D30390E02817390744F04D3031F07B
:100DD000442321F0F401508301C051E0F4018081EB
:100DE000882319F420E030E0BBCF813009F053C0F4
:100DF0000E94DC02F501C083D183F70180819181DB
:100E0000F801E80FF91F10820196F70191838083A2
:100E100085B1836085B9C0E0D0E00EC0F801EC0F69
:100E2000FD1F89E440810E94F7002196F70180812F
:100E30009181C817D90761F0F601608171816C0F4B
:100E40007D1F80913E0490913F046817790734F329
:100E5000F601408151819E01240F351F80913E048F
:100E600090913F042817390751F483E0F4018083FF
:100E700060913E0470913F046150704050C04150F9
:100E800050404C0F5D1FF60151834083F7011182E2
:100E9000108280E054C085B1836085B9F7018081FC
:100EA0009181F801E80FF91F10820196F7019183F3
:100EB0008083F501D183C083F70180819181F601A0
:100EC00020813181820F931F9183808320913E0482
:100ED00030913F048217930774F183E0F40180831B
:100EE000C0E0D0E009C0F801EC0FFD1F89E4B901B2
:100EF00040810E94F7002196F60120813181F7019F
:100F000080819181281B390B2C0F3D1F60913E047D
:100F100070913F04615070402617370724F389E42D
:100F200040E00E94F70080913E0490913F04F6015A
:100F30009183808303C082E0F401808381E0DF91AC
:100F4000CF911F910F91FF90EF90DF90CF90BF90C6
:100F5000AF909F908F900895DF93CF93CDB7DEB77A
:100F600027970FB6F894DEBF0FBECDBFAB018983C4
:100F7000A1E0B0E0BE016F5F7F4F20E030E008C02D
:100F80002F5F3F4F8AE32939380711F420E006C06C
:100F90008091C00087FFF4CF2091C600FA018081C4
:100FA0009181019691838083203271F02D3061F020
:100FB0002A3051F0222341F0293031F0FB01EA0FB1
:100FC000FB1F20831196D9CFCE010196A80FB91F20
:100FD0001C920E94460427960FB6F894DEBF0FBEFF
:100FE000CDBFCF91DF910895DF93CF93CDB7DEB71B
:100FF00027970FB6F894DEBF0FBECDBFAB01A0E0C0
:10100000B0E0BE016F5F7F4F20E030E008C02F5F8F
:101010003F4F8AE32939380711F420E006C0809158
:10102000C00087FFF4CF2091C600FA018081918132
:10103000019691838083203271F02D3061F02A3047
:1010400051F0222341F0293031F0FB01EA0FFB1F60
:1010500020831196D9CFCE010196A80FB91F1C92FB
:101060000E94DC0427960FB6F894DEBF0FBECDBFFA
:10107000CF91DF9108952F923F924F925F926F929E
:101080007F928F929F92AF92BF92CF92DF92EF9218
:10109000FF920F931F93DF93CF9300D0CDB7DEB7AE
:1010A000FC011B016A01390158011A821982D80119
:1010B0002D913C910190F081E02D2115310589F5AC
:1010C000D3016D917C918091C00087FFFCCF80910E
:1010D000C60081E090E09A83898310C02F5F3F4F64
:1010E000BAE329393B0731F08091C00087FFF6CF82
:1010F0008091C6004F5F5F4F5A83498349815A816F
:10110000D1018D919C91481759071CF420E030E0E3
:10111000EBCF4B01880C991C8E0E9F1E4424552446
:101120007FC0DB018D919C919A8389832F01421AA4
:10113000530A8824992474C02F5F3F4FBAE329399A
:101140003B0721F420E008C020E030E08091C0009F
:1011500087FFF2CF2091C60089819A8101969A83F8
:101160008983222309F467C02A3308F05CC0203346
:1011700040F42B3231F02D3221F0243209F053C0EB
:1011800019C0822FB8010E94AC07F501208131817E
:10119000F701E20FF31F492F552747FD5A9540836A
:1011A0002F5F3F4FF701E20FF31F80832F5F3F4F09
:1011B000D50118C084E2B8010E94F407D5012D9131
:1011C0003C911197F701E20FF31F492F552747FD77
:1011D0005A9540832F5F3F4FF701E20FF31F808343
:1011E0002F5F3F4F11963C932E93F30180819181A5
:1011F0000196918380838091D30390E02D913C915F
:101200002817390784F0D6018C91823011F4E3E07D
:10121000EC93D6018C91882331F4E4E0EC9303C085
:101220008E010F5F1F4FD6018C91882309F48CCF5C
:10123000823009F489CF0E94DC02F601808182307D
:1012400061F0833020F4882309F460C05DC08330EE
:1012500029F1843009F058C07CC085B1836085B91C
:1012600000E010E010C0F701E00FF11F89E44081B9
:101270000E94F7000F5F1F4FD5018D919C910817B9
:10128000190709F48FC0B801640D751D80913E04E3
:1012900090913F046817790734F384C085B1836067
:1012A00085B900E010E00FC0F701E00FF11F89E4FD
:1012B00040810E94F7000F5F1F4FF50180819181EF
:1012C0000817190751F0B801640D751D80913E048F
:1012D00090913F04681779073CF3040D151D809128
:1012E0003E0490913F040817190721F485B18C7FC3
:1012F00085B958C0D5011D921C92F60110828981D2
:101300009A81D1018D939C9380E04DC085B183601B
:1013100085B900E010E00FC0F701E00FF11F89E48C
:1013200040810E94F7000F5F1F4FF501808191817E
:101330000817190751F0B801680D791D80913E0416
:1013400090913F04681779073CF3D5011D921C92D8
:1013500029C085B1836085B900E010E00FC0F701B6
:10136000E00FF11F89E440810E94F7000F5F1F4FDB
:10137000F501808191810817190751F0B801680DB6
:10138000791D80913E0490913F04681779073CF3E2
:10139000080D191D80913E0490913F04081719070C
:1013A00009F0A8CF81E00F900F90CF91DF911F91AE
:1013B0000F91FF90EF90DF90CF90BF90AF909F90F4
:1013C0008F907F906F905F904F903F902F900895F7
:1013D000EF92FF920F931F93CF93DF937C01C09105
:1013E0004104D091420422C00E94230380E1BE0147
:1013F0000E94B70388E091E00E940E038E010F5F08
:101400001F4F8FE4BE0140E00E94F700982F882311
:1014100061F08091C00085FFFCCF9093C60085E00D
:101420006CED0E94D600E801E9CFE801CE15DF059A
:10143000DCF20E942303DF91CF911F910F91FF9067
:10144000EF9008958F929F92AF92BF92CF92DF92CA
:10145000EF92FF920F931F93CF93DF93182F092FD3
:101460006B010E942303212F302FC901EC0180E181
:10147000BE010E94B7030894C108D108CC0CDD1C42
:101480009924AA24BB2479E0872E46C08FE4BE01AC
:1014900040E00E94F700182F8FE4B70140E00E945F
:1014A000F70000E07801E80EF11C9920C9F0892DC1
:1014B00090E083709070892B99F484E0981621F461
:1014C0008DE091E00E940E038091C00087FFFCCF69
:1014D0008091C6000E94230380E1BE010E94B703F1
:1014E0008091C00085FFFCCF8092C60080E1B701EB
:1014F0000E94B7038091C00085FFFCCF8092C60098
:10150000C7010E947E0382E090E0A80EB91E2296D9
:10151000CA14DB046CF093947E010894E11CF11C66
:1015200080913E0490913F04E816F9060CF4AECF8A
:101530000E94DC02DF91CF911F910F91FF90EF90FD
:10154000DF90CF90BF90AF909F908F9008956F9253
:101550007F928F929F92AF92BF92CF92DF92EF9243
:10156000FF920F931F93CF93DF93182F092F6B01D7
:101570000E942303212F302FC9018C0180E1B80183
:101580000E94B7030894C108D108CC0CDD1C992433
:10159000AA24BB24F9E06F2E3EC08FE4B80140E0DE
:1015A0000E94F700782E8FE4BE0140E00E94F70011
:1015B000882E9920C9F0892D90E087709070892B32
:1015C00099F488E0981621F48DE091E00E940E03D2
:1015D0008091C00087FFFCCF8091C6000E9423034A
:1015E00080E1B8010E94B7038091C00085FFFCCF65
:1015F0006092C600F72CEE24C701880D911D0E9451
:101600007E0382E090E0A80EB91E0E5F1F4FCA1441
:10161000DB045CF09394E801219680913E04909164
:101620003F04C817D9070CF4B8CF0E94DC02DF9141
:10163000CF911F910F91FF90EF90DF90CF90BF90CF
:10164000AF909F908F907F906F9008956F927F9250
:101650008F929F92AF92BF92CF92DF92EF92FF92C2
:101660000F931F93CF93DF93182F092F6B010E94C5
:101670002303212F302FC9018C0180E1B8010E9482
:10168000B7030894C108D108CC0CDD1CAA24BB24E4
:101690009924B9E06B2E3FC08FE4B80140E00E946E
:1016A000F700782E8FE4BE0140E00E94F700882EFC
:1016B0009920C9F0892D90E087709070892B99F45A
:1016C00088E0981621F48DE091E00E940E0380914D
:1016D000C00087FFFCCF8091C6000E94230380E1F9
:1016E000B8010E94B7038091C00085FFFCCF6092D3
:1016F000C600F72CEE24B701680D711D80E10E9431
:10170000B70382E090E0A80EB91E0E5F1F4FCA1407
:10171000DB045CF09394E801219680913E04909163
:101720003F04C817D9070CF4B7CF0E94DC02DF9141
:10173000CF911F910F91FF90EF90DF90CF90BF90CE
:10174000AF909F908F907F906F9008952F923F92CF
:101750004F925F926F927F928F929F92AF92BF92C1
:10176000CF92DF92EF92FF920F931F93DF93CF936D
:10177000CDB7DEB7C651D1400FB6F894DEBF0FBE6D
:10178000CDBF1D821C821F821E8219861886198277
:1017900080914104909142049B838A838DE191E082
:1017A0000E940E038091D403813019F485E591E005
:1017B00002C08CE591E00E940E0385E691E00E9454
:1017C0000E038FEF90E00E94C3028823B1F3809153
:1017D000C600873509F407C1883538F4833409F425
:1017E0001AC2823509F036C209C0823739F087370C
:1017F00009F4F9C0833609F02DC20DC20E942303FB
:101800008FE460E070E040E00E94F7008F3FA9F4B1
:101810008FE461E070E040E00E94F7008F3F69F4E0
:101820008FE462E070E040E00E94F7008F3F29F40F
:1018300089E691E00E940E030DC282E791E00E94CA
:101840000E038091C00087FFFCCF0091C6000E946C
:10185000DC028FE463E070E040E00E94F700182FA4
:101860008FE464E070E040E00E94F700312F20E058
:10187000280F311D30933F0420933E048FE460E035
:1018800070E040E00E94F700182F8FE461E070E004
:1018900040E00E94F700312F20E0A901480F511DC0
:1018A000CA010E94E809013319F00233D9F51DC0BD
:1018B0008FE460E070E040E00E94F700082F8FE4C2
:1018C00061E070E040E00E94F700182F8FE462E0D2
:1018D00070E040E00E94F700682F902F80E0810FB9
:1018E000911D70E00E94A70A39C08FE460E070E0AB
:1018F00040E00E94F700082F8FE461E070E040E0D4
:101900000E94F700182F8FE462E070E040E00E9430
:10191000F700682F902F80E0810F911D70E00E94EA
:10192000260B1CC08FE460E070E040E00E94F700EE
:10193000082F8FE461E070E040E00E94F700182F6C
:101940008FE462E070E040E00E94F700682F902F83
:1019500080E0810F911D70E00E94220A8FE463E015
:1019600070E040E00E94F700182F8FE464E070E020
:1019700040E00E94F700312F20E0280F311D2F5F3B
:101980003F4F09F467C18FE463E070E040E00E94DC
:10199000F700182F8FE464E070E040E00E94F70049
:1019A000312F20E0280F311D205032400CF052C161
:1019B0008DE791E00E940E038FE463E070E040E069
:1019C0000E94F700182F8FE464E070E040E00E946E
:1019D000F700712F60E0680F711D80E10E94B7036E
:1019E0000E94230337C183E991E00E940E0380E344
:1019F0008A871C860FE38091C00087FFFCCF10917F
:101A0000C600812F0E949E04882339F08091C00077
:101A100085FFFCCF0093C600EECF1B8784E690E0E5
:101A20000E94C3028823C1F00FE31091C600812FEA
:101A30000E949E04882359F08091C00085FFFCCF4E
:101A40000093C6008091C00087FFFCCFEECF0E94BC
:101A5000DC028B858A871B87CE010A960E94AB0425
:101A60008C01181619064CF58DE791E00E940E03C3
:101A700060913E0470913F04601B710B80E10E94F5
:101A8000B7030E94230384EA91E00E940E03809131
:101A9000C00087FFFCCF8091C600883571F40E949A
:101AA000DC022EE088E190E00FB6F894A8958093D0
:101AB00060000FBE20936000FFCF0E94DC024091C7
:101AC0003E0450913F04401B510B50933F04409300
:101AD0003E04452F550F550B89E463E070E00E94EA
:101AE000F70089E464E070E040913E040E94F70052
:101AF00089EB91E00E940E03A2E06A2E712C6C0E1D
:101B00007D1EF4E08F2E912C8C0E9D1EE6E0AE2EF5
:101B1000B12CAC0EBD1E7EE0C72ED12CCC0EDD1E2E
:101B20007E010894E11CF11CC301B401A7019501D9
:101B300086010E947B06882309F0ADC0198285B119
:101B40008C7F85B98BEC91E00E940E03EDCF85B1BF
:101B50008C7F85B98BEC91E00E940E031DC062E082
:101B6000262E312C2C0E3D1E54E0452E512C4C0EB1
:101B70005D1E48E0642E712C6C0E7D1E36E0832EB7
:101B8000912C8C0E9D1E2EE0A22EB12CAC0EBD1EF3
:101B90006E010894C11CD11CC101B201A6019301C0
:101BA000840175010E943B08882389F20E94DC02AF
:101BB00085B18C7F85B984ED91E00E940E030E946F
:101BC000DC024A815B81452F550F550B89E460E0AB
:101BD00070E00E94F70089E461E070E04A810E94B1
:101BE000F70089E462E070E048850E94F700809188
:101BF000C00087FFFCCF8091C6008A819B810E9434
:101C0000E809688579851616170624F58A819B816F
:101C10000E94220A1FC00E9423038FE46EEF73E02C
:101C200040E00E94F700682F80E170E00E94B70357
:101C30008091C00085FFFCCF89E08093C6008FE4CF
:101C40006FEF73E040E00E94F700682F80E170E0E2
:101C50000E94B7038091D403813019F485E591E0A7
:101C600002C08CE591E00E940E038091C100877E46
:101C70008093C10088B190914504892B88B92AE0EE
:101C800088E190E00FB6F894A895809360000FBEAD
:101C900020936000FFCF85B18C7F85B98981823028
:101CA00009F084CF5CCF20E030E008C02F5F3F4FC9
:101CB0008AE32939380711F480E008958091C00043
:101CC00087FFF4CF8091C60008951F920F920FB640
:101CD0000F9211242F933F934F938F939F93EF93E2
:101CE000FF938091C6008833A1F1893380F4843357
:101CF00041F1853338F4823301F1833300F58133C8
:101D0000E1F519C0863309F1873308F51CC0833427
:101D100041F1843448F4813401F1823400F589338F
:101D2000D1F08A3351F525C08534F9F08534D8F0E7
:101D3000863419F51CC041E021C042E01FC043E0D9
:101D40001DC044E01BC045E019C046E017C047E095
:101D500015C048E013C049E011C04AE00FC04BE095
:101D60000DC04CE00BC04DE009C04EE007C04FE095
:101D700005C010923D0410923C0440E080913C0468
:101D800090913D048330910551F1843091053CF4EC
:101D90008130910521F1029709F067C00AC08530B2
:101DA0009105B1F18530910514F1069709F05DC0F8
:101DB00041C080914E0490914F04840F911D9093E7
:101DC0004F0480934E0480914E0490914F04880FED
:101DD000991F099690932B0480932A0435C0842F71
:101DE00090E024E0880F991F2A95E1F71EC08091AA
:101DF0004E0490914F04840F911D90934F04809353
:101E00004E0480914E0490914F04982F88270DC066
:101E100020914E0430914F04842F90E0E4E0880F2D
:101E2000991FEA95E1F7820F931F90934F048093D7
:101E30004E041BC080914E0490914F04840F911D5D
:101E400090934F0480934E04E091DD03EF5FE093A5
:101E5000DD03E15080914E0490914F04F0E0EE0FCD
:101E6000FF1FE052FC4F9183808380913C0490914E
:101E70003D0409970CF488C020913C0430913D0446
:101E800080912A0490912B04281739070CF07CC00C
:101E900080913C0490913D0483709070019759F4B7
:101EA000842F90E0F4E0880F991FFA95E1F7909362
:101EB0004F0480934E0480913C0490913D048370C4
:101EC0009070029751F480914E0490914F04840FCA
:101ED000911D90934F0480934E0480913C04909107
:101EE0003D0483709070039759F4842F90E0E4E0F0
:101EF000880F991FEA95E1F790932D0480932C04A5
:101F000080913C0490913D0483709070892BE1F5A1
:101F100080912C0490912D04840F911D90932D0499
:101F200080932C0480912C0490912D04982F882765
:101F300090932D0480932C0420914E0430914F04F3
:101F400080912C0490912D04820F931F90934F0445
:101F500080934E04E091DD03EF5FE093DD03E150F9
:101F600080914E0490914F04F0E0EE0FFF1FE0527D
:101F7000FC4F9183808380913504909136040196C3
:101F8000909336048093350480913C0490913D04F5
:101F9000019690933D0480933C048091DD038F7102
:101FA0008093DD03FF91EF919F918F914F913F912E
:101FB0002F910F900FBE0F901F9018950E942D0526
:101FC0000E94BE050E9419060E942D0580913B04C7
:101FD000882309F47BC060912E0470912F048091B6
:101FE000DA039091DB036817790749F5809148047B
:101FF000882319F0813019F51EC080912704409183
:10200000DC03552747FD5095992787FD9095209132
:102010004C0430914D04281B390B4217530779F4B7
:102020008091DE039091DF038623972390934B04E6
:1020300080934A0404C00E94BE0510924804209177
:102040002E0430912F048091DA039091DB0328173E
:10205000390709F4B7CF809126048823F1F08091E5
:102060004904882351F080913A04882331F4809107
:102070004A0490914B040E94730680913A0488238D
:1020800061F080914C0490914D0420914A0430916C
:102090004B04820F931F0E94730680914004882393
:1020A00081F080914904882351F080913A0488237B
:1020B00031F480914A0490914B040E94730610926F
:1020C0003A040E94BE05109248047CCFF894809197
:1020D000C1008F778093C10085B18C7F85B981E085
:1020E00090E00E94C302813019F48091C600F7CFBE
:1020F00080914904882351F080913A04882331F477
:1021000080914A0490914B040E94730680913A0496
:10211000882361F080914C0490914D0420914A04F1
:1021200030914B04820F931F0E94730608952F92E3
:102130003F924F925F926F927F928F929F92AF9257
:10214000BF92CF92DF92EF92FF920F931F93DF9394
:10215000CF93CDB7DEB728970FB6F894DEBF0FBE8A
:10216000CDBF1092D6031092D5032090D8033090A3
:10217000D9038DED91E00E940E038091C00087FF8E
:10218000FCCF8091C6008A831B8280E3898385E02F
:102190006DEB70EF0E94AB0281E090E00E94C30201
:1021A000882329F08A8189838091C6008A830E94CE
:1021B000DC02CE0101960E94AB045C0180E1B50116
:1021C0000E94B7038EEE91E00E940E03A114B104A9
:1021D00011F400E00EC082EF91E00E940E038091A6
:1021E000C00087FFFCCF0091C6000E94DC020E9465
:1021F00023031E821D8288249924EE24FF242114A7
:10220000310409F47CC18CE4B70140E00E94F7007E
:10221000182F809328041092290488E4B70140E025
:102220000E94F700712E6624A301480F511D5093A0
:1022300029044093280497012F5F3F4F8091370472
:10224000909138042817390759F04F5F5F4F19F004
:1022500069019C0106C085B1836085B97901D3CF3E
:10226000690185B18C7F85B9C216D30609F447C1CF
:10227000A114B10481F4C4016AE070E00E94B115B8
:10228000892B09F06CC08091C00085FFFCCF8AE2E9
:102290008093C60064C0C401B5010E94B115892BAA
:1022A00009F05DC00E942303EE0CFF1C80E1B70122
:1022B0000E94B7038EEE91E00E940E038D819E81F5
:1022C00001969E838D8360912804709129040133C7
:1022D00009F042C0472F5527CA0180979B013070F3
:1022E0008F35910530F0205230402F353105E8F020
:1022F00033C02032310580F02F37310568F48091EA
:10230000C00085FFFCCF4093C6008091C00085FFD0
:10231000FCCF6093C60023C08091C00085FFFCCF36
:102320004093C60080E10E940D04609128047091E2
:102330002904CB01907080978F35910580F480E15E
:10234000672F0E940D04909128048091C00085FFA2
:10235000FCCF9093C60003C080E10E94B703809138
:10236000D5039091D60301969093D6038093D5031D
:102370000894210831088D819E8181709070988722
:102380008F8357E0E52EF12CEC0CFD1C8CE4B6019C
:1023900040E00E94F700182F80932804109229042F
:1023A00088E4B60140E00E94F700512E4424F20177
:1023B000E80FF11DF0932904E09328040894C11C50
:1023C000D11C9FEFEF3FF90709F47AC00894210868
:1023D0003108A114B10441F08F819885892B21F433
:1023E00085B1836085B907C085B18C7F85B9A1149B
:1023F000B10409F451C0C401B5010E94B115892B83
:1024000009F04AC0013309F043C04F2F5527CA01D4
:1024100080979F0130708F35910530F02052304009
:102420002F353105F0F034C02032310580F02F37E0
:10243000310568F48091C00085FFFCCF4093C60051
:102440008091C00085FFFCCFE093C60025C080913D
:10245000C00085FFFCCF4093C60080E16E2F0E9434
:102460000D046091280470912904CB01907080972D
:102470008F35910588F480E1672F0E940D049091BB
:1024800028048091C00085FFFCCF9093C60004C053
:1024900080E1BF010E94B7038091D5039091D603DC
:1024A00001969093D6038093D50380913704909141
:1024B0003804C816D90621F0CE14DF0409F066CF1F
:1024C0007601A114B10481F0C401B5010E94B115D7
:1024D000892B51F48D819E8187709070892B21F416
:1024E00080E091E00E940E038091370490913804BF
:1024F000C816D90621F00894811C911C80CE85B1A4
:102500008C7F85B90E9423030E94230328960FB66F
:10251000F894DEBF0FBECDBFCF91DF911F910F9119
:10252000FF90EF90DF90CF90BF90AF909F908F90F3
:102530007F906F905F904F903F902F9008950F93F2
:102540001F93CF93DF9380E88093610081E08093B5
:102550006100A89584B7877F84BF809160008861FF
:1025600080936000109260008EEF93E00E94C4158B
:10257000182F803160F0803F50F48FEF93E00E947D
:10258000C415181721F41093660001E001C000E0A3
:1025900080917C00806480937C0083E084B985B165
:1025A0008C7F85B985B78F7E85BF22982A9A87B19F
:1025B000887C87B988B1876388B98AB183708AB902
:1025C0008BB18C6F8BB985E06CED0E94D60098E0E2
:1025D0009093320480E18093300420E220934604FB
:1025E0009093450484B1886284B93B9A43982093C0
:1025F000B60080E060E10E94DD0089EF91E00E947A
:102600000E038FEF90E00E94C3028823B1F3809104
:10261000C600833591F784E063EC0E94D60098B140
:10262000809145048095892388B995B180914604AD
:102630008095892385B984E063EC0E94D60088B137
:1026400090914504892B88B984E063EC0E94D60000
:1026500098B1809145048095892388B985E064E626
:102660000E94D60083E59CEA60E070E00E94B10120
:10267000833541F480E090E360E070E00E94B101B6
:102680008E3181F08DEF91E00E940E032AE088E107
:1026900090E00FB6F894A895809360000FBE209349
:1026A0006000FFCF80E090E360E071E00E94B10144
:1026B000182F80E090E360E072E00E94B10190E0AA
:1026C0001092510410925004143919F01539D1F4B4
:1026D0000BC08630910519F481E996E00FC00B9785
:1026E00089F482E996E00AC08431910519F481EDFC
:1026F0009CE004C00F9731F482ED9CE0909351046C
:10270000809350048091500490915104892BC1F41E
:1027100080E091E00E940E0381E192E00E940E03AE
:1027200080E091E00E940E032AE088E190E00FB67D
:10273000F894A895809360000FBE20936000FFCFAF
:1027400080E090E560E070E00E94B1018F3F11F4FD
:1027500081E001C082E08093D40387E292E00E948E
:102760000E038091D403813019F485E591E002C015
:102770008CE591E00E940E038091500490915104E9
:102780002CE0813D920721F0825D9C4059F503C009
:1027900082E392E002C086E392E00E940E0380E4AE
:1027A00090E090934D0480934C0480EC9FE39093D1
:1027B000DF038093DE0380E090E4909338048093FD
:1027C000370487EF93E090933F0480933E0485E0C5
:1027D00090E090934204809341048BE392E00E9446
:1027E0000E030CC02EE088E190E00FB6F894A89597
:1027F000809360000FBE20936000FFCF8091C000E7
:1028000087FFFCCF8091C600853469F0863420F4C0
:10281000843409F05DC00AC0883509F443C08837A4
:1028200009F056C03FC00E94A60BE8CF80E892E0B6
:102830000E940E030E9423038091C00087FFFCCFFB
:102840008091C6008434C1F483EA92E00E940E03B2
:10285000C0E0D0E006C089E4BE014FEF0E94F7005F
:10286000219680913E0490913F04C817D9079CF3AC
:102870008FEA92E00E940E038091C100877E8093D0
:10288000C10088B190914504892B88B92AE088E17C
:1028900090E00FB6F894A895809360000FBE209347
:1028A0006000FFCF8091C100877E8093C10088B116
:1028B00090914504892B88B92AE088E190E00FB611
:1028C000F894A895809360000FBE20936000FFCF1E
:1028D000803519F0803709F091CF80E090E560E015
:1028E00070E00E94B1018F3FD1F487EB92E00E942B
:1028F0000E038091C100877E8093C10088B19091C2
:102900004504892B88B92AE088E190E00FB6F89455
:10291000A895809360000FBE20936000FFCF8FEDDD
:1029200092E00E940E0318C08835B1F48091C10076
:10293000877E8093C10088B190914504892B88B926
:102940002AE088E190E00FB6F894A89580936000A3
:102950000FBE20936000FFCF8091C00087FFFCCFA7
:102960008091C6008A3301F71092D9031092D803E0
:1029700010923404109233041092360410923504ED
:1029800010924704109249041092DB031092DA036C
:102990001092260410923A041092DD03109239042A
:1029A0001092480481E090E090933D0480933C04B1
:1029B0008091C10080688093C100789480E89CEA8F
:1029C00060E070E00E94B1010E94DE0F84EA9CEAA0
:1029D0006DEF70E00E94B10188EA9CEA60ED70E062
:1029E0000E94B10180EA9CEA62EE70E00E94B101AF
:1029F00080EE9CEA6FEF70E00E94B1010E94971098
:102A000087E093E00E940E0380E293E00E940E03B1
:102A100082E393E00E940E0388E090E560E070E0BE
:102A20000E94B101682F80E170E00E94B70388E046
:102A300098E560E070E00E94B101682F80E170E0ED
:102A40000E94B70380E090E560E070E00E94B10171
:102A5000682F80E170E00E94B70380E098E560E0B5
:102A600070E00E94B101682F80E170E00E94B7031E
:102A700087E693E00E940E03013031F46091660016
:102A800080E170E00E94B7036091660080E170E031
:102A90000E94B7030E9423038EE793E00E940E0377
:102AA00060913504709136048AE00E94B7038EE885
:102AB00093E00E940E036091D8037091D9038AE0DD
:102AC0000E94B7038CE993E00E940E036091D50346
:102AD0007091D6038AE00E94B70383EA93E00E94D4
:102AE0000E038AEA93E00E940E0389E469EF73E023
:102AF00040E00E94F7008091C100877E8093C10072
:102B000088B190914504892B88B92AE088E190E04A
:102B10000FB6F894A895809360000FBE20936000D4
:102B2000FFCF991B79E004C0991F961708F0961BF8
:102B3000881F7A95C9F780950895AA1BBB1B51E1A0
:102B400007C0AA1FBB1FA617B70710F0A61BB70B1D
:102B5000881F991F5A95A9F780959095BC01CD01C2
:102B6000089597FB092E07260AD077FD04D0E5DFEC
:102B700006D000201AF4709561957F4F0895F6F7FE
:102B8000909581959F4F0895F999FECF92BD81BD93
:0C2B9000F89A992780B50895F894FFCFBB
:102B9C000D0A002020002000202020200009414B9D
:102BAC0020746F20636F6E74696E7565000D0A502A
:102BBC007265737320572C2052206F72204420743E
:102BCC006F20777269746520746F2C207265616454
:102BDC002066726F6D206F722064656C6574652061
:102BEC0074686520002028554E4F2900202850433A
:102BFC00425F4129003F2020004E6F2044617461E8
:102C0C002100312C32206F7220330D0A000D0A4145
:102C1C0070703A205374617274206164647227730B
:102C2C002020000D0A496E746567657228302D46A8
:102C3C0046293F005820746F2065736361706520CE
:102C4C006F7220414F4B0D0A000D0A53656E6420C4
:102C5C00746578742066696C652E0020204167616C
:102C6C00696E2100202020414B3F0D0A00496E74F3
:102C7C006567657228302D4646293F2020002020AC
:102C8C002000312F323F0D0A005320200054617276
:102C9C006765745F6E6F745F646574656374656497
:102CAC00005461726765745F6E6F745F7265636FF9
:102CBC00676E69736564000D0A0D0A41544D4547F2
:102CCC00410033323800333238500020646574656B
:102CDC00637465640D0A50726573732050206F72B3
:102CEC00204520746F2070726F6772616D20666C66
:102CFC00617368206F7220454550524F4D20286FEC
:102D0C0072205820746F20657363617065292E00E2
:102D1C000D0A526573657420454550524F4D212064
:102D2C0044206F7220414F4B20746F206573636198
:102D3C007065003130207365632077616974002001
:102D4C00446F6E650D0A000D0A43616E6E6F742040
:102D5C006265207573656420746F2070726F677282
:102D6C00616D20554E4F20666C6173680D0A000D25
:102D7C000A53656E642050726F6772616D206669CC
:102D8C006C6520286F72205820746F206573636106
:102D9C007065292E0D0A0041746D6567615F707254
:102DAC006F6772616D6D65725F56332E300D0A0060
:102DBC0050726F6772616D6D696E67205043425F30
:102DCC0041000D0A436F6E66696720627974657302
:102DDC003A20467573657320657874656E64656416
:102DEC002C20686967682C206C6F7720616E6420DA
:102DFC006C6F636B0D0A00202020206F6E2D6368B2
:102E0C0069702063616C206269743A202000486507
:102E1C00785F66696C655F73697A653A0900202092
:102E2C0064276C6F616465643A20200020696E3AF7
:102E3C00202000206F75740D0A0050726F6772614C
:102E4C006D6D696E67205043425F4120454550527D
:102E5C004F4D20307833463920746F207A65726F6D
:042E6C000D0A00FF4C
:00000001FF
