:106C30000C944C360C9469360C9469360C94693675
:106C40000C9469360C9469360C9469360C94693648
:106C50000C9469360C9469360C9469360C94693638
:106C60000C9469360C9469360C9469360C94693628
:106C70000C9469360C9469360C9469360C94693618
:106C80000C9469360C9469360C9469360C94693608
:106C90000C9469360C94693611241FBECFEFD8E0EE
:106CA000DEBFCDBF11E0A0E0B1E0E6EFFFE602C03D
:106CB00005900D92A830B107D9F711E0A8E0B1E036
:106CC00001C01D92AF30B107E1F70E9447370C9425
:106CD000F9370C941836AC0120E030E0FA01E20FED
:106CE000F31FE081EE2359F02F5F3F4F8091C000EA
:106CF00085FFFCCFE093C600283C310579F7089565
:106D0000AC0120E030E00FC02F5F3F4F8FE0213A11
:106D1000380724F04150504020E030E04115510543
:106D200011F480E008958091C00087FFEDCF81E0ED
:106D300008958091C6000895982F8091C00085FF26
:106D4000FCCF9093C60008958091C00087FFFCCFD0
:106D50008091C600089580E091E00E946B3608950E
:106D600066BD85BDA89BFECFA89A15BC08950F935C
:106D70001F93182F062F85E064E60E94B036E1ECE1
:106D8000F0E010821093C5000093C40082E080936D
:106D9000C00088E1808386E08093C2001F910F913C
:106DA0000895EF92FF920F931F93CF93DF937C018F
:106DB000EB0101E010E00E151F0591F08D2F9927D2
:106DC00087FD9A9580930801C0930D010E94C337F7
:106DD00080910E01882311F40F5F1F4F2197EBCF95
:106DE00010E08D2F992787FD9A9580930801C09315
:106DF0000D010E94C33780910E018823B1F090915C
:106E00000E018091C00085FFFCCF9093C6001F5FEC
:106E100080910E01803239F41B3528F080E091E03A
:106E20000E946B3610E02197DCCFDF91CF911F914C
:106E30000F91FF90EF9008950F931F93CF93DF93DF
:106E4000EC0110E000E08D2F992787FD9A95809343
:106E50000801C0930D010E94C33720910E01222327
:106E600051F4002311F01F5F0FC0812FDF91CF91EC
:106E70001F910F91089580910B0190910C01019643
:106E800090930C0180930B012197022FDCCF0F937D
:106E90001F93CF93DF9310920C0110920B010E946D
:106EA000AB368FEF9BE50E941C37082F84EF93E0F1
:106EB0000E94E33787FD2DC08CEF93E00E94E337FB
:106EC000682F60688CEF93E00E94EB37C1E0D0E060
:106ED00010E01BC0CE016FEF7BE50E94D136C130C0
:106EE000D10521F483E091E00E946B3680E091E0CF
:106EF0000E946B368091C00087FFFCCF8091C60056
:106F000080E091E00E946B3621960C171D0714F764
:106F10002EC0182F1F73812F90E06FEF7BE50E942A
:106F2000D136612F6F5F061708F461E0606484EF6B
:106F300093E00E94EB37C0E0D0E080E091E00E9457
:106F40006B362196C430D105C1F78091C00087FF10
:106F5000FCCF8091C600883551F484EF93E060E067
:106F60000E94EB3787EF93E060E00E94EB3728E068
:106F700088E190E00FB6F894A895809360000FBE6A
:106F800020936000FFCF0F92FF93EF93F0910801E1
:106F9000E0910D01049000920E01EF91FF910F908E
:106FA00008954F9341E10E94D7374F9108950F9371
:106FB0000091570000FDFCCFF89440935700E895EE
:106FC00078940F910895F999FECF92BD81BDF89AFA
:106FD000992780B50895262FF999FECF1FBA92BD43
:106FE00081BD20BD0FB6F894FA9AF99A0FBE0196AA
:066FF0000895F894FFCFA4
:086FF6000D0A0009414B3F00A8
:0400000300006C305D
:00000001FF
