:100000000C9434000C9451000C9451000C94510049
:100010000C9451000C9451000C9451000C9451001C
:100020000C9451000C9451000C9451000C9451000C
:100030000C9451000C9451000C9451000C945100FC
:100040000C9451000C9451000C9451000C945100EC
:100050000C9451000C9451000C9451000C945100DC
:100060000C9451000C94510011241FBECFEFD4E02A
:10007000DEBFCDBF11E0A0E0B1E0EAE5FEE002C0E6
:1000800005900D92A03EB107D9F711E0A0EEB1E0C6
:1000900001C01D92A83EB107E1F70E949E050C9495
:1000A0002B070C94000020E030E003C000002F5F1D
:1000B0003F4F82179307D4F70895AC0120E030E05A
:1000C00062EB95E009C066BD95BD85B38823E9F371
:1000D000A89A15BC2F5F3F4F24173507A4F3089546
:1000E00066BD85BD85B38823E9F3A89A15BC08953C
:1000F000EEE6F0E090819160908366BD85BD089545
:10010000EFE6F0E080818160808382E0809381006F
:10011000089570938500609384009FEF96BB809351
:10012000810086B38823E9F3B09A10928100089584
:100130000F931F93182F062F85E062EF7CEF0E942C
:100140008900E1ECF0E010821093C5000093C40038
:1001500082E08093C00088E1808386E08093C200C3
:100160001F910F910895EFE6F0E0908191609083E8
:10017000709385006093840080938100089560935C
:10018000B2008093B10087B38823E9F3B89A109244
:10019000B100089584E48093BC008091BC0087FF87
:1001A000FCCF8091BB001092BB0084EC8093BC001C
:1001B0008091BC0087FFFCCF86E48093BB0084E87D
:1001C0008093BC008091BC0087FFFCCF84E88093C3
:1001D000BC008091BC0081648093BC000895809134
:1001E000C00087FFFCCF08958091C00087FFFCCF3F
:1001F0008091C60008958091C6000895982F20E050
:1002000030E00DC02F5F3F4F8FE1213438071CF0E5
:10021000915020E030E0992311F480E0089580911E
:10022000C00087FFEFCF81E008958091C00087FF75
:10023000FCCF8091C6008D3011F08A3051F481E0FE
:100240000E94FE00882311F48DE008958091C6007D
:100250008DE0089585E00E94FE00813019F48091C0
:10026000C600F8CF0895982F8091C00085FFFCCF7D
:100270009093C6000895AC0120E030E0FA01E20F4F
:10028000F31FE081EE2359F02F5F3F4F8091C000B4
:1002900085FFFCCFE093C600283C310579F708952F
:1002A00080E091E00E943B0108951F931EE285E0EB
:1002B0000E94FE00813049F48091C6008091C00008
:1002C00085FFFCCF1093C600F2CF0E9450011F9112
:1002D00008952F923F924F925F926F927F928F92EA
:1002E0009F92AF92BF92CF92DF92EF92FF920F93C5
:1002F0001F93CF93DF93EC015A016B01403080E0F4
:10030000580780E0680780E8780751F52A3021F027
:10031000203109F06CC014C028E3288394E399834A
:1003200086E38A8383E38B832C839D8387E38E8399
:100330009F8381E3888782E389878DE28A870EC065
:1003400080E3888389838A838B838C838D838E83E8
:1003500088E38F838DE2888719861A861B8647C0BB
:1003600080E090E0FE01E80FF91F108201968C30CA
:100370009105C1F786017501D7FE07C0EE24FF2461
:100380008701EA18FB080C091D094E016624772431
:10039000222E332444245524C801B701A20191011F
:1003A0000E94FA06F40160836A3010F4605D02C0B6
:1003B000695CF40160830894611C711CC801B70179
:1003C000A20191010E94FA06C901DA017C018D01A6
:1003D0000894811C911C1E141F0410061106E4F2DF
:1003E000D7FE05C06C0E7D1E8DE2F3018083DF9188
:1003F000CF911F910F91FF90EF90DF90CF90BF9022
:10040000AF909F908F907F906F905F904F903F90B4
:100410002F900895AC0120E030E002C02F5F3F4FE5
:10042000FA01E20FF31F80818823C1F72150304089
:10043000FA01E20FF31F2F5F3F4F0AC090818091B6
:10044000C00085FFFCCF9093C6002150304031970B
:100450002115310599F708950F931F93DF93CF93DB
:10046000CDB7DEB72C970FB6F894DEBF0FBECDBF69
:10047000282F8E010F5F1F4FC8010E946901C8011C
:100480000E940A022C960FB6F894DEBF0FBECDBFB5
:10049000CF91DF911F910F91089590E080538A30A2
:1004A00008F491E0892F0895803328F08A3328F0EA
:1004B0008154863010F080E0089581E008951F9304
:1004C000182F87FF10C083E091E00E943B01412F6D
:1004D000552747FD5095509541955F4F662757FD2D
:1004E0006095762F0AC087E091E00E943B01412F82
:1004F000552747FD5095652F752F8AE00E942C02E5
:100500001F910895AF92BF92CF92DF92EF92FF9228
:100510000F931F93CF93DF937A018B0160E070E01C
:10052000FC01E60FF71F10826F5F7F4F6C30710583
:10053000B9F7EC01A22EBB24CC24DD24C801B701FD
:10054000A60195010E94D80668836A3010F4605DA8
:1005500001C0695C6883C801B701A60195010E94CA
:10056000D806C901DA017C018D012196E114F1045C
:100570000105110519F7DF91CF911F910F91FF90A0
:10058000EF90DF90CF90BF90AF9008950F931F939F
:10059000DF93CF93CDB7DEB72C970FB6F894DEBFBD
:1005A0000FBECDBF282F8E010F5F1F4FC8010E94C5
:1005B0008202C8010E940A022C960FB6F894DEBF90
:1005C0000FBECDBFCF91DF911F910F910895782F6E
:1005D00084E48093BC008091BC0087FFFCCF8091B5
:1005E000BB007093BB0084EC8093BC008091BC0086
:1005F00087FFFCCF6093BB0084EC8093BC008091AC
:10060000BC0087FFFCCFFA0120E030E0472F50E02C
:10061000BA0161507040A4EC94E818C0808126179C
:10062000370749F48093BB009093BC008091BC00D5
:1006300087FFFCCF08C08093BB00A093BC008091D3
:10064000BC0087FFFCCF2F5F3F4F31962417350743
:100650002CF380E88093BC000895DF93CF930F9232
:10066000CDB7DEB720E030E007C0019644E0813B23
:10067000940721F42F5F3F4F80E090E01A9BF5CF65
:100680002233310544F081E0898361E5AE014F5F9B
:100690005F4F0E94E7020F90CF91DF9108950F9373
:1006A0001F93DF93CF9300D0CDB7DEB71A828BE0D4
:1006B00091E00E943B018E010F5F1F4F8091C000AF
:1006C00087FFFCCF8091C600883741F08053898333
:1006D00081E06CE4A8010E94E702F0CF198281E07A
:1006E0006CE4A8010E94E7028AE391E00E943B01CA
:1006F0008091C00087FFFCCF8091C6000F900F90C3
:10070000CF91DF911F910F910895DF93CF9300D088
:10071000CDB7DEB7982F4A83698382E0692FAE0197
:100720004F5F5F4F0E94E7020F900F90CF91DF91D4
:100730000895DF93CF9300D0CDB7DEB789836A8366
:1007400082E065E0AE014F5F5F4F0E94E7020F90CD
:100750000F90CF91DF910895DF93CF9300D0CDB765
:10076000DEB7982F698381E0692FAE014F5F5F4F3D
:100770000E94E7020F900F90CF91DF910895982F7C
:10078000AB0188E0692F0E94E7020895AC0188E080
:1007900067E40E94E7020895982FAB0188E0692F73
:1007A0000E94E7020895AC0188E064E00E94E7023D
:1007B0000895DF93CF9300D0CDB7DEB781E689836C
:1007C0001A8282E062E0AE014F5F5F4F0E94E70253
:1007D0000F900F90CF91DF910895DF93CF9300D0CA
:1007E000CDB7DEB789836A8382E063E0AE014F5FF5
:1007F0005F4F0E94E7020F900F90CF91DF91089515
:10080000DF93CF9300D000D0CDB7DEB74C81FB8112
:100810005A81E98120E030E02130310581F0223039
:10082000310524F42115310541F00EC02230310587
:1008300041F02330310541F406C0E82F05C0592F9F
:1008400003C0F62F01C0472F2F5F3F4F24303105E3
:1008500019F74C83FB835A83E98384E061E0AE019E
:100860004F5F5F4F0E94E7020F900F900F900F9025
:10087000CF91DF9108958093BB0084EC8093BC00FE
:100880008091BC0087FFFCCF08958093BB0084E873
:100890008093BC008091BC0087FFFCCF089584EC5E
:1008A0008093BC008091BC0087FFFCCF8091BB008F
:1008B000089584E88093BC008091BC0087FFFCCF42
:1008C0008091BB000895CF93DF93FC01EB0184E49A
:1008D0008093BC008091BC0087FFFCCF8091BB005F
:1008E00020E030E054EC5093BC008091BC0087FFC6
:1008F000FCCF4091BB0037FD20C02330310524F0F0
:1009000023303105D1F40DC080819181A281B38162
:10091000840F911DA11DB11DBA2FA92F982F8827D3
:1009200008C080819181A281B381840F911DA11D96
:10093000B11D80839183A283B3832F5F3F4F243007
:10094000310589F684E88093BC008091BC0087FF64
:10095000FCCF8091BB00888380E88093BC00DF914E
:10096000CF9108951F93CF93DF93162FEC019881B9
:10097000992351F0892F8156873020F4892F612FD8
:100980000E94ED032196F3CFDF91CF911F9108953F
:100990002F923F924F925F926F927F928F929F928F
:1009A000AF92BF92CF92DF92EF92FF920F931F937D
:1009B000DF93CF9300D00F92CDB7DEB79B838A83AE
:1009C000698360E070E00FE5202E01E0302E15E62F
:1009D000412E11E0512EB8E46B2EB1E07B2EAEE437
:1009E0008A2EA1E09A2EF4E5AF2EF1E0BF2EEEE3C1
:1009F000CE2EE1E0DE2E55E4E52E51E0F52E898184
:100A0000813091F48091C00087FFFCCF9091C600A7
:100A1000892F80538A3018F0983709F074C0EA8122
:100A2000FB81E60FF71F9083EA81FB81E60FF71F3A
:100A300080818533E1F1863390F4823349F1833349
:100A400040F48033D9F08133F0F4882309F44DC0A9
:100A500050C0833311F1843309F04BC023C0883375
:100A600099F1893330F4863329F1873309F041C095
:100A700026C0893381F18837E1F534C0D092E20194
:100A8000C092E10136C0F092E201E092E10131C092
:100A90007092E2016092E1012CC09092E20180929A
:100AA000E10127C0B092E201A092E10122C0E9E594
:100AB000F1E013C03092E2012092E1011AC050929D
:100AC000E2014092E10115C089E691E09093E201D4
:100AD0008093E1010EC0E1E7F1E0F093E201E093E1
:100AE000E10107C0108280E013C01092E201109271
:100AF000E1018B010F5F1F4F8091E1019091E201B5
:100B00000E94B204B801683071050CF478CF81E01E
:100B10000F900F900F90CF91DF911F910F91FF9049
:100B2000EF90DF90CF90BF90AF909F908F907F908D
:100B30006F905F904F903F902F900895CF92DF92EB
:100B4000EF92FF920F931F93DF93CF93CDB7DEB752
:100B500061970FB6F894DEBF0FBECDBF04B603FE9B
:100B600003C081E08093E001A89584B7877F84BFAC
:100B7000809160008861809360001092600082E044
:100B80008093BA0080917C00806480937C0085B75C
:100B90008F7E85BF8AB18B778AB98BB184688BB918
:100BA00022982A9A85B78F7E85BF84B18F7384B9C6
:100BB00087B1887F87B98AB187788AB985B1806C17
:100BC00085B988B1876088B98BB188678BB985E0B2
:100BD00090E00E945D0080E060E10E9498008CEF50
:100BE00093E00E9415078093E50180FF08C081E033
:100BF0008093E50184EF93E060E00E941D0784EF9D
:100C000093E00E9415078034F9F400E010E080E0E2
:100C100091E00E943B010F5F1F4F04301105B9F7AF
:100C200087E791E00E943B0100E010E080E091E066
:100C30000E943B010F5F1F4F04301105B9F784EF8D
:100C400093E061E40E941D0784EF93E00E94150782
:100C5000682F86FF07C0606884EF93E00E941D073D
:100C60000C9430360E942D03FE013196CE0142963F
:100C70001192E817F907E1F782EB91E00E943B013E
:100C8000CE01019661E00E94C804882331F0809172
:100C9000C00087FFFCCF8091C60010E020E1C22E8B
:100CA000D12CCC0EDD1E7E010894E11CF11C1F5FCF
:100CB0001930A1F0F601808181833197EC17FD078F
:100CC000D1F7898989838AE090E00E945D000E94C3
:100CD000D903C70160E00E94C804E9CF8091C00039
:100CE00087FFFCCF8091C60010E090E1C92ED12C87
:100CF000CC0EDD1E7E010894E11CF11C02C010E048
:100D000002C01031A9F0F601808181833197EC1780
:100D1000FD07D1F71F5F89898983C70160E00E94C1
:100D2000C8048AE090E00E945D000E94D903E9CFE8
:100D30008091C00087FFFCCF8091C6008837F9F60C
:100D400010E06E010894C11CD11C80E1E82EF12C4A
:100D5000EC0EFD1EC60160E00E94C804F701808110
:100D600081833197EC17FD07D1F71F5F898989834C
:100D70008AE090E00E945D00193011F00E94D903D2
:100D8000193040F38091C00087FFFCCF8091C600EE
:100D90000E94D9030E94500129E088E190E00FB63B
:100DA000F894A895809360000FBE20936000FFCF59
:100DB000A1E21A2EAA1BBB1BFD010DC0AA1FBB1F5F
:100DC000EE1FFF1FA217B307E407F50720F0A21BD1
:100DD000B30BE40BF50B661F771F881F991F1A943E
:100DE00069F760957095809590959B01AC01BD0168
:100DF000CF01089597FB092E05260ED057FD04D08C
:100E0000D7DF0AD0001C38F45095409530952195D5
:100E10003F4F4F4F5F4F0895F6F79095809570952F
:100E200061957F4F8F4F9F4F0895F999FECF92BDE7
:100E300081BDF89A992780B50895262FF999FECF9C
:100E40001FBA92BD81BD20BD0FB6F894FA9AF99AE7
:0A0E50000FBE01960895F894FFCF3D
:100E5A000D0A0020452D0020452B000D0A53656E12
:100E6A0064203020746F203720746F2061646A75A3
:100E7A00737420696E74657276616C207820776865
:100E8A00656E20646F6E650D0A00414B3F0061621A
:100E9A00636465660062630061626765640061623B
:100EAA00636467006667626300616667636400661D
:100EBA0065676463006162630061626364656667B3
:100ECA000061626366670055736572206170702005
:100EDA00636F6D6D656E74617279206D6F64653ACA
:100EEA002027582720746F20657869742C20414F79
:100EFA004B20666F72206E65787420737472696E07
:100F0A00670053656E64206469676974733F202DB6
:100F1A00782D207768656E20636F6D706C657465D7
:100F2A002C20414B20746F20726F7461746500002D
:00000001FF
