:100000000C9434000C9451000C9451000C94510049
:100010000C9451000C9451000C9451000C9408184D
:100020000C9451000C9427170C9451000C9451001F
:100030000C9451000C94B3160C9451000C94510084
:100040000C94C2220C9451000C9451000C94510059
:100050000C9451000C9451000C9451000C945100DC
:100060000C942B180C94510011241FBECFEFD8E034
:10007000DEBFCDBF11E0A0E0B1E0ECEBF9E502C0DE
:1000800005900D92A43CB107D9F712E0A4ECB1E0C1
:1000900001C01D92A43BB107E1F70E942F270C94E9
:1000A000DC2C0C940000E0917102F0917202EF5E82
:1000B000FD4FE081E633E9F1E733A0F4E23369F183
:1000C000E33358F4E03329F1E133B8F5ED3209F4C4
:1000D00046C0EE3209F049C040C0E433B1F1E53327
:1000E00020F51FC0E534E9F1E63438F4E83341F196
:1000F000E83310F1E933C9F527C0E83591F1E93566
:1001000018F4E03591F524C0EF3539F1E53669F59D
:1001100028C029988BB183781EC029988BB18B7425
:100120001AC029988BB1837616C029988BB1877233
:1001300012C08BB187700FC029988BB1837F0BC021
:1001400029988BB1837007C029988BB1837303C042
:1001500029988BB18B718BB908955C9808955F983D
:10016000089529988BB18F708BB908958091710291
:10017000909172028330910501F1843091054CF425
:1001800081309105B1F082309105ACF4892B69F092
:100190000EC085309105A9F08530910584F0863038
:1001A000910589F0079719F410C091E00FC090E015
:1001B0000DC092E00BC094E009C098E007C090E148
:1001C00005C090E203C090E401C090E88091110264
:1001D000892309F0299880911202892309F05F98F8
:1001E00080911302892309F05C988091140289237D
:1001F00009F05A9880911502892309F05B98809143
:100200001602892309F05D9880911702982309F05E
:100210005E98089580917102909172020196909378
:10022000720280937102809171029091720268E073
:1002300070E00E94622C909372028093710285B1EB
:10024000827C85B988B1887F88B9299A8BB18C6FF7
:100250008BB980917102909172028330910509F4FB
:1002600052C0843091054CF48130910541F18230C7
:100270009105BCF5892B89F09BC08530910509F467
:1002800065C0853091050CF450C08630910509F4A5
:100290006EC0079709F08CC07BC08091730280FF0D
:1002A0000CC080918F028F5F80938F02815062E13A
:1002B0000E94492C9D3008F07BC02C9A79C0809117
:1002C000730281FF0CC0809190028F5F8093900237
:1002D000815062E10E94492C9D3008F069C02B9A40
:1002E00067C08091730282FF0CC0809191028F5F82
:1002F00080939102815062E10E94492C9D3008F068
:1003000057C02A9A55C08091730283FF0CC0809118
:1003100092028F5F80939202815062E10E94492C89
:100320009D3008F045C0289A43C08091730284FF35
:100330000BC0809193028F5F80939302815062E1A2
:100340000E94492C9D30A0F5429A32C080917302E0
:1003500085FF0BC0809194028F5F8093940281503F
:1003600062E10E94492C9D3018F5419A21C080918C
:10037000730286FF0BC0809195028F5F8093950278
:10038000815062E10E94492C9D3090F4409A10C047
:100390008091730287FF0BC0809196028F5F8093DC
:1003A0009602815062E10E94492C9D3008F42D9AFA
:1003B0008091C1018A3080F48630F0F4843030F4CA
:1003C0008230E8F4813009F00CC11CC08430A1F007
:1003D000853009F006C1BBC0873489F0883420F429
:1003E000813408F4FEC008C0893408F4FAC08D34A2
:1003F00018F0803509F0F5C00E94530008950E945E
:10040000B600089580917102909172028330910537
:1004100009F449C0843091054CF48130910529F1EB
:10042000823091058CF5892B89F0089585309105EE
:1004300009F459C0853091050CF444C0863091050B
:1004400009F462C0079709F0CCC06FC08091110217
:1004500080FD5A988091110281FD5E98809113026F
:1004600080FD5B98809113023BC08091110282FD58
:100470005A988091110283FD5E988091130282FD4B
:100480005B98809113023DC08091110284FD5A98BF
:100490008091110285FD5E988091130284FD5B9826
:1004A000809113023FC08091110286FD5A9880917D
:1004B000110287FD5E988091130286FD5B98809102
:1004C000130241C08091120280FD5A98809112025D
:1004D00081FD5E988091140280FD5B9880911402EA
:1004E00081FF7FC032C08091120282FD5A988091B4
:1004F000120283FD5E988091140282FD5B988091C8
:10050000140283FF6EC021C08091120284FD5A98AC
:100510008091120285FD5E988091140284FD5B98A3
:100520008091140285FF5DC010C08091120286FD8B
:100530005A988091120287FD5E988091140286FD80
:100540005B988091140287FF4CC05D9808950E94CB
:100550005300809171029091720285309105C1F033
:10056000863091051CF40497E1F506C086309105AC
:10057000D9F00797B1F527C08091890280FF03C0A9
:100580008BB1837F8BB98091890281FF2AC017C00C
:100590008091890282FF03C08BB1837F8BB98091E8
:1005A000890283FF1EC00BC08091890284FF03C0B3
:1005B0008BB1837F8BB98091890285FF12C08BB18B
:1005C0008F798BB908958091890286FF03C08BB122
:1005D000837F8BB98091890287FF03C08BB18F79AC
:1005E0008BB9089580919702813009F054C08091B1
:1005F000C701893330F48091C7018F5F8093C701B1
:100600004AC090E39093C7018091C801853330F4CC
:100610008091C8018F5F8093C8013DC09093C8014D
:100620008091CA01893330F48091CA018F5F809331
:10063000CA0131C09093CA018091CB01853330F457
:100640008091CB018F5F8093CB0125C09093CB012C
:100650008091CE018033F8F0823318F08233D9F4E0
:100660000CC08091CD01893360F09093CD018091D1
:10067000CE018F5F8093CE010EC08091CD01833378
:1006800030F48091CD018F5F8093CD0104C09093B1
:10069000CD019093CE0180919702823089F58091AF
:1006A000A602893330F48091A6028F5F8093A60260
:1006B00027C090E39093A6028091A702853330F47F
:1006C0008091A7028F5F8093A7021AC09093A70220
:1006D0008091A902893330F48091A9028F5F8093C1
:1006E000A9020EC09093A9028091AA02853330F42A
:1006F0008091AA028F5F8093AA0202C09093AA02FF
:10070000809197028330E9F58091A502893330F416
:100710008091A5028F5F8093A502089590E3909346
:10072000A5028091A602853330F48091A6028F5FE6
:100730008093A60208959093A6028091A80289331F
:1007400030F48091A8028F5F8093A802089590935F
:10075000A8028091A902853330F48091A9028F5FAD
:100760008093A90208959093A9028091AA028933E7
:1007700030F48091AA028F5F8093AA02089590932B
:10078000AA02089580919702823041F08330F9F4F3
:100790008091A302893330F080E307C08091A302E7
:1007A000893330F48091A3028F5F8093A302089570
:1007B00090E39093A3028091A402893330F4809156
:1007C000A4028F5F8093A40208959093A4020895D9
:1007D00066BD85BD08957093850060938400809305
:1007E0008100089570938500609384009FEF96BB0D
:1007F00080938100B09BFECFB09A10928100089543
:10080000CF93DF93EC01109211021092120210921A
:10081000130210921402109215021092160280E830
:10082000C030D80799F488E38093110286E380935F
:10083000120287E38093130282E38093140283E31E
:10084000809315028DE28093160225C09E01D7FF8A
:1008500004C0222733272C1B3D0B40E0E42FF0E09F
:10086000C9016AE070E00E94622C805DEF5EFD4F7E
:1008700080834F5FC9016AE070E00E94622C9B0197
:100880006115710559F7D7FF06C0E42FF0E0EF5E60
:10089000FD4F8DE28083DF91CF910895482F109214
:1008A0001102109212021092130210921402803858
:1008B00069F488E38093110282E38093120281E35A
:1008C000809313028DE2809314020895282F27FD50
:1008D000219530E0E32FF0E0822F6AE00E94552C52
:1008E000905DEF5EFD4F90833F5F822F6AE00E9434
:1008F000552C282F882371F747FF06C0E32FF0E01F
:10090000EF5EFD4F8DE280830895282F1092110233
:1009100010921202109213021092140230E0E32F90
:10092000F0E0822F6AE00E94492C905DEF5EFD4F5F
:1009300090833F5F822F0E94492C282F882379F7CC
:1009400008956F927F928F929F92AF92BF92CF92B3
:10095000DF92EF92FF920F93DF93CF93CDB7DEB785
:1009600060970FB6F894DEBF0FBECDBF6B017C0160
:10097000A42E80E090E0FC01EF5EFD4F1082019616
:1009800088309105C1F74E010894811C911CF40137
:10099000CE010B961192E817F907E1F787E08A1567
:1009A0000CF4BFC000E03E010894611C711CF3010F
:1009B000E00FF11DFE87ED87C701B6012AE030E0A8
:1009C00040E050E00E94752C605DED85FE856083FF
:1009D0000F5FC701B6012AE030E040E050E00E941E
:1009E000752CC901DA016C017D01C114D104E10447
:1009F000F104E9F6093078F0E02FF0E03897E60DE1
:100A0000F71DD4019E01275F3F4F81918D93A2175F
:100A1000B307D9F703C0083009F0A394F4019E2F5F
:100A2000981981918033D9F3A7FE02C0A194F1C037
:100A3000AA2009F4EEC0CBC08D91F901EF5EFD4F05
:100A400080832F5F3F4FC901860F971F0897A4F33C
:100A50001092730260E070E09701241B350B08C010
:100A600080917302880F8F5F809373026F5F7F4F57
:100A700026173707ACF78091730286959BC08D913E
:100A8000F901EF5EFD4F80832F5F3F4F241735073D
:100A9000B4F392C0F901E40FF51F8D9180834F5F8D
:100AA0005F4FCA018E0D9F1D0897A4F3872F9927CA
:100AB00087FD9095D901A80FB91F20E030E0E62E00
:100AC000FF24E7FCF094E81AF90A07C08D91F901B8
:100AD000EF5EFD4F80832F5F3F4F2E153F05B4F330
:100AE000B70120E030E04A2D552747FD509580E3BF
:100AF00008C0FB01EF5EFD4F80832F5F3F4F6F5FAC
:100B00007F4F24173507ACF3FA01EE0DFF1DDF010F
:100B1000AF5EBD4F8FE58C93EE5EFD4F80E380832B
:100B20004BC0BB244E010894811C911CC4018B0D49
:100B3000911D988B8F87C701B6012AE030E040E015
:100B400050E00E94752C605DEF85F8896083B39456
:100B5000C701B6012AE030E040E050E00E94752C69
:100B6000C901DA016C017D01C114D104E104F10471
:100B7000E9F6DE01199627E030E08C91F901EF5E8D
:100B8000FD4F808311972150304022303105A9F765
:100B900088E5809313028A2D6AE00E94552C805DBF
:100BA000809312028A2D6AE00E94552C905D9093EA
:100BB000110288EF8093730280E090E0FC01E1571E
:100BC000FD4F1082019688309105C1F738C04A2D3B
:100BD000552747FD5095892F992787FD909528E047
:100BE00030E07901E81AF90ABE016F5F7F4FE41621
:100BF000F50644F4D901A41BB50BA60FB71F20E0DE
:100C000030E03DCFDB01A80FB91F20E030E0BC0190
:100C10001ACF68E0691B6650762F7A0D6A5F77FD00
:100C200070E0892F992787FD90959E012F5F3F4F98
:100C3000D901A80FB91F40E050E07C0132CF609687
:100C40000FB6F894DEBF0FBECDBFCF91DF910F91ED
:100C5000FF90EF90DF90CF90BF90AF909F908F90DC
:100C60007F906F9008957F928F929F92AF92BF92E4
:100C7000CF92DF92EF92FF920F931F934B015C0193
:100C800080E090E0FC01EF5EFD4F1082019688301D
:100C90009105C1F7D501C40181589946A746BF4FB8
:100CA0008F579747AE48B640B0F575016401B7FE5F
:100CB00007C0CC24DD247601C818D908EA08FB084F
:100CC0007724072D10E0C701B6012AE030E040E0AC
:100CD00050E00E94972C605D0F5E1D4FF80160830D
:100CE0007394C701B6012AE030E040E050E00E9472
:100CF000972CC901DA016C017D011C141D041E042E
:100D00001F04FCF2B7FE12C0E72DF0E0EF5EFD4FCE
:100D10008DE280830BC080E090E02FE5FC01EF5E68
:100D2000FD4F2083019688309105C1F71F910F91E7
:100D3000FF90EF90DF90CF90BF90AF909F908F90FB
:100D40007F9008952F923F924F925F926F927F9281
:100D50008F929F92AF92BF92CF92DF92EF92FF92CB
:100D60000F931F93CF93DF93EC015A016B01403037
:100D700080E0580780E0680780E8780749F52A3066
:100D800021F0203109F06BC014C028E3288394E3DC
:100D9000998386E38A8383E38B832C839D8387E314
:100DA0008E839F8381E3888782E389878DE28A87A8
:100DB0000DC080E3888389838A838B838C838D83B2
:100DC0008E8388E38F83188619861A861B8647C010
:100DD00080E090E0FE01E80FF91F108201968C3050
:100DE0009105C1F786017501D7FE07C0EE24FF24E7
:100DF0008701EA18FB080C091D094E0166247724B7
:100E0000222E332444245524C801B701A2019101A4
:100E10000E94972CF40160836A3010F4605D02C078
:100E2000695CF40160830894611C711CC801B701FE
:100E3000A20191010E94972CC901DA017C018D0168
:100E40000894811C911C1E141F0410061106E4F264
:100E5000D7FE05C06C0E7D1E8DE2F3018083DF910D
:100E6000CF911F910F91FF90EF90DF90CF90BF90A7
:100E7000AF909F908F907F906F905F904F903F903A
:100E80002F900895AC0120E030E002C02F5F3F4F6B
:100E9000FA01E20FF31F80818823C1F7DF0127E009
:100EA00030E04150504007C08C91F901EF5EFD4F9A
:100EB0008083215030401197A417B507A9F70895F2
:100EC0000F931F93DF93CF93CDB7DEB72C970FB659
:100ED000F894DEBF0FBECDBF282F8E010F5F1F4FCE
:100EE000C8010E94A206C8010E9442072C960FB6B4
:100EF000F894DEBF0FBECDBFCF91DF911F910F9150
:100F000008959F92AF92BF92CF92DF92EF92FF929D
:100F10000F931F93DF93CF93CDB7DEB72C970FB608
:100F2000F894DEBF0FBECDBF982E7A018B0181E011
:100F300090E0A0E0B0E0CC24DD2448E0A42EB12C69
:100F4000A21AB30A0DC0BC01CD012AE030E040E096
:100F500050E00E942A2CDC01CB010894C11CD11C5A
:100F6000CA14DB0484F320E03AEC4AE95BE3E20EC6
:100F7000F31E041F151FAC01BD0122E0440F551FD5
:100F8000661F771F2A95D1F7480F591F6A1F7B1FCD
:100F90004E0D5F1D601F711F8E010F5F1F4FC80137
:100FA000292D0E94A20680E090E020E205C0F80111
:100FB000E80FF91F20830196A816B906C4F78EE240
:100FC0008A8748E050E0CA010197FC01EF5EFD4FBF
:100FD0002081342F652FAC012223A9F7832F962F70
:100FE0009C01A901DE011A9608C0415050408C9125
:100FF000FA01EF5EFD4F8083119741155105A9F766
:101000002C960FB6F894DEBF0FBECDBFCF91DF9107
:101010001F910F91FF90EF90DF90CF90BF90AF9016
:101020009F900895CF92DF92EF92FF920F931F93BC
:10103000CF93DF937A018B0141E050E060E070E0F4
:10104000CC24DD24C8E0D0E0C21BD30B0DC0CB0103
:10105000BA012AE030E040E050E00E942A2CAB01C7
:10106000BC010894C11CD11CCC16DD0684F380E0C1
:101070009AECAAE9BBE3E80EF91E0A1F1B1F20E049
:10108000DB01CA01E2E0880F991FAA1FBB1FEA9586
:10109000D1F7840F951FA61FB71F8E0D9F1DA01F90
:1010A000B11F80509449A543B74708F421E0822F2F
:1010B000DF91CF911F910F91FF90EF90DF90CF9034
:1010C0000895CF93DF93EC0134EA23E094E8309362
:1010D000BC008091BC0087FFFCCF2093BB009093A5
:1010E000BC008091BC0087FFFCCF8091B9008034A8
:1010F00071F784E88093BC008091BC0087FFFCCF2F
:101100009091BB0084E88093BC00903321F092332F
:1011100009F053C045C0A8E0B0E09D012150304027
:10112000F901EF5EFD4F8081AF5EBD4F8C932115BD
:10113000310511F0D901F1CF8091D0019091D10109
:1011400020919F023091A0028217930779F0821BB1
:10115000930BC80FD91F21978881809311022F5FAD
:101160003F4F3093A00220939F0227C02091870217
:10117000309188022330310554F481E680931102C6
:101180002F5F3F4F309388022093870216C0109242
:101190008802109287021092A00210929F020DC046
:1011A0001092C1011092C6011092B2001092B100CB
:1011B000809170008E7F80937000DF91CF910895B1
:1011C0000F931F93CF93DF938C01C0E0D0E001C059
:1011D0002196F801EC0FFD1F80818823C9F734EABE
:1011E00022E094E83093BC008091BC0087FFFCCFE4
:1011F0002093BB009093BC008091BC0087FFFCCF84
:101200008091B900883171F7CE016AE070E00E94E8
:10121000622C605D6093BB0084E88093BC00809189
:10122000BC0087FFFCCFCE016AE070E00E94622C18
:10123000805D8093BB0084E88093BC008091BC00FB
:1012400087FFFCCF20E030E094E80EC0F801E20F09
:10125000F31F80818093BB009093BC008091BC0001
:1012600087FFFCCF2F5F3F4F2C173D077CF384E9AE
:101270008093BC00DF91CF911F910F9108954F9201
:101280005F926F927F928F929F92AF92BF92CF9216
:10129000DF92EF92FF920F931F93CF93DF93590149
:1012A0006A0138014701F80111821082F7011182A9
:1012B0001082CFE0D0E011E0412E512C7B018C0157
:1012C000EE0CFF1C001F111FC801B701A6019501FC
:1012D0000E94752C211531054105510571F09201CF
:1012E0000C2E02C0220F331F0A94E2F7F401808112
:1012F0009181822B932B91838083C801B701A60132
:1013000095010E94752CAC01CB01DA01BC01CD0125
:101310002197FFEFCF3FDF0789F6CFE0D0E0A1E0D4
:101320008A2E912C7B018C01EE0CFF1C001F111FDB
:10133000C801B701A60195010E94752C2115310540
:101340004105510571F094010C2E02C0220F331F8C
:101350000A94E2F7F30180819181822B932B918390
:1013600080832197FFEFCF3FDF0761F0C801B7010E
:10137000A60195010E94752CAC01CB01DA01BC01DC
:10138000CD01D0CFDF91CF911F910F91FF90EF90C2
:10139000DF90CF90BF90AF909F908F907F906F9095
:1013A0005F904F9008952F923F924F925F926F926D
:1013B0007F928F929F92AF92BF92CF92DF92EF92E5
:1013C000FF920F931F93DF93CF93CDB7DEB7629752
:1013D0000FB6F894DEBF0FBECDBF20E030E040E096
:1013E00050E0E0E0F0E08B01007011701D830C8391
:1013F000DB01A071B070BF83AE838B0104701070ED
:1014000019870887DB01A870B070BB87AA8712E034
:10141000212E312C26223722B1E04B2E512C462290
:101420005722A0E46A2E712C6622772200E2802ED9
:10143000912C86229722B62FB078BC87A12C10E180
:10144000B12EA622B722C12CB4E0DB2EC622D722B1
:10145000E12CA2E0FA2EE622F7228B010070187030
:10146000DB01A070B074BE87AD87DB01A070B072E5
:10147000BA8BA98B60707078E730F10509F47FC0F2
:10148000E830F105D4F4E330F10509F454C0E43058
:10149000F10554F4E130F105D1F1E230F1050CF041
:1014A00040C0309759F1B8C0E530F10509F455C096
:1014B000E630F1050CF05AC047C0EB30F10509F4F5
:1014C00081C0EC30F1054CF4E930F10509F46AC053
:1014D000EA30F1050CF06EC05CC0ED30F10509F4A6
:1014E00083C0ED30F1050CF476C0EE30F10509F45F
:1014F00084C0EF30F10509F08FC087C06115710518
:1015000009F48AC020503B494243524E85C0AD8504
:10151000BE85AB2B09F480C020583D444941514F52
:101520007BC0A989BA89AB2B09F476C0205C364A06
:101530004C48584F71C0A114B10409F46DC0205635
:10154000334546445C4F68C00115110509F464C079
:10155000205B394243425E4F5FC0C114D10409F49D
:101560005BC0285D344941415F4F56C0E114F1042E
:1015700009F452C02C563A4C48485F4F4DC0AC81DC
:10158000BD81AB2B09F448C026533546444C5F4F10
:1015900043C0BC85BB2309F43FC02B593243424EA4
:1015A0005F4F3AC061147104B9F12D543941414F74
:1015B0005F4F32C08114910479F1275A3C48484F5B
:1015C0005F4F2AC0AE81BF81AB2B31F1235536442A
:1015D0004C4F5F4F21C0AA85BB85AB2BE9F02A5247
:1015E00033424E4F5F4F18C0A885B985AB2BA1F091
:1015F000255931414F4F5F4F0FC02114310461F025
:101600002A5C38484F4F5F4F07C04114510421F006
:101610002556344C4F4F5F4F3196E031F10509F0BC
:101620002BCF60E070E0FC01E070F270FA83E98398
:1016300000E2202E312C2822392218E0412E512C94
:1016400048225922B0E16B2E712C68227922A4E045
:101650008A2E912C88229922F82FF078FB83F0E4CF
:10166000AF2EB12CA822B922C12CE1E0DE2EC82277
:10167000D922E12C00E2F02EE822F9228C01007040
:101680001870DC01A070B470BE87AD87DC01A0705B
:10169000B071FC01E070F078F88BEF878070907487
:1016A0006630710509F46EC067307105C4F46230AC
:1016B000710509F443C06330710544F46115710587
:1016C00059F16130710509F09DC030C06430710579
:1016D00009F445C0653071050CF04AC038C06A3065
:1016E000710509F470C06B3071054CF468307105F8
:1016F00009F459C0693071050CF05DC04CC06C3004
:10170000710509F470C06C3071050CF464C06D3063
:10171000710509F077C06FC0EF85F889EF2B09F4E8
:1017200071C02353324E4F4F5F4F6CC0009709F486
:1017300069C02951314F4F4F5F4F64C0E114F1042C
:1017400009F460C02D58384F4F4F5F4F5BC0109762
:1017500009F458C026543C4F4F4F5F4F53C00115FA
:10176000110509F44FC023523E4F4F4F5F4F4AC0FF
:10177000ED85FE85EF2B09F445C022513F4F4F4FB9
:101780005F4F40C0E981FA81EF2BE1F129583F4FCB
:101790004F4F5F4F37C0C114D104A1F1245C3F4FBC
:1017A0004F4F5F4F2FC0FB81FF2361F1225E3F4F00
:1017B0004F4F5F4F27C0A114B10421F1215F3F4F6C
:1017C0004F4F5F4F1FC021143104E1F0295F3F4F9D
:1017D0004F4F5F4F17C061147104A1F02C5F3F4F52
:1017E0004F4F5F4F0FC04114510461F02E5F3F4FC8
:1017F0004F4F5F4F07C08114910421F02F5F3F4F7F
:101800004F4F5F4F6F5F7F4F6031710509F048CFD9
:10181000285F3F4F4F4F5F4F207FB901CA0162964B
:101820000FB6F894DEBF0FBECDBFCF91DF911F91F1
:101830000F91FF90EF90DF90CF90BF90AF909F906F
:101840008F907F906F905F904F903F902F90089572
:10185000AF92BF92CF92DF92EF92FF920F931F93BE
:101860007B018C0197FF02C06095709580E090E04D
:101870000E94D3095B016C01A801772757FD709581
:10188000672F17FF13C04F3F8FEF58078FEF680781
:101890008FEF780739F48DE28093180280E380930C
:1018A000170207C04F5F5F4F6F4F7F4F8AE00E9464
:1018B00060078AE0B601A50125E030E00E948107BB
:1018C0001F910F91FF90EF90DF90CF90BF90AF905E
:1018D00008952F923F924F925F926F927F928F92D4
:1018E0009F92AF92BF92CF92DF92EF92FF920F93AF
:1018F0001F93DF93CF9300D000D000D0CDB7DEB7D9
:101900009A8389837C836B835E834D83FA01808114
:101910009181A0E0B0E02C0133242224FB018081DE
:101920009181A0E0B0E0280E391E4A1E5B1EFA012C
:1019300022813381C901A0E0B0E04C017724662404
:10194000FB0182819381A0E0B0E0680E791E8A1EBF
:101950009B1E37FF08C0569447943794279496945B
:10196000879477946794C201B101A40193010E9406
:10197000752C59016A0169010B811C810C5F1F4F95
:10198000ED80FE8084E090E0E80EF91EC201B10116
:10199000A40193010E94752CA40193010E943F09A8
:1019A000ED81FE8164817581EB81FC81848195816B
:1019B0000E94D3099B01AC01AB2809F46CC02AE05A
:1019C00030E040E050E00E94752CC901DA019C0132
:1019D000AD01F5E0CF16D10409F440C086E0C81689
:1019E000D104B8F492E0C916D10449F1E3E0CE166F
:1019F000D10430F4F1E0CF16D10409F047C01AC089
:101A000083E0C816D10401F194E0C916D104F1F5C0
:101A100020C0E7E0CE16D10459F1F7E0CF16D1048B
:101A200010F188E0C816D10441F199E0C916D1043B
:101A300069F528C020503F414A405A4F27C02050E6
:101A40003E434441544F22C020503D454E415E4EDE
:101A50001DC020503C474842584E18C020503B49BA
:101A60004243524E13C020503A4B4C435C4D0EC083
:101A70002050394D4644564D09C02050384F4045FE
:101A8000504D04C0205037414B455A4CE981FA81F2
:101A900082818F5F8283B901CA0126960FB6F894BE
:101AA000DEBF0FBECDBFCF91DF911F910F91FF9091
:101AB000EF90DF90CF90BF90AF909F908F907F90EE
:101AC0006F905F904F903F902F900895AF92BF928C
:101AD000CF92DF92EF92FF920F931F93DF93CF93FA
:101AE000CDB7DEB72C970FB6F894DEBF0FBECDBFD3
:101AF0005C016B018C01085F1F4F81E090E0A0E06A
:101B0000B0E0F50180879187A287B38711C0CA0131
:101B1000B9012AE030E040E050E00E942A2CF801B0
:101B20006083718382839383F60180818F5F8083DA
:101B3000F5016081718182819381F8012081318179
:101B400042815381621773078407950700F78E015E
:101B50000F5F1F4FB7E0EB2EF12CEC0EFD1E0E9425
:101B60003F09ACE0EA2EF12CEA0CFB1C81E090E08E
:101B7000A0E0B0E0F50184879587A687B787860146
:101B80000F5F1F4F11C0CA01B9012AE030E040E0E9
:101B900050E00E942A2CF701608371838283938333
:101BA000F80180818F5F8083F50164817581868172
:101BB0009781F70120813181428153816217730738
:101BC0008407950700F78E010D5F1F4FF9E0EF2E98
:101BD000F12CEC0EFD1E0E943F09F60180819181DF
:101BE000891B8283C601BE016F5F7F4FAE01495FD3
:101BF0005F4F0E94690C2C960FB6F894DEBF0FBEA3
:101C0000CDBFCF91DF911F910F91FF90EF90DF90AB
:101C1000CF90BF90AF900895AF92BF92CF92DF92D6
:101C2000EF92FF920F931F93DF93CF93CDB7DEB761
:101C30002C970FB6F894DEBF0FBECDBF6C015B01D1
:101C4000A8E0EA2EF12CE80EF91E81E090E0A0E079
:101C5000B0E0F60180879187A287B3878B010F5F81
:101C60001F4F11C0CA01B9012AE030E040E050E046
:101C70000E942A2CF7016083718382839383F80189
:101C800080818F5F8083F601648175818681978171
:101C9000F7012081318142815381621773078407E4
:101CA000950700F78E010F5F1F4FF7E0EF2EF12C25
:101CB000EC0EFD1E0E943F098601045F1F4F81E06C
:101CC00090E0A0E0B0E0F60184879587A687B7870B
:101CD00011C0CA01B9012AE030E040E050E00E94A2
:101CE0002A2CF8016083718382839383F5018081BC
:101CF0008F5F8083F8012081318142815381F60119
:101D000080819181A281B38182179307A407B507CF
:101D100000F7CA01B9012AE030E040E050E00E943B
:101D2000752CF6012487358746875787F501808112
:101D300081508083F60120813181428153818485E5
:101D40009585A685B785281739074A075B0789F463
:101D5000CA01B9012AE030E040E050E00E942A2C9C
:101D6000F6016083718382839383F50180818150C2
:101D70008083F6016485758586859785208131810C
:101D8000428153818E010D5F1F4FE9E0EE2EF12C51
:101D9000EC0EFD1E0E943F09F50181819081890FA3
:101DA0008283C501BE016F5F7F4FAE01495F5F4F08
:101DB0000E94690C2C960FB6F894DEBF0FBECDBF03
:101DC000CF91DF911F910F91FF90EF90DF90CF9017
:101DD000BF90AF9008952F923F924F925F926F9273
:101DE0007F928F929F92AF92BF92CF92DF92EF92AB
:101DF000FF920F931F93DF93CF93CDB7DEB7679713
:101E00000FB6F894DEBF0FBECDBF6C01798B688B27
:101E1000A42EA8E0EA2EF12CE80EF91E81E090E055
:101E2000A0E0B0E0F60180879187A287B3878B019D
:101E30000F5F1F4F12C0CA01B9012AE030E040E035
:101E400050E00E942A2CD7016D937D938D939C9333
:101E50001397F80180818F5F8083D60114966D916E
:101E60007D918D919C911797F7012081318142815D
:101E700053816217730784079507E8F68E010D5F9B
:101E80001F4FF9E0EF2EF12CEC0EFD1E0E943F09D2
:101E9000D6016D907D908D909C908601045F1F4FC0
:101EA00081E090E0A0E0B0E0F60184879587A68706
:101EB000B78713C0CA01B9012AE030E040E050E022
:101EC0000E942A2CD8016D937D938D939C93139738
:101ED000E889F98980818F5F8083D8012D913D91B8
:101EE0004D915C91F60180819181A281B38182172D
:101EF0009307A407B507F0F6CA01B9012AE030E05C
:101F000040E050E00E94752CD6011C962D933D9325
:101F10004D935C931F97E889F98980818150808374
:101F20002D913D914D915C9113971C968D919D91B2
:101F30000D90BC91A02D281739074A075B0799F42B
:101F4000CA01B9012AE030E040E050E00E942A2CAA
:101F5000D6016D937D938D939C931397E889F989AE
:101F6000808181508083D6011C966D917D918D91E9
:101F70009C911F972D913D914D915C918E010F5F2A
:101F80001F4FE7E0EE2EF12CEC0EFD1E0E943F09E4
:101F9000F60160827182828293822F813885C90125
:101FA000A0E0B0E02C013324222489819A81A0E0B2
:101FB000B0E0280E391E4A1E5B1E37FD02C01F8688
:101FC00006C05694479437942794F1E0FF8766241F
:101FD000772443011E861D862A2D30E02150304093
:101FE0003B8B2A8B8889998902969D8B8C8BA8893B
:101FF000B9891196BF8BAE8BE2C089859A85A0E026
:10200000B0E08C01FF24EE248B819C81A0E0B0E045
:10201000E80EF91E0A1F1B1FBF85B13021F416956B
:102020000795F794E794EE89FF898081A889B9899B
:102030009C91890FEC89FD898083C801B701A201B9
:1020400091010E94752C59016A016901C801B7010B
:10205000A20191010E94752CA20191018E010B5FDA
:102060001F4FEBE0EE2EF12CEC0EFD1E0E943F09FF
:102070006B857C858D819E810E94D3093B014C013B
:10208000AB2809F471C02AE030E040E050E00E9443
:10209000752CC901DA013C014D01F5E0CF16D104E0
:1020A00009F441C026E0C216D104C0F432E0C316E0
:1020B000D10451F183E0C816D10430F491E0C9167F
:1020C000D10409F04CC01BC0A3E0CA16D10409F129
:1020D000B4E0CB16D10409F042C020C0E7E0CE1630
:1020E000D10459F1F7E0CF16D10410F128E0C2165F
:1020F000D10441F139E0C316D10489F528C080E04C
:1021000091EEA5EFB5E027C080E092ECABEEBBE02E
:1021100022C080E093EAA1EEB1E11DC080E094E826
:10212000A7EDB7E118C080E095E6ADECBDE113C0C6
:1021300080E096E4A3ECB3E20EC080E097E2A9EB66
:10214000B9E209C080E098E0AFEABFE204C080E0F5
:1021500099EEA4EAB5E3680E791E8A1E9B1EAC892F
:10216000BD898C918F5F8C9321E030E040E050E09E
:102170000AC0CA01B9012AE030E040E050E00E9404
:102180002A2C9B01AC01621673068406950688F71B
:10219000C401B3018E010D5F1F4FB9E0EB2EF12C8E
:1021A000EC0EFD1E0E943F09EC89FD898081AE89FD
:1021B000BF898C93ED85FE853196FE87ED872A8950
:1021C0003B898D859E85821793070CF416CFB3014A
:1021D000C40167960FB6F894DEBF0FBECDBFCF9196
:1021E000DF911F910F91FF90EF90DF90CF90BF9004
:1021F000AF909F908F907F906F905F904F903F90A7
:102200002F9008952F923F924F925F926F927F92FC
:102210008F929F92AF92BF92CF92DF92EF92FF92F6
:102220000F931F93DF93CF93CDB7DEB729970FB6E8
:10223000F894DEBF0FBECDBF6C015B01FB012191A5
:102240002F012D83FB0121808C01045F1F4F81E052
:1022500090E0A0E0B0E0F60184879587A687B78775
:10226000322E0EC0CA01B9012AE030E040E050E051
:102270000E942A2CF80160837183828393833394B4
:10228000F6016081718182819381F8012081318121
:1022900042815381621773078407950718F78E01EF
:1022A0000F5F1F4FA3E0EA2EF12CEC0EFD1E0E94E3
:1022B0003F096B817C8189819A810E94D3096E8359
:1022C0007F838887998781E090E0A0E0B0E0F60105
:1022D00081939193A193B1938F01F60184839583A8
:1022E000A683B783F2E06F2E712C6A0C7B1CF5017C
:1022F0001282F5011082F2011082C601B501422D51
:102300000E94EB0E2E813F8148855985261737079D
:102310004807590720F4F30180818315E9F0F301A0
:1023200080813816CCF0F60180819181A281B38141
:102330000196A11DB11D80839183A283B383F8010F
:1023400080819181A281B3810196A11DB11D8083FD
:102350009183A283B383CDCFF60180819181A28145
:10236000B3810197A109B10980839183A283B383CB
:1023700084819581A681B7810197A109B1098483E0
:102380009583A683B783F50110821182C601B5013A
:10239000422D0E94EB0EF50110821182F601408160
:1023A00051816281738121E030E088240BC0C90132
:1023B000880F991FB3E0220F331FBA95E1F7280F5A
:1023C000391F8394C901A0E0B0E0481759076A0794
:1023D0007B0768F799249A94F60160817181828164
:1023E00093812AE030E040E050E00E942A2CF60180
:1023F0006083718382839383F8016081718182811C
:1024000093810E942A2CF8016083718382839383D5
:10241000EE24FF24F5019082F2019082C601B501FD
:10242000422D0E94EB0E2E813F814885598526174B
:1024300037074807590720F4F3018081831519F104
:10244000F30180813816FCF0F60180819181A28130
:10245000B3810196A11DB11D80839183A283B383B3
:10246000F80180819181A281B3810196A11DB11DE6
:1024700080839183A283B3830894E11CF11CFAE06A
:10248000EF16F10439F6F60180819181A281B381C2
:102490000197A109B10980839183A283B383F801D5
:1024A00080819181A281B3810197A109B1098083C3
:1024B0009183A283B383F5019082F20190829A9472
:1024C000F9EF9F1609F088CFF50182822D812083D4
:1024D0002182F601608171818281938129960FB6F4
:1024E000F894DEBF0FBECDBFCF91DF911F910F914A
:1024F000FF90EF90DF90CF90BF90AF909F908F9024
:102500007F906F905F904F903F902F9008959F9293
:10251000AF92BF92CF92DF92EF92FF920F931F93F1
:102520007C018B01FB019180FC01A480B580C680F9
:10253000D78080819181A281B38184839583A68392
:10254000B783FB0180818183C701492D0E94EB0E77
:10255000F8019182F701A482B582C682D7821F91C9
:102560000F91FF90EF90DF90CF90BF90AF909F9032
:1025700008952F923F924F925F926F927F928F9227
:102580009F92AF92BF92CF92DF92EF92FF920F9302
:102590001F93DF93CF93CDB7DEB7EB970FB6F894C9
:1025A000DEBF0FBECDBF79AF68AFBC01992777FD05
:1025B0009095892F9B01AC012070307829A73AA70C
:1025C0004BA75CA79B01AC01207030744070507029
:1025D0002DA33EA34FA358A79B01AC0120703072DE
:1025E0004070507029A33AA34BA35CA39B01AC019C
:1025F00020703071407050702D8F3E8F4F8F58A3D8
:102600009B01AC012070387040705070298F3A8F58
:102610004B8F5C8F9B01AC01207034704070507008
:102620002D8B3E8B4F8B588F9B01AC0120703270ED
:1026300040705070298B3A8B4B8B5C8B9B01AC01AB
:1026400020703170407050702D873E874F87588BB7
:102650009B01AC01207830704070507029873A8718
:102660004B875C879B01AC012074307040705070C8
:102670002D833E834F8358879B01AC0120723070BD
:102680004070507029833A834B835C8350E1252E40
:10269000312C412C512C262237224822592248E045
:1026A000642E712C812C912C66227722882299220B
:1026B00034E0A32EB12CC12CD12CA622B722C822E3
:1026C000D92222E0E22EF12C012D112DE622F72253
:1026D000082319239B01AC012170307040705070A9
:1026E0002CAB3DAB4EAB5FAB20E030E040E050E0C8
:1026F000E0E0F0E0E730F10509F4A5C0E830F105CD
:10270000DCF4E330F10509F464C0E430F1055CF475
:10271000E130F10509F440C0E230F1050CF04AC0A7
:10272000309759F1FDC0E530F10509F46FC0E6308E
:10273000F1050CF079C05BC0EB30F10509F4BCC0C9
:10274000EC30F1054CF4E930F10509F499C0EA30B8
:10275000F1050CF0A3C085C0ED30F10509F4C0C04F
:10276000ED30F1050CF4B2C0EE30F10509F4C2C051
:10277000EF30F10509F0D4C0C7C069A57AA58BA5D3
:102780009CA5611571058105910509F4C9C020500A
:102790003A4C4A495B43C4C08DA19EA1AFA1B8A5E4
:1027A0000097A105B10509F4BBC020503B49424345
:1027B000524EB6C069A17AA18BA19CA16115710589
:1027C0008105910509F4ACC020583D444941514F61
:1027D000A7C08D8D9E8DAF8DB8A10097A105B105C5
:1027E00009F49EC0205C364A4C48584F99C0698D08
:1027F0007A8D8B8D9C8D611571058105910509F48C
:102800008FC02056334546445C4F8AC08D899E89CF
:10281000AF89B88D0097A105B10509F481C0205B8F
:10282000394243425E4F7CC069897A898B899C8991
:10283000611571058105910509F472C0285D34495F
:1028400041415F4F6DC08D859E85AF85B8890097EA
:10285000A105B10509F464C02C563A4C48485F4FB5
:102860005FC069857A858B859C85611571058105B9
:10287000910509F455C026533546444C5F4F50C06E
:102880008D819E81AF81B8850097A105B10509F4BE
:1028900047C02B593243424E5F4F42C069817A8113
:1028A0008B819C816115710581059105C9F12D54BC
:1028B0003941414F5F4F34C0211431044104510468
:1028C00079F1275A3C48484F5F4F2AC06114710480
:1028D0008104910429F1235536444C4F5F4F20C0A9
:1028E000A114B104C104D104D9F02A5233424E4F8D
:1028F0005F4F16C0E114F1040105110589F0255957
:1029000031414F4F5F4F0CC08CA99DA9AEA9BFA903
:102910000097A105B10521F02A5C38484F4F5F4F61
:102920003196E031F10509F0E5CEE0E0F0E0A8AD48
:10293000B9ADA070B170BEA7ADA768AD79AD60713B
:10294000707078AB6FA788AD99AD847090709AABBA
:1029500089AB28AC39AC98E02922332448AC59AC77
:10296000A2E04A22552468AC79ACB0E46B2277240B
:1029700088AC99AC60E28622992478AD70787BAB04
:10298000A12C00E1B02E88AD99ADA822B922C12CAE
:1029900014E0D12EC822D922E12CB2E0FB2EE8228D
:1029A000F922807098709BAF8AAF08AD19AD0070A6
:1029B000107488AD99AD8070907268AD79AD60701B
:1029C0007078E730F10509F478C0E830F105CCF40F
:1029D000E330F10509F44CC0E430F1054CF4E1308A
:1029E000F105A9F1E230F105DCF5309739F1A7C026
:1029F000E530F10509F44FC0E630F1050CF054C0A4
:102A000040C0EB30F10509F479C0EC30F1054CF42D
:102A1000E930F10509F462C0EA30F1050CF066C056
:102A200055C0ED30F10509F47AC0ED30F1050CF434
:102A30006EC0EE30F10509F082C07AC061157105F3
:102A400009F47DC02556344C4F4F5F4F78C00115B7
:102A5000110509F474C02353324E4F4F5F4F6FC0BE
:102A6000009709F46CC02951314F4F4F5F4F67C039
:102A7000A114B10409F463C02D58384F4F4F5F4F74
:102A80005EC0AAADBBADAB2B09F459C026543C4F78
:102A90004F4F5F4F54C0C114D10409F450C02352AA
:102AA0003E4F4F4F5F4F4BC0E114F10409F447C054
:102AB00022513F4F4F4F5F4F42C0ADA5BEA5AB2B3C
:102AC000F1F129583F4F4F4F5F4F39C0BBA9BB238E
:102AD000B1F1245C3F4F4F4F5F4F31C0611471041F
:102AE00071F1225E3F4F4F4F5F4F29C08114910417
:102AF00031F1215F3F4F4F4F5F4F21C0AFA5B8A9C4
:102B0000AB2BE9F0295F3F4F4F4F5F4F18C02114A7
:102B10003104A9F02C5F3F4F4F4F5F4F10C0A9A960
:102B2000BAA9AB2B61F02E5F3F4F4F4F5F4F07C0ED
:102B30004114510421F02F5F3F4F4F4F5F4F3196AB
:102B4000E031F10509F03DCFB901CA01EB960FB6AE
:102B5000F894DEBF0FBECDBFCF91DF911F910F91D3
:102B6000FF90EF90DF90CF90BF90AF909F908F90AD
:102B70007F906F905F904F903F902F9008957F923D
:102B80008F929F92AF92BF92CF92DF92EF92FF927D
:102B90000F931F93DF93CF93CDB7DEB72C970FB66C
:102BA000F894DEBF0FBECDBF4B015C01742E6901EE
:102BB00080E090E0F601E80FF91F10820196803165
:102BC0009105C1F7C501B4010E94B9127B018C01C6
:102BD000B7FE04C0E094F094009510958AE0B80127
:102BE000A70127E030E00E9412088823A1F082E3C9
:102BF0009AECAAE9BBE3E80EF91E0A1F1B1FC601E7
:102C0000B801A7012AE00E94A206D6011C921196E3
:102C10001C9290E004C080E3F601808791E08EE290
:102C2000D60119968C93199780E31A968C931A976C
:102C3000B7FE03C08DE21B968C93913019F481E3AB
:102C4000F601828780E090E001C00196F601E80F6E
:102C5000F91F20812223C9F32033B9F3DF0120E0DB
:102C600030E04FE050E0481B590BF601E20FF31F34
:102C70008D9180832F5F3F4F42175307B4F7772022
:102C800009F446C0472D552747FD5095652F752FF0
:102C90008E010F5F1F4FC8012AE00E94A20660E06C
:102CA00070E002C06F5F7F4FF801E60FF71F808171
:102CB0008823C1F7F601E61BF70B3D96D60140E0ED
:102CC00050E02DE030E0261B370B80811F968C935F
:102CD0001F974F5F5F4F3197119724173507ACF758
:102CE00020E030E0AE014F5F5F4F07C0FA01E20F16
:102CF000F31F80818C932F5F3F4FD601A20FB31F2C
:102D0000261737079CF388E58C9380E211968C9305
:102D1000E0E0F2E020E030E0922F432F81912F5F3E
:102D20003F4F8823C9F79093D0014093D10110926F
:102D3000A00210929F0210928802109287022C9695
:102D40000FB6F894DEBF0FBECDBFCF91DF911F91BC
:102D50000F91FF90EF90DF90CF90BF90AF909F903A
:102D60008F907F9008951F920F920FB60F921124AB
:102D70002F933F935F936F937F938F939F93AF9323
:102D8000BF93EF93FF938091C1018F3438F48D345A
:102D900008F042C0893009F045C005C08255833033
:102DA00008F040C039C080916D0290916E02892B6D
:102DB00051F480E090E0FC01EF5EFD4F108201963F
:102DC00088309105C1F780916D0290916E02E8E123
:102DD000F2E0E81BF90B8FE5808380916D02909102
:102DE0006E02019690936E0280936D0280916D0247
:102DF00090916E0268E070E00E94622C90936E02E7
:102E000080936D0280EF8093850083EC8093840033
:102E100085E0809381000BC08091D3018F5F809308
:102E2000D30105C081E08093C50110928100FF911C
:102E3000EF91BF91AF919F918F917F916F915F9132
:102E40003F912F910F900FBE0F901F9018951F92DA
:102E50000F920FB60F9211242F933F934F935F93CE
:102E60006F937F938F939F93AF93BF93EF93FF9352
:102E70008091C1018F3430F48D34F0F48B3409F03B
:102E80008CC009C0823508F488C08435A8F0843528
:102E900009F083C025C08091C6018F5F8093C60171
:102EA0008091C601833009F0A2C01092C60180E073
:102EB00092E00E9461089BC01092810020918400E2
:102EC00030918500109285001092840081E08093FB
:102ED00081008091190290911A020597ACF451C0BB
:102EE000109281002091840030918500109285001D
:102EF0001092840081E0809381008091190290916A
:102F00001A0218161906ECF540E050E08091D30142
:102F1000813091F0813018F0823099F51AC080919B
:102F2000AF029091B002A091B102B091B20284526E
:102F3000944FA040B04019C08091AF029091B00270
:102F4000A091B102B091B2028452944FAF4FBF4FE3
:102F50000CC08091AF029091B002A091B102B091EB
:102F6000B2028452944FAE4FBF4F820F931FA41FE3
:102F7000B51F8093AF029093B002A093B102B093BB
:102F8000B2021092D3018091190290911A02019617
:102F900090931A02809319022AC08091C6018F5F14
:102FA0008093C6018091C601803109F51092C60157
:102FB0008091C101863441F00E94F20289E290E0E2
:102FC0009093C3018093C2018091C101863479F44A
:102FD00089E28093B30081E48093AE0285EA809316
:102FE000BC00109277021092760210929D02FF911F
:102FF000EF91BF91AF919F918F917F916F915F9171
:103000004F913F912F910F900FBE0F901F901895E9
:103010001F920F920FB60F9211248F93EF93FF938D
:10302000E3EBF0E08081875D80838081808381E4B1
:103030008093AE0285EA8093BC00109277021092D2
:10304000760210929D02FF91EF918F910F900FBE2B
:103050000F901F9018951F920F920FB60F92112488
:103060002F933F934F938F939F93EF93FF934091B1
:10307000AE02453489F1463440F44234B1F0433471
:1030800011F1413409F072C008C04734D9F1473416
:1030900058F1483409F06AC05DC083E08093BB00FA
:1030A00085E88093BC0082E45FC08091B9008034E1
:1030B00029F485E88093BC0083E456C085EA8093B8
:1030C000BC0081E451C08091BB0080939D0280913F
:1030D0009D02882369F447C083E08093BB0085E8A4
:1030E0008093BC0086E440C08091B900803429F010
:1030F00085EA8093BC0085E437C085EC8093BC00F2
:1031000087E432C0E0917602F09177028091BB00B3
:10311000EF5EFD4F80838091760290917702019659
:103120009093770280937602209176023091770215
:1031300080919D0290E001972817390734F485ECBF
:103140008093BC004093AE0211C085E88093BC0020
:1031500088E40AC0E0917602F09177028091BB008A
:10316000EF5EFD4F80838AE58093AE028091AE02D0
:103170008A3521F484E98093BC00A895FF91EF91F2
:103180009F918F914F913F912F910F900FBE0F9074
:103190001F90189581E48093AE0285EA8093BC006D
:1031A000109277021092760210929D02089510926A
:1031B000850010928400109281001092B1008091DD
:1031C000B60080FDFCCF1092B0008091B60081FD6A
:1031D000FCCF1092B2008091B60084FDFCCF089520
:1031E00081E08093B1008091B60080FDFCCF81E04A
:1031F000809381000895CF92DF92EF92FF920F9318
:103200001F93282F10921A02109219021092AF02E7
:103210001092B0021092B1021092B2028091190283
:1032200090911A020F97D4F310921A021092190279
:10323000C090AF02D090B002E090B102F090B20224
:10324000F7FE08C0F094E094D094C094C11CD11C47
:10325000E11CF11C2223E1F000916F021091700239
:10326000000F111F055E1D4FC701B6012AE030E0B7
:1032700040E050E00E94972CF80131832083809138
:103280006F029091700201969093700280936F028A
:10329000C701B6012AE030E040E050E00E94972CE0
:1032A000CA01B9011F910F91FF90EF90DF90CF906D
:1032B000089510921A02109219021092AF02109201
:1032C000B0021092B1021092B20280911902909154
:1032D0001A020F97D4F310921A02109219026091F9
:1032E000AF027091B0028091B1029091B2022AE0D7
:1032F00030E040E050E00E94972CCA01B9010895E7
:10330000982F1092B1008091B60080FDFCCF1092F2
:10331000B0008091B60081FDFCCF1092B200809188
:10332000B60084FDFCCF992369F080917000816024
:103330008093700081E08093B1008091B60080FDA1
:10334000FCCF0895809170008E7F80937000109262
:10335000C101089510921A02109219021092AF0240
:103360001092B0021092B1021092B2028091190232
:1033700090911A020297D4F310921A021092190235
:103380002091AF023091B0024091B1025091B2024F
:10339000B901CA010895DF92EF92FF920F931F9334
:1033A000D82E1092D3018093660080E00E94FB1813
:1033B000209166002F5F20936600AC01CB01DA01FB
:1033C0007C018D0180E00E94FB189B01AC01E61698
:1033D000F7060807190754F480916600815080931E
:1033E0006600809166008D1531F508C080916600F9
:1033F0008F5F8093660079018A01E4CF8091660037
:1034000081508093660080E00E94FB189B01AC0114
:10341000E616F7060807190734F4809166008F5FF7
:103420008093660008C0809166008150809366009A
:1034300079018A01E8CFB701C8011F910F91FF9070
:10344000EF90DF900895EF92FF921F93CF93DF9359
:103450008091D701882379F58091D801882359F587
:103460008091D901882339F58091DA01882319F5F3
:103470008091DB018823F9F48091DC018823D9F461
:103480008091DD018823B9F48091D601813499F4CB
:103490001092AB021092AC0210927302109275025D
:1034A000109274021092CF0110928502109286023F
:1034B0001092E60115C250E08091D601803509F4E2
:1034C00051E06091740270917502552331F0FB0157
:1034D000E555FD4F8081882329F0EDEDF1E020E0F6
:1034E00030E014C08FEF808320E030E0F901EA5231
:1034F000FE4F8081F901EF5EFD4F80832F5F3F4FCC
:103500002830310599F7ECC12F5F3F4F808131970B
:103510008823D1F3A8E0A21B8091CF01A81711F056
:10352000B1E001C0B52FA093CF0140E020E030E032
:10353000F901EF5EFD4F9081F901EA52FE4F808163
:10354000981709F44F5F2F5F3F4F2830310581F7FF
:10355000483011F020E002C021E0252780911802B8
:10356000882349F1909118028091DD018917F1F4C7
:10357000909117028091DC018917C1F49091160295
:103580008091DB01891791F4909115028091DA0105
:10359000891761F4909114028091D901891731F44F
:1035A000909113028091D801891729F08091E6014A
:1035B0008F5F8093E6019091E601992309F071C035
:1035C000222309F06EC020E030E0F901EA52FE4FFC
:1035D0008081F901EF5EFD4F80832F5F3F4F2830E0
:1035E000310599F7BB2309F47BC1672BC9F490918E
:1035F000AB02992309F474C180917302880F8F5F25
:103600008093730291509093AB0280E090E0FC01B4
:10361000E157FD4F1082019688309105C1F760C1D6
:103620009091AC02992381F480917302880F80936A
:10363000730280E090E0FC01E157FD4F108201969B
:1036400088309105C1F715C09F3F9CF480917302AB
:10365000880F8F5F8093730291509093AC0280E04B
:1036600090E0FC01E157FD4F1082019688309105F2
:10367000C1F78091AC028F3F09F032C18091730293
:103680008F5F8093730280E090E0FC01E157FD4F73
:103690001082019688309105C1F78EEF8093AC02BD
:1036A0001FC1672B09F4DDC020E030E0F901EF5EB7
:1036B000FD4F8081D901AA52BE4F8C9310822F5F9B
:1036C0003F4F2830310591F780916F0081608093E2
:1036D0006F0080EF8093850083EC8093840085E009
:1036E000809381008091C5018823E1F31092C50188
:1036F00080916F008E7F80936F0020E030E0F901B1
:10370000EA52FE4F8081F901EF5EFD4F80832F5F0B
:103710003F4F2830310599F7923070F48091AB0219
:10372000882319F08F5F8093AB028091AC028823CD
:1037300019F08F5F8093AC02C0E0D0E001C0219609
:10374000FE01EF5EFD4F80818823C9F77E0160E0B6
:1037500070E080E090E013C02197FE01EF5EFD4F26
:1037600010812AE030E040E050E00E942A2C6053B3
:10377000704080409040610F711D811D911D209708
:1037800059F76093EC017093ED018093EE019093F3
:10379000EF0197012F5F3F4FF901EF5EFD4F8081F1
:1037A000882319F028303105ACF3E90120E030E03E
:1037B00040E050E016C0FE01EF5EFD4F1081CA01EF
:1037C000B9012AE030E040E050E00E942A2C9B0141
:1037D000AC012053304040405040210F311D411D6D
:1037E000511D2197CE15DF0531F72093E801309365
:1037F000E9014093EA015093EB0160E070E0FB01C6
:10380000EF5EFD4F8081FB01E858FD4F80836F5FC5
:103810007F4F6830710599F7809173028093800221
:103820008091AB02809385028091AC0280938602E6
:103830002093F8013093F9014093FA015093FB0172
:103840008091EC019091ED01A091EE01B091EF011A
:103850008093FC019093FD01A093FE01B093FF01C2
:103860003FC080917302880F880F8093730280E0BD
:1038700090E0FC01E157FD4F1082019688309105E0
:10388000C1F726E030E0F901EF5EFD4F8081F901DC
:10389000EE5EFD4F8083215030408FEF2F3F380781
:1038A00091F71092110226E030E0F901EF5EFD4F32
:1038B0008081F901EE5EFD4F8083215030408FEF13
:1038C0002F3F380791F780E3809311028A2F8E5F94
:1038D0008093CF0181E090E0909375028093740211
:1038E000DF91CF911F91FF90EF9008953091D60115
:1038F00030939E02809185028093AB028091860274
:103900008093AC028091F8019091F901A091FA01A5
:10391000B091FB018093E8019093E901A093EA0143
:10392000B093EB016091FC018091FD019091FE014B
:103930002091FF014CEE51E06093EC018093ED018A
:103940009093EE012093EF013D3481F03E3438F442
:10395000313409F45EC0343409F078C00EC030351B
:1039600009F44EC0323509F071C016C0CA0104977F
:103970006BEA72E00E940C0E06C0CA0104976BEA63
:1039800072E00E94660D6093990270939A02809390
:103990009B0290939C025AC010926E0210926D028C
:1039A00080916F00816080936F0080EF809385002D
:1039B00083EC8093840085E0809381006093AC0267
:1039C000CA0104976BEA72E00E94021160939902A7
:1039D00070939A0280939B0290939C0280916F0057
:1039E0008E7F80936F001092810080E090E0FC0158
:1039F000EF5EFD4F1082019688309105C1F726C019
:103A00006093AC02CA0104976BEA72E00E948712CD
:103A1000BACF20E030E0F901E858FD4F8081F9018C
:103A2000EF5EFD4F80832F5F3F4F2830310599F7C0
:103A3000809180028093730280E090E0FC01E15766
:103A4000FD4F1082019688309105C1F780919E024A
:103A5000813409F465C06091990270919A02809155
:103A60009B0290919C024091AD020E94A104609142
:103A7000AD02609398028091990290919A02A09170
:103A80009B02B0919C0280938D02292F3A2F4B2FDD
:103A9000552720938C029D014427552720938B02A4
:103AA0008B2F9927AA27BB2780938A02109299020D
:103AB00010929A0210929B0210929C0234EA22E029
:103AC00094E83093BC008091BC0087FFFCCF20932A
:103AD000BB009093BC008091BC0087FFFCCF80911D
:103AE000B900883171F7EAE8F2E094E880818093C8
:103AF000BB009093BC008091BC0087FFFCCF319647
:103B000082E0EE38F80791F76093BB0084E8809379
:103B1000BC008091BC0087FFFCCF84E98093BC008F
:103B200008950F931F93CF93DF938091DD01882336
:103B300009F057C020E030E0F901EA52FE4F8081E1
:103B4000F901EF5EFD4F80832F5F3F4F2830310535
:103B500099F726E030E0F901EF5EFD4F8081F90131
:103B6000EE5EFD4F8083215030408FEF2F3F3807AE
:103B700091F71092110226E030E0F901EF5EFD4F5F
:103B80008081F901EE5EFD4F8083215030408FEF40
:103B90002F3F380791F790E39093110281E38093D0
:103BA00011029093120223E030E0F901EF5EFD4F25
:103BB0008081D901AB5EBD4F8C9310822150304083
:103BC0008FEF2F3F380789F780911802882319F467
:103BD00080E380931802809116028823E9F580E340
:103BE0001CC0813319F08233B9F51EC080911502D3
:103BF000893349F480911602893329F480E3809354
:103C000015028093160280911502893349F480E3EE
:103C100080931502809116028F5F809316021CC05C
:103C2000809115028F5F16C080911502813321F4B7
:103C300080911602803381F080911502803339F42F
:103C40008091160281508093160289E303C080910F
:103C5000150281508093150260911802209117027D
:103C600040911602809115021092110210921202D8
:103C7000109213021092140290E080519240EAE0F8
:103C80004E9FA0011124840F951F30E02051324037
:103C90006E9FB0011124260F371F829FE001839F82
:103CA000D00D929FD00D112400E010E0CE016AE00B
:103CB00070E00E94622C805DF801EF5EFD4F808312
:103CC0000F5F1F4FCE016AE070E00E94622CEB0193
:103CD000161617065CF380E38093730280E090E091
:103CE000FC01E157FD4F1082019688309105C1F724
:103CF000DF91CF911F910F9108950F931F93CF9351
:103D0000DF939091DE0160919E0220E030E0283048
:103D1000310511F4692F08C0F901EA52FE4F808184
:103D2000F901EF5EFD4F80832F5F3F4F2930310552
:103D300071F760939E02C0E0D0E001C02196FE01C1
:103D4000EF5EFD4F8081882319F440E050E017C0FA
:103D5000C330D10599F7F9CF2197FE01EF5EFD4FF2
:103D60002081CA01E3E0880F991FEA95E1F7440F2B
:103D7000551F480F591F40535040420F511D209767
:103D800059F7613439F48091830290918402840F51
:103D9000951F08C0633559F4809183029091840285
:103DA000841B950B909384028093830206C0633436
:103DB00021F41092840210928302009183021091E8
:103DC00084021093A2020093A10217FF08C0882763
:103DD0009927801B910B90938402809383022091FA
:103DE000830230918402C9016AE070E00E94622C73
:103DF000805DFE01EC5EFD4F80832196C9016AE083
:103E000070E00E94622C9B011616170664F317FFE0
:103E100004C0CC5EDD4F8DE2888387E0809373021F
:103E200080E090E0FC01E157FD4F10820196883060
:103E30009105C1F71093840200938302DF91CF9123
:103E40001F910F9108950F931F93CF93DF9380914C
:103E5000D601809311028091D70180931202809144
:103E6000D801809313020091830210918402109371
:103E7000A2020093A10217FF08C088279927801B80
:103E8000910B90938402809383022091830230915E
:103E90008402C0E0D0E0C9016AE070E00E94622CB8
:103EA000805DFE01EC5EFD4F80832196C9016AE0D2
:103EB00070E00E94622C9B011616170664F317FF30
:103EC00004C0CC5EDD4F8DE2888387E0809373026F
:103ED00080E090E0FC01E157FD4F108201968830B0
:103EE0009105C1F71093840200938302DF91CF9173
:103EF0001F910F91089520E030E047E050E0FA0173
:103F0000E21BF30BD901AA52BE4F8C91E953FE4F2D
:103F100080832F5F3F4F2830310589F720E030E064
:103F2000F901E953FE4F8081F901EF5EFD4F808377
:103F30002F5F3F4F2830310599F782E08093B10021
:103F40008091700081608093700081E08093D20145
:103F50008093970208958091D6018093E401853380
:103F600041F1863340F4823379F0833381F0813339
:103F700009F0E1C0DDC0873309F46FC08733D8F1A1
:103F8000883309F0D8C098C01092D201D4C01092E2
:103F9000D20120E030E0F901E953FE4F8081F901C0
:103FA000EF5EFD4F80832F5F3F4F2830310599F73B
:103FB000C2C08091C701893320F48091C7018F5F0F
:103FC00053C090E39093C7018091C801853320F4DA
:103FD0008091C8018F5F55C09093C8018091CA013C
:103FE000893308F46DC09093CA018091CB01853369
:103FF00008F05FC072C08091CA01813308F04BC0E5
:1040000089E38093CA018091CB01813308F04DC0D0
:1040100085E38093CB018091CE01803389F080339A
:1040200008F486C0833308F083C08091CD018133CA
:1040300058F489E38093CD018091CE01815076C000
:104040008091CD01813320F08091CD01815068C0F5
:1040500083E38093CD0182E369C08091C7018133FE
:1040600030F08091C70181508093C70161C029E37E
:104070002093C7018091C801813330F08091C8013D
:1040800081508093C80154C095E39093C8018091FA
:10409000CA01813320F08091CA01815014C020935D
:1040A000CA018091CB01813320F08091CB018150F6
:1040B00017C09093CB013CC08091CA01893330F482
:1040C0008091CA018F5F8093CA0132C090E39093C0
:1040D000CA018091CB01853330F48091CB018F5F91
:1040E0008093CB0125C09093CB018091CE0180338A
:1040F000F8F0823318F08233D9F40BC08091CD01EF
:10410000893358F080E38093CD018091CE018F5F99
:104110000DC08091CD01833330F48091CD018F5F4C
:104120008093CD0105C080E38093CD018093CE01C3
:1041300081E08093D20181E08093970208953F92BD
:104140004F925F926F927F928F929F92AF92BF92A7
:10415000CF92DF92EF92FF920F931F93DF93CF9353
:10416000CDB7DEB7CF55D0400FB6F894DEBF0FBE47
:10417000CDBF2091D60180E090E030E3FC01ED5509
:10418000FD4F3083019688309105C1F7223341F409
:1041900082E0809397021092A5021092A80207C0B5
:1041A00083E0809397021092A4021092A7021092CB
:1041B000B20082E08093B1008091700081608093B2
:1041C000700011E0CC24DD24EE24FF24AA24BB24BB
:1041D00084EA482E03E0302EB4E87B2E04ECA4E9F8
:1041E0005A2E4E010894811C911CF0E36F2E01C0E1
:1041F00011E04092BC008091BC0087FFFCCF309260
:10420000BB007092BC008091BC0087FFFCCF809106
:10421000B9008034E9F18091B2002091C20130915F
:10422000C30190E08217930721F78091C20190911A
:10423000C301899660E071E00E94622C9093C301F3
:104240008093C20180919702823071F0833071F4C3
:104250008091B3028F5F8093B3028A3039F40E9459
:10426000C2031092B30202C00E94C203113009F6C9
:1042700020E030E0F901ED55FD4F8081F901EF5E5E
:10428000FD4F80832F5F3F4F2830310599F7B1CF25
:104290000093BC008091BC0087FFFCCF8091BB00E5
:1042A00080939D020093BC008091BC0087FFFCCFEF
:1042B0008091BB008093C1017092BC008091BC00D2
:1042C00087FFFCCF9091BB009093E4015092BC001B
:1042D0008091C1018A3089F41092B1008091700000
:1042E0001092700080E090E0FC01EF5EFD4F1082C4
:1042F000019688309105C1F776C0923361F093330F
:1043000020F4913309F075CF73CF933369F194336F
:1043100009F06FCF46C020E030E0F901ED55FD4FC8
:104320008081F901EF5EFD4F80832F5F3F4F283082
:10433000310599F7D401AC0DBD1D20E030E0F90145
:10434000EF5EFD4F80818D932F5F3F4F2830310509
:10435000B1F7C601089660E570E00E94622C6C011E
:104360000894A11CB11C3DC080E090E0FC01ED551B
:10437000FD4F6082019688309105C1F780919702C8
:10438000823021F41092A5021092A8028091970227
:10439000833021F41092A4021092A7021092B2006E
:1043A00027CFA114B10409F424CFD401AE0DBF1D51
:1043B00020E030E08D91F901EF5EFD4F80832F5FAB
:1043C0003F4F28303105B1F7C70108962AE0A21601
:1043D000B10414F4B60102C060E570E00E94622CE2
:1043E0007C0110E006CFC15ADF4F0FB6F894DEBF54
:1043F0000FBECDBFCF91DF911F910F91FF90EF9036
:10440000DF90CF90BF90AF909F908F907F906F90F4
:104410005F904F903F9008958093BB0084E8809315
:10442000BC008091BC0087FFFCCF0895882311F465
:1044300084E801C084EC8093BC008091BC0087FFBD
:10444000FCCF8091BB000895CF92DF92EF92FF9254
:104450000F931F938DEF93E00E94C62C8093D4019D
:1044600010E1FF24F394A4EACA2EF2E0DF2E04E860
:10447000E4E9EE2E8091700081608093700080915D
:104480006F00816080936F000E94D718F092B10096
:104490008091B60080FDFCCFF09281001093660001
:1044A0000E9459196093E0017093E1018093E20149
:1044B0009093E3018091D401809366000E94D71805
:1044C000809170008E7F8093700080916F008E7F4E
:1044D00080936F00C092BC008091BC0087FFFCCF2E
:1044E000D092BB000093BC008091BC0087FFFCCF42
:1044F0008091B900883171F72091E0013091E1019C
:104500004091E2015091E301852FBB2787FDB095D3
:104510009B2FAB2F8093BB000093BC008091BC000D
:1045200087FFFCCFCA01BB2797FDB095AB2F8093C7
:10453000BB000093BC008091BC0087FFFCCFBB2771
:1045400057FDBA95A52F942F832F8093BB0000931E
:10455000BC008091BC0087FFFCCF2093BB00009380
:10456000BC008091BC0087FFFCCFE092BC001F5FC5
:10457000113F09F07FCF1F910F91FF90EF90DF90D7
:10458000CF9008951F920F920FB60F9211242F9380
:104590003F934F935F936F937F938F939F93AF93CB
:1045A000BF93EF93FF938BEF93E00E94C62C8F3F56
:1045B000A1F416BC8091C101863469F48091700029
:1045C0001092700078940E940A01809170008360BC
:1045D0008093700002C00E940A018BEF93E00E945A
:1045E000C62C8E3F09F050C080918202882399F436
:1045F0008091C101863469F480917000109270003E
:1046000078940E940A01809170008360809370000A
:1046100002C00E940A0180918102833091F08430AF
:1046200028F4813051F0823050F413C0853069F0A5
:10463000853048F0863069F40AC080E80BC085E414
:1046400009C016BC08C082EB05C082EA03C084E63C
:1046500001C082EC86BD80918202813049F08130B8
:1046600028F0823069F0833079F40CC081E005C015
:10467000299A8BB18C6F8BB982E08093820204C03F
:1046800083E0FBCF109282028BEF93E00E94C62C56
:104690008D3FD9F580918202882399F48091C101E0
:1046A000863469F4809170001092700078940E94B2
:1046B0000A018091700083608093700002C00E94A4
:1046C0000A0180EF86BD809182028230A1F08330A2
:1046D00028F4882341F08130C1F407C08F3068F09E
:1046E0008F3099F410C081E00BC0299A8BB18C6F88
:1046F0008BB982E005C083E003C0809182028F5FA6
:104700008093820202C010928202FF91EF91BF91CA
:10471000AF919F918F917F916F915F914F913F9159
:104720002F910F900FBE0F901F9018951F9383EF3E
:1047300093E00E94C62C182F16951695982F9695E3
:104740009695969519271827982F92959F70192757
:104750001795112717958695182B83EF93E0612FF6
:104760000E94CE2C812F1F910895EF92FF920F93FC
:104770001F93CF93DF9380E090E00E94C62C182F08
:1047800081E090E00E94C62C312F20E07901E80EF4
:10479000F11CC5E0D0E010E007C0CE010E94C62C9D
:1047A000882309F41F5F2196EC16FD06B4F70E94DA
:1047B00096231150612F0E94492C092F0F5F09F495
:1047C00001E0C5E0D0E011E0101741F0CE010E94F9
:1047D000C62C882309F41F5F2196F6CF34EA22E025
:1047E00094E83093BC008091BC0087FFFCCF2093FD
:1047F000BB009093BC008091BC0087FFFCCF8091F0
:10480000B900883171F714E8CE010E94C62C80935C
:10481000BB001093BC008091BC0087FFFCCF2196A9
:10482000CE010E94C62C882379F71092BB0084E841
:104830008093BC008091BC0087FFFCCF1092BB002E
:1048400084E88093BC008091BC0087FFFCCF84E9A2
:104850008093BC00DF91CF911F910F91FF90EF905B
:1048600008951F93CF93DF931091D601113009F073
:10487000A4C11092700210926F028091700081604A
:104880008093700080916F00816080936F000E9420
:10489000D7181093B1008091B60080FDFCCF81E065
:1048A0008093810080916600845180936600C0E00F
:1048B000D0E081E00E94FB186093E0017093E10179
:1048C0008093E2019093E301809166008F5F809373
:1048D00066002196C932D10561F78091100280935C
:1048E00066000E94D718809170008E7F80937000C0
:1048F00080916F008E7F80936F0034EA22E094E80D
:104900003093BC008091BC0087FFFCCF2093BB009C
:104910009093BC008091BC0087FFFCCF8091B900D0
:10492000883171F78091D4018093BB0084E8809333
:10493000BC008091BC0087FFFCCF40911002445125
:104940004093BB004C5E84E88093BC008091BC0027
:1049500087FFFCCFEBE1F2E054E820813181832F27
:10496000992787FD9A958093BB005093BC00809156
:10497000BC0087FFFCCF2093BB005093BC0080910C
:10498000BC0087FFFCCF329682E0ED36F80729F7AE
:104990004093BB0084E88093BC008091BC0087FFFB
:1049A000FCCF84E98093BC0034EA23E094E83093A0
:1049B000BC008091BC0087FFFCCF2093BB0090938C
:1049C000BC008091BC0087FFFCCF8091B90080348F
:1049D00071F784E88093BC008091BC0087FFFCCF16
:1049E0008091BB0080938E0284E98093BC0080910B
:1049F000700081608093700080916F00816080936F
:104A00006F000E94D71881E08093B1008091B600BA
:104A100080FDFCCF81E08093810080918E028F3FEA
:104A200011F48091D4018093660080E00E94FB180D
:104A30006093E0017093E1018093E2019093E301C0
:104A400080E00E94FB186093E0017093E101809385
:104A5000E2019093E30180E00E94FB186093E00183
:104A60007093E1018093E2019093E3010E94D718D3
:104A7000809170008E7F8093700080916F008E7F98
:104A800080936F0034EA22E094E83093BC00809178
:104A9000BC0087FFFCCF2093BB009093BC008091AB
:104AA000BC0087FFFCCF8091B900883171F720915D
:104AB000E0013091E1014091E2015091E301273D95
:104AC00086E0380780E0480780E05807B4F188E5C1
:104AD0008093BB0084E88093BC008091BC0087FF7A
:104AE000FCCFBB2757FDBA95A52F942F832F80931A
:104AF000BB0084E88093BC008091BC0087FFFCCFA2
:104B00002093BB0084E88093BC008091BC0087FFA9
:104B1000FCCF84E98093BC008EEF93E06FEF0E949E
:104B2000CE2C8FEF93E06FEF0E94CE2C8091D401BA
:104B30008093660080931002CBC089E58093BB0010
:104B400084E88093BC008091BC0087FFFCCF8EEF8F
:104B500093E060918E020E94CE2C8FEF93E06091E3
:104B60008E020E94CE2C80918E028F3F19F480918C
:104B7000D40104C080936600809166008093100287
:104B80008EEF93E00E94C62C8093BB0084E8809354
:104B9000BC008091BC0087FFFCCF8FEF93E00E94A8
:104BA000C62C8093BB0084E88093BC008091BC003D
:104BB00087FFFCCF84E98093BC008091D6018823D5
:104BC00009F086C0809170008160809370008091B0
:104BD0006F00816080936F000E94D71881E08093FE
:104BE000B1008091B60080FDFCCF81E08093810010
:104BF00080E00E94FB186093E0017093E1018093D4
:104C0000E2019093E30180E00E94FB186093E001D1
:104C10007093E1018093E2019093E30180E00E94B0
:104C2000FB186093E0017093E1018093E20190939F
:104C3000E3010E94D718809170008E7F80937000EE
:104C400080916F008E7F80936F0034EA22E094E8B9
:104C50003093BC008091BC0087FFFCCF2093BB0049
:104C60009093BC008091BC0087FFFCCF8091B9007D
:104C7000883171F7809166008093BB0084E880934F
:104C8000BC008091BC0087FFFCCF2091E0013091F7
:104C9000E1014091E2015091E301BB2757FDBA9534
:104CA000A52F942F832F8093BB0084E88093BC00B2
:104CB0008091BC0087FFFCCF2093BB0084E88093E9
:104CC000BC008091BC0087FFFCCF84E98093BC00CE
:104CD000DF91CF911F9108951F93789485E063EC45
:104CE00070EF0E94F20384B78E7F84BF83E58093C8
:104CF000C1018091700081608093700080916F008D
:104D0000816080936F000E94D71881E08093B1008A
:104D10008091B60080FDFCCF11E01093810080E00F
:104D20000E94FB1880E00E94FB1880E00E94FB18A4
:104D3000635E7440804090400CF446C084E58093EC
:104D4000C1010E94D7181093B1008091B60080FD78
:104D5000FCCF81E08093810020E130E02093660069
:104D600010921A02109219021092AF021092B00221
:104D70001092B1021092B2028091190290911A021F
:104D80000297D4F310921A02109219028091AF0286
:104D90009091B002A091B102B091B202B7FF07C0EA
:104DA000B095A095909581959F4FAF4FBF4F885E6E
:104DB0009340A040B0401CF4253131052CF42F5F06
:104DC0003F4F213F310551F682E58093C10110919B
:104DD00066000E94D71881E08093B1008091B600F0
:104DE00080FDFCCF81E080938100809166000E946D
:104DF000CB19655F714080409040B4F080916600AF
:104E00008C5F0E94CB19655F71408040904064F0D8
:104E10008091660082500E94CB19655F714080408E
:104E2000904014F010936600609166008EEF93E05E
:104E30000E94CE2C609166008FEF93E00E94CE2CF2
:104E40000E94D718809170008E7F809370008091AF
:104E50006F008E7F80936F00F8941F9108956F927A
:104E60007F928F929F92AF92BF92CF92DF92EF92FA
:104E7000FF920F931F93CF93DF9304B602FE03C0FC
:104E800084B78B7F84BF80917C00806480937C009A
:104E9000A89584B7877F84BF8091600088618093E4
:104EA00060001092600085B78F7E85BF14B817B878
:104EB0001AB88FEF85B988B98BB9439884EF93E01E
:104EC0000E94C62C882399F484EF93E06FEF0E9430
:104ED000CE2C43983B9A83E06CE376EF0E94F2037A
:104EE000439A3B9885E061E37CEF0E94F20380E205
:104EF0008093B8008093B6001092C601809166003E
:104F00008093D401609166008DEF93E00E94CE2CD7
:104F10008EEF93E00E94C62C182F803150F0803F16
:104F200040F48FEF93E00E94C62C181711F41093F1
:104F3000660004B600FE02C00E946C2680916600E6
:104F4000809310028BEF93E00E94C62C8F3F49F0B4
:104F50008E3F39F08D3F29F08BEF93E06DEF0E948B
:104F6000CE2C1092820284B18F6384B987B187609E
:104F700087B98AB18C6F8AB985B1827C85B988B1CD
:104F8000887F88B9299A8BB18C6F8BB91092850272
:104F90001092860210929E02109284021092830256
:104FA00010927502109274021092CF011092E601D5
:104FB0001092990210929A0210929B0210929C02F7
:104FC000109298021092D2011092B302789410922B
:104FD000820280916E00816080936E008BEF93E07F
:104FE0000E94C62C8E3F29F08F3F68F48D3F31F42C
:104FF00002C080EC01C080EF86BD06C08BEF93E05D
:105000006EEF0E94CE2C16BC83E085BDE4EA9E2E96
:1050100073E0E72E64E8F62E54EA852E44ECD42E95
:1050200034E9C32E22E0B22E92EA792E84E0A82E33
:1050300002EB602E9091D2018091C1018634E1F3A0
:105040008091C1018B34C1F38092BC008091BC007F
:1050500087FFFCCFE092BB00F092BC008091BC00C7
:1050600087FFFCCF8091B900803491F0913061F7D7
:1050700020E030E0F901E953FE4F8081F901EF5E55
:10508000FD4F80832F5F3F4F2830310599F7DCCFEC
:10509000D092BC008091BC0087FFFCCF9091BB00F8
:1050A000992339F0D092BC008091BC0087FFFCCFDF
:1050B00006C0F092BC008091BC0087FFFCCF8091BD
:1050C000BB008093C1018091C101883011F0109222
:1050D0007302992329F1E6EDF1E020E030E0492F59
:1050E00050E0BA016150704016C02617370739F4F6
:1050F000F092BC008091BC0087FFFCCF06C0D0922C
:10510000BC008091BC0087FFFCCF8091BB008083F6
:105110002F5F3F4F3196241735073CF3C092BC00F8
:105120008091C101893028F4873098F4833039F4B4
:1051300010C0893471F0813561F0863451F080E01F
:1051400090E0FC01EF5EFD4F1082019688309105E2
:10515000C1F78091C10190E0843409F473C18534B2
:1051600058F5863009F42FC1873080F4843038F444
:10517000823008F06EC0813009F05ECF4FC08430BD
:1051800009F4EEC0853009F057CFFCC0893009F42E
:1051900045C18A3038F4873009F436C1883009F0C7
:1051A0004BCF37C1823409F443C1833408F045C181
:1051B000813409F041CF37C18B3409F40BC28C34F0
:1051C00090F4873409F45DC1883438F4853409F4E7
:1051D0003EC1863409F030CF3FC18934D1F08A34E2
:1051E00008F0D7C160C18E3409F46AC28F3438F434
:1051F0008C3409F41BC28D3409F01ECF5CC280359B
:1052000009F4F9C2803508F460C2813509F014CF81
:1052100004C31092D201C7E0D0E04BC11092D2017A
:105220008091D601809311028091D7018093120260
:105230008091D801809313028091D9018093140248
:105240001092150210921602109217021092180274
:10525000F1CE1092D2014091D7018091D6018734CE
:10526000B9F1883478F4833439F1843430F48134FA
:1052700001F1823409F0DECE19C0853419F186348B
:1052800020F51DC08436D9F0853640F4823671F0A1
:10529000833690F4813609F0CDCE0BC08636A9F066
:1052A000863680F0873609F0C5CE12C023E030E0A4
:1052B00011C020E030E00EC024E030E00BC022E05E
:1052C00030E008C025E030E005C026E030E002C054
:1052D00021E030E0483008F0ADCE8091C10182304D
:1052E000A1F485B1827C85B988B1887F88B9299A73
:1052F0008BB18C6F8BB980E090E0FC01EF5EFD4FCD
:105300001082019688309105C1F78091C1018330E8
:1053100009F090CEF901EF5EFD4F8081552747FDE2
:10532000509590E0042E02C0959587950A94E2F777
:1053300080FF0BC0208181E090E002C0880F991FA0
:105340004A95E2F78095282309C0208181E090E00A
:1053500002C0880F991F4A95E2F7282B20836ACE56
:105360001092D20120E030E0F901EA52FE4F808134
:10537000F901EF5EFD4F80832F5F3F4F28303105ED
:1053800099F758CE1092D2018091D601809389026C
:105390002091D70180E090E0FC01EF5EFD4F10828C
:1053A000019688309105C1F7233729F4809189024D
:1053B0000E944E043FCE253709F03CCE80918902F1
:1053C0000E94850437CE1092D20120E030E040E008
:1053D00050E060E070E0FB01EA52FE4F8081280F50
:1053E000311D411D511D6330710521F0542F432F94
:1053F000322F22276F5F7F4F6430710561F7CA013A
:10540000B9010E94330616CE1092D2010E94911D5E
:1054100011CE1092D2010E94231A0CCE1092D2010A
:105420000E94761C07CE1092D2010E947D1E02CEF1
:105430001092D2010E94231FFDCD1092D2010E9432
:105440007B1FF8CD1092D2010E94AB1FF3CD1092BA
:10545000D2010E949F20EECD1092D201B092B100F5
:10546000809170008360809370002BE088E190E071
:105470000FB6F894A895809360000FBE209360004B
:10548000D9CD1092D20120E030E0F901EA52FE4F6E
:105490008081F901EF5EFD4F80832F5F3F4F283001
:1054A000310599F7C7CD1092D2010E94B523C2CD24
:1054B0002197FE01EF5EFD4F80818823C9F3808133
:1054C0008D3211F00BE202C021970DE220E030E0B6
:1054D00040E050E017C0FE01EF5EFD4F1081CA01B1
:1054E000B9012AE030E040E050E00E942A2C9B0104
:1054F000AC012053304040405040210F311D411D30
:10550000511D2197D7FFE7CF0D3239F450954095C3
:10551000309521953F4F4F4F5F4F20938D02BB2712
:1055200057FDBA95A52F942F832F80938C02CA0123
:10553000BB2797FDB095AB2F80938B02852FBB27A0
:1055400087FDB0959B2FAB2F80938A029092BC0071
:105550008091BC0087FFFCCFB092BB00F092BC00F2
:105560008091BC0087FFFCCF8091B900883171F732
:10557000EAE8F2E080818093BB00F092BC00809169
:10558000BC0087FFFCCF319682E0EE38F80791F738
:105590002FC11092D20120E030E040E050E060E006
:1055A00070E0FB01EA52FE4F8081280F311D411D42
:1055B000511D6330710521F0542F432F322F2227C4
:1055C0006F5F7F4F6430710561F7CA01B9010E94B6
:1055D000280C30CD1092D20120E030E040E050E0C5
:1055E00060E070E0FB01EA52FE4F8081280F311D20
:1055F000411D511D6330710521F0542F432F322F6F
:1056000022276F5F7F4F6430710561F7CA01B901CE
:105610004091DA0120E032E00E94BF15B092B10063
:105620008091700081608093700004CD1092D2014F
:105630008BEF93E06EEF0E94CE2C8091D601809389
:10564000810210928202809181028330A1F0843025
:1056500028F4813061F0823060F41CC0853079F02C
:10566000853058F0863069F08730A1F40EC080E8AC
:1056700012C085E410C016BC0BC066BC04C076BC6A
:1056800002C084E686BDA5BC08C082EC86BD85E06C
:1056900085BD03C080EC86BDE5BC20E030E0822FF4
:1056A000805DF901EF5EFD4F80832F5F3F4F283013
:1056B0003105A9F7BFCC1092D2010E942422BACCA6
:1056C0001092D2010E943124B5CC1092D201809167
:1056D0006E008E7F80936E0085B1827C85B988B123
:1056E000887F88B9299A8BB18C6F8BB99092BC0056
:1056F0008091BC0087FFFCCFE092BB00F092BC0021
:105700008091BC0087FFFCCF8091B900803471F795
:10571000D092BC008091BC0087FFFCCF8091BB0081
:105720008433C1F1853360F4813361F1823318F43D
:10573000803399F513C08233A9F0833371F516C015
:105740008733F9F0883328F48533A1F0863329F5BF
:1057500015C08833D1F0893301F51BC029988BB16E
:1057600083781AC029988BB18B7416C029988BB195
:10577000837612C029988BB187720EC08BB1877067
:105780000BC029988BB1837F07C029988BB1837098
:1057900003C029988BB183738BB9F092BC008091C0
:1057A000BC0087FFFCCF8091BB008333C1F0843302
:1057B00038F4813381F0823380F48033C9F409C036
:1057C000853389F0853368F0863379F0873381F447
:1057D0000EC02C9A0DC02B9A0BC02A9A09C0289A89
:1057E00007C0429A05C0419A03C0409A01C02D9A51
:1057F000C092BC001FCC1092D2018091D6018033A0
:1058000021F0813309F016CC03C080E091E002C0A2
:105810008EE191E00E94E0080DCC1092D2018091BF
:10582000D601882309F406CC823041F0833051F050
:10583000813069F48BEF93E06DEF07C08BEF93E05D
:105840006EEF03C08BEF93E06FEF0E94CE2C1092AF
:105850008202F0CB629FD001739FF001829FE00D26
:10586000F11D649FE00DF11D929FF00D839FF00DDF
:10587000749FF00D659FF00D9927729FB00DE11D8B
:10588000F91F639FB00DE11DF91FBD01CF01112468
:105890000895991B79E004C0991F961708F0961B8C
:1058A000881F7A95C9F78095089587FB082E0626EC
:1058B00087FD819567FD6195ECDF0EF4919507FCFE
:1058C0008195089597FB092E07260AD077FD04D00D
:1058D00049D006D000201AF4709561957F4F089545
:1058E000F6F7909581959F4F0895A1E21A2EAA1B75
:1058F000BB1BFD010DC0AA1FBB1FEE1FFF1FA21780
:10590000B307E407F50720F0A21BB30BE40BF50B7C
:10591000661F771F881F991F1A9469F76095709505
:10592000809590959B01AC01BD01CF01089597FB37
:10593000092E05260ED057FD04D0D7DF0AD0001C53
:1059400038F450954095309521953F4F4F4F5F4F1C
:105950000895F6F790958095709561957F4F8F4FDC
:105960009F4F0895AA1BBB1B51E107C0AA1FBB1F75
:10597000A617B70710F0A61BB70B881F991F5A95DB
:10598000A9F780959095BC01CD010895F999FECFB6
:1059900092BD81BDF89A992780B50895262FF9996F
:1059A000FECF1FBA92BD81BD20BD0FB6F894FA9A02
:0C59B000F99A0FBE01960895F894FFCFFD
:1059BC000D0A5043425F41204D696E692D4F533A99
:1059CC00204932435F5631385F43430D0A00535729
:1059DC0020696E666F726D6174696F6E3A20204338
:1059EC006F6D70617469626C65207769746820559D
:1059FC007365722050726F6A656374732056315FE1
:105A0C00382C205043425F415F426F6F746C6F6162
:105A1C006465722056355F43432E0D0A2020616E5B
:105A2C006420554E4F5F626F6F746C6F616465726A
:105A3C005F666F725F68657826746578745F56353B
:105A4C0020200D0A50726F6772616D6D6564207550
:105A5C0073696E672050726F6A6563745F70726FE2
:105A6C006772616D6D65725F4156525F56310D0AFA
:045A7C0000012900FC
:00000001FF
