:100000000C9434000C9451000C9451000C94510049
:100010000C9451000C9451000C9451000C9451001C
:100020000C9451000C9435070C9451000C94510021
:100030000C9451000C94B8070C9451000C9451008E
:100040000C9451000C9451000C9451000C945100EC
:100050000C9451000C9451000C9451000C945100DC
:100060000C9451000C94510011241FBECFEFD4E02A
:10007000DEBFCDBF12E0A0E0B1E0E8E7F0E102C0F2
:1000800005900D92AE38B107D9F723E0AEE8B2E0A3
:1000900001C01D92AD35B207E1F70E94D2050C9464
:1000A0003A080C940000992344F020E030E000006E
:1000B0002F5F3F4F82179307D4F7089566BD85BD24
:1000C000A89BFECFA89A15BC08950F931F93CF93BA
:1000D000DF93181619065CF48C01C0E0D0E062EBE7
:1000E00085E00E945E0021960C171D07C1F7DF9185
:1000F000CF911F910F9108957093850060938400B4
:100100009FEF96BB80938100B09BFECFB09A109278
:1001100081000895CF93DF93D82FC62F62EF7CEF35
:1001200085E00E947C00E1ECF0E01082D093C500F5
:10013000C093C40082E08093C00088E1808386E0A1
:100140008093C200DF91CF910895E0ECF0E08081D0
:100150008823ECF78091C600089520E030E0E0ECC1
:10016000F0E00BC02F5F3F4F21349FE139071CF0B7
:10017000815020E030E0882329F09081992394F782
:1001800081E0089580E008950E94A5008D3011F06F
:100190008A3051F481E00E94AD00882321F08091E3
:1001A000C6008DE008958DE00895E0ECF0E09081C8
:1001B00095FFFDCF8093C60008950F931F93CF93B3
:1001C000DF93FC01808181110AC011C089918823CD
:1001D00071F00E94D5000C171D07C1F708C08F01F0
:1001E0000E94D500E801219608531F4FEFCFDF9101
:1001F000CF911F910F91089584E792E00E94DD0056
:1002000008952F923F924F925F926F927F928F92BA
:100210009F92AF92BF92CF92DF92EF92FF920F9395
:100220001F93CF93DF931C012A013B014115510518
:100230006105704861F52A3019F02031B9F065C0C8
:1002400098E3F101908384E3818326E3228323E30F
:1002500023839483858397E39683878381E38087D1
:1002600082E381878DE2828713864FC080E3F101AC
:10027000808381838283838384838583868388E3E9
:1002800087838DE280871186128613863EC0E10146
:10029000C1010C96F1011192E817F907E1F773011A
:1002A000620177203CF4CC24DD247601C418D50803
:1002B000E608F70800E010E0822E912CA12CB12C6A
:1002C000C701B601A50194010E94C90768836A307D
:1002D00018F4605D688302C0695C68830F5F1F4F1C
:1002E000C701B601A50194010E94C90769017A01FD
:1002F0002196121613061406150614F377202CF413
:10030000F101E00FF11F8DE28083DF91CF911F910A
:100310000F91FF90EF90DF90CF90BF90AF909F90A4
:100320008F907F906F905F904F903F902F900895A7
:100330000F931F93CF93DF93FC012081222399F029
:100340003196C0E0D0E0219621912111FCCF209779
:1003500051F08C010C0F1D1FF80182918F010E943A
:10036000D5002197C9F7DF91CF911F910F91089583
:10037000CF93DF93CDB7DEB72C970FB6F894DEBFDF
:100380000FBECDBF282FCE0101960E940101CE01E4
:1003900001960E9498012C960FB6F894DEBF0FBE0E
:1003A000CDBFDF91CF91089590ED980F9A3028F04E
:1003B00091E0883719F090E001C091E0892F08950D
:1003C000CF92DF92EF92FF92CF930E94A500C82FA9
:1003D0000E94D4018823C9F3C83769F10E94FC0048
:1003E0008C2F0E94D500C053CC2ED12CE12CF12CA7
:1003F0000E94C4008D30E9F0C0EDC80FCA30C0F7CC
:100400000E94D500CC0CDD1CEE1CFF1CD701C601E0
:10041000880F991FAA1FBB1F880F991FAA1FBB1FF8
:10042000C80ED91EEA1EFB1ECC0ED11CE11CF11C0D
:10043000DFCF8C2D01C088E7CF91FF90EF90DF9048
:10044000CF900895CF93C82F80918E0290918F0204
:100450006C2F01970E942C0880918E0290918F0240
:100460006C2F02970E942C0880918E0290918F022F
:100470006091920203970E942C08CF91089588E022
:1004800091E00E94DD0080918E0290918F02019791
:100490000E942408482F50E060E070E08AE00E944B
:1004A000B80189E00E94D50080918E0290918F0260
:1004B00002970E942408482F50E060E070E08AE034
:1004C0000E94B80183E291E00E94DD0080918E02DB
:1004D00090918F0203970E942408482F50E060E01B
:1004E00070E08AE00E94B80184E391E00E94DD00A0
:1004F000089510928500109284001092810010924D
:10050000B100E6EBF0E0808180FDFDCF1092B000FD
:10051000E6EBF0E0808181FDFDCF1092B200E6EBCA
:10052000F0E0808184FDFDCF089581E08093B100EB
:10053000E6EBF0E0808180FDFDCF81E080938100DB
:1005400008958F929F92AF92BF92CF92DF92EF92D7
:10055000FF920F931F93CF93623029F0653031F4EF
:10056000CAE0EFE005C0C4E0E6E002C0C1E0E2E0BE
:1005700010929F0210929E021092590310925A03F9
:1005800010925B0310925C03F0E060919E02709108
:100590009F026E177F07CCF310929F0210929E026B
:1005A000C0905903D0905A03E0905B03F0905C0335
:1005B00041110AC0FF2044F4F094E094D094C09418
:1005C000C11CD11CE11CF11C882311F100915603C0
:1005D00010915703000F111F000F111F0E551D4FD3
:1005E0008C2E912CA12CB12CC701B601A501940130
:1005F0000E94C907F801208331834283538380918D
:100600005603909157030196909357038093560396
:100610002C2F30E040E050E0C701B6010E94C9072E
:10062000CA01B901CF911F910F91FF90EF90DF9018
:10063000CF90BF90AF909F908F9008954F925F9210
:100640006F927F928F929F92AF92BF92CF92DF92E2
:10065000EF920F931F93CF93DF932C01EB016A016D
:100660005901FA019081943170F50F2EF6E68F2E24
:10067000912CF02D052C000C660877088881F40178
:10068000808340E06E2D80E00E94A102F50160832E
:10069000718382839383641575058605970554F0ED
:1006A000888181508883F60180818F5F80838431C7
:1006B00028F309C0F6018081843128F48091660016
:1006C000F801808304C0F801808180936600DF9187
:1006D000CF911F910F91EF90DF90CF90BF90AF908F
:1006E0009F908F907F906F905F904F9008954F9262
:1006F0005F926F927F928F929F92AF92BF92CF92B2
:10070000DF92EF920F931F93CF93DF932C01EB01B6
:100710006A015901FA019081943170F50F2EF6E6C5
:100720008F2E912CF02D052C000C660877088881FF
:10073000F401808340E06E2D80E00E94A102F5016B
:10074000608371838283938364157505860597059D
:1007500054F088818F5F8883F60180818F5F80836A
:10076000843128F309C0F6018081843128F4809116
:100770006600F801808304C0F801808180936600E0
:10078000DF91CF911F910F91EF90DF90CF90BF90AD
:10079000AF909F908F907F906F905F904F90089553
:1007A000CF92DF92EF920F931F93CF93DF93CDB74A
:1007B000DEB727970FB6F894DEBF0FBECDBF182F58
:1007C0001B82E1ECF0E080818F7E80836DE771EE2B
:1007D00085E00E947C00789481E080939002E0E7BD
:1007E000F0E0808181608083EFE6F0E080818160CD
:1007F00080830E9479020E9495021111AAC081EFA4
:10080000898306E610E08EE20E94D500898181503E
:100810008983F80180836091900240E080E00E942B
:10082000A1026C837D838E839F832981213E58F7AB
:10083000683E73408105910534F7809166008B8393
:100840001A8285E0809390020F2EF8EECF2EF3E00F
:10085000DF2EF02D8EE20E94D50024E6C21AD108C8
:10086000E09090028E010D5F1F4F9E012C5F3F4F65
:10087000AE014E5F5F4FBE016F5F7F4FC6010E94AA
:100880001E0384E6C816D10429F742C08EE20E94F6
:10089000D50089818F5F8983F80180836091900200
:1008A00040E080E00E94A1026C837D838E839F8361
:1008B0002981203258F3683E73408105910534F751
:1008C000809166008B831A8285E0809390020F2EC0
:1008D000F8EECF2EF3E0DF2EF02D8EE20E94D50051
:1008E00024E6C21AD108E09090028E010D5F1F4FDE
:1008F0009E012C5F3F4FAE014E5F5F4FBE016F5FA9
:100900007F4FC6010E94770384E6C816D10429F7F9
:100910006091900240E080E00E94A1026C837D83A0
:100920008E839F838091660080939D020E9479024E
:10093000E0E7F0E080818E7F8083EFE6F0E0808169
:100940008E7F8083E1ECF0E0808180618083F89489
:1009500005C08FE0898306E610E098CF27960FB692
:10096000F894DEBF0FBECDBFDF91CF911F910F91E5
:10097000EF90DF90CF9008958F929F92AF92BF92A9
:10098000CF92DF92EF92FF920F931F93CF93DF935B
:10099000E1ECF0E080818F7E808386E491E00E942C
:1009A000DD006CED85E00E945E00789410925703A4
:1009B0001092560385E080939002E0E7F0E080819A
:1009C00081608083EFE6F0E08081816080830E9417
:1009D00079020E949502E6E6F0E0808184518083EE
:1009E0001081C9E2D0E00F2EF6E6EF2EF12CF02DAB
:1009F0006091900241E081E00E94A102F7018081B4
:100A00008F5F80832197A1F780919D02809366007C
:100A10000E947902E0E7F0E080818E7F8083EFE63C
:100A2000F0E080818E7F80830E94FC008CE691E064
:100A30000E94DD00C2EAD2E00F2EF6E4CF2EF3E0F2
:100A4000DF2EF02D0F2EF4E28F2EF4EF9F2EA12C2F
:100A5000B12CF02D412F50E060E070E08AE00E9460
:100A6000B8011F5F89E00E94D5007E01499159912C
:100A7000699179918AE00E94B80189E00E94D500CD
:100A8000F7012081318142815381A4E6B0E00E94C8
:100A9000E807A50194010E94C907BA01A9018AE0EB
:100AA0000E94B80185E20E94D5000E94FC0064E625
:100AB00085E00E945E00CC15DD0561F68CE791E0D3
:100AC0000E94DD00E1ECF0E08081806180830E9483
:100AD000E00180935803883731F00E94E001809351
:100AE0005803893729F480919D028093580346C0AA
:100AF00000E710E0F801808181608083CFE6D0E0DC
:100B00008881816088830E9479020E949502809189
:100B100058038093660085E0809390026091900274
:100B200040E080E00E94A1026091900240E080E0FD
:100B30000E94A1026091900240E080E00E94A10228
:100B40006B017C010E947902F80180818E7F808395
:100B500088818E7F8883F7EDCF16F6E0DF06E1040B
:100B6000F10464F080919D028093660080919D0263
:100B70008093580387EA91E00E94DD00F894809109
:100B800058030E9422020E943F02DF91CF911F91E1
:100B90000F91FF90EF90DF90CF90BF90AF909F901C
:100BA0008F900895A89584B7877F84BFE0E6F0E032
:100BB000808188618083108269E180E00E948A00E0
:100BC0008AE090E00E945300ECE7F0E080818064CE
:100BD000808381E090E00E94650085B78F7E85BFAD
:100BE00014B817B81AB88FEF85B988B98BB980E2F5
:100BF0008093B600C6E6D0E088818093920280E0C0
:100C00000E94D00388818F5F88830F2EF0E7EF2E3C
:100C1000F12CF02DF7018081816080830FE610E0D8
:100C2000F8018081816080830E9479020E94950290
:100C3000789440E062E080E00E94A1022B013C0138
:100C400088818250888340E062E080E00E94A102B7
:100C50004B015C010E947902F70180818E7F8083C5
:100C6000F80180818E7F8083F89488818F5F8883EC
:100C7000F9EE4F16F3E05F06610471043CF489EE6F
:100C8000881683E09806A104B1043CF089EC91E059
:100C90000E94DD0081E00E94D003E3E9F2E0809150
:100CA00006019091070191838083809104019091C6
:100CB00005019383828380910201909103019583C2
:100CC00084838091000190910101978386838CEF4A
:100CD0009FE10E942408833969F118F48239E9F10F
:100CE0004EC08439A1F0853909F049C080E090E414
:100CF0009093A1028093A00280E094E090938F02F1
:100D000080938E0210929C0210929B0238C080E069
:100D100090E29093A1028093A00280E092E09093F1
:100D20008F0280938E0281E090E090939C028093EA
:100D30009B0225C080E090E19093A1028093A002E5
:100D400080E092E090938F0280938E0282E090E0A8
:100D500090939C0280939B0212C080E098E0909355
:100D6000A1028093A00280E091E090938F02809393
:100D70008E0283E090E090939C0280939B028AEF26
:100D800091E00E94DD00E0919B02F0919C02EE0F49
:100D9000FF1FED56FD4F808191810E94DD00809103
:100DA0009D020E94220282E192E00E94DD004091B9
:100DB0009D0250E060E070E08AE00E94B80186E2A7
:100DC00092E00E94DD000E94A500883739F48091EE
:100DD0009D020E9422020E943F0202C00E94BC04A7
:100DE00084E592E00E94DD0088E091E00E94DD0051
:100DF0008FEF9FE10E942408482F50E060E070E0F0
:100E00008AE00E94B80189E00E94D5008EEF9FE140
:100E10000E942408482F50E060E070E08AE00E94C1
:100E2000B80183E291E00E94DD008DEF9FE10E9416
:100E30002408482F50E060E070E08AE00E94B8018A
:100E400084E391E00E94DD008BE592E00E94DD00EA
:100E50000E94A50099E088E10FB6F894A8958093C8
:100E600060000FBE90936000FFCF1F920F920FB6ED
:100E70000F921124CF92DF92EF92FF922F933F9324
:100E80004F935F936F937F938F939F93AF93BF9392
:100E9000EF93FF93E1E8F0E01082A4E8B0E02D9139
:100EA0003C91119711961C921E9281E08083809153
:100EB000900240919E0250919F0290E0481759077E
:100EC0001CF41092910236C080919102813019F089
:100ED000823031F00BC0C12CD12C7601E39409C0D3
:100EE000C12CD12C76016894E1F803C0C12CD12C1F
:100EF00076014091590350915A0360915B037091C0
:100F00005C03C901A0E0B0E08452944FA109B1098B
:100F10008C0D9D1DAE1DBF1D840F951FA61FB71FF5
:100F20008093590390935A03A0935B03B0935C039F
:100F30001092910280919E0290919F02019690934F
:100F40009F0280939E02FF91EF91BF91AF919F917D
:100F50008F917F916F915F914F913F912F91FF9072
:100F6000EF90DF90CF900F900FBE0F901F901895CD
:100F70001F920F920FB60F9211248F9380919102BE
:100F80008F5F809391028F910F900FBE0F901F90F3
:100F90001895052E97FB1EF400940E94E00757FD5C
:100FA00007D00E94F30707FC03D04EF40C94E0072F
:100FB00050954095309521953F4F4F4F5F4F089585
:100FC00090958095709561957F4F8F4F9F4F0895B5
:100FD0000E941508A59F900DB49F900DA49F800DB1
:100FE000911D11240895A1E21A2EAA1BBB1BFD011D
:100FF0000DC0AA1FBB1FEE1FFF1FA217B307E407F8
:10100000F50720F0A21BB30BE40BF50B661F771F4F
:10101000881F991F1A9469F760957095809590952F
:101020009B01AC01BD01CF010895A29FB001B39F08
:10103000C001A39F700D811D1124911DB29F700DE1
:10104000811D1124911D0895F999FECF92BD81BD96
:10105000F89A992780B50895262FF999FECF1FBADF
:1010600092BD81BD20BD0FB6F894FA9AF99A0FBED1
:0810700001960895F894FFCFEA
:1010780077027C02810287020D0A56616C756573DE
:1010880020736176656420746F20454550524F4D3A
:1010980020200009557365722076616C75650D0A0C
:1010A80009090900090944656661756C742076614F
:1010B8006C75650D0A000D0A4D616E75616C2063D3
:1010C800616C3A20706C6561736520776169742082
:1010D80035207365636F6E64730D0A004F53434385
:1010E800414C09204572726F720D0A000D0A456E57
:1010F800746572206E657720757365722063616C04
:101108002076616C7565206F72207820746F206579
:1011180073636170652E00094368616E67652072AC
:10112800656A65637465643A206572726F722074CB
:101138006F6F206772656174000D0A506F6F7220BF
:10114800726573756C743A20536561726368696E71
:101158006720666F7220616C7465726E617469765F
:10116800652076616C75650D0A000D0A0D0A4361EC
:101178006C6962726174696E672041746D6567613C
:1011880020000D0A4E6577204F534343414C20768B
:10119800616C756520000D0A50726573732027789D
:1011A8002720746F2066696E697368206F7220410A
:1011B8004F4B20666F72206D616E75616C206361A4
:1011C8006C0D0A000D0A54657374000D0A416C6CAD
:1011D80020646F6E653A20414B20746F20726570F1
:1011E8006561742E0D0A0034382F500038382F509E
:0E11F800003136382F50003332382F500000AF
:00000001FF
