:1000000019C033C032C031C030C02FC02EC02DC087
:100010002CC0DCC72AC029C028C05BC826C025C0A8
:1000200024C023C022C021C020C01FC01EC01DC0CC
:100030001CC01BC011241FBECFEFD4E0DEBFCDBF5C
:1000400012E0A0E0B1E0ECECF1E102C005900D920D
:10005000AA39B107D9F723E0AAE9B2E001C01D929D
:10006000AB37B207E1F703D5AFC8CACFE1ECF0E098
:1000700010828093C5006093C40082E08093C0002A
:1000800088E1808386E88093C2000895E0ECF0E088
:1000900080818823ECF78091C600089520E030E04D
:1000A000E0ECF0E00BC02F5F3F4F21349FE13907B8
:1000B0001CF0815020E030E0882329F090819923C2
:1000C00094F781E0089580E00895E0DF8D3011F02D
:1000D0008A3049F481E0E2DF882321F08091C60074
:1000E0008DE008958DE00895E0ECF0E0908195FFBB
:1000F000FDCF8093C60008950F931F93CF93DF9396
:10010000FC018081811109C00FC08991882361F0B1
:10011000EBDF0C171D07C9F707C08F01E5DFE8010A
:10012000219608531F4FF1CFDF91CF911F910F916F
:10013000089586E992E0E0DF08952F923F924F9272
:100140005F926F927F928F929F92AF92BF92CF9267
:10015000DF92EF92FF920F931F93CF93DF931C01D7
:100160002A013B01411551056105704861F52A30AE
:1001700019F02031B9F063C098E3F101908384E372
:10018000818326E3228323E323839483858397E378
:100190009683878381E3808782E381878DE28287EC
:1001A00013864DC080E3F101808381838283838342
:1001B00084838583868388E387838DE280871186A5
:1001C000128613863CC0E101C1010C96F101119227
:1001D000E817F907E1F77301620177203CF4CC24BA
:1001E000DD247601C418D508E608F70800E010E021
:1001F000822E912CA12CB12CC701B601A50194012E
:1002000079D768836A3018F4605D688302C0695CDE
:1002100068830F5F1F4FC701B601A50194016AD71C
:1002200069017A012196121613061406150624F3A5
:1002300077202CF4F101E00FF11F8DE28083DF9134
:10024000CF911F910F91FF90EF90DF90CF90BF90D3
:10025000AF909F908F907F906F905F904F903F9066
:100260002F9008950F931F93CF93DF93FC0120816C
:10027000222391F03196C0E0D0E021962191211106
:10028000FCCF209749F08C010C0F1D1FF8018291C3
:100290008F012ADF2197D1F7DF91CF911F910F9125
:1002A0000895CF93DF93CDB7DEB72C970FB6F894B0
:1002B000DEBF0FBECDBF282FCE0101963EDFCE019F
:1002C0000196D0DF2C960FB6F894DEBF0FBECDBFDF
:1002D000DF91CF91089590ED980F9A3028F091E03A
:1002E000883719F090E001C091E0892F0895CF93ED
:1002F000DF93CCDEC82FEFDF8823D9F3C83799F01E
:1003000018DF8C2FF1DEC053E0DE8D3071F0D0EDC0
:10031000D80FDA30C8F7E8DECC0F8C2F880F880FA3
:10032000C80FCD0FF1CF88E701C08C2FDF91CF919F
:10033000089566BD85BDA89BFECFA89A15BC0895FB
:1003400070938500609384009FEF96BB809381003B
:10035000B09BFECFB09A109281000895CF93DF93A7
:10036000D82FC62F62EF7CEF85E0EADFE1ECF0E00A
:100370001082D093C500C093C40082E08093C00077
:1003800088E1808386E08093C200DF91CF91089559
:10039000CF93C82F80919A0290919B026C2F019766
:1003A00005D780919A0290919B026C2F0297FED6FE
:1003B00080919A0290919B026091A0020397F6D6D9
:1003C000CF91089580E091E097DE80919A0290911C
:1003D0009B020197E3D6482F50E060E070E08AE08E
:1003E00060DF89E081DE80919A0290919B02029702
:1003F000D5D6482F50E060E070E08AE052DF8BE114
:1004000091E07ADE80919A0290919B020397C6D682
:10041000482F50E060E070E08AE043DF8CE291E03A
:100420006BDE089510928500109284001092810076
:100430001092B100E6EBF0E0808180FDFDCF1092DC
:10044000B000E6EBF0E0808181FDFDCF1092B200BC
:10045000E6EBF0E0808184FDFDCF089581E080939C
:10046000B100E6EBF0E0808180FDFDCF81E080937C
:10047000810008958F929F92AF92BF92CF92DF92A8
:10048000EF92FF920F931F93CF93623029F0653064
:1004900031F4CAE0EFE005C0C4E0E6E002C0C1E02C
:1004A000E2E01092B5021092B4021092770310921B
:1004B00078031092790310927A03F0E06091B4020D
:1004C0007091B5026E177F07CCF31092B5021092AF
:1004D000B402C0907703D0907803E0907903F09055
:1004E0007A0341110AC0FF2044F4F094E094D094C0
:1004F000C094C11CD11CE11CF11C882309F100919E
:100500006E0310916F03000F111F000F111F06548F
:100510001D4F8C2E912CA12CB12CC701B601A50129
:100520009401E8D5F801208331834283538380917D
:100530006E0390916F03019690936F0380936E0307
:100540002C2F30E040E050E0C701B601D3D5CA01FE
:10055000B901CF911F910F91FF90EF90DF90CF9055
:10056000BF90AF909F908F9008954F925F926F923F
:100570007F928F929F92AF92BF92CF92DF92EF9233
:100580000F931F93CF93DF932C01EB016A01590165
:10059000FA019081943168F50F2EF6E68F2E912C9A
:1005A000F02D052C000C660877088881F401808303
:1005B00040E06E2D80E05EDFF50160837183828311
:1005C0009383641575058605970554F088818150DD
:1005D0008883F60180818F5F8083843130F309C086
:1005E000F6018081843128F480916600F8018083CF
:1005F00004C0F801808180936600DF91CF911F9144
:100600000F91EF90DF90CF90BF90AF909F908F9021
:100610007F906F905F904F9008954F925F926F928E
:100620007F928F929F92AF92BF92CF92DF92EF9282
:100630000F931F93CF93DF932C01EB016A015901B4
:10064000FA019081943168F50F2EF6E68F2E912CE9
:10065000F02D052C000C660877088881F401808352
:1006600040E06E2D80E006DFF501608371838283B8
:100670009383641575058605970554F088818F5F0F
:100680008883F60180818F5F8083843130F309C0D5
:10069000F6018081843128F480916600F80180831E
:1006A00004C0F801808180936600DF91CF911F9193
:1006B0000F91EF90DF90CF90BF90AF909F908F9071
:1006C0007F906F905F904F900895CF92DF92EF925E
:1006D0000F931F93CF93DF93CDB7DEB727970FB656
:1006E000F894DEBF0FBECDBF182F1B82E1ECF0E007
:1006F00080818F7E80836DE771EE85E021DE7894C6
:1007000081E080939E02E0E7F0E080818160808359
:10071000EFE6F0E080818160808384DE9FDE11114E
:10072000A0C081EF898306E610E08EE2DDDC8981DE
:1007300081508983F801808360919E0240E080E0CF
:1007400099DE6C837D838E839F832981213E68F7A8
:10075000683E73408105910544F7809166008B8364
:100760001A8285E080939E020F2EF8EECF2EF3E0E2
:10077000DF2EF02D8EE2B8DC24E6C21AD108E0901C
:100780009E028E010D5F1F4F9E012C5F3F4FAE01F9
:100790004E5F5F4FBE016F5F7F4FC601E6DE84E6AE
:1007A000C816D10439F73EC08EE29EDC89818F5F86
:1007B0008983F801808360919E0240E080E05ADEE8
:1007C0006C837D838E839F832981203268F3683E0A
:1007D00073408105910544F7809166008B831A82EE
:1007E00085E080939E020F2EF8EECF2EF3E0DF2EF1
:1007F000F02D8EE279DC24E6C21AD108E0909E0248
:100800008E010D5F1F4F9E012C5F3F4FAE014E5F6B
:100810005F4FBE016F5F7F4FC601FFDE84E6C816E3
:10082000D10439F760919E0240E080E023DE6C83C2
:100830007D838E839F83809166008093B302F2DD77
:10084000E0E7F0E080818E7F8083EFE6F0E080815A
:100850008E7F8083E1ECF0E0808180618083F8947A
:1008600005C08FE0898306E610E09ECF27960FB67D
:10087000F894DEBF0FBECDBFDF91CF911F910F91D6
:10088000EF90DF90CF9008958F929F92AF92BF929A
:10089000CF92DF92EF92FF920F931F93CF93DF934C
:1008A000E1ECF0E080818F7E80838EE391E024DCB8
:1008B0006CED85E03EDD789410926F0310926E032C
:1008C00085E080939E02E0E7F0E080818160808394
:1008D000EFE6F0E0808181608083A4DDBFDDE6E6A5
:1008E000F0E08081845180831081C9E2D0E00F2E36
:1008F000F6E6EF2EF12CF02D60919E0241E081E0B2
:10090000B9DDF70180818F5F80832197A9F78091FE
:10091000B3028093660086DDE0E7F0E080818E7FA1
:100920008083EFE6F0E080818E7F808302DC84E6C6
:1009300091E0E2DBCAEBD2E00F2EFEE5CF2EF3E032
:10094000DF2EF02D0F2EF4E28F2EF4EF9F2EA12C30
:10095000B12CF02D412F50E060E070E08AE0A1DC86
:100960001F5F89E0C1DB7E014991599169917991BD
:100970008AE097DC89E0B8DBF70120813181428190
:100980005381A4E6B0E0D2D3A5019401B3D3BA0158
:10099000A9018AE086DC85E2A7DBCBDB64E685E0A3
:1009A000C8DCCC15DD05B1F684E791E0A5DBE1EC10
:1009B000F0E08081806180839ADC809370038837C7
:1009C00029F48091B302809370033FC000E710E0E8
:1009D000F801808181608083CFE6D0E088818160EA
:1009E000888320DD3BDD809170038093660085E085
:1009F00080939E0260919E0240E080E03BDD60912A
:100A00009E0240E080E036DD60919E0240E080E0A2
:100A100031DD6B017C0106DDF80180818E7F8083F2
:100A200088818E7F8883F7EDCF16F6E0DF06E1043C
:100A3000F1045CF08091B302809366008091B30270
:100A4000809370038FE991E057DBF89480917003F5
:100A50009FDCB8DCDF91CF911F910F91FF90EF9059
:100A6000DF90CF90BF90AF909F908F900895A89502
:100A700084B7877F84BFE0E6F0E08081886180836F
:100A80001082ECE7F0E080818064808385B78F7E00
:100A900085BF14B817B81AB88FEF85B988B98BB964
:100AA000E1EAF2E081EC91E09183808386EC91E0D1
:100AB000938382838BEC91E09583848381ED91E035
:100AC0009783868387ED91E0918780878BED91E016
:100AD000938782878FED91E095878487E1E7F3E044
:100AE0008CE292E09183808383EE91E09383828312
:100AF0008CEF9FE153D3C82F90E0909376038093BF
:100B000075038BEF9FE14AD3282F30E03093B90271
:100B10002093B802C43909F452C028F4C23951F004
:100B2000C33989F1AAC0C53909F465C0C63909F4C9
:100B30008BC0A3C040E058E05093B7024093B60288
:100B400040E051E050939B0240939A02873071F04D
:100B50008A3019F0853009F090C01092B2021092DC
:100B6000B10210929D0210929C0294C086E090E027
:100B70009093B2028093B10281E090E090939D0245
:100B800080939C0287C040E050E15093B7024093AD
:100B9000B60240E052E050939B0240939A028A30A2
:100BA00019F08F3009F069C081E090E09093B202B3
:100BB0008093B10210929D0210929C026BC040E0A3
:100BC00050E25093B7024093B60240E052E0509397
:100BD0009B0240939A02863019F08B3009F04DC089
:100BE00082E090E09093B2028093B10210929D0255
:100BF00010929C024FC040E050E45093B7024093E3
:100C0000B60240E054E050939B0240939A028F302A
:100C100029F0843119F0823081F50BC083E090E037
:100C20009093B2028093B10210929D0210929C02A6
:100C300026C085E090E09093B2028093B1021092BA
:100C40009D0210929C021BC040E050E85093B702F6
:100C50004093B60240E058E050939B0240939A02C2
:100C6000893059F484E090E09093B2028093B1020D
:100C700010929D0210929C020DC0C53959F4223089
:100C8000310521F069E180E069DB07C069E180E0BE
:100C9000EDD903C069E180E061DB80E28093B600BA
:100CA000C6E6D0E088818093A00280E00EDD8881D6
:100CB0008F5F88830F2EF0E7EF2EF12CF02DF701D8
:100CC0008081816080830FE610E0F801808181607F
:100CD0008083A8DBC3DB789440E062E080E0CADB7D
:100CE0002B013C0188818250888340E062E080E0F3
:100CF000C1DB4B015C0196DBF70180818E7F808335
:100D0000F80180818E7F8083F89488818F5F88834B
:100D1000F9EE4F16F3E05F06610471043CF489EECE
:100D2000881683E09806A104B1042CF08BEE91E0C4
:100D3000E3D981E0CADCE1EAF2E081EC91E0918361
:100D4000808386EC91E0938382838BEC91E09583A2
:100D5000848381ED91E09783868387ED91E091878D
:100D600080878BED91E0938782878FED91E0958767
:100D70008487E1E7F3E08CE292E09183808383EE65
:100D800091E0938382838CEF9FE108D2C82F90E09B
:100D900090937603809375038BEF9FE1FFD1282F0B
:100DA00030E03093B9022093B802C43909F452C03C
:100DB00028F4C23951F0C33989F1A9C0C53909F401
:100DC00065C0C63909F48BC0A2C020E038E030937A
:100DD000B7022093B60220E031E030939B022093CB
:100DE0009A02873071F08A3019F0853009F08FC08F
:100DF0001092B2021092B10210929D0210929C02C7
:100E000086C086E090E09093B2028093B10281E0C8
:100E100090E090939D0280939C0279C020E030E1A5
:100E20003093B7022093B60220E032E030939B0269
:100E300020939A028A3019F08F3009F068C081E05F
:100E400090E09093B2028093B10210929D021092B2
:100E50009C025DC020E030E23093B7022093B602DE
:100E600020E032E030939B0220939A02863019F002
:100E70008B3009F04CC082E090E09093B2028093F6
:100E8000B10210929D0210929C0241C020E030E419
:100E90003093B7022093B60220E034E030939B02F7
:100EA00020939A028F3029F0843119F0823079F53D
:100EB0000BC083E090E09093B2028093B102109255
:100EC0009D0210929C0223C085E090E09093B202B4
:100ED0008093B10210929D0210929C0218C020E0F3
:100EE00030E83093B7022093B60220E038E0309328
:100EF0009B0220939A02893051F484E090E0909311
:100F0000B2028093B10210929D0210929C028CE179
:100F100092E0F2D8E091B102F091B202EE0FFF1F21
:100F2000EF55FD4F80819181E7D88091B30230DA8F
:100F300084E392E0E1D84091B30250E060E070E0D9
:100F40008AE0AFD988E492E0D7D8A0D8883729F4CE
:100F50008091B3021DDA36DA01C096DC86E792E0B2
:100F6000CBD880E091E0C8D88FEF9FE117D1482F10
:100F700050E060E070E08AE094D989E0B5D88EEF67
:100F80009FE10CD1482F50E060E070E08AE089D901
:100F90008BE191E0B1D88DEF9FE100D1482F50E077
:100FA00060E070E08AE07DD98CE291E0A5D88DE721
:100FB00092E0A2D86BD899E088E10FB6F894A89592
:100FC000809360000FBE90936000FFCF1F920F923E
:100FD0000FB60F921124CF92DF92EF92FF922F93D0
:100FE0003F934F935F936F937F938F939F93AF93B1
:100FF000BF93EF93FF93E1E8F0E01082A4E8B0E044
:101000002D913C91119711961C921E9281E0808344
:1010100080919E024091B4025091B50290E0481731
:1010200059071CF410929F0236C080919F028130B4
:1010300019F0823031F00BC0C12CD12C7601E39431
:1010400009C0C12CD12C76016894E1F803C0C12CF1
:10105000D12C760140917703509178036091790308
:1010600070917A03C901A0E0B0E08452944FA109C5
:10107000B1098C0D9D1DAE1DBF1D840F951FA61FB0
:10108000B71F8093770390937803A0937903B0936D
:101090007A0310929F028091B4029091B50201965A
:1010A0009093B5028093B402FF91EF91BF91AF91FD
:1010B0009F918F917F916F915F914F913F912F9170
:1010C000FF90EF90DF90CF900F900FBE0F901F908A
:1010D00018951F920F920FB60F9211248F93809143
:1010E0009F028F5F80939F028F910F900FBE0F9092
:1010F0001F901895052E97FB16F400940FD057FDFE
:1011000005D01ED007FC02D046F408C0509540958B
:10111000309521953F4F4F4F5F4F089590958095A3
:10112000709561957F4F8F4F9F4F08952BD0A59F4E
:10113000900DB49F900DA49F800D911D11240895D2
:10114000A1E21A2EAA1BBB1BFD010DC0AA1FBB1FCB
:10115000EE1FFF1FA217B307E407F50720F0A21B3D
:10116000B30BE40BF50B661F771F881F991F1A94AA
:1011700069F760957095809590959B01AC01BD01D4
:10118000CF010895A29FB001B39FC001A39F01D0DA
:10119000B29F700D811D1124911D0895F999FECF04
:1011A00092BD81BDF89A992780B50895262FF999A7
:1011B000FECF1FBA92BD81BD20BD0FB6F894FA9A3A
:0C11C000F99A0FBE01960895F894FFCF35
:1011CC000D0A56616C7565732073617665642074C5
:1011DC006F20454550524F4D2020000955736572C4
:1011EC002076616C75650D0A0909090009094465C9
:1011FC006661756C742076616C75650D0A000D0A5C
:10120C004D616E75616C2063616C3A20706C656128
:10121C00736520776169742035207365636F6E6424
:10122C00730D0A004F534343414C09204572726FB2
:10123C00720D0A000D0A456E746572206E6577207A
:10124C00757365722063616C2076616C7565206FB7
:10125C0072207820746F206573636170652E0009AD
:10126C004368616E67652072656A65637465643A8C
:10127C00206572726F7220746F6F20677265617473
:10128C000034382F500038382F50003136382F505A
:10129C00003332382F5000363434003332410034AE
:1012AC00344100415474696E7920000D0A506F6FFF
:1012BC007220726573756C743A2053656172636841
:1012CC00696E6720666F7220616C7465726E6174F2
:1012DC006976652076616C75650D0A000D0A0D0A3C
:1012EC0043616C6962726174696E672041746D65EB
:1012FC00676120000D0A4E6577204F534343414CE4
:10130C002076616C756520000D0A50726573732030
:10131C0027782720746F2066696E697368206F7256
:10132C0020414F4B20666F72206D616E75616C2091
:10133C0063616C0D0A000D0A54657374000D0A414B
:10134C006C6C20646F6E653A20414B20746F207278
:0A135C0065706561742E0D0A000033
:00000001FF
