:100000000C942A000C9447000C9447000C94470071
:100010000C9447000C94DB070C9447000C944700A9
:100020000C9447000C9454080C9447000C9447001F
:100030000C9447000C9447000C9447000C94470024
:100040000C9447000C9447000C9447000C94470014
:100050000C94470011241FBECFE5D8E0DEBFCDBF12
:1000600011E0A0E6B0E0EEEAF1E102C005900D92E9
:10007000AA3FB107D9F722E0AAEFB1E001C01D9273
:10008000AB3DB207E1F70E941C050C94D5080C9417
:1000900000001AB880BD69B982E08BB988E18AB9DD
:1000A00086E880BD08955F9BFECF8CB1089520E067
:1000B00030E00BC02F5F3F4F21349FE139071CF028
:1000C000815020E030E0882321F05F9BF3CF81E076
:1000D000089580E008950E9453008D3011F08A3019
:1000E00049F481E00E945700882319F08CB18DE01B
:1000F00008958DE008955D9BFECF8CB908950F9310
:100100001F93CF93DF93FC01808181110AC011C03E
:100110008991882371F00E947B000C171D07C1F79D
:1001200008C08F010E947B00E801219608531F4FF1
:10013000EFCFDF91CF911F910F91089586EF91E05E
:100140000E947F0008952F923F924F925F926F928C
:100150007F928F929F92AF92BF92CF92DF92EF9257
:10016000FF920F931F93CF93DF931C012A013B0152
:10017000411551056105704861F52A3019F02031AB
:10018000B9F065C098E3F101908384E3818326E3AD
:10019000228323E323839483858397E39683878352
:1001A00081E3808782E381878DE2828713864FC057
:1001B00080E3F101808381838283838384838583C9
:1001C000868388E387838DE2808711861286138673
:1001D0003EC0E101C1010C96F1011192E817F90747
:1001E000E1F77301620177203CF4CC24DD24760131
:1001F000C418D508E608F70800E010E0822E912C1C
:10020000A12CB12CC701B601A50194010E9465087B
:1002100068836A3018F4605D688302C0695C688333
:100220000F5F1F4FC701B601A50194010E94650829
:1002300069017A012196121613061406150614F3A5
:1002400077202CF4F101E00FF11F8DE28083DF9124
:10025000CF911F910F91FF90EF90DF90CF90BF90C3
:10026000AF909F908F907F906F905F904F903F9056
:100270002F9008950F931F93CF93DF93FC0120815C
:10028000222399F03196C0E0D0E0219621912111EE
:10029000FCCF209751F08C010C0F1D1FF8018291AB
:1002A0008F010E947B002197C9F7DF91CF911F91A9
:1002B0000F910895CF93DF93CDB7DEB72C970FB68C
:1002C000F894DEBF0FBECDBF282FCE0101960E944D
:1002D000A300CE0101960E943A012C960FB6F89425
:1002E000DEBF0FBECDBFDF91CF91089590ED980F87
:1002F0009A3028F091E0883719F090E001C091E041
:10030000892F0895CF93DF930E945300C82F0E9436
:1003100076018823C9F3C837B9F00E949E008C2F5C
:100320000E947B00C0530E946B008D3079F0D0EDAD
:10033000D80FDA30C0F70E947B00CC0F8C2F880FCB
:10034000880FC80FCD0FEFCF88E701C08C2FDF914A
:10035000CF91089562BF83BF08B600FEFDCF88B776
:10036000816088BF13BE08957DBD6CBD9FEF98BFAF
:100370008EBD08B602FEFDCF88B7846088BF1EBC64
:100380000895CF93DF93D82FC62F62EF7CEF85E0DF
:100390000E94B4011AB8D0BDC9B982E08BB988E116
:1003A0008AB986E080BDDF91CF910895CF93C82FA1
:1003B0008091FA019091FB016C2F01970E94C8086F
:1003C0008091FA019091FB016C2F02970E94C8085E
:1003D0008091FA019091FB016091000203970E94C5
:1003E000C808CF91089580E690E00E947F00809138
:1003F000FA019091FB0101970E94C008482F50E03C
:1004000060E070E08AE00E945A0189E00E947B006F
:100410008091FA019091FB0102970E94C008482F39
:1004200050E060E070E08AE00E945A018BE790E0C3
:100430000E947F008091FA019091FB0103970E9436
:10044000C008482F50E060E070E08AE00E945A0146
:100450008CE890E00E947F0008951DBC1CBC1EBC6F
:1004600015BC02B400FCFDCF15BC02B400FCFDCFEE
:1004700014BC02B402FCFDCF089581E085BD02B436
:1004800000FCFDCF81E08EBD08958F929F92AF92C8
:10049000BF92CF92DF92EF92FF920F931F93CF9371
:1004A000623029F0653031F4CAE0EFE005C0C4E005
:1004B000E6E002C0C1E0E2E01092150210921402E0
:1004C0001092D7021092D8021092D9021092DA023A
:1004D000F0E060911402709115026E177F07CCF363
:1004E0001092150210921402C090D702D090D80238
:1004F000E090D902F090DA0241110AC0FF2044F4E2
:10050000F094E094D094C094C11CD11CE11CF11C67
:10051000882311F10091CE021091CF02000F111F1C
:10052000000F111F065E1D4F8C2E912CA12CB12C9B
:10053000C701B601A50194010E946508F801208356
:100540003183428353838091CE029091CF020196F2
:100550009093CF028093CE022C2F30E040E050E009
:10056000C701B6010E946508CA01B901CF911F9168
:100570000F91FF90EF90DF90CF90BF90AF909F9042
:100580008F9008954F925F926F927F92AF92BF9239
:10059000CF92DF92EF920F931F93CF93DF932C01B3
:1005A000EB016A015901FA019081943138F5052C6B
:1005B000000C66087708888181BF40E06E2D80E0DE
:1005C0000E944502F50160837183828393836415E1
:1005D00075058605970554F0888181508883F6015A
:1005E00090819F5F9083943130F308C0F601808141
:1005F000843120F481B7F801808303C0F801808141
:1006000081BFDF91CF911F910F91EF90DF90CF903D
:10061000BF90AF907F906F905F904F9008954F92F2
:100620005F926F927F92AF92BF92CF92DF92EF92E2
:100630000F931F93CF93DF932C01EB016A015901B4
:10064000FA019081943138F5052C000C6608770882
:10065000888181BF40E06E2D80E00E944502F50157
:10066000608371838283938364157505860597057E
:1006700054F088818F5F8883F60190819F5F90831B
:10068000943130F308C0F6018081843120F481B7C1
:10069000F801808303C0F801808181BFDF91CF9191
:1006A0001F910F91EF90DF90CF90BF90AF907F9010
:1006B0006F905F904F900895CF92DF92EF920F93DB
:1006C0001F93CF93DF93CDB7DEB727970FB6F8947C
:1006D000DEBF0FBECDBFE82E1B8254986DE771EED2
:1006E00085E00E94B401789481E08093FE0189B78F
:1006F000806489BF89B7846089BF0E942D020E94EF
:100700003D02E1109BC081EF89838EE20E947B0055
:1007100089818150898381BF6091FE0140E080E042
:100720000E9445026C837D838E839F832981213EB5
:1007300060F7683E7340810591053CF781B78B8374
:100740001A8285E08093FE010F2EF8EECF2EF3E0A3
:10075000DF2EF02D8EE20E947B0084E6C81AD108BD
:10076000E090FE018E010D5F1F4F9E012C5F3F4FF9
:10077000AE014E5F5F4FBE016F5F7F4FC6010E94AB
:10078000C20224E6C216D10429F740C08EE20E94BC
:100790007B0089818F5F898381BF6091FE0140E08A
:1007A00080E00E9445026C837D838E839F83298134
:1007B000203260F3683E7340810591053CF781B7B4
:1007C0008B831A8285E08093FE010F2EF8EECF2EE8
:1007D000F3E0DF2EF02D8EE20E947B0084E6C81A43
:1007E000D108E090FE018E010D5F1F4F9E012C5F2E
:1007F0003F4FAE014E5F5F4FBE016F5F7F4FC6013F
:100800000E940F0324E6C216D10429F76091FE016D
:1008100040E080E00E9445026C837D838E839F834D
:1008200081B7809313020E942D0289B78F7B89BF05
:1008300089B78B7F89BF549AF89403C08FE089836E
:10084000A5CF27960FB6F894DEBF0FBECDBFDF91C0
:10085000CF911F910F91EF90DF90CF9008958F92DD
:100860009F92AF92BF92CF92DF92EF92FF921F932F
:10087000CF93DF9354988EE990E00E947F006CED57
:1008800085E00E94AA0178941092CF021092CE02C5
:1008900085E08093FE0189B7806489BF89B7846051
:1008A00089BF0E942D020E943D0281B7845181BF01
:1008B00011B7C9E2D0E06091FE0141E081E00E9401
:1008C000450281B78F5F81BF2197A9F780911302FD
:1008D00081BF0E942D0289B78F7B89BF89B78B7F2B
:1008E00089BF0E949E0084EC90E00E947F00CAE1D4
:1008F000D2E00F2EFEEBCF2EF2E0DF2EF02D0F2EEA
:10090000F4E28F2EF4EF9F2EA12CB12CF02D412F6D
:1009100050E060E070E08AE00E945A011F5F89E0C9
:100920000E947B007E0149915991699179918AE0F9
:100930000E945A0189E00E947B00F70120813181E9
:1009400042815381A4E6B0E00E948408A50194018D
:100950000E946508BA01A9018AE00E945A0185E255
:100960000E947B000E949E0064E685E00E94AA012E
:10097000CC15DD0561F684ED90E00E947F00549A6D
:100980000E9482018093D002883729F4809113025B
:100990008093D0023EC089B7806489BF89B78460E4
:1009A00089BF0E942D020E943D028091D00281BF2A
:1009B00085E08093FE016091FE0140E080E00E94AE
:1009C00045026091FE0140E080E00E944502609196
:1009D000FE0140E080E00E9445026B017C010E9424
:1009E0002D0289B78F7B89BF89B78B7F89BFF7EDD0
:1009F000CF16F6E0DF06E104F1045CF0809113020B
:100A000081BF809113028093D0028FEF90E00E940B
:100A10007F00F8948091D0020E94D6010E94F301D9
:100A2000DF91CF911F91FF90EF90DF90CF90BF901B
:100A3000AF909F908F900895A89584B7877F84BFCB
:100A400081B5886181BD11BC3E9A85B78B7F85BF1A
:100A500017BA14BA11BA8FEF88BB85BB82BBE1E02D
:100A6000F2E081E291E09183808386E291E09383DA
:100A700082838BE291E09583848381E391E0978385
:100A8000868387E391E0918780878BE391E093876A
:100A900082878FE391E095878487E1EDF2E08CE82F
:100AA00091E09183808383E491E0938382838CEF50
:100AB0009FE10E94C008C82F90E09093D6028093D7
:100AC000D5028BEF9FE10E94C008282F30E03093C1
:100AD000190220931802C43909F452C028F4C2390B
:100AE00051F0C33989F1AAC0C53909F465C0C639C6
:100AF00009F48BC0A3C040E058E050931702409324
:100B0000160240E051E05093FB014093FA01873018
:100B100071F08A3019F0853009F090C010921202FD
:100B2000109211021092FD011092FC0196C086E015
:100B300090E0909312028093110281E090E09093F4
:100B4000FD018093FC0189C040E050E15093170201
:100B50004093160240E052E05093FB014093FA01AB
:100B60008A3019F08F3009F069C081E090E09093ED
:100B70001202809311021092FD011092FC016DC0CF
:100B800040E050E2509317024093160240E052E0DA
:100B90005093FB014093FA01863019F08B3009F035
:100BA0004DC082E090E09093120280931102109267
:100BB000FD011092FC0151C040E050E45093170237
:100BC0004093160240E054E05093FB014093FA0139
:100BD0008F3029F0843119F0823081F50BC083E029
:100BE00090E090931202809311021092FD011092F6
:100BF000FC0126C085E090E09093120280931102E0
:100C00001092FD011092FC011BC040E050E850938F
:100C100017024093160240E058E05093FB014093C6
:100C2000FA01893059F484E090E0909312028093A5
:100C300011021092FD011092FC010FC0C53969F438
:100C40002230310529F069E180E00E94C10109C02C
:100C500069E180E00E94490004C069E180E00E94EF
:100C6000C10188E082BD81B78093000280E00E94CC
:100C70005C0381B78F5F81BF89B7806489BF89B703
:100C8000846089BF0E942D020E943D02789440E05A
:100C900062E080E00E9445024B015C0181B7825016
:100CA00081BF40E062E080E00E9445026B017C0170
:100CB0000E942D0289B78F7B89BF89B78B7F89BF3F
:100CC000F89481B78F5F81BF89EE881683E098061C
:100CD000A104B1043CF489EEC81683E0D806E1040F
:100CE000F1043CF08BE491E00E947F0081E00E94DF
:100CF0005C03E1E0F2E081E291E09183808386E2AF
:100D000091E0938382838BE291E09583848381E3F6
:100D100091E09783868387E391E0918780878BE3D7
:100D200091E0938782878FE391E095878487E1ED57
:100D3000F2E08CE891E09183808383E491E09383F7
:100D400082838CEF9FE10E94C008C82F90E09093AF
:100D5000D6028093D5028BEF9FE10E94C008282F16
:100D600030E03093190220931802C43909F452C0BC
:100D700028F4C23951F0C33989F1A9C0C53909F441
:100D800065C0C63909F48BC0A2C020E038E03093BA
:100D900017022093160220E031E03093FB012093EC
:100DA000FA01873071F08A3019F0853009F08FC070
:100DB00010921202109211021092FD011092FC0189
:100DC00086C086E090E0909312028093110281E049
:100DD00090E09093FD018093FC0179C020E030E128
:100DE000309317022093160220E032E03093FB018B
:100DF0002093FA018A3019F08F3009F068C081E041
:100E000090E090931202809311021092FD011092D3
:100E1000FC015DC020E030E23093170220931602FF
:100E200020E032E03093FB012093FA01863019F084
:100E30008B3009F04CC082E090E0909312028093D6
:100E400011021092FD011092FC0141C020E030E43B
:100E5000309317022093160220E034E03093FB0118
:100E60002093FA018F3029F0843119F0823079F51E
:100E70000BC083E090E090931202809311021092D5
:100E8000FD011092FC0123C085E090E090931202D6
:100E9000809311021092FD011092FC0118C020E015
:100EA00030E8309317022093160220E038E03093A8
:100EB000FB012093FA01893051F484E090E0909393
:100EC0001202809311021092FD011092FC018CE736
:100ED00091E00E947F00E0911102F0911202EE0F6A
:100EE000FF1FEF5FFD4F808191810E947F00809105
:100EF00013020E94D60184E991E00E947F00409194
:100F0000130250E060E070E08AE00E945A0188EA33
:100F100091E00E947F000E945300883739F480914D
:100F200013020E94D6010E94F30102C00E942F0406
:100F300086ED91E00E947F0080E690E00E947F00B5
:100F40008FEF9FE10E94C008482F50E060E070E002
:100F50008AE00E945A0189E00E947B008EEF9FE1A7
:100F60000E94C008482F50E060E070E08AE00E94D4
:100F70005A018BE790E00E947F008DEF9FE10E9475
:100F8000C008482F50E060E070E08AE00E945A01FB
:100F90008CE890E00E947F008DED91E00E947F0040
:100FA0000E94530099E088E10FB6F894A89581BD9E
:100FB0000FBE91BDFFCF1F920F920FB60F9211245B
:100FC000CF92DF92EF92FF922F933F934F935F93D5
:100FD0006F937F938F939F93AF93BF931EBC2CB55A
:100FE0003DB51DBC1CBC81E08EBD8091FE014091D1
:100FF00014025091150290E0481759071CF4109202
:10100000FF0136C08091FF01813019F0823031F04C
:101010000BC0C12CD12C7601E39409C0C12CD12C7A
:1010200076016894E1F803C0C12CD12C760140917F
:10103000D7025091D8026091D9027091DA02C901A9
:10104000A0E0B0E08452944FA109B1098C0D9D1D20
:10105000AE1DBF1D840F951FA61FB71F8093D7021B
:101060009093D802A093D902B093DA021092FF01B4
:10107000809114029091150201969093150280932D
:101080001402BF91AF919F918F917F916F915F916A
:101090004F913F912F91FF90EF90DF90CF900F9065
:1010A0000FBE0F901F9018951F920F920FB60F92C0
:1010B00011248F938091FF018F5F8093FF018F91A7
:1010C0000F900FBE0F901F901895052E97FB1EF4E2
:1010D00000940E947C0857FD07D00E948F0807FCEF
:1010E00003D04EF40C947C08509540953095219592
:1010F0003F4F4F4F5F4F0895909580957095619544
:101100007F4F8F4F9F4F08950E94B108A59F900D6C
:10111000B49F900DA49F800D911D11240895A1E20C
:101120001A2EAA1BBB1BFD010DC0AA1FBB1FEE1F61
:10113000FF1FA217B307E407F50720F0A21BB30BAC
:10114000E40BF50B661F771F881F991F1A9469F728
:1011500060957095809590959B01AC01BD01CF0184
:101160000895A29FB001B39FC001A39F700D811D80
:101170001124911DB29F700D811D1124911D0895A0
:10118000E199FECF9FBB8EBBE09A99278DB308955E
:10119000262FE199FECF9FBB8EBB2DBB0FB6F894D7
:0E11A000E29AE19A0FBE01960895F894FFCFEF
:1011AE000D0A56616C7565732073617665642074E3
:1011BE006F20454550524F4D2020000955736572E2
:1011CE002076616C75650D0A0909090009094465E7
:1011DE006661756C742076616C75650D0A000D0A7A
:1011EE004D616E75616C2063616C3A20706C656147
:1011FE00736520776169742035207365636F6E6443
:10120E00730D0A004F534343414C09204572726FD0
:10121E00720D0A000D0A456E746572206E65772098
:10122E00757365722063616C2076616C7565206FD5
:10123E0072207820746F206573636170652E0009CB
:10124E004368616E67652072656A65637465643AAA
:10125E00206572726F7220746F6F20677265617491
:10126E000034382F500038382F50003136382F5078
:10127E00003332382F5000363434003332410034CC
:10128E00344100415474696E7920000D0A506F6F1D
:10129E007220726573756C743A205365617263685F
:1012AE00696E6720666F7220616C7465726E617410
:1012BE006976652076616C75650D0A000D0A0D0A5A
:1012CE0043616C6962726174696E672041746D6509
:1012DE00676120000D0A4E6577204F534343414C02
:1012EE002076616C756520000D0A5072657373204F
:1012FE0027782720746F2066696E697368206F7275
:10130E0020414F4B20666F72206D616E75616C20AF
:10131E0063616C0D0A000D0A54657374000D0A4169
:10132E006C6C20646F6E653A20414B20746F207296
:0A133E0065706561742E0D0A000051
:00000001FF
