:100000000C9434000C9451000C9451000C94510049
:100010000C9451000C9451000C9451000C9451001C
:100020000C9451000C9451000C9451000C9451000C
:100030000C9451000C9451000C9451000C945100FC
:100040000C9451000C9451000C9451000C945100EC
:100050000C9451000C9451000C9451000C945100DC
:100060000C9451000C94510011241FBECFEFD4E02A
:10007000DEBFCDBF12E0A0E0B1E0E8ECF7E102C0E6
:1000800005900D92A836B107D9F712E0A8E6B2E0C4
:1000900001C01D92A237B107E1F70E9446080C94F7
:1000A000E20B0C940000E1ECF0E010828093C500BC
:1000B0006093C40082E08093C00088E1808386E082
:1000C0008093C200089520E030E003C000002F5F5D
:1000D0003F4F82179307D4F7089566BD85BDA89B4F
:1000E000FECFA89A15BC08950F931F93CF93DF936B
:1000F0008C01C0E0D0E005C085E062EB0E946D009D
:100100002196C017D107C4F3DF91CF911F910F91B2
:100110000895EEE6F0E090819160908366BD85BD24
:100120000895EFE6F0E080818160808382E0809333
:100130008100089570938500609384009FEF96BBC3
:1001400080938100B09BFECFB09A109281000895F9
:10015000EFE6F0E09081916090837093850060936A
:1001600084008093810008956093B2008093B10071
:10017000B89BFECFB89A1092B100089584E48093A2
:10018000BC008091BC0087FFFCCF8091BB00109227
:10019000BB0084EC8093BC008091BC0087FFFCCF47
:1001A00086E48093BB0084E88093BC008091BC000F
:1001B00087FFFCCF84E88093BC008091BC00816401
:1001C0008093BC0008958091C00087FFFCCF089504
:1001D0008091C00087FFFCCF8091C6000895809178
:1001E000C6000895982F20E030E00EC02F5F3F4FEB
:1001F0008FE12134380724F09150A89520E030E0B9
:10020000992311F480E008958091C00087FFEECF1C
:1002100081E008958091C00087FFFCCF8091C600E7
:100220008D3011F08A3051F481E00E94F200882371
:1002300011F48DE008958091C6008DE0089585E069
:100240000E94F200813019F48091C600F8CF089521
:10025000982F8091C00085FFFCCF9093C600089531
:10026000AC0120E030E0FA01E20FF31FE081EE2361
:1002700059F02F5F3F4F8091C00085FFFCCFE09386
:10028000C600283C310579F7089580E091E00E948E
:10029000300108951F931EE285E00E94F200813034
:1002A00049F48091C6008091C00085FFFCCF109377
:1002B000C600F2CF0E9445011F9108952F923F92F0
:1002C0004F925F926F927F928F929F92AF92BF9266
:1002D000CF92DF92EF92FF920F931F93CF93DF9312
:1002E000EC015A016B01403080E0580780E068075C
:1002F00080E8780751F52A3021F0203109F06CC0F0
:1003000014C028E3288394E3998386E38A8383E3F4
:100310008B832C839D8387E38E839F8381E38887F0
:1003200082E389878DE28A870EC080E38883898390
:100330008A838B838C838D838E8388E38F838DE286
:10034000888719861A861B8647C080E090E0FE01E8
:10035000E80FF91F108201968C309105C1F78601D4
:100360007501D7FE07C0EE24FF248701EA18FB08B9
:100370000C091D094E0166247724222E33244424BF
:100380005524C801B701A20191010E949D0BF401FF
:1003900060836A3010F4605D02C0695CF4016083C0
:1003A0000894611C711CC801B701A20191010E944F
:1003B0009D0BC901DA017C018D010894811C911CFF
:1003C0001E141F0410061106E4F2D7FE05C06C0EC1
:1003D0007D1E8DE2F3018083DF91CF911F910F91FC
:1003E000FF90EF90DF90CF90BF90AF909F908F9055
:1003F0007F906F905F904F903F902F900895AC0149
:1004000020E030E002C02F5F3F4FFA01E20FF31F00
:1004100080818823C1F721503040FA01E20FF31F99
:100420002F5F3F4F0AC090818091C00085FFFCCFB5
:100430009093C6002150304031972115310599F72E
:1004400008950F931F93DF93CF93CDB7DEB72C970B
:100450000FB6F894DEBF0FBECDBF282F8E010F5F01
:100460001F4FC8010E945E01C8010E94FF012C9627
:100470000FB6F894DEBF0FBECDBFCF91DF911F91B5
:100480000F91089590E080538A3008F491E0892F0D
:100490000895803328F08A3328F08154863010F094
:1004A00080E0089581E008951F93182F87FF10C002
:1004B00083E091E00E943001412F552747FD509580
:1004C000509541955F4F662757FD6095762F0AC07E
:1004D00087E091E00E943001412F552747FD50955C
:1004E000652F752F8AE00E9421021F910895AF9217
:1004F000BF92CF92DF92EF92FF920F931F93CF9311
:10050000DF937A018B0160E070E0FC01E60FF71FDA
:1005100010826F5F7F4F6C307105B9F7EC01A22E2E
:10052000BB24CC24DD24C801B701A60195010E949B
:100530007B0B68836A3010F4605D01C0695C68837E
:10054000C801B701A60195010E947B0BC901DA0120
:100550007C018D012196E114F1040105110519F7C3
:10056000DF91CF911F910F91FF90EF90DF90CF908F
:10057000BF90AF9008950F931F93DF93CF93CDB7A4
:10058000DEB72C970FB6F894DEBF0FBECDBF282F75
:100590008E010F5F1F4FC8010E947702C8010E94A1
:1005A000FF012C960FB6F894DEBF0FBECDBFCF91E2
:1005B000DF911F910F910895AF92BF92CF92DF927A
:1005C000EF92FF920F931F93CF93DF935A010196FF
:1005D000689F7001699FF00C789FF00C11240197BF
:1005E000689F8001699F100D789F100D112462E0B3
:1005F00070E04CEF5FEF6801C094D09431C02F5F82
:100600003F4FE60FF71FCF01861B970B08171907FF
:10061000B4F7260F371F269FD001279FB00D369FB6
:10062000B00D1124EB01CC0FDD1F9D012C0D3D1DE4
:10063000220F331F2A0D3B1D05C0F901E40FF51FE2
:1006400011821082A60FB71F2C0F3D1FCD01861BF4
:10065000970BE816F9068CF76F5F7F4F42505040BA
:10066000669FC001679F900D769F900D11248E1597
:100670009F0524F4FC0120E030E0C3CFDF91CF914F
:100680001F910F91FF90EF90DF90CF90BF90AF90B0
:100690000895AF92BF92CF92DF92EF92FF920F93A5
:1006A0001F93CF93DF936A010196689F7001699F42
:1006B000F00C789FF00C11240197689F8001699FCE
:1006C000100D789F100D112462E070E0CCEFDFEF89
:1006D0005801A094B0943CC04F5F5F4FF901260FC2
:1006E000371FC901861B970B08171907ACF73197FD
:1006F000E01BF10BEE0FFF1FEC0DFD1D80819181C2
:10070000892B19F1460F571F469FD001479FB00D07
:10071000569FB00D1124AB01440F551F9D012A0DAA
:100720003B1D220F331F2C0D3D1D05C0F901EC0FA1
:10073000FD1F11821082A60FB71F240F351FCD0198
:10074000861B970BE816F9068CF76F5F7F4F229791
:10075000669FC001679F900D769F900D11248E15A6
:100760009F0524F49C0140E050E0B8CFDF91CF9189
:100770001F910F91FF90EF90DF90CF90BF90AF90BF
:1007800008954F925F926F927F928F929F92AF9255
:10079000BF92CF92DF92EF92FF920F931F93DF935E
:1007A000CF93CDB7DEB764970FB6F894DEBF0FBE18
:1007B000CDBF3C01CC24DD24EE24FF244E0108945F
:1007C000811C911C15E1412E512C4C0E5D1E5401D3
:1007D000C7010196F401819391930196E415F50503
:1007E000D1F7C6016AE070E0A4010E94DC0200E0DB
:1007F00010E002C00F5F1F4FF501819191915F01E1
:10080000892BC1F3F801EE0FFF1FE80DF91D0EC093
:10081000208131812230310534F0C301B9010E94B9
:10082000680B892B99F00F5F1F4F32960B30110523
:100830007CF36E147F0444F00894C11CD11C8AE040
:1008400090E0E80EF91EC3CF20E030E0C9016496C5
:100850000FB6F894DEBF0FBECDBFCF91DF911F91D1
:100860000F91FF90EF90DF90CF90BF90AF909F904F
:100870008F907F906F905F904F900895982F84E4B1
:100880008093BC008091BC0087FFFCCF8091BB00AF
:100890001092BB0084EC8093BC008091BC0087FF69
:1008A000FCCF9093BB0084E88093BC008091BC0097
:1008B00087FFFCCF80E88093BC00089588E40E9405
:1008C0003E0484E48093BC008091BC0087FFFCCF91
:1008D0008091BB0024EC2093BC008091BC0087FF7A
:1008E000FCCF9091BB00992339F08091C00085FF27
:1008F000FCCF9093C600EFCF84E88093BC0080913A
:10090000BC0087FFFCCF8091BB0080E88093BC00D7
:100910000895FF920F931F938BE091E00E943001A6
:100920008AEF0E94F2008823B9F38091C600809379
:100930006B02823511F0823779F780E091E00E94F6
:10094000300182E50E943E0482E191E00E94300184
:1009500084E48093BC008091BC0087FFFCCF809131
:10096000BB0084EC8093BC008091BC0087FFFCCF6F
:10097000F090BB0084EC8093BC008091BC0087FFAA
:10098000FCCF9091BB0084E88093BC008091BC00B8
:1009900087FFFCCF8091BB00192F00E0080F111DCD
:1009A00080E88093BC0087E391E00E9430014F2DE6
:1009B00050E060E070E08AE00E9421028EE491E065
:1009C0000E943001A801662757FD6095762F8AE0C6
:1009D0000E9421020E5E124024F484E691E00E94FF
:1009E00030011F910F91FF900895782F84E4809338
:1009F000BC008091BC0087FFFCCF8091BB0070934E
:100A0000BB0084EC8093BC008091BC0087FFFCCFCE
:100A10006093BB0084EC8093BC008091BC0087FF96
:100A2000FCCFFA0120E030E0472F50E0BA016150DE
:100A30007040A4EC94E818C080812617370749F469
:100A40008093BB009093BC008091BC0087FFFCCFDB
:100A500008C08093BB00A093BC008091BC0087FFBE
:100A6000FCCF2F5F3F4F3196241735072CF380E8DA
:100A70008093BC000895DF93CF930F92CDB7DEB77C
:100A80001E9903C081E0898301C0198281E061E57C
:100A9000AE014F5F5F4F0E94F5040F90CF91DF9141
:100AA0000895DF93CF9300D0CDB7DEB7982F4A8358
:100AB000698382E0692FAE014F5F5F4F0E94F504AA
:100AC0000F900F90CF91DF910895DF93CF9300D0D7
:100AD000CDB7DEB789836A8382E065E0AE014F5F00
:100AE0005F4F0E94F5040F900F90CF91DF91089512
:100AF000DF93CF9300D0CDB7DEB7982F698381E025
:100B0000692FAE014F5F5F4F0E94F5040F900F9069
:100B1000CF91DF910895982FAB0188E0692F0E9453
:100B2000F5040895AC0188E067E40E94F504089597
:100B3000982FAB0188E0692F0E94F5040895AC015D
:100B400088E064E00E94F5040895DF93CF9300D01D
:100B5000CDB7DEB781E689831A8282E062E0AE011A
:100B60004F5F5F4F0E94F5040F900F90CF91DF9180
:100B70000895DF93CF9300D0CDB7DEB789836A8322
:100B800082E063E0AE014F5F5F4F0E94F5040F907B
:100B90000F90CF91DF910895DF93CF9300D000D0D5
:100BA000CDB7DEB74C81FB815A81E98120E030E08E
:100BB0002130310581F02230310524F42115310531
:100BC00041F00EC02230310541F02330310541F4AF
:100BD00006C0E82F05C0592F03C0F62F01C0472FCC
:100BE0002F5F3F4F2430310519F74C83FB835A8325
:100BF000E98384E061E0AE014F5F5F4F0E94F5043E
:100C00000F900F900F900F90CF91DF9108950F9359
:100C10001F93DF93CF930F92CDB7DEB7198280E099
:100C200090E005C001962AEE80369207E1F01A9B0B
:100C3000F9CF19C0822F90E0019683709070282F11
:100C40008823A9F0898381E061E5A8010E94F50469
:100C50008CEC9CEC63E373E30E94CC0582E390E0B0
:100C60000E94740003C08E010F5F1F4F29811A9BE1
:100C7000E1CF0F90CF91DF911F910F910895809355
:100C8000BB0084EC8093BC008091BC0087FFFCCF4C
:100C900008958093BB0084E88093BC008091BC00E1
:100CA00087FFFCCF089584EC8093BC008091BC004A
:100CB00087FFFCCF8091BB00089584E88093BC003F
:100CC0008091BC0087FFFCCF8091BB000895CF933B
:100CD000DF93FC01EB0184E48093BC008091BC00B5
:100CE00087FFFCCF8091BB0020E030E054EC5093B4
:100CF000BC008091BC0087FFFCCF4091BB0037FD5A
:100D000020C02330310524F023303105D1F40DC04B
:100D100080819181A281B381840F911DA11DB11D9C
:100D2000BA2FA92F982F882708C080819181A2818E
:100D3000B381840F911DA11DB11D80839183A28376
:100D4000B3832F5F3F4F2430310589F684E88093C9
:100D5000BC008091BC0087FFFCCF8091BB008883E2
:100D600080E88093BC00DF91CF910895CF93DF930B
:100D7000EC01CE0121960E94CC0B982F882339F0EC
:100D80008091C00085FFFCCF9093C600F2CF0E94F7
:100D90004501DF91CF9108950F931F93CF93DF9378
:100DA0008C01EB018EEF91E00E94CC0BF801808367
:100DB0008FEF91E00E94CC0B8883F801408150E0D6
:100DC00060E070E080E10E9421028091C00085FF18
:100DD000FCCF80E28093C600488150E060E070E084
:100DE00080E10E942102DF91CF911F910F91089520
:100DF000CF93DF93EC01CE0121960E94CC0B982F6C
:100E0000882339F08091C00085FFFCCF9093C60005
:100E1000F2CF0E944501DF91CF910895FC018081BE
:100E2000918101969183808301970E94CC0B089554
:100E30000E94CC0B0895EF92FF921F93CF93DF9304
:100E40007C01009711F09C010DC083EF93E00E949C
:100E5000CC0B182F82EF93E00E94CC0B312F20E0B7
:100E6000280F311DE901D695C795D695C795C901BB
:100E7000E3E096958795EA95E1F7C827D927C22739
:100E8000D327C90175E0969587957A95E1F7C8272C
:100E9000D927DD27C695D795CC2736952795C22B20
:100EA000D32BEF2851F483EF93E06D2F0E94D40BE6
:100EB00082EF93E06C2F0E94D40BCE01DF91CF9193
:100EC0001F91FF90EF90089580E090E00E941B0733
:100ED000BC01660F771F0E94CC0583E062E67EE9C5
:100EE0000E949A00F1CF1F9383EF93E00E94CC0BF6
:100EF000182F16951695982F9695969596951927CD
:100F00001827982F92959F701927179511271795D5
:100F10008695182B83EF93E0612F0E94D40B812FCD
:100F20001F910895EF92FF921F93CF93DF937C015F
:100F3000009711F09C010DC08BEF91E00E94CC0B4B
:100F4000182F8AEF91E00E94CC0B312F20E0280F60
:100F5000311DE901D695C795D695C795C90153E0CE
:100F6000969587955A95E1F7C827D927C227D327A1
:100F7000C90145E0969587954A95E1F7C827D92795
:100F8000DD27C695D795CC2736952795C22BD32B31
:100F9000EF2851F48BEF91E06D2F0E94D40B8AEF74
:100FA00091E06C2F0E94D40BCE01DF91CF911F9165
:100FB000FF90EF90089580E090E00E949207BC01BE
:100FC000660F771F0E94CC0583E062E67EE90E94EF
:100FD0009A00F1CF1F938BEF91E00E94CC0B182F5A
:100FE00016951695982F96959695969519271827E4
:100FF000982F92959F701927179511271795869509
:10100000182B8BEF91E0612F0E94D40B812F1F9141
:1010100008951F93282F162F8EEF91E0622F0E94C4
:10102000D40B8FEF91E0612F0E94D40B8EEF91E0F3
:101030000E94CC0B482F50E060E070E080E10E94FD
:1010400021028091C00085FFFCCF80E28093C60022
:101050008FEF91E00E94CC0B482F50E060E070E0F1
:1010600080E10E9421021F9108950F931F938C012C
:10107000FC01808191810E94D40BF80180819181D3
:101080000196918380831F910F910895DF92EF92D3
:10109000FF920F931F93DF93CF9300D0CDB7DEB7AE
:1010A0008AE090E09A83898380E88093610011E070
:1010B000109361008CEF93E00E94CC0B80936E0242
:1010C00080FF07C010936E0284EF93E060E00E94FF
:1010D000D40B80916E0283FF03C081E0809368028D
:1010E000A8958091600088618093600010926000F4
:1010F00012E01093BA0080917C00806480937C00A1
:1011000085B78F7E85BF8AB18B778AB98BB18468AA
:101110008BB926982E9A85B78F7E85BF84B18B7741
:1011200084B987B1887F87B98AB187788AB985B150
:10113000846885B988B1876088B98BB188678BB9B5
:1011400085E090E00E9474001092C1001092C500EA
:1011500080E18093C4001093C00088E18093C100B7
:1011600086E08093C20084EF93E00E94CC0B8F3F17
:1011700029F484EF93E060E00E94D40B84EF93E0C5
:101180000E94CC0B8034A1F400E010E080E091E0FC
:101190000E9430010F5F1F4F0A301105B9F78BE62F
:1011A00091E00E94300184EF93E061E40E94D40B4F
:1011B00084EF93E00E94CC0B682F86FF12C060681A
:1011C00084EF93E00E94D40B00E010E080E091E017
:1011D0000E9430010F5F1F4F04301105B9F70C94C6
:1011E00000361A9904C04A9902C00E9407064A991B
:1011F00004C04F9902C00E9489048CE991E00E94CA
:1012000030018091C00087FFFCCF0091C600802F85
:101210008153823070F00E94450129E088E190E01E
:101220000FB6F894A895809360000FBE20936000DD
:10123000FFCF82EB91E00E9430018BE091E00E94B1
:1012400030018AEF0E94F2008823B9F31091C600A2
:10125000123511F0123789F780E091E00E943001D9
:10126000123709F0DCC0013309F07AC08AE090E05F
:101270000E94B6068091C00087FFFCCF8091C60017
:1012800086E190E00E94F8068091C00087FFFCCFC5
:101290008091C6008AE390E00E94B6068091C0006B
:1012A00087FFFCCF8091C60084E690E00E94F8069C
:1012B0008091C00087FFFCCF8091C6008EE990E04E
:1012C0000E94B6068091C00087FFFCCF8091C600C7
:1012D0008EED90E00E94F8068091C00087FFFCCF61
:1012E0008091C60084E191E00E94B6068091C00022
:1012F00087FFFCCF8091C60082E491E00E94F8064F
:101300008091C00087FFFCCF8091C60085E891E006
:101310000E94B6068091C00087FFFCCF8091C60076
:101320008BEC91E00E94F8068091C00087FFFCCF13
:101330008091C60081EF91E00E94B6068091C000C6
:1013400087FFFCCF8091C60029E088E190E00FB6CE
:10135000F894A895809360000FBE20936000FFCFA3
:10136000023309F05CC08AE090E00E94F8068091A8
:10137000C00087FFFCCF8091C60086E190E00E940C
:10138000B6068091C00087FFFCCF8091C6008AE13D
:1013900090E00E94F8068091C00087FFFCCF80910A
:1013A000C6008FE190E00E94B6068091C00087FFE2
:1013B000FCCF8091C60085E290E00E94F806809103
:1013C000C00087FFFCCF8091C6008AE290E00E94B7
:1013D000B6068091C00087FFFCCF8091C60083E3F2
:1013E00090E00E94B6068091C00087FFFCCF8091FC
:1013F000C60087E390E00E94F8068091C00087FF56
:10140000FCCF8091C60029E088E190E00FB6F89407
:10141000A895809360000FBE20936000FFCF8BEEF5
:1014200091E00E9430011092C10081E08093C500DC
:1014300080EA8093C40082E08093C00088E18093BA
:10144000C10086E08093C2008091C00087FFFCCF7E
:101450008091C600013319F0023349F403C08BE0D8
:1014600092E002C081E292E00E9430010CC029E0CB
:1014700088E190E00FB6F894A895809360000FBEC5
:1014800020936000FFCF8091C00087FFFCCFE090E9
:10149000C6008DE0E816B9F38AE0E816A1F38AE009
:1014A00090E06E2D0E94D40B0BE010E081E00E94D2
:1014B000F200882351F1F090C6008AE0F81619F086
:1014C0008DE0F81651F4EE2079F0C80160E00E943A
:1014D000D40B0F5F1F4FEE2407C0C8016F2D0E9471
:1014E000D40B0F5F1F4FEF2C81E0063F1807F4F27B
:1014F00081E0063F180749F486EF91E060E00E9422
:10150000D40B0E944A0107EF11E049815A816627F6
:1015100057FD6095762F80E10E9421028091C000E6
:1015200085FFFCCF89E08093C6007E010894E11C12
:10153000F11CF9E0DF2EC7010E940E07982F8823C7
:1015400039F08091C00085FFFCCF9093C600F3CFA7
:101550000E94450149815A81662757FD6095762F83
:1015600080E10E9421028091C00085FFFCCFD092D3
:10157000C60089819A8180179107ECF287E392E097
:101580000E9430011092C1001092C50080E180934A
:10159000C40082E08093C00088E18093C10086E0AF
:1015A0008093C2008091C00087FFFCCF8091C6006D
:1015B00029E088E190E00FB6F894A8958093600048
:1015C0000FBE20936000FFCF0E94D40B08954F926E
:1015D0005F926F927F928F929F92AF92BF92CF92C3
:1015E000DF92EF92FF920F931F93DF93CF93CDB7CC
:1015F000DEB74C017B014DB65EB6CB01880F991F5B
:101600002DB73EB7281B390B0FB6F8943EBF0FBE5F
:101610002DBF8DB79EB701963C01AA24BB24CC24D4
:10162000DD248301F30120E030E007C02F5F3F4F4E
:10163000C9018C0D9D1D819391932E153F05B4F327
:10164000C501B701A3010E94DC0220E030E018C010
:10165000D801ED91FC91E230F10574F0C401BF01B5
:101660000E94680B892B41F420E030E0E815F90571
:10167000C1F421E030E015C02F5F3F4F0E5F1F4FD8
:101680002E153F052CF3CE0CDF1CC6018E199F09C9
:101690008816990624F00894A11CB11CC2CF20E042
:1016A00030E0C9010FB6F8945EBE0FBE4DBECF91BB
:1016B000DF911F910F91FF90EF90DF90CF90BF903F
:1016C000AF909F908F907F906F905F904F90089514
:1016D00097FB092E07260AD077FD04D049D006D003
:1016E00000201AF4709561957F4F0895F6F7909554
:1016F00081959F4F0895A1E21A2EAA1BBB1BFD01E5
:101700000DC0AA1FBB1FEE1FFF1FA217B307E407E0
:10171000F50720F0A21BB30BE40BF50B661F771F38
:10172000881F991F1A9469F7609570958095909518
:101730009B01AC01BD01CF01089597FB092E052641
:101740000ED057FD04D0D7DF0AD0001C38F45095D6
:101750004095309521953F4F4F4F5F4F0895F6F7D5
:1017600090958095709561957F4F8F4F9F4F08950D
:10177000AA1BBB1B51E107C0AA1FBB1FA617B707B7
:1017800010F0A61BB70B881F991F5A95A9F78095D3
:101790009095BC01CD010895F999FECF92BD81BD10
:1017A000F89A992780B50895262FF999FECF1FBA88
:1017B00092BD81BD20BD0FB6F894FA9AF99A0FBE7A
:0817C00001960895F894FFCF93
:1017C8000D0A0020452D0020452B00523F202020E7
:1017D80020000D0A5043425F4120286D696E695F01
:1017E8004F5329206465766963652063616C69627B
:1017F800726174696E67000D0A4F534343414C2070
:10180800757365722076616C7565202020000D0A5D
:1018180063616C6962726174696F6E206572726F60
:101828007220200020204F4B0D0A0050726F6A650D
:10183800637420636F6D6D656E746172793A2050C0
:10184800726573732027582720746F20657363614E
:101858007065206F7220414F4B0D0A004D65737300
:101868006167655F66696C653F202031206F722073
:1018780032000D0A5072657373202D722D20746F1B
:1018880020726561642074686520454550524F4D4B
:101898000D0A6F72202D522D20746F2072657072A0
:1018A8006F6772616D2069740D0A00536574206258
:1018B800617564207261746520746F20322E346BF8
:1018C800207468656E20414B0D0A0053656E6420D4
:1018D8006D6573736167652066696C655F310D0AB4
:1018E8000053656E64206D65737361676520666972
:1018F8006C655F320D0A000D0A4241554420524181
:1019080054452035372E366B21210D0A70726573C8
:101918007320616E79206B657920746F20636F6E18
:0819280074696E75650D0A007B
:00000001FF
