:100000000C9434000C9451000C9451000C94510049
:100010000C9451000C9413060C9451000C94510054
:100020000C9451000C9451000C9451000C9451000C
:100030000C9451000C9451000C9451000C945100FC
:100040000C9451000C9451000C941F060C94510018
:100050000C9451000C9451000C9451000C945100DC
:100060000C9451000C94510011241FBECFEFD8E026
:10007000DEBFCDBF11E0A0E0B1E0E6EBF0E102C0F1
:1000800005900D92A037B107D9F711E0A0E7B1E0D4
:1000900001C01D92A637B107E1F70E9492060C94A9
:1000A00059080C94000020E030E003C000002F5FEE
:1000B0003F4F82179307D4F7089566BD85BDA89B6F
:1000C000FECFA89A15BC08950F931F93CF93DF938B
:1000D0008C01C0E0D0E005C085E062EB0E945D00CD
:1000E0002196C017D107C4F3DF91CF911F910F91D3
:1000F0000895EEE6F0E090819160908366BD85BD45
:100100000895EFE6F0E080818160808382E0809353
:100110008100089570938500609384009FEF96BBE3
:1001200080938100B09BFECFB09A10928100089519
:100130000F931F93182F062F85E062EF7CEF0E942C
:100140008A00E1ECF0E010821093C5000093C40037
:1001500082E08093C00088E1808386E08093C200C3
:100160001F910F910895EFE6F0E0908191609083E8
:10017000709385006093840080938100089560935C
:10018000B2008093B100B89BFECFB89A1092B10034
:10019000089584E48093BC008091BC0087FFFCCF6D
:1001A0008091BB001092BB0084EC8093BC008091D6
:1001B000BC0087FFFCCF86E48093BB0084E880937B
:1001C000BC008091BC0087FFFCCF84E88093BC001A
:1001D0008091BC0081648093BC000895782F84E4F2
:1001E0008093BC008091BC0087FFFCCF8091BB0056
:1001F0007093BB0084EC8093BC008091BC0087FFAF
:10020000FCCF6093BB0084EC8093BC008091BC0069
:1002100087FFFCCFFA0120E030E0472F50E0BA0121
:1002200061507040A4EC94E818C08081261737070D
:1002300049F48093BB009093BC008091BC0087FF81
:10024000FCCF08C08093BB00A093BC008091BC0091
:1002500087FFFCCF2F5F3F4F3196241735072CF3D4
:1002600080E88093BC000895DF93CF930F92CDB7C1
:10027000DEB720E030E007C0019644E0813B940700
:1002800021F42F5F3F4F80E090E01A9BF5CF22339F
:10029000310544F081E0898361E5AE014F5F5F4F36
:1002A0000E94EE000F90CF91DF910895DF93CF93DE
:1002B00000D0CDB7DEB7982F4A83698382E0692FDB
:1002C000AE014F5F5F4F0E94EE000F900F90CF91F5
:1002D000DF910895DF93CF9300D0CDB7DEB7898348
:1002E0006A8382E065E0AE014F5F5F4F0E94EE00DF
:1002F0000F900F90CF91DF910895DF93CF9300D0AF
:10030000CDB7DEB7982F698381E0692FAE014F5FCB
:100310005F4F0E94EE000F900F90CF91DF910895F4
:10032000982FAB0188E0692F0E94EE000895AC0180
:1003300088E067E40E94EE000895982FAB0188E002
:10034000692F0E94EE000895AC0188E064E00E94ED
:10035000EE000895DF93CF9300D0CDB7DEB781E6EE
:1003600089831A8282E062E0AE014F5F5F4F0E9494
:10037000EE000F900F90CF91DF910895DF93CF9310
:1003800000D0CDB7DEB789836A8382E063E0AE0137
:100390004F5F5F4F0E94EE000F900F90CF91DF9163
:1003A0000895DF93CF9300D000D0CDB7DEB74C8156
:1003B000FB815A81E98120E030E02130310581F074
:1003C0002230310524F42115310541F00EC02230D0
:1003D000310541F02330310541F406C0E82F05C056
:1003E000592F03C0F62F01C0472F2F5F3F4F2430F6
:1003F000310519F74C83FB835A83E98384E061E07C
:10040000AE014F5F5F4F0E94EE000F900F900F9074
:100410000F90CF91DF9108958093BB0084EC80937F
:10042000BC008091BC0087FFFCCF08958093BB0087
:1004300084E88093BC008091BC0087FFFCCF0895C6
:1004400084EC8093BC008091BC0087FFFCCF80913E
:10045000BB00089584E88093BC008091BC0087FFB6
:10046000FCCF8091BB000895CF93DF93FC01EB019B
:1004700084E48093BC008091BC0087FFFCCF809116
:10048000BB0020E030E054EC5093BC008091BC00F5
:1004900087FFFCCF4091BB0037FD20C023303105E2
:1004A00024F023303105D1F40DC080819181A281E7
:1004B000B381840F911DA11DB11DBA2FA92F982FB3
:1004C000882708C080819181A281B381840F911D0A
:1004D000A11DB11D80839183A283B3832F5F3F4F02
:1004E0002430310589F684E88093BC008091BC00FB
:1004F00087FFFCCF8091BB00888380E88093BC009D
:10050000DF91CF910895AF92BF92CF92DF92EF9299
:10051000FF920F931F93CF93DF935A010196689F29
:100520007001699FF00C789FF00C11240197689F6F
:100530008001699F100D789F100D112462E070E01A
:100540004CEF5FEF6801C094D09431C02F5F3F4FF4
:10055000E60FF71FCF01861B970B08171907B4F793
:10056000260F371F269FD001279FB00D369FB00D55
:100570001124EB01CC0FDD1F9D012C0D3D1D220F21
:10058000331F2A0D3B1D05C0F901E40FF51F118231
:100590001082A60FB71F2C0F3D1FCD01861B970B96
:1005A000E816F9068CF76F5F7F4F42505040669F08
:1005B000C001679F900D769F900D11248E159F05A9
:1005C00024F4FC0120E030E0C3CFDF91CF911F91F4
:1005D0000F91FF90EF90DF90CF90BF90AF90089574
:1005E000AF92BF92CF92DF92EF92FF920F931F9341
:1005F000CF93DF936A010196689F7001699FF00CA9
:10060000789FF00C11240197689F8001699F100D5D
:10061000789F100D112462E070E0CCEFDFEF5801FD
:10062000A094B0943CC04F5F5F4FF901260F371F75
:10063000C901861B970B08171907ACF73197E01B08
:10064000F10BEE0FFF1FEC0DFD1D80819181892BB9
:1006500019F1460F571F469FD001479FB00D569F77
:10066000B00D1124AB01440F551F9D012A0D3B1DF8
:10067000220F331F2C0D3D1D05C0F901EC0FFD1F8E
:1006800011821082A60FB71F240F351FCD01861BC4
:10069000970BE816F9068CF76F5F7F4F2297669FDE
:1006A000C001679F900D769F900D11248E159F05B8
:1006B00024F49C0140E050E0B8CFDF91CF911F912E
:1006C0000F91FF90EF90DF90CF90BF90AF90089583
:1006D0004F925F926F927F928F929F92AF92BF9252
:1006E000CF92DF92EF92FF920F931F93DF93CF93FE
:1006F000CDB7DEB764970FB6F894DEBF0FBECDBF9F
:100700003C01CC24DD24EE24FF244E010894811CFE
:10071000911C45E1442E512C4C0E5D1E5401C70125
:100720000196F401819391930196E415F505D1F7B3
:10073000C6016AE070E0A4010E94830200E010E0BC
:1007400002C00F5F1F4FF501819191915F01892BCD
:10075000C1F3F801EE0FFF1FE80DF91D0EC0208157
:1007600031812230310534F0C301B9010E94DF0725
:10077000892B99F00F5F1F4F32960B3011057CF3D8
:100780006E147F0444F00894C11CD11C8AE090E0F0
:10079000E80EF91EC3CF20E030E0C90164960FB621
:1007A000F894DEBF0FBECDBFCF91DF911F910F91A7
:1007B000FF90EF90DF90CF90BF90AF909F908F9081
:1007C0007F906F905F904F9008958091C00087FF59
:1007D000FCCF08958091C00087FFFCCF8091C600B8
:1007E00008958091C6000895982F20E030E00DC054
:1007F0002F5F3F4F8FE1213438071CF0915020E0EC
:1008000030E0992311F480E008958091C00087FFC3
:10081000EFCF81E008958091C00087FFFCCF8091E9
:10082000C6008D3011F08A3051F481E00E94F4034B
:10083000882311F48DE008958091C6008DE008951D
:1008400085E00E94F403813019F48091C600F8CF4E
:100850000895982F8091C00085FFFCCF9093C6002B
:100860000895AC0120E030E0FA01E20FF31FE081CF
:10087000EE2359F02F5F3F4F8091C00085FFFCCFE2
:10088000E093C600283C310579F708950F931F9334
:10089000DF93CF9300D0CDB7DEB71A8280E091E02E
:1008A0000E9431048E010F5F1F4F8091C00087FFAF
:1008B000FCCF8091C600883741F08053898381E066
:1008C0006CE4A8010E94EE00F0CF198281E06CE494
:1008D000A8010E94EE008FE291E00E943104809115
:1008E000C00087FFFCCF8091C6000F900F90CF9182
:1008F000DF911F910F91089583E391E00E943104ED
:1009000008951F931EE285E00E94F403813049F4AC
:100910008091C6008091C00085FFFCCF1093C60077
:10092000F2CF0E947C041F9108952F923F924F9224
:100930005F926F927F928F929F92AF92BF92CF926F
:10094000DF92EF92FF920F931F93CF93DF93EC010F
:100950005A016B01403080E0580780E0680780E86A
:10096000780751F52A3021F0203109F06CC014C00D
:1009700028E3288394E3998386E38A8383E38B8344
:100980002C839D8387E38E839F8381E3888782E323
:1009900089878DE28A870EC080E3888389838A8372
:1009A0008B838C838D838E8388E38F838DE288870E
:1009B00019861A861B8647C080E090E0FE01E80F8A
:1009C000F91F108201968C309105C1F786017501DF
:1009D000D7FE07C0EE24FF248701EA18FB080C09A4
:1009E0001D094E0166247724222E332444245524E5
:1009F000C801B701A20191010E941408F4016083AB
:100A00006A3010F4605D02C0695CF4016083089490
:100A1000611C711CC801B701A20191010E94140858
:100A2000C901DA017C018D010894811C911C1E14FE
:100A30001F0410061106E4F2D7FE05C06C0E7D1EE1
:100A40008DE2F3018083DF91CF911F910F91FF9091
:100A5000EF90DF90CF90BF90AF909F908F907F905E
:100A60006F905F904F903F902F900895AC0120E0E1
:100A700030E002C02F5F3F4FFA01E20FF31F808189
:100A80008823C1F721503040FA01E20FF31F2F5F96
:100A90003F4F0AC090818091C00085FFFCCF9093AA
:100AA000C6002150304031972115310599F708953E
:100AB0000F931F93DF93CF93CDB7DEB72C970FB66D
:100AC000F894DEBF0FBECDBF282F8E010F5F1F4FE2
:100AD000C8010E949504C8010E9436052C960FB6E5
:100AE000F894DEBF0FBECDBFCF91DF911F910F9164
:100AF000089590E080538A3008F491E0892F08959A
:100B0000803328F08A3328F08154863010F080E05A
:100B1000089581E008951F93182F87FF10C086E382
:100B200091E00E943104412F552747FD5095509583
:100B300041955F4F662757FD6095762F0AC08AE37F
:100B400091E00E943104412F552747FD5095652FB4
:100B5000752F8AE00E9458051F910895AF92BF92A9
:100B6000CF92DF92EF92FF920F931F93CF93DF9379
:100B70007A018B0160E070E0FC01E60FF71F108244
:100B80006F5F7F4F6C307105B9F7EC01A22EBB246B
:100B9000CC24DD24C801B701A60195010E94F2070B
:100BA00068836A3010F4605D01C0695C6883C801C5
:100BB000B701A60195010E94F207C901DA017C0183
:100BC0008D012196E114F1040105110519F7DF915A
:100BD000CF911F910F91FF90EF90DF90CF90BF903A
:100BE000AF9008950F931F93DF93CF93CDB7DEB7E8
:100BF0002C970FB6F894DEBF0FBECDBF282F8E0105
:100C00000F5F1F4FC8010E94AE05C8010E94360544
:100C10002C960FB6F894DEBF0FBECDBFCF91DF91FB
:100C20001F910F9108951F920F920FB60F921124EA
:100C30004F9BFFCF0F900FBE0F901F9018951F92E4
:100C40000F920FB60F9211242F933F934F935F9300
:100C50006F937F938F939F93AF93BF93EF93FF9384
:100C60008091C60081E061E541E751E00E94EE001D
:100C7000FF91EF91BF91AF919F918F917F916F9174
:100C80005F914F913F912F910F900FBE0F901F904A
:100C90001895EF92FF921F93CF93DF937C010097FB
:100CA00011F09C010DC083EF93E00E944308182FC0
:100CB00082EF93E00E944308312F20E0280F311D7E
:100CC000E901D695C795D695C795C901E3E09695F4
:100CD0008795EA95E1F7C827D927C227D327C90105
:100CE00075E0969587957A95E1F7C827D927DD278E
:100CF000C695D795CC2736952795C22BD32BEF28B1
:100D000051F483EF93E06D2F0E944B0882EF93E044
:100D10006C2F0E944B08CE01DF91CF911F91FF9065
:100D2000EF900895CF93DF9304B603FE03C081E0F4
:100D300080937001A89584B7877F84BF80916000FD
:100D40008861809360001092600082E08093BA0016
:100D500080917C00806480937C0085B78F7E85BF06
:100D60008AB18B778AB98BB184688BB922982A9A19
:100D700085B78F7E85BF84B18F7384B987B1887F33
:100D800087B98AB187788AB985B1806C85B988B10D
:100D9000876088B98BB188678BB985E090E00E9445
:100DA000640080E060E10E9498008CEF93E00E9474
:100DB00043088093730180FF08C081E08093730132
:100DC00084EF93E060E00E944B0884EF93E00E9480
:100DD0004308803499F4C0E0D0E083E391E00E94BE
:100DE00031042196C430D105C1F78EE391E00E9411
:100DF000310484EF93E061E40E944B0884EF93E0B8
:100E00000E944308682F86FF07C0606884EF93E064
:100E10000E944B080C9430360E9434012CE088E18B
:100E200090E00FB6F894A895809360000FBE2093D1
:100E300060008091680084608093680080916D00FC
:100E4000846880936D008091C10080688093C100A8
:100E500081E080937101789480E090E00E944906DF
:100E6000BC019093750180937401660F771F0E94F7
:100E7000D1018AE090E00E946400A895EDCF1F9315
:100E800083EF93E00E944308182F16951695982F2C
:100E900096959695969519271827982F92959F7055
:100EA00019271795112717958695182B83EF93E02F
:100EB000612F0E944B08812F1F9108954F925F92DE
:100EC0006F927F928F929F92AF92BF92CF92DF925A
:100ED000EF92FF920F931F93DF93CF93CDB7DEB7BF
:100EE0004C017B014DB65EB6CB01880F991F2DB723
:100EF0003EB7281B390B0FB6F8943EBF0FBE2DBF6F
:100F00008DB79EB701963C01AA24BB24CC24DD24D6
:100F10008301F30120E030E007C02F5F3F4FC9019C
:100F20008C0D9D1D819391932E153F05B4F3C50142
:100F3000B701A3010E94830220E030E018C0D8016D
:100F4000ED91FC91E230F10574F0C401BF010E9403
:100F5000DF07892B41F420E030E0E815F905C1F402
:100F600021E030E015C02F5F3F4F0E5F1F4F2E1561
:100F70003F052CF3CE0CDF1CC6018E199F09881685
:100F8000990624F00894A11CB11CC2CF20E030E0E7
:100F9000C9010FB6F8945EBE0FBE4DBECF91DF9172
:100FA0001F910F91FF90EF90DF90CF90BF90AF9087
:100FB0009F908F907F906F905F904F90089597FBD8
:100FC000092E07260AD077FD04D049D006D000208C
:100FD0001AF4709561957F4F0895F6F79095819575
:100FE0009F4F0895A1E21A2EAA1BBB1BFD010DC045
:100FF000AA1FBB1FEE1FFF1FA217B307E407F507C9
:1010000020F0A21BB30BE40BF50B661F771F881FA4
:10101000991F1A9469F760957095809590959B013A
:10102000AC01BD01CF01089597FB092E05260ED016
:1010300057FD04D0D7DF0AD0001C38F450954095F6
:10104000309521953F4F4F4F5F4F0895F6F790959C
:101050008095709561957F4F8F4F9F4F0895AA1B84
:10106000BB1B51E107C0AA1FBB1FA617B70710F093
:10107000A61BB70B881F991F5A95A9F780959095C5
:10108000BC01CD010895F999FECF92BD81BDF89ABA
:10109000992780B50895262FF999FECF1FBA92BDE2
:1010A00081BD20BD0FB6F894FA9AF99A0FBE019649
:0610B0000895F894FFCF43
:1010B6000D0A53656E64203020746F203720746FDC
:1010C6002061646A75737420696E74657276616CEA
:1010D6002078207768656E20646F6E650D0A004182
:1010E6004B3F000D0A0020452D0020452B00507275
:1010F6006F6A65637420636F6D6D656E7461727976
:101106003A2050726573732027582720746F206524
:101116007363617065206F7220414F4B0D0A0000AA
:00000001FF
