:100000000C941D010C943A010C943A010C943A01A1
:100010000C943A010C943A010C943A010C943A0174
:100020000C943A010C943A010C943A010C943A0164
:100030000C943A010C943A010C943A010C943A0154
:100040000C943A010C943A010C943A010C943A0144
:100050000C943A010C943A010C943A010C943A0134
:100060000C943A010C943A0108000000BE92244915
:10007000123EABAAAA2ABECDCCCC4C3E00000080DA
:10008000BEABAAAAAA3E00000000BF000000803F4D
:100090000000000000084178D3BB4387D1133D190D
:1000A0000E3CC3BD4282AD2B3E68EC8276BED98F3A
:1000B000E1A93E4C80EFFFBE01C4FF7F3F0000007E
:1000C000000007634236B79BD8A71A39685618AEA6
:1000D000BAAB558C1D3CB7CC5763BD6DEDFD753E7D
:1000E000F6177231BF000000803F6E616E00696ECE
:1000F00066006364696E6F70737578585B656667D8
:1001000045464700616E006E66696E69747900CD80
:10011000CCCC3D0AD7233C17B7D13877CC2B3295BE
:1001200095E6241FB14F0A000020410000C842009C
:10013000401C4620BCBE4CCA1B0E5AAEC59D740066
:10014000407A10F35A00A0724E18090010A5D4E8A6
:100150000000E87648170000E40B54020000CA9A39
:100160003B000000E1F5050000809698000000408B
:10017000420F000000A086010000001027000000D0
:1001800000E803000000006400000000000A000016
:100190000000000100000000002C76D888DC674FCA
:1001A0000823DFC1DFAE59E1B1B796E5E3E453C6FA
:1001B0003AE651997696E8E6C28426EB898C9B62F2
:1001C000ED407C6FFCEFBC9C9F40F2BAA56FA5F49C
:1001D00090055A2AF75C936B6CF9676DC11BFCE0C4
:1001E000E40D47FEF520E6B500D0ED902E03009417
:1001F0003577050080841E080000204E0A000000AC
:10020000C80C333333330F986E12831141EF8D21B5
:1002100014893BE65516CFFEE6DB18D1844B381B1C
:10022000F77C1D901DA4BBE424203284725E2281E1
:1002300000C9F124ECA1E53D270011241FBECFEF3A
:10024000D4E0DEBFCDBF12E0A0E0B1E0EEECFDE215
:1002500002C005900D92A434B107D9F712E0A4E4CE
:10026000B2E001C01D92A635B107E1F70E94700708
:100270000C94E5160C940000E1ECF0E01082809301
:10028000C5006093C40082E08093C00088E1808351
:1002900086E08093C200089520E030E003C00000B3
:1002A0002F5F3F4F82179307D4F7089566BD85BD32
:1002B000A89BFECFA89A15BC08950F931F93CF93C8
:1002C000DF938C01C0E0D0E005C085E062EB0E94C6
:1002D00056012196C017D107C4F3DF91CF911F912A
:1002E0000F910895EEE6F0E090819160908366BDF5
:1002F00085BD0895EFE6F0E080818160808382E033
:1003000080938100089570938500609384009FEF2F
:1003100096BB80938100B09BFECFB09A1092810073
:100320000895EFE6F0E090819160908370938500EE
:10033000609384008093810008956093B20080935D
:10034000B100B89BFECFB89A1092B1000895809189
:10035000C00087FFFCCF08958091C00087FFFCCFCD
:100360008091C60008958091C6000895982F20E0DE
:1003700030E00EC02F5F3F4F8FE12134380724F06B
:100380009150A89520E030E0992311F480E0089581
:100390008091C00087FFEECF81E008958091C0007A
:1003A00087FFFCCF8091C6008D3011F08A3051F468
:1003B00081E00E94B601882311F48DE008958091B8
:1003C000C6008DE0089585E00E94B601813019F4E1
:1003D0008091C600F8CF0895982F8091C00085FFC6
:1003E000FCCF9093C6000895AC0120E030E0FA0104
:1003F000E20FF31FE081EE2359F02F5F3F4F809112
:10040000C00085FFFCCFE093C600283C310579F79A
:10041000089580E091E00E94F40108951F931EE288
:1004200085E00E94B601813049F48091C600809138
:10043000C00085FFFCCF1093C600F2CF0E940902D6
:100440001F9108952F923F924F925F926F927F92E9
:100450008F929F92AF92BF92CF92DF92EF92FF92D4
:100460000F931F93CF93DF93EC015A016B01403040
:1004700080E0580780E0680780E8780751F52A3067
:1004800021F0203109F06CC014C028E3288394E3E4
:10049000998386E38A8383E38B832C839D8387E31D
:1004A0008E839F8381E3888782E389878DE28A87B1
:1004B0000EC080E3888389838A838B838C838D83BA
:1004C0008E8388E38F838DE2888719861A861B8640
:1004D00047C080E090E0FE01E80FF91F108201960E
:1004E0008C309105C1F786017501D7FE07C0EE2457
:1004F000FF248701EA18FB080C091D094E01662438
:100500007724222E332444245524C801B701A201A4
:1005100091010E946114F40160836A3010F4605DFF
:1005200002C0695CF40160830894611C711CC801FD
:10053000B701A20191010E946114C901DA017C0195
:100540008D010894811C911C1E141F0410061106B5
:10055000E4F2D7FE05C06C0E7D1E8DE2F3018083B0
:10056000DF91CF911F910F91FF90EF90DF90CF908F
:10057000BF90AF909F908F907F906F905F904F90C3
:100580003F902F900895AC0120E030E002C02F5F33
:100590003F4FFA01E20FF31F80818823C1F72150FA
:1005A0003040FA01E20FF31F2F5F3F4F0AC09081E6
:1005B0008091C00085FFFCCF9093C6002150304051
:1005C00031972115310599F708950F931F93DF9304
:1005D000CF93CDB7DEB72C970FB6F894DEBF0FBE22
:1005E000CDBF282F8E010F5F1F4FC8010E9422022E
:1005F000C8010E94C3022C960FB6F894DEBF0FBE4E
:10060000CDBFCF91DF911F910F91089590E080535E
:100610008A3008F491E0892F0895803328F08A33D6
:1006200028F08154863010F080E0089581E008952C
:100630001F93182F87FF10C083E091E00E94F40100
:10064000412F552747FD5095509541955F4F66279F
:1006500057FD6095762F0AC087E091E00E94F40173
:10066000412F552747FD5095652F752F8AE00E9431
:10067000E5021F910895AF92BF92CF92DF92EF9261
:10068000FF920F931F93CF93DF937A018B0160E06A
:1006900070E0FC01E60FF71F10826F5F7F4F6C3038
:1006A0007105B9F7EC01A22EBB24CC24DD24C801CE
:1006B000B701A60195010E943F1468836A3010F4C7
:1006C000605D01C0695C6883C801B701A60195013E
:1006D0000E943F14C901DA017C018D012196E114C9
:1006E000F1040105110519F7DF91CF911F910F91C9
:1006F000FF90EF90DF90CF90BF90AF9008950F9351
:100700001F93DF93CF93CDB7DEB72C970FB6F89436
:10071000DEBF0FBECDBF282F8E010F5F1F4FC80158
:100720000E943B03C8010E94C3022C960FB6F894A6
:10073000DEBF0FBECDBFCF91DF911F910F91089506
:1007400084E48093BC008091BC0087FFFCCF809143
:10075000BB001092BB0084EC8093BC008091BC0075
:1007600087FFFCCF86E48093BB0084E88093BC00C5
:100770008091BC0087FFFCCF84E88093BC0080910F
:10078000BC0081648093BC000895982F84E480931A
:10079000BC008091BC0087FFFCCF8091BB00109211
:1007A000BB0084EC8093BC008091BC0087FFFCCF31
:1007B0009093BB0084E88093BC008091BC0087FFCD
:1007C000FCCF80E88093BC000895FF920F931F93A5
:1007D0008BE091E00E94F4018AEF0E94B601882329
:1007E000B9F38091C60080934902823511F08237B7
:1007F00079F780E091E00E94F40182E50E94C50350
:1008000082E191E00E94F40184E48093BC00809135
:10081000BC0087FFFCCF8091BB0084EC8093BC00C0
:100820008091BC0087FFFCCFF090BB0084EC8093EC
:10083000BC008091BC0087FFFCCF9091BB0084E896
:100840008093BC008091BC0087FFFCCF8091BB00EF
:10085000192F00E0080F111D80E88093BC0087E38A
:1008600091E00E94F4014F2D50E060E070E08AE0DA
:100870000E94E5028EE491E00E94F401A80166273F
:1008800057FD6095762F8AE00E94E5020E5E1240C9
:1008900024F484E691E00E94F4011F910F91FF90EF
:1008A0000895782F84E48093BC008091BC0087FF7A
:1008B000FCCF8091BB007093BB0084EC8093BC00A4
:1008C0008091BC0087FFFCCF6093BB0084EC8093D9
:1008D000BC008091BC0087FFFCCFFA0120E030E033
:1008E000472F50E0BA0161507040A4EC94E818C062
:1008F00080812617370749F48093BB009093BC0092
:100900008091BC0087FFFCCF08C08093BB00A09300
:10091000BC008091BC0087FFFCCF2F5F3F4F31961A
:10092000241735072CF380E88093BC000895DF93EB
:10093000CF930F92CDB7DEB71E9903C081E08983B4
:1009400001C0198281E061E5AE014F5F5F4F0E94F7
:1009500051040F90CF91DF910895DF93CF9300D092
:10096000CDB7DEB7982F4A83698382E0692FAE0145
:100970004F5F5F4F0E9451040F900F90CF91DF9116
:100980000895DF93CF9300D0CDB7DEB789836A8314
:1009900082E065E0AE014F5F5F4F0E9451040F900F
:1009A0000F90CF91DF910895DF93CF9300D0CDB713
:1009B000DEB7982F698381E0692FAE014F5F5F4FEB
:1009C0000E9451040F900F90CF91DF910895982FBE
:1009D000AB0188E0692F0E9451040895AC0188E0C2
:1009E00067E40E9451040895982FAB0188E0692FB5
:1009F0000E9451040895AC0188E064E00E94510413
:100A00000895DF93CF9300D0CDB7DEB781E6898319
:100A10001A8282E062E0AE014F5F5F4F0E94510494
:100A20000F900F90CF91DF910895DF93CF9300D077
:100A3000CDB7DEB789836A8382E063E0AE014F5FA2
:100A40005F4F0E9451040F900F90CF91DF91089556
:100A5000DF93CF9300D000D0CDB7DEB74C81FB81C0
:100A60005A81E98120E030E02130310581F02230E7
:100A7000310524F42115310541F00EC02230310535
:100A800041F02330310541F406C0E82F05C0592F4D
:100A900003C0F62F01C0472F2F5F3F4F2430310591
:100AA00019F74C83FB835A83E98384E061E0AE014C
:100AB0004F5F5F4F0E9451040F900F900F900F9067
:100AC000CF91DF9108950F931F93DF93CF930F92F0
:100AD000CDB7DEB7198280E090E005C001962AEE1E
:100AE00080369207E1F01A9BF9CF19C0822F90E06F
:100AF000019683709070282F8823A9F0898381E064
:100B000061E5A8010E9451048CEC9CEC63E373E363
:100B10000E94280582E390E00E945D0103C08E01DF
:100B20000F5F1F4F29811A9BE1CF0F90CF91DF916B
:100B30001F910F9108958093BB0084EC8093BC00BB
:100B40008091BC0087FFFCCF08958093BB0084E8B0
:100B50008093BC008091BC0087FFFCCF089584EC9B
:100B60008093BC008091BC0087FFFCCF8091BB00CC
:100B7000089584E88093BC008091BC0087FFFCCF7F
:100B80008091BB000895CF93DF93FC01EB0184E4D7
:100B90008093BC008091BC0087FFFCCF8091BB009C
:100BA00020E030E054EC5093BC008091BC0087FF03
:100BB000FCCF4091BB0037FD20C02330310524F02D
:100BC00023303105D1F40DC080819181A281B381A0
:100BD000840F911DA11DB11DBA2FA92F982F882711
:100BE00008C080819181A281B381840F911DA11DD4
:100BF000B11D80839183A283B3832F5F3F4F243045
:100C0000310589F684E88093BC008091BC0087FFA1
:100C1000FCCF8091BB00888380E88093BC00DF918B
:100C2000CF9108951F93182F8A3019F48DE00E94F8
:100C300012068091C00085FFFCCF1093C60080E0B3
:100C400090E01F9108958091C00087FFFCCF8091B4
:100C5000C60090E008958091C00087FFFCCF05C0DA
:100C600084E60E94B6018823D9F39091C6009033A0
:100C700060F09A3338F0892F8154863030F402C006
:100C80009A3071F7892F90E008959D30C9F7FACF17
:100C90008091C00087FFFCCF05C084E60E94B601AA
:100CA0008823D9F39091C600892F80538A3030F081
:100CB0009D3021F09A3011F09D3279F7892F90E024
:100CC00008951F938091C00087FFFCCF1091C6004C
:100CD0001D3011F01A3079F481E00E94B6018823AA
:100CE00051F08091C60007C084E60E94B6018823B7
:100CF000D9F31091C600812F80538A3060F01D30E7
:100D000051F01A3041F01D3231F01E3221F015360B
:100D100011F0153449F7812F90E01F9108952F921B
:100D20003F924F925F926F927F928F929F92AF927B
:100D3000BF92CF92DF92EF92FF920F931F93DF93B8
:100D4000CF93CDB7DEB728970FB6F894DEBF0FBEAE
:100D5000CDBF4C01FC01AA24BB2498E507C0853611
:100D600009F490830894A11CB11C319680818823DA
:100D7000B1F7A50141505040483051057CF000E0EA
:100D800010E077E0272E312C3E010894611C711C85
:100D900068E0462E512C4C0E5D1E26C0DE011196D9
:100DA000A40FB51F20E030E008C0F401E20FF31FEC
:100DB00080818C932F5F3F4F119742175307ACF7F9
:100DC000CE0101960E94FB043EC0F101E01BF10B35
:100DD000E60DF71DD401A00FB11F8C918083C301D4
:100DE0000E94FB040F5F1F4F0830110574F382E36C
:100DF00090E00E945D0151E0E52EF12C1CC04F9B5C
:100E0000FECF6401CE0CDF1C8201F60181916F01DF
:100E1000F8018083C3010E94FB04015010400C17AD
:100E20001D0799F789E190E00E945D014A9B06C089
:100E30000894E11CF11CAE14BF040CF74A9B03C0DC
:100E400000E010E0D1CF28960FB6F894DEBF0FBEB9
:100E5000CDBFCF91DF911F910F91FF90EF90DF9069
:100E6000CF90BF90AF909F908F907F906F905F904A
:100E70004F903F902F9008958091C00087FFFCCF46
:100E800005C084E60E94B6018823D9F39091C6007C
:100E9000892F80538A3088F09D3099F09A3089F0FC
:100EA0009D3279F09E3269F0993069F0953649F0BB
:100EB000953439F09C3229F706C09C3221F09930E4
:100EC00011F09D3051F480914702909148020196B3
:100ED00090934802809347029AE0892F90E008950A
:100EE0002F923F924F925F926F927F928F929F923A
:100EF000AF92BF92CF92DF92EF92FF920F931F9328
:100F0000DF93CF9300D000D0CDB7DEB780E88093D9
:100F1000610011E0109361008CEF93E00E94CC1609
:100F200080934C0280FF07C010934C0284EF93E043
:100F300060E00E94D41680914C0283FF03C081E0E0
:100F400080934402A895809160008861809360003E
:100F50001092600012E01093BA0080917C008064CF
:100F600080937C0085B78F7E85BF8AB18B778AB9E5
:100F70008BB184688BB926982E9A85B78F7E85BFF2
:100F800084B18B7784B987B1887F87B98AB1877834
:100F90008AB985B1846885B988B1876088B98BB111
:100FA00088678BB985E090E00E945D011092C100D6
:100FB0001092C50080E18093C4001093C00088E1C6
:100FC0008093C10086E08093C20084EF93E00E948A
:100FD000CC168F3F29F484EF93E060E00E94D41692
:100FE00084EF93E00E94CC168034A1F400E010E07E
:100FF00080E091E00E94F4010F5F1F4F0A3011055D
:10100000B9F78BE691E00E94F40184EF93E061E48C
:101010000E94D41684EF93E00E94CC16682F86FFBE
:1010200007C0606884EF93E00E94D4160C941836D1
:101030001A9904C04A9902C00E9463054A9904C0E3
:101040004F9902C00E94E50380914C0290E08370AA
:1010500090702AE132E0892B09F448C010924C02CA
:10106000309353022093520288E292E0909351020F
:101070008093500200D08CE991E0EDB7FEB79283E7
:1010800081830E942A160F900F9081E090E00E94C9
:101090005D011092C1001092C50087E68093C400E4
:1010A00082E08093C00088E18093C10086E0809355
:1010B000C20080915002909151020E94BC1500D054
:1010C00087EC91E0EDB7FEB7928381830E942A16E8
:1010D00029E088E190E00FB6F894A895809360002D
:1010E0000FBE209360000F900F90FFCF1092C100B1
:1010F0001092C50087E68093C40082E08093C00010
:1011000088E18093C10086E08093C200109248027B
:1011100010924702309353022093520286E392E0EA
:1011200090935102809350020F2EF0E0AF2EF0E02A
:10113000BF2EF0E0CF2EF0E0DF2EF02D350146017E
:10114000E2E02E2EE2E03E2E2E010894411C511CBE
:1011500000D000D0EDB7FEB73282218254824382A4
:101160000E943F16E980FA800B811C810F900F903E
:101170000F900F90C801B70120E030E040E050E050
:101180000E9453118823A9F0C601B501A801970157
:101190000E94EF105B016C01C801B7010E9471123F
:1011A0009B01AC01C401B3010E94EF103B014C0153
:1011B000CFCF0E94E30100D000D000D00DB71EB702
:1011C0000F5F1F4F86E092E0EDB7FEB792838183F9
:1011D000609147027091480261507040882777FD06
:1011E0008095982F0E94C1119B01AC01C601B501E9
:1011F0000E945711F80162837383848395830E9450
:101200002A168DB79EB706960FB6F8949EBF0FBEEE
:101210008DBF6091470270914802615070408827ED
:1012200077FD8095982F0E94C1119B01AC01C401EC
:10123000B3010E9457119B01AC0160E070E080E2B5
:1012400091E40E941F1300D000D000D02CE032E0C7
:10125000EDB7FEB732832183AC01CB01DA01838382
:101260009483A583B6830E942A160F900F9083E182
:1012700092E0EDB7FEB7928381838091470290910F
:1012800048020197948383830E942A1629E088E10B
:1012900090E00FB6F894A895809360000FBE20935D
:1012A00060000F900F900F900F90FFCFA1E1B0E082
:1012B000ECE5F9E00C947C143C017F876E876A01B1
:1012C000FC0117821682838181FD03C06FEF7FEFDF
:1012D0006FC39E012F5F3F4F398B288BF301238112
:1012E000EE85FF8523FD859123FF8191FF87EE87A2
:1012F000882309F45AC3853251F4EE85FF8523FD16
:10130000859123FF8191FF87EE87853229F490E054
:10131000B3010E94FE15E2CF982F10E08824992493
:101320001032B0F49B3269F09C3228F4903251F0C4
:10133000933271F40BC09D3239F0903349F411604F
:1013400028C01260146025C0186023C0106121C03D
:1013500017FD2AC0892F80538A3078F416FF06C003
:10136000FAE09F9E902C1124980E13C03AE0839EC1
:10137000802C1124880E10620CC09E3221F416FDC0
:1013800014C3106406C09C3611F4106802C098366D
:1013900059F4EE85FF8523FD959123FF9191FF87F9
:1013A000EE87992309F0BCCF892F8554833020F430
:1013B000812F8061905E07C0892F8556833008F0A9
:1013C0009FC1812F8F7E86FD02C076E0972E6FE34E
:1013D000F62EF822953619F4F0E4FF2A07C0963667
:1013E00019F420E8F22A02C091109A94F7FE0AC07C
:1013F0003BE3391518F45CE3B52E02C0B92CB39465
:1014000027E009C047E0491520F4BB2447E0942EAB
:10141000F7CF292DBB24C60104969D878C87F60142
:101420006081718182819381AE014F5F5F4F0B2D8F
:101430000E94B3146C010981202E332400FF04C0E4
:1014400003FD02C01DE209C0F1FE02C01BE205C09F
:10145000F2FC02C010E001C010E2C1018C7090707B
:10146000892BB9F1112311F483E001C084E08815C0
:1014700010F088240AC0881AF3FC07C080E290E0CC
:10148000B3010E94FE158A94C9F7112329F0812F18
:1014900090E0B3010E94FE1523FE03C00AEE10E0A7
:1014A0000EC00EEE10E00BC0E114F10409F0805202
:1014B00090E0B3010E94FE150F5F1F4F05C0EF2C97
:1014C000FF24F0E1EF22FF24F8018491882361F7E3
:1014D00014C1F7FE12C0BC0C24FE04C08A81813303
:1014E00009F4BA941B141CF0BB24B3942DC0F8E08B
:1014F000FB1550F538E0B32E27C0F6FC25C0892D2A
:1015000090E08C159D054CF02CEFC2162FEFD20603
:1015100024F030E8F32A01C09A94992049F0E2E0DF
:10152000F0E0EC0FFD1FE90DF11D80818033A1F388
:10153000F7FE0AC0B92CB394892D90E0C816D906DD
:1015400014F0992401C09C18F7FC03C025E030E09A
:1015500009C01C141D041CF021E030E003C09601FA
:101560002F5F3F4F112311F02F5F3F4F992029F03C
:10157000892D90E00196280F391F882D90E02817BB
:10158000390714F0882401C0821A4F2C5524C20157
:1015900089709070892B39F008C080E290E0B30127
:1015A0000E94FE158A948820C1F7112329F0812F0B
:1015B00090E0B3010E94FE1543FE07C008C080E31F
:1015C00090E0B3010E94FE158A948820C1F7F7FECF
:1015D00046C08601D7FE02C000E010E07601089404
:1015E000E11CF11CE01AF10A41E050E04C0F5D1FD4
:1015F000E40EF51E26014B185108892D90E0AA240F
:10160000BB24A81AB90A5FEF0F3F150729F48EE231
:1016100090E0B3010E94FE15C016D10634F04016CA
:1016200051061CF4F701808101C080E30150104095
:101630000894E11CF11C0A151B052CF090E0B30185
:101640000E94FE15E0CF0C151D0539F49A819633E2
:1016500018F4953311F424FE81E390E04BC08A81A5
:10166000813309F00F7E90E0B3010E94FE159920AE
:10167000A1F08EE290E0B3010E94FE1512E0E1E0DD
:10168000F0E0EC0FFD1FE10FF11D1F5F808190E086
:10169000B3010E94FE159A9491F744FC03C085E6BD
:1016A00090E002C085E490E0B3010E94FE15D7FCF3
:1016B00005C0C114D10441F404FF06C0D094C19404
:1016C000D108D3948DE201C08BE290E0B3010E9477
:1016D000FE1580E305C08F5F26EF3FEFC20ED31EDD
:1016E0003AE0C316D104BCF790E0B3010E94FE15A6
:1016F000C601C096B3010E94FE15CC84DD8452C1A0
:10170000933631F0933799F0933509F059C023C0DF
:10171000F601808189835E010894A11CB11C22E03E
:1017200030E0C20ED31E21E0E22EF12C12C0F601F1
:10173000A080B18016FD03C06FEF7FEF02C0692D5E
:1017400070E022E030E0C20ED31EC5010E94B11548
:101750007C011F7713C0F601A080B18016FD03C085
:101760006FEF7FEF02C0692D70E022E030E0C20E23
:10177000D31EC5010E94A6157C01106813FF07C087
:101780001BC080E290E0B3010E94FE158A94882D70
:1017900090E0E816F906A8F30FC0F50117FD859152
:1017A00017FF81915F0190E0B3010E94FE15811047
:1017B0008A940894E108F108E114F10471F7F2C089
:1017C000943611F0993689F517FF08C0F60120818B
:1017D00031814281538184E090E00AC0F60180812A
:1017E00091819C01442737FD4095542F82E090E081
:1017F000C80ED91E9FE6F92EF12257FF09C0509559
:101800004095309521953F4F4F4F5F4F90E8F92A13
:10181000CA01B901AE014F5F5F4F2AE030E00E947C
:101820006E16E82EE889EE1A41C0953721F41F7E26
:101830002AE030E01CC0197F9F3661F0903720F419
:10184000983509F0B2C00FC0903739F0983709F0D9
:10185000ACC004C028E030E00AC0106114FD146080
:1018600020E130E004C014FD166020E132E017FFF3
:1018700008C0F601608171818281938144E050E06B
:1018800008C0F60180819181BC0180E090E042E0D7
:1018900050E0C40ED51EAE014F5F5F4F0E946E1622
:1018A000E82E5889E51A8FE7F82EF122F6FE0BC0D4
:1018B0008EEFF822E91438F4F4FE07C0F2FC05C0FC
:1018C0009FEEF92202C01E2D01C0192DF4FE0DC09D
:1018D000FE01EE0DF11D8081803319F4E9EEFE2248
:1018E00008C01F5FF2FE05C003C08F2D867809F087
:1018F0001F5F0F2DF3FC14C0F0FE0FC0181510F081
:101900009E2C0BC09E2C980C911A182D06C080E2BC
:1019100090E0B3010E94FE151F5F1815C0F304C0CC
:10192000181510F4811A01C0882404FF0FC080E349
:1019300090E0B3010E94FE1502FF1DC001FD03C02F
:1019400088E790E00EC088E590E00BC0802F867895
:1019500091F001FF02C08BE201C080E2F7FC8DE252
:1019600090E0B3010E94FE1506C080E390E0B30151
:101970000E94FE159A94E914C0F3EA94E1E0F0E0C5
:10198000EC0FFD1FEE0DF11D808190E0B3010E9470
:10199000FE15EE2091F706C080E290E0B3010E94B0
:1019A000FE158A948820C1F799CCF301668177816E
:1019B000CB016196E2E10C949814FC0120FD08C073
:1019C00023FD05C022FF02C07383628351834083DD
:1019D0000895EF92FF920F931F9344FF02C033E0EC
:1019E00011C046FF02C034E00DC0DB01FC01AA0FAC
:1019F000BB1FEE1FFF1F1094D1F76A0F7B1F8E1FB6
:101A00009F1F31E0660F771F881F991F3150D1F754
:101A10007B018C01E20EF11C011D111DA801970133
:101A2000B701CA011F910F91FF90EF9008950F9396
:101A30001F93CF93DF938C01C8010E94BC15EC016A
:101A400097FD08C00E948B15892BB1F7CE01B80114
:101A50000E945416CE01DF91CF911F910F910895EE
:101A60008F929F92AF92BF92DF92EF92FF920F936D
:101A70001F93CF93DF935C01EB014A01122F0E9469
:101A8000BC15AC018B3219F08D3251F410682197DE
:101A900009F46DC0C5010E94BC15AC0197FD67C07B
:101AA0006DEFD62ED1228D2D807301F54033F1F4E8
:101AB000219709F447C0C5010E94BC15AC0197FDF0
:101AC00041C082E0D82A483711F0483559F480E403
:101AD000D82A2197B9F1C5010E94BC15AC01992300
:101AE0002CF430C0D6FC02C080E1D82AEE24FF24BA
:101AF0008701242F2053283088F0D4FC09C02A30D5
:101B000068F0D6FE05C02F7D822F8151863028F0E7
:101B1000CA01B5010E94541612C02750C801B7016E
:101B20004D2D0E94E90C7B018C0182E0D82A21977F
:101B300061F0C5010E94BC15AC0197FFDACFD1FC62
:101B400004C015C0EE24FF248701D7FE08C01095FD
:101B50000095F094E094E11CF11C011D111DC401DD
:101B6000B801A7012D2D0E94DD0C81E001C080E0AD
:101B7000DF91CF911F910F91FF90EF90DF90BF9079
:101B8000AF909F908F900895A0E2B0E0EAECFDE066
:101B90000C9480145C016B018A017901FE0131967D
:101BA00080E2DF011D928A95E9F770E030E060E0A5
:101BB00040E050E03F01A1E0B0E0F5018381F70192
:101BC00083FD259183FF21917F01222309F481C0A8
:101BD0002E3519F44115510569F1872F90E08417CE
:101BE000950744F42D3551F12D3221F4332329F496
:101BF00031E021C0332309F4622F322F832F8695E1
:101C000086958695F301E80FF11D832F87704D01AE
:101C100002C0880C991C8A95E2F72081282920832C
:101C2000361711F430E007C0361710F43F5FE6CFE7
:101C30003150E4CF71E04F5F5F4FBFCF332319F0D6
:101C40008E8180628E83772359F0FE0131969E014A
:101C50002F5D3F4F808180958193E217F307D1F785
:101C6000992493943E010894611C711CC5010E9443
:101C7000BC15AC0197FD25C0869586958695F30128
:101C8000E80FF11D808190E09A012770307002C04A
:101C9000959587952A95E2F780FD05C0CA01B501A3
:101CA0000E9454160EC00115110519F0D8014D936C
:101CB0008D010894C108D1089924C114D104B1F64A
:101CC00002C0992031F40115110529F0F8011082A4
:101CD00002C0EE24FF24C701A096EEE00C949C14F1
:101CE0002F923F925F926F927F928F929F92AF92CC
:101CF000BF92CF92DF92EF92FF920F931F93CF93F9
:101D0000DF933C017B011A010E94BC15EC018B3270
:101D100039F08D3211F0552411C0B0E85B2E01C0AE
:101D200055240894E108F108E114F10409F418C1FC
:101D3000C3010E94BC15EC0197FD12C1CE010E94A7
:101D400093158936910521F08E36910599F51DC0C0
:101D500007E011E01CC00894E108F108E114F10467
:101D600071F0C3010E94BC15EC0197FD08C00E94F0
:101D70009315D81661F0CE01B3010E94541621E0EC
:101D80000A30120709F0ECC008C004E011E0F801C5
:101D90000F5F1F4FD490DD20F1F60750114029F05E
:101DA00080E090E0A0E8BFE7CFC080E090E0A0EC4A
:101DB000BFE7CAC0CC24DD24882499245401AE0195
:101DC0004053242F4A3038F552E0552A852D90E0B3
:101DD000AC014870507052FE06C0452B11F50894B6
:101DE000C11CD11C1EC0452B19F00894C108D10894
:101DF000C501B40140E20E94E90C4B015C0188E995
:101E0000881689E9980689E9A80689E1B80648F0A4
:101E100094E0592A06C04E3F81F453FC0EC0E8E01E
:101E20005E2A0894E108F108E114F10431F0C301DD
:101E30000E94BC15EC0197FFC2CF51FE91C0C53680
:101E400019F0C53409F046C00894E108F108E1141E
:101E5000F10409F485C0C3010E94BC15EC0197FD93
:101E60007FC08B3221F08D3269F4F0E15F2A089453
:101E7000E108F108E114F10409F472C0C3010E9401
:101E8000BC15EC01CE01C0970A9708F069C000E0CC
:101E900010E0B801882777FD8095982FAE01405358
:101EA000242F40E20E94E90C8B010894E108F1081C
:101EB000E114F10439F0C3010E94BC15EC01C09794
:101EC0000A9738F3B80154FE03C0709561957F4FAF
:101ED000C60ED71EEF2831F0D7FD04C0CE01B301E6
:101EE0000E945416C501B4010E94BF11D7FE0DC057
:101EF000A3E2EA2EA1E0FA2ED094C194D108D394A3
:101F0000C0E2D0E000E010E00EC0FBE3EF2EF1E015
:101F1000FF2EF6CFF70125913591459154910E94FE
:101F2000BC12CC1ADD0ACC16DD06A0F7D695C795F3
:101F30000F5F1F4F0630110529F0ECEFFFEFEE0E9B
:101F4000FF1EF1CFDC01CB0157FCB0582114310446
:101F500029F0F10180839183A283B38381E001C0E2
:101F600080E0DF91CF911F910F91FF90EF90DF9074
:101F7000CF90BF90AF909F908F907F906F905F9029
:101F80003F902F900895A0E0B0E0E9ECFFE00C94C2
:101F90007F144C015B013A01FC0117821682552423
:101FA00004C1812F90E00E948B15892B21F0C40180
:101FB0000E94170DFAC0153249F4F501F3FC659142
:101FC000F3FE61915F01653269F415E2C4010E947C
:101FD000BC1597FDF6C0181709F4E7C0B4010E94BC
:101FE0005416F4C06A3219F0162F00E006C0F3FC54
:101FF0001591F3FE11915F0101E0CC24DD240EC0A8
:102000000260B60180E090E040E20E94E90C6B01C2
:10201000F501F3FC1591F3FE11915F01212F20537F
:102020002A3070F301FD04C0CC24CA94DC2C04C017
:10203000C114D10409F4CAC0183621F01C3699F431
:10204000F5010BC0F501F3FC6591F3FE6191683673
:1020500019F05F01162F07C008600460F3FC1591AA
:10206000F3FE11915F01112309F4B0C082EF90E0FB
:10207000612F70E00E949B15892B09F4A7C0802F67
:1020800000FF03C0EE24FF2407C0F301E080F180CD
:1020900022E030E0620E731E1E3651F4F4014681D8
:1020A000578160E070E0C701202F0E94DD0C7DC0E9
:1020B0001336B9F481FD03C081E0C82ED12CC401D0
:1020C0000E94BC1597FD7DC0E114F10419F0F701E1
:1020D00081937F010894C108D108C114D10479F714
:1020E00062C01B3559F4C401B601A70195010E94D5
:1020F000C40D5C01009709F056C050C0C4010E9495
:10210000170D97FD5EC01F36D1F1103738F4143625
:10211000A1F11936A9F11835D1F52DC0133751F0B9
:10212000143718F4103799F526C0153731F11837E0
:1021300071F521C0C4010E94BC15EC0197FD15C0CA
:102140000E948B15892B29F0CE01B4010E945416F0
:102150000CC0E114F10419F0F701C1937F01089458
:10216000C108D108C114D10429F7E114F104D9F050
:10217000F701108218C0006403C0006201C0006152
:10218000C401B601A701202F0E94300D05C0C40173
:10219000B601A7010E94700E882329F4F4018381FF
:1021A000807379F413C000FF5394F401F380F501B8
:1021B000F3FC1591F3FE11915F01112309F0F1CEAB
:1021C00005C0552019F42FEF3FEF02C0252D30E058
:1021D000C901CDB7DEB7EFE00C949B145058BB2774
:1021E000AA270ED044C135D130F03AD120F031F4D5
:1021F0009F3F11F41EF42AC10EF4E095E7FB20C1C5
:10220000E92F46D180F3BA17620773078407950751
:1022100018F071F49EF55EC10EF4E0950B2EBA2F06
:10222000A02D0B01B90190010C01CA01A0011124DC
:10223000FF27591B99F0593F50F4503E68F11A1688
:10224000F040A22F232F342F4427585FF3CF469519
:1022500037952795A795F0405395C9F77EF41F163B
:10226000BA0B620B730B840BBAF09150A1F0FF0F05
:10227000BB1F661F771F881FC2F70EC0BA0F621FF1
:10228000731F841F48F4879577956795B795F795E1
:102290009E3F08F0B3CF9395880F08F09927EE0F73
:1022A000979587950895A8D008F481E008950CD0FB
:1022B000DEC0D6D040F0CDD030F021F45F3F19F031
:1022C000BFC0511108C1C2C0E3D098F39923C9F32C
:1022D0005523B1F3951B550BBB27AA27621773072C
:1022E000840738F09F5F5F4F220F331F441FAA1FE0
:1022F000A9F333D00E2E3AF0E0E830D091505040A0
:10230000E695001CCAF729D0FE2F27D0660F771F4D
:10231000881FBB1F261737074807AB07B0E809F02F
:10232000BB0B802DBF01FF2793585F4F2AF09E3FC4
:10233000510568F085C0CFC05F3FECF3983EDCF3F9
:10234000869577956795B795F7959F5FC9F7880F3D
:10235000911D9695879597F90895E1E0660F771F8F
:10236000881FBB1F621773078407BA0720F0621B20
:10237000730B840BBA0BEE1F88F7E0950895E89471
:1023800009C097FB3EF490958095709561957F4FBD
:102390008F4F9F4F9923A9F0F92F96E9BB2793956B
:1023A000F695879577956795B795F111F8CFFAF47B
:1023B000BB0F11F460FF1BC06F5F7F4F8F4F9F4FAC
:1023C00016C0882311F096E911C0772321F09EE80A
:1023D000872F762F05C0662371F096E8862F70E070
:1023E00060E02AF09A95660F771F881FDAF7880F4A
:1023F0009695879597F90895990F0008550FAA0BA0
:10240000E0E8FEEF16161706E807F907C0F0121607
:102410001306E407F50798F0621B730B840B950B0A
:1024200039F40A2661F0232B242B252B21F408955F
:102430000A2609F4A140A6958FEF811D811D0895FC
:1024400097F99F6780E870E060E008959FEF80EC67
:10245000089500240A94161617061806090608950A
:1024600000240A9412161306140605060895092E70
:102470000394000C11F4882352F0BB0F40F4BF2BDF
:1024800011F460FF04C06F5F7F4F8F4F9F4F08951F
:1024900057FD9058440F551F59F05F3F71F0479515
:1024A000880F97FB991F61F09F3F79F087950895FA
:1024B000121613061406551FF2CF4695F1DF08C019
:1024C000161617061806991FF1CF86957105610536
:1024D00008940895E894BB2766277727CB0197F9DE
:1024E00008950AD029ED3BE54EED5EE345C00EF0C0
:1024F00023C1ACCF6894A4CFD3DFC8F39923D1F321
:10250000C6F3DF93CF931F930F93FF92C92FDD275D
:1025100088232AF02197660F771F881FDAF720E0BB
:1025200030E040E85FEB9FE3883920F0803E30F0F8
:1025300021968F7754DEE8E6F0E003C050DEE5E94F
:10254000F0E008D18B01BE01EC01FB2E6F57710941
:102550007595771F880B990B14DF28E132E741E36B
:102560005FE316D0AF2D9801AE01FF900F911F9140
:10257000CF91DF9145DE7BCF0BD079CF6ADF28F09A
:102580006FDF18F0952309F05BCF60CF1124A3CF44
:102590007FDFA0F3959FD1F3950F50E0551F629F09
:1025A000F001729FBB27F00DB11D639FAA27F00DAC
:1025B000B11DAA1F649F6627B00DA11D661F829FD3
:1025C0002227B00DA11D621F739FB00DA11D621FB8
:1025D000839FA00D611D221F749F3327A00D611DD5
:1025E000231F849F600D211D822F762F6A2F1124B7
:1025F0009F5750408AF0E1F088234AF0EE0FFF1F0A
:10260000BB1F661F771F881F91505040A9F79E3F40
:10261000510570F015CF5FCF5F3FECF3983EDCF3D0
:10262000869577956795B795F795E7959F5FC1F77D
:10263000FE2B880F911D9695879597F90895FA01BD
:10264000EE0FFF1F30962105310599F161157105D7
:1026500061F48038BFE39B0749F1689490388105A5
:1026600061F08038BFEF9B0741F0992342F5FF3FAF
:10267000E1053105210511F1E8940894E795D901A8
:10268000AA2329F4AB2FBE2FF85FD0F310C0FF5F51
:1026900070F4A695E0F7F73950F019F0FF3A38F4E6
:1026A0009F779F930CD00F9007FC905808953EF0B1
:1026B000CDCE60E070E080E89FE308954FE79F771C
:1026C0005F934F933F932F9317DF2F913F914F913C
:1026D0005F9152DF05C019F40EF0B2CEFBCEB6CE3C
:1026E000DFDEC8F39638C0F707F80F92E8942BE3C3
:1026F0003AEA48EB5FE74EDF0F920F920F924DB729
:102700005EB70F9289D0E2ECF0E024D04F915F9158
:10271000EF91FF91E595EE1FFF1F49F0FE57E0682E
:102720004427EE0F441FFA95E1F74195550B40D031
:102730000F9007FE34C008959F3F31F0915020F470
:10274000879577956795B795880F911D969587958D
:1027500097F90895DF93CF931F930F93FF92EF9212
:10276000DF927B018C01689405C0DA2EEF0110DF47
:10277000FE01E894A5912591359145915591AEF3CF
:10278000EF013EDDFE019701A801DA9479F7DF90B1
:10279000EF90FF900F911F91CF91DF9108959B01D2
:1027A000AC0160E070E080E89FE381CD49CEC4CF0A
:1027B00077DEE8F39923D9F3940F511DBBF39150C1
:1027C000504094F059F0882332F0660F771F881F2D
:1027D00091505040C1F79E3F510544F7880F911D1D
:1027E0009695879597F908955F3FACF0983E9CF0D9
:1027F000BB27869577956795B79508F4B160939553
:10280000C1F7BB0F58F711F460FFE8CF6F5F7F4F40
:102810008F4F9F4FE3CF5FCEFA01DC01AA0FBB1FA2
:102820009B01AC01BF5728F4222733274427507857
:102830001FC0B75188F4AB2F0024469537952795D4
:10284000011CA395D2F3002069F0220F331F441F0F
:10285000B395DAF30DD0C2CC61307105A0E88A07D8
:10286000B94630F49B01AC0166277727882790781A
:10287000309621F020833183428353830895A1E26F
:102880001A2EAA1BBB1BFD010DC0AA1FBB1FEE1FEA
:10289000FF1FA217B307E407F50720F0A21BB30B35
:1028A000E40BF50B661F771F881F991F1A9469F7B1
:1028B00060957095809590959B01AC01BD01CF010D
:1028C000089597FB092E05260ED057FD04D0D7DFBB
:1028D0000AD0001C38F450954095309521953F4F13
:1028E0004F4F5F4F0895F6F79095809570956195DD
:1028F0007F4F8F4F9F4F08952F923F924F925F923D
:102900006F927F928F929F92AF92BF92CF92DF92FF
:10291000EF92FF920F931F93CF93DF93CDB7DEB764
:10292000CA1BDB0B0FB6F894DEBF0FBECDBF0994F8
:102930002A88398848885F846E847D848C849B844F
:10294000AA84B984C884DF80EE80FD800C811B815D
:10295000AA81B981CE0FD11D0FB6F894DEBF0FBE8C
:10296000CDBFED010895283008F027E03327DA01C4
:10297000990F311D87FD916000966105710539F44D
:1029800032602E5F3D9330E32A95E1F708959F3F33
:1029900030F080387105610509F03C5F3C5F3D9384
:1029A000913008F08068911DDF93CF931F930F93B0
:1029B000FF92EF92192F987F9695E92F969596950D
:1029C000E90FFF27E756FE4F99273327EE24FF2410
:1029D000A701E70105900894079428F4360FE71E35
:1029E000F81E491F511D660F771F881F991F0694F7
:1029F000A1F70590079428F4E70EF81E491F561F0B
:102A0000C11D770F881F991F661F0694A1F70590B7
:102A1000079428F4F80E491F561FC71FD11D880FB1
:102A2000991F661F771F0694A1F70590079420F45D
:102A3000490F561FC71FD81F990F661F771F881F82
:102A40000694A9F784911095177041F0D695C79513
:102A500057954795F794E7941A95C1F7EFE3F1E09E
:102A600068941590159135916591959105907FE247
:102A70007395E118F10A430B560BC90BD009C0F747
:102A8000E10CF11E431F561FC91FD01D7EF4703389
:102A900011F48A95E6CFE894015030F0080F0AF45B
:102AA0000027021708F4202F2395022F7A3328F0ED
:102AB00079E37D932A95E9F710C07D932A9589F6ED
:102AC000069497956795379517951794E118F10A2D
:102AD000430B560BC90BD00998F023957E91739543
:102AE0007A3308F070E37C932013B8F77E9170611D
:102AF0007D9330F0839571E37D9370E32A95E1F740
:102B00001124EF90FF900F911F91CF91DF919927A2
:102B100087FD90950895911155C1803219F0895023
:102B20008550D0F708959111089581548A5108F481
:102B3000805E855A0895FC010590061621F000205C
:102B4000D9F7C00108953197CF010895FC01059090
:102B5000615070400110D8F7809590958E0F9F1F9F
:102B60000895FC016150704001900110D8F78095E4
:102B700090958E0F9F1F0895CF93DF93EC014B81AB
:102B800040FF1AC046FF0AC04F7B4B838E819F8156
:102B900001969F838E838A81282F2BC042FF13C00A
:102BA000E881F9818081282F332727FD3095211571
:102BB000310529F440624B832FEF3FEF1BC0319664
:102BC000F983E88311C0EA85FB85CE0109959C0154
:102BD00097FF0AC09B812F5F3F4F11F080E201C039
:102BE00080E1892B8B83E8CF8E819F8101969F8323
:102BF0008E8330E0C901DF91CF9108950F931F9329
:102C0000CF93DF938C01EB018B8181FF1BC082FF8F
:102C10000DC02E813F818C819D812817390764F476
:102C2000E881F9810193F983E88306C0E885F98595
:102C3000802F0995892B31F48E819F8101969F8386
:102C40008E8302C00FEF1FEFC801DF91CF911F915C
:102C50000F910895A0E0B0E0E0E3F6E10C948C144D
:102C6000FE013596619171918091520290915302CB
:102C7000AF010E9456092096E2E00C94A814A0E04F
:102C8000B0E0E5E4F6E10C948C14FE013596619118
:102C900071918091500290915102AF010E94C30F37
:102CA0002096E2E00C94A8149C01FB01838180FF34
:102CB00011C086FD0FC09FEF2F3F390759F02283C7
:102CC00080648F7D83838681978101979783868334
:102CD00030E002C02FEF3FEFC9010895FA01AA27A3
:102CE000283051F1203181F1E8946F936E7F6E5F4F
:102CF0007F4F8F4F9F4FAF4FB1E03ED0B4E03CD0FD
:102D0000670F781F891F9A1FA11D680F791F8A1FDF
:102D1000911DA11D6A0F711D811D911DA11D20D046
:102D200009F468943F912AE0269F11243019305D00
:102D30003193DEF6CF010895462F4770405D4193F1
:102D4000B3E00FD0C9F7F6CF462F4F70405D4A333E
:102D500018F0495D31FD4052419302D0A9F7EACF06
:102D6000B4E0A6959795879577956795BA95C9F735
:102D700000976105710508959B01AC010A2E069428
:102D80005795479537952795BA95C9F7620F731FE1
:102D9000841F951FA01D0895F999FECF92BD81BD96
:102DA000F89A992780B50895262FF999FECF1FBA72
:102DB00092BD81BD20BD0FB6F894FA9AF99A0FBE64
:0E2DC00001960895992788270895F894FFCF6B
:102DCE000D0A0020452D0020452B00523F202020CB
:102DDE0020000D0A5043425F4120286D696E695FE5
:102DEE004F5329206465766963652063616C69625F
:102DFE00726174696E67000D0A4F534343414C2054
:102E0E00757365722076616C7565202020000D0A41
:102E1E0063616C6962726174696F6E206572726F44
:102E2E007220200020204F4B0D0A0050726F6A65F1
:102E3E00637420636F6D6D656E746172793A2050A4
:102E4E00726573732027582720746F206573636132
:102E5E007065206F7220414F4B0D0A0053656C65F3
:102E6E00637420392E366B20626175642072617432
:102E7E00652C207468656E20414B20746F20636F43
:102E8E006E74696E7565000D53656E6420646174B1
:102E9E00612066696C650D41726974686D6574694F
:102EAE0063206D65616E0947656F6D657472696348
:102EBE00206D65616E092064617461206974656DB1
:102ECE007300256C66000A25672020000909256716
:102EDE0020200009092564202000000000020000C7
:102EEE0000001206000000000000000100000000BB
:102EFE00000023060000000000010000000000009A
:042F0E003C0700007C
:00000001FF
