:100000000C9434000C9451000C9451000C94510049
:100010000C9451000C9451000C9451000C9451001C
:100020000C9451000C94E6030C9451000C94510074
:100030000C9451000C945F040C9451000C945100EA
:100040000C9451000C9451000C9451000C945100EC
:100050000C9451000C9451000C9451000C945100DC
:100060000C9451000C94510011241FBECFEFD4E02A
:10007000DEBFCDBF12E0A0E0B1E0E2EEFEE002C0E4
:1000800005900D92A63CB107D9F713E0A6ECB2E0BB
:1000900001C01D92A539B107E1F70E94DB050C9460
:1000A0006F070C94000020E030E003C000002F5FD9
:1000B0003F4F82179307D4F7089566BD85BDA89B6F
:1000C000FECFA89A15BC08950F931F93CF93DF938B
:1000D0008C01C0E0D0E005C085E062EB0E945D00CD
:1000E0002196C017D107C4F3DF91CF911F910F91D3
:1000F000089570938500609384009FEF96BB809372
:100100008100B09BFECFB09A1092810008950F93AA
:100110001F93182F062F85E062EF7CEF0E94790075
:10012000E1ECF0E010821093C5000093C40082E07F
:100130008093C00088E1808386E08093C2001F9195
:100140000F9108958091C00087FFFCCF8091C60079
:1001500008958091C6000895982F20E030E00DC0EA
:100160002F5F3F4F8FE1213438071CF0915020E082
:1001700030E0992311F480E008958091C00087FF5A
:10018000EFCF81E008958091C00087FFFCCF809180
:10019000C6008D3011F08A3051F481E00E94AC002D
:1001A000882311F48DE008958091C6008DE00895B4
:1001B000982F8091C00085FFFCCF9093C6000895D2
:1001C000AC0120E030E0FA01E20FF31FE081EE2302
:1001D00059F02F5F3F4F8091C00085FFFCCFE09327
:1001E000C600283C310579F7089580E091E00E942F
:1001F000E00008952F923F924F925F926F927F920C
:100200008F929F92AF92BF92CF92DF92EF92FF9226
:100210000F931F93CF93DF93EC015A016B01403092
:1002200080E0580780E0680780E8780751F52A30B9
:1002300021F0203109F06CC014C028E3288394E336
:10024000998386E38A8383E38B832C839D8387E36F
:100250008E839F8381E3888782E389878DE28A8703
:100260000EC080E3888389838A838B838C838D830C
:100270008E8388E38F838DE2888719861A861B8692
:1002800047C080E090E0FE01E80FF91F1082019660
:100290008C309105C1F786017501D7FE07C0EE24A9
:1002A000FF248701EA18FB080C091D094E0166248A
:1002B0007724222E332444245524C801B701A201F7
:1002C00091010E941C07F40160836A3010F4605DA4
:1002D00002C0695CF40160830894611C711CC80150
:1002E000B701A20191010E941C07C901DA017C013A
:1002F0008D010894811C911C1E141F041006110608
:10030000E4F2D7FE05C06C0E7D1E8DE2F301808302
:10031000DF91CF911F910F91FF90EF90DF90CF90E1
:10032000BF90AF909F908F907F906F905F904F9015
:100330003F902F900895AC0120E030E002C02F5F85
:100340003F4FFA01E20FF31F80818823C1F721504C
:100350003040FA01E20FF31F2F5F3F4F0AC0908138
:100360008091C00085FFFCCF9093C60021503040A3
:1003700031972115310599F708950F931F93DF9356
:10038000CF93CDB7DEB72C970FB6F894DEBF0FBE74
:10039000CDBF282F8E010F5F1F4FC8010E94FA00AA
:1003A000C8010E949B012C960FB6F894DEBF0FBEC9
:1003B000CDBFCF91DF911F910F91089590E08053B1
:1003C0008A3008F491E0892F0895982F80538A305D
:1003D00010F481E0089580E0983709F481E00895F1
:1003E000DF92EF92FF920F931F938091C00087FFDF
:1003F000FCCF1091C600012F00530A3018F01837B7
:10040000A1F730C0183771F10E94F5008091C0004B
:1004100085FFFCCF1093C600E02EFF2400E010E023
:100420000E94C300982F8D30D9F080EDD82ED90EC0
:1004300089E08D15A8F38091C00085FFFCCF9093D3
:10044000C600C801B7012AE030E040E050E00E9459
:10045000FD067B018C01ED0CF11C011D111DE0CF8F
:100460008E2D01C088E71F910F91FF90EF90DF90D4
:1004700008951092850010928400109281001092CD
:10048000B1008091B60080FDFCCF1092B000809149
:10049000B60081FDFCCF1092B2008091B60084FDC1
:1004A000FCCF089581E08093B1008091B60080FD7B
:1004B000FCCF81E0809381000895BF92CF92DF92BC
:1004C000EF92FF920F931F93582F623021F486E032
:1004D00034E0B32E09C0653021F48FE02AE0B22E5B
:1004E00003C082E0BB24B3941092D7021092D602CC
:1004F000109291031092920310929303109294031E
:10050000282F30E08091D6029091D702821793076E
:10051000CCF31092D7021092D602C0909103D090E3
:100520009203E0909303F0909403442351F4F7FE78
:1005300008C0F094E094D094C094C11CD11CE11C7C
:10054000F11C552301F100918E0310918F03000FD0
:10055000111F000F111F06521D4F2B2D30E040E0E0
:1005600050E0C701B6010E941C07F80120833183C7
:100570004283538380918E0390918F0301969093D1
:100580008F0380938E032B2D30E040E050E0C701B5
:10059000B6010E941C07CA01B9011F910F91FF907B
:1005A000EF90DF90CF90BF9008957F928F929F92AF
:1005B000AF92BF92CF92DF92EF92FF920F931F9371
:1005C000CF93DF936B01EA01490158017E2C7C0136
:1005D0000027F7FC0095102F1AC0F6018081809348
:1005E000660080E0672D40E00E945D02F4016083B8
:1005F0007183828393836E157F058007910754F082
:10060000F60180818150808388818F5F8883888113
:10061000843118F38881843128F480916600F501D3
:10062000808304C0F501808180936600DF91CF91C3
:100630001F910F91FF90EF90DF90CF90BF90AF9000
:100640009F908F907F9008954F925F926F927F92CC
:100650008F929F92AF92BF92CF92DF92EF920F93C1
:100660001F93DF93CF93CDB7DEB727970FB6F894DC
:10067000DEBF0FBECDBF1B828091C1008F7E8093F5
:10068000C10085E06DE771EE0E947900789411E079
:100690001093C802809170008160809370008091F7
:1006A0006F00816080936F000E9439021093B10047
:1006B0008091B60080FDFCCF81E08093810081EFC6
:1006C00089831EE28091C00085FFFCCF1093C60095
:1006D000898181508983809366006091C80280E09F
:1006E00040E00E945D029B01AC016C837D838E83A0
:1006F0009F838981813E30F7285E334040405040DF
:100700000CF7809166008B831A8285E08093C80283
:1007100078EEC72E73E0D72E62E0462E512C4C0E99
:100720005D1E54E0652E712C6C0E7D1E43E0842E00
:10073000912C8C0E9D1E5E010894A11CB11C8CE9AD
:100740009FEFC80ED91EE090C802C601B501A201F4
:10075000930184010E94D50294E6C916D10479F769
:100760006091C80280E040E00E945D026C837D835E
:100770008E839F83809166008093D5020E94390208
:10078000809170008E7F8093700080916F008E7FCB
:1007900080936F008091C10080618093C100F894C4
:1007A00027960FB6F894DEBF0FBECDBFCF91DF9175
:1007B0001F910F91EF90DF90CF90BF90AF909F90DF
:1007C0008F907F906F905F904F9008951F920F923F
:1007D0000FB60F921124EF92FF920F931F932F9356
:1007E0003F934F935F938F939F93AF93BF931092D9
:1007F00081004091840050918500109285001092F4
:10080000840081E0809381002091D6023091D7024C
:100810008091C80290E028173907ACF18091C90295
:10082000813019F0823039F40AC0E12CF12CB1E0AA
:100830000B2F112D09C0EE24FF24870105C0E12CE8
:10084000F12CA2E00A2F112D809191039091920337
:10085000A0919303B09194038452944FA040B04070
:100860009A0140E050E0820F931FA41FB51F8E0D28
:100870009F1DA01FB11F8093910390939203A0939B
:100880009303B09394031092C9028091D602909181
:10089000D70201969093D7028093D602BF91AF9171
:1008A0009F918F915F914F913F912F911F910F9148
:1008B000FF90EF900F900FBE0F901F9018951F9212
:1008C0000F920FB60F9211248F938091C9028F5F00
:1008D0008093C9028F910F900FBE0F901F901895B3
:1008E00083E091E00E94E0008091C6029091C702EF
:1008F00001970E945907482F50E060E070E08AE0BD
:100900000E94BD018091C00085FFFCCF89E08093EB
:10091000C6008091C6029091C70202970E945907B3
:10092000482F50E060E070E08AE00E94BD018EE157
:1009300091E00E94E0008091C6029091C702039767
:100940000E945907482F50E060E070E08AE00E9462
:10095000BD018FE291E00E94E00008951F93182FDF
:100960008091C6029091C7020197612F0E94610792
:100970008091C6029091C7020297612F0E94610781
:100980008091C6029091C70203976091CA020E94AB
:1009900061071F910895EF92FF920F931F93CF93DA
:1009A000DF938091C1008F7E8093C10081E491E04C
:1009B0000E94E00085E06CED0E945D00789410924A
:1009C0008F0310928E0385E08093C802809170009F
:1009D00081608093700080916F00816080936F00D0
:1009E0000E94390281E08093B1008091B60080FDC1
:1009F000FCCF81E0809381008091660084518093D8
:100A00006600E0906600C0E0D0E06091C80281E03E
:100A100041E00E945D02809166008F5F80936600D6
:100A20002196C932D10589F78091D502809366005D
:100A30000E943902809170008E7F809370008091B7
:100A40006F008E7F80936F000E94F50087E691E033
:100A50000E94E000CAEDD2E019E005E24E2D50E020
:100A600060E070E08AE00E94BD01E3948091C000E4
:100A700085FFFCCF1093C600488159816A817B8134
:100A80008AE00E94BD018091C00085FFFCCF1093D9
:100A9000C600688179818A819B8121E732E040E04C
:100AA00050E00E941C078AE0BA01A9010E94BD0122
:100AB0008091C00085FFFCCF0093C6000E94F50026
:100AC00085E064E60E945D00249683E0CE37D80777
:100AD00029F687E791E00E94E0008091C1008061E3
:100AE0008093C1000E94F00180939003883729F41D
:100AF0008091D5028093900350C0809170008160F6
:100B00008093700080916F00816080936F000E94DD
:100B1000390281E08093B1008091B60080FDFCCF66
:100B200081E080938100809190038093660085E04E
:100B30008093C8026091C80280E040E00E945D029C
:100B40006091C80280E040E00E945D026091C802AE
:100B500080E040E00E945D027B018C010E9439022E
:100B6000809170008E7F8093700080916F008E7FE7
:100B700080936F0087EDE81686E0F80680E00807AE
:100B800080E0180754F08091D5028093660080932E
:100B9000900381EA91E00E94E000F8948091900334
:100BA0000E94AE040E947004DF91CF911F910F91BB
:100BB000FF90EF900895A89584B7877F84BF8091B8
:100BC00060008861809360001092600080E069E1BD
:100BD0000E94870080E090E0000001968B30910534
:100BE000D9F780917C00806480937C0081E090E064
:100BF0000E94640085B78F7E85BF14B817B81AB8F5
:100C00008FEF85B988B98BB980E28093B600809167
:100C100066008093CA020E94240383EC91E00E9444
:100C2000E0008091AD029091AE029093CC0280934F
:100C3000CB028091B5029091B6029093CE02809340
:100C4000CD028091BC029091BD029093D00280931E
:100C5000CF028091C3029091C4029093D2028093FC
:100C6000D1028091C00087FFFCCF8091C600282F61
:100C700030E02053304021303105F1F02230310591
:100C80001CF4232B41F034C022303105C1F0233055
:100C9000310571F51DC080E090E49093D9028093F6
:100CA000D80280E094E09093C7028093C60210922D
:100CB000D4021092D3021CC080E090E202C080E017
:100CC00090E19093D9028093D80280E092E008C02E
:100CD00080E098E09093D9028093D80280E091E080
:100CE0009093C7028093C6023093D4022093D3021C
:100CF0008CE292E00E94E000E091D302F091D402F5
:100D0000EE0FFF1FE553FD4F808191810E94E000AF
:100D10000E94F5008091D5020E94AE0482E492E028
:100D20000E94E0004091D50250E060E070E08AE06F
:100D30000E94BD0186E592E00E94E0008091C00023
:100D400087FFFCCF8091C600883739F48091D502A7
:100D50000E94AE040E94700402C00E94CB0484E88A
:100D600092E00E94E00083E091E00E94E0008FEFBB
:100D700093E00E945907482F50E060E070E08AE05D
:100D80000E94BD018091C00085FFFCCF89E0809367
:100D9000C6008EEF93E00E945907482F50E060E0B4
:100DA00070E08AE00E94BD018EE191E00E94E000C7
:100DB0008DEF93E00E945907482F50E060E070E00B
:100DC0008AE00E94BD018FE291E00E94E0008BE882
:100DD00092E00E94E0008091C00087FFFCCF8091EC
:100DE000C60029E088E190E00FB6F894A8958093BA
:100DF00060000FBE20936000FFCF629FD001739F01
:100E0000F001829FE00DF11D649FE00DF11D929FA6
:100E1000F00D839FF00D749FF00D659FF00D9927E5
:100E2000729FB00DE11DF91F639FB00DE11DF91F09
:100E3000BD01CF011124089597FB092E05260ED080
:100E400057FD04D014D00AD0001C38F450954095BA
:100E5000309521953F4F4F4F5F4F0895F6F790958E
:100E60008095709561957F4F8F4F9F4F0895A1E2B8
:100E70001A2EAA1BBB1BFD010DC0AA1FBB1FEE1F14
:100E8000FF1FA217B307E407F50720F0A21BB30B5F
:100E9000E40BF50B661F771F881F991F1A9469F7DB
:100EA00060957095809590959B01AC01BD01CF0137
:100EB0000895F999FECF92BD81BDF89A992780B522
:100EC0000895262FF999FECF1FBA92BD81BD20BD8E
:100ED0000FB6F894FA9AF99A0FBE01960895F8940D
:020EE000FFCF42
:100EE2000D0A000D0A56616C756573207361766593
:100EF2006420746F20454550524F4D202000095503
:100F02007365722076616C75650D0A09090900091D
:100F12000944656661756C742076616C75650D0AAD
:100F2200000D0A4D616E75616C2063616C3A207030
:100F32006C65617365207761697420352073656320
:100F42006F6E64730D0A004F534343414C092045B1
:100F520072726F720D0A000D0A456E746572206E10
:100F6200657720757365722063616C2076616C759C
:100F720065206F72207820746F20657363617065DD
:100F820000094368616E67652072656A656374650E
:100F9200643A206572726F7220746F6F2067726597
:100FA2006174000D0A4175746F5F63616C20727524
:100FB2006E6E696E673A0D0A4465766963652062F2
:100FC20065696E672063616C696272617465643F12
:100FD20020507265737320302C20312C20322C204B
:100FE2003320666F722041746D6567612033323839
:100FF2002F502C203136382F502C2038382F5020AB
:101002006F722034382F500D0A0D0A000D0A436109
:101012006C6962726174696E672041746D656761A3
:1010220020000D0A4E6577204F534343414C2076F2
:10103200616C756520000D0A507265737320277804
:101042002720746F2066696E6E697368206F722044
:10105200414F4B20666F72206D616E616C2063613F
:101062006C0D0A000D0A54657374000D0A416C6C14
:1010720020646F6E653A20414B20746F2072657058
:101082006561742E0D0A003332382F5000A70231E9
:1010920036382F5000AF0238382F5000B70234389C
:0610A2002F5000BE020009
:00000001FF
